:100000005DC000008FC000008DC000000C94D809B6
:100010000C94D5090C94D20985C000000C94220AD6
:1000200081C000007FC000007DC000007BC00000D8
:1000300079C0000077C0000075C000000C94A109D1
:1000400071C000006FC000006DC000006BC00000F8
:1000500069C0000067C0000065C0000063C0000008
:1000600061C000005FC000005DC000005BC0000018
:1000700059C0000057C0000055C000004D4C41332E
:1000800030004D61696C626F7800436F6E7461631C
:1000900074203300436F6E74616374203200436FC9
:1000A0006E746163742031005600566363001F1C38
:1000B0001F1E1F1E1F1F1E1F1E003C0A11241FBED5
:1000C000CFEFCDBFDFE3DEBF8091400080934000E3
:1000D000811105C098ED21E094BF209341008CBBB5
:1000E00018E3A0E0B8E3E6E8F7E202C005900D925D
:1000F000AE30B107D9F728E3AEE0B8E301C01D92F6
:10010000AF39B207E1F710E0CEE5D0E004C02197A7
:10011000FE010E948F10CD35D107C9F70E948C0ACD
:100120000C9466136DCF8FEF9FE18093713890939D
:10013000723808959FB7F89488E08093840A80917C
:100140008E0A81FFFCCF80918D0AE091A20AF09186
:10015000A30A20914B3830914C3840914D38509142
:100160004E389FBF80FF07C0E730F10520F42F5FB6
:100170003F4F4F4F5F4FAEEFB1E00E9495106E0FB3
:100180007F1F811D911D22E0660F771F881F991F19
:100190002A95D1F70895CF92DF92EF92FF92CF93F5
:1001A000DF936B017C01C6DFEB01C4DF6C1B7D0BB1
:1001B000683E7340A0F0C114D104E104F10439F4A5
:1001C000DF91CF91FF90EF90DF90CF90089581E085
:1001D000C81AD108E108F108C851DC4FE6CFC114B4
:1001E000D104E104F10409F7EBCF90E0FC01E05306
:1001F000F94520812F3F69F186509945FC018081A6
:10020000E82FE295EE0FE07EE20FF0E0E05FFB4FBB
:100210009081917F908390E0FC0134E0EE0FFF1F0E
:100220003A95E1F7422F50E061E070E001C0660FBF
:100230002A95EAF76383880F991FFC01EE5FF74C5C
:10024000440F551F0190F081E02DE40FF51F10823F
:1002500011820895CF93DF93282F30E0F901E05306
:10026000F94590819F3F89F1A2E0443009F4A1E073
:1002700026503945E901E881F0E0EF01CC0FDD1FA0
:10028000CE5FD74C2881398121153105F1F06115F8
:100290007105D9F0492F50E0440F551F240F351F29
:1002A000E901688379834FB7F8949F0155E0220FE5
:1002B000331F5A95E1F7E0E1E90FE20FF0E0FC5F50
:1002C0008081887F8A2B80834FBFDF91CF910895F3
:1002D000FB019081A82FB0E0BC5E8C91981769F06B
:1002E000E0E0F0E10FB622812370E9F7F8949C93E7
:1002F0009DE994BF93E090830FBECB010895FB016D
:10030000908180915738981320C080915538882368
:10031000E1F082818E3FC9F483818770863051F489
:100320008481811112C085818093573867E578E315
:1003300080E0CECF873049F481818093563866E5DE
:1003400078E381E0C5DF109255380895DC0192967C
:10035000ED91FC919397309721F019968D919C9196
:10036000099484E897EA089508950895CF92DF925A
:10037000EF92FF92CF93DF93EC016A017B016989D1
:100380007A89072E000C880B990B0E943E0FA7015B
:1003900096010E94EE0F0E940B0FAB01BC01E88199
:1003A000F9810084F185E02DCE01DF91CF91FF909E
:1003B000EF90DF90CF900994462F50E070E060E01E
:1003C000DC01ED91FC910084F185E02D0994FC01A4
:1003D0004187528763877487089584E897EA089570
:1003E000CF92DF92EF92FF92CF93DF93EC0169857A
:1003F0007A858B859C850E943E0F6B017C01698903
:100400007A89072E000C880B990B0E943E0F9B01E6
:10041000AC01C701B6010E94A30EDF91CF91FF90FE
:10042000EF90DF90CF90089521E0FC0181859285C7
:10043000A385B485892B8A2B8B2B09F420E0822F8E
:100440000895FC0161857285838594850895282F20
:1004500030E08231A8F4F901E25EF84580818F3FF7
:1004600079F026503945D901EC91B0E2EB9FF001CB
:100470001124FC5F9085982381E019F480E00895B1
:100480008FEF0895CF93DF93EC01EC8DFD8D3097C6
:1004900029F1099590E0B0E0A0E089879A87AB87C1
:1004A000BC878A8D9B8D8230910589F589859A85D7
:1004B000AB85BC854D855E856F8578894817590762
:1004C0006A077B0741F0892B8A2B8B2B21F41D8631
:1004D0001E861F86188ADF91CF910895898D2A8DF7
:1004E0003B8D2130310561F4B2DF51E040E030E076
:1004F00020E0811150E0852F942FA32FB22FCDCF74
:10050000A6DF082E000C990BAA0BBB0BC6CF0397D6
:1005100011F789859A85AB85BC854D855E856F858C
:100520007889481759076A077B07A9F28130910536
:10053000A105B10581F68D879E87AF87B88BCBCF9C
:10054000CF93DF93823108F047C090E0EC01C25EA8
:10055000D84528812F3F09F43FC0AC01465059458A
:10056000DA01EC91B0E2EB9FF0011124FC5F611124
:1005700036C0268330812323A1F49C0120533945C2
:10058000D9012C91309769F1283058F57096E20F17
:10059000F11D3FB7F8942081611126C0277F208389
:1005A0003FBF845F9845FC0190819923A9F0888121
:1005B000903409F19038E1F0903171F4DA019C91B6
:1005C0009130A1F4853010F0880F82959091010A46
:1005D000809589238093010ADF91CF910895258327
:1005E000C9CFF0E0E0E0D5CF2860D9CF880FEECFBB
:1005F0001092A006F1CF20E4823009F420E8909117
:10060000920A922349F36FB7F8949091800A9E7FE3
:100610009093800A4091920A30E02095309550E006
:100620002423352398ED94BF2093920A90918E0A4B
:1006300090FFFCCF9091800A91609093800A813066
:1006400039F4809150048F77809350046FBFC4CFEA
:10065000809151048F7780935104F8CF0F931F93AB
:10066000CF93DF93EC01062F142F60E0898568DFBC
:10067000EB85FC859F8188852085222319F02FB783
:100680002187F89421E02287909320088093210805
:100690000000009324088091230887FFFCCF8091FD
:1006A00024080000109324088091230887FFFCCFC2
:1006B00010912408EB85FC858285882331F0128611
:1006C0008085882311F081858FBF61E0898538DFBF
:1006D000812FDF91CF911F910F91089540E861E83C
:1006E000BDCF41E861E8BACF40E0B8CFCF92DF920A
:1006F000EF92FF92CF93DF936DE182E898E3F4DF0E
:1007000090E034E0959587953A95E1F78A30910528
:100710000CF03FC0FC01EE0FFF1FE80FF91FE05D7A
:10072000F845C080D180E2800E2C000CFF086EE1FD
:1007300082E898E3D9DFD82F66E282E898E3D4DF35
:10074000C82FD295DF7021E030E040E050E004C0D7
:10075000220F331F441F551FDA95D2F7C701B60188
:100760000E94731068EE73E080E090E00E947310C6
:1007700021313105410551058CF04C2F486066EA66
:1007800082E898E3DF91CF91FF90EF90DF90CF90D8
:1007900065CFCC24CA94DC2C7601C9CF4C2F477F7F
:1007A000EECFCF93DF93EC0161E09EDF8370833067
:1007B00059F062E1CE0198DF83FF04C048E062E9AE
:1007C000CE014CDF80E001C081E0DF91CF91089540
:1007D000CF92DF92EF92FF920F931F93CF93DF930D
:1007E0008C016AE181DFC82FD0E0F801668577854A
:1007F000808991890E943E0F2AEE36E54AEF5DE43A
:100800000E949F0E87FD44C08DE990E0C81BD90B64
:1008100069E1C80169DF87FD8D5F85958595682F42
:10082000880F770B880B990B0E943E0F6B017C01A0
:1008300020E030E0A9010E949F0E87FF0DC0BE019D
:10084000DD0F880B990B0E943E0FA70196010E94B5
:100850003B0E0E940B0FEB019E01DD0F440B550B6D
:1008600020583F4F4F4F5F4FA4E6B0E00E949510D5
:1008700026E730E040E050E00E947310C901DF91AC
:10088000CF911F910F91FF90EF90DF90CF9008953F
:1008900084EA90E0BBCFCF92DF92EF92FF920F936A
:1008A0001F93CF93DF937C01C62EC72FD42E63E115
:1008B0001BDFD82F0C2D1C2FC0E0CD1751F0CD150C
:1008C00041F060E0C70110DFCF5FF80181938F0135
:1008D000F4CF8C2F90E0DF91CF911F910F91FF907B
:1008E000EF90DF90CF9008951F93CF93DF93EC01AB
:1008F000009759F1469710F0C5E1D0E01C2F4C2F1E
:1009000064E378E382E898E3C6DF30E02AE52197E4
:10091000832F90E08C179D073CF48C5C974CFC0176
:100920008081280F3F5FF4CF8091483828130DC095
:10093000E0913238F0913338309739F064E378E35E
:10094000812FDF91CF911F910994DF91CF911F915A
:1009500008950F931F93CF93DF93EC0162E1C4DE00
:10096000182F482F62E9CE0179DE15FD23C016FF4E
:1009700016C063E1CE01B8DE082F10E060E1CE01C1
:10098000B3DE482F6DE8CE0169DEEA81FB81309746
:1009900089F0C801DF91CF911F910F91099413FF46
:1009A00009C0EC81FD81309729F0DF91CF911F9133
:1009B0000F910994DF91CF911F910F91089582E8D3
:1009C00098E3C7CFCF93DF93EC0140E060EC46DEC5
:1009D00045E861E8CE0142DE81E090E0DF91CF9111
:1009E000089581E08093743882E898E3EBDFE0912A
:1009F0004938F0914A38309709F009940895AF9238
:100A0000BF92DF92EF92FF920F931F93CF93DF93EA
:100A1000EC015B01D42EE881F981008CF18DE02D91
:100A2000099581110FC0E881F9810084F185E02DDD
:100A3000CE01099540E06DE8CE0110DE40E062EAAB
:100A4000CE010CDE8501ED2CF12CC8018A199B0921
:100A50008E159F0538F4F80141918F0160E8CE01B1
:100A6000FDDDF3CF4D2D62EACE01F8DD8C819D8155
:100A7000892B21F040E460ECCE01F0DD43E861E831
:100A8000CE01ECDDC701DF91CF911F910F91FF9057
:100A9000EF90DF90BF90AF900895FC018AE5848BC2
:100AA000DF019F012C5E3F4F9D918489890F848BCC
:100AB000A217B307C9F71092743845E1BF0182E865
:100AC00098E39DDF80919438882351F080917438A9
:100AD000811106C062E070E080E090E05CDBF2CF64
:100AE0000895DC01E9E5F8E3809156388083809130
:100AF0005738818312968C911297828315969C9118
:100B00001597990F990F990F17968C91890F8383D9
:100B1000CF01C3CFCF93DF93CDB7DEB76597CDBFFE
:100B2000DEBF89836A838EEF8B8328502C8380E11C
:100B3000FA01DE01159601900D928A95E1F7CE013A
:100B40000196ABDF6596CDBFDEBFDF91CF910895F3
:100B50000F931F93CF93DF938C01EB0162317105EB
:100B6000C4F06531710514F0C4E1D0E0239747E883
:100B70006DECC80173DD41E36BE8C8016FDD4C2FFC
:100B80004250406869E8C801DF91CF911F910F91F1
:100B900065CD6230710514F4C2E0D0E044E86DEC3C
:100BA000C8015CDD4BE2E8CF8231F0F490E0FC015B
:100BB000E25EF84520812F3FB9F0FC01E650F9458F
:100BC000E08130E2E39FF0011124FC5F60FF0DC083
:100BD000218380539945DC018C91E80FF11D8089B8
:100BE00061FF05C08860808B08952283F2CF877FE4
:100BF000FACF0F931F93CF93DF93EC01862F4A8395
:100C00004FEF5FEF4B835C834DE050E04D835E839D
:100C100001E010E00F8318871B8A1C8A098B1A8B4E
:100C20002D8B3E8B1F8A188E41EC5DEB60EF7FEFC2
:100C300049875A876B877C874FE352E46FE070E007
:100C40004D875E876F87788B22E537EA2883398363
:100C5000898F0A8F1B8F1C8E1D8E62E0A5DF2A8D67
:100C60003B8D2230310518F51D821E821F821886A9
:100C7000898D21303105A1F4EADB51E040E030E01C
:100C800020E0811150E0852F942FA32FB22F898768
:100C90009A87AB87BC87DF91CF911F910F91089501
:100CA000D6DB082E000C990BAA0BBB0BF0CF88E00B
:100CB00090E08D839E830F83188789859A85AB8505
:100CC000BC858D879E87AF87B88BE5CFCF93DF93A9
:100CD000EC0160E08E8168DF8E81823130F443E088
:100CE0006FED74E0DF91CF91B5CADF91CF91089598
:100CF000FC0164837583672B09F0E8CF868182311C
:100D000008F473CA0895FC0162837383672B09F0AA
:100D1000DDCF8681823108F468CA0895CF93DF93CE
:100D2000EC01EB85FC85809120088E7F8093200864
:100D3000178260E080E138DF60E08FE035DF60E05F
:100D40008EE032DF60E089852FDF8D858F3F21F0D7
:100D500060E0DF91CF9128CFDF91CF9108958F92FE
:100D60009F92AF92BF92CF92DF92EF92FF920F933A
:100D70001F93CF93DF93EC016A017B0161E08985CA
:100D800013DF61E08985DCDB8D858F3F91F061E0C9
:100D90000BDF60E08D85D4DB6AE070E080E090E0FE
:100DA000FAD961E08D85CCDB6AE070E080E090E00C
:100DB000F2D9EB85FC858781811106C010861286E9
:100DC00080E8818781E08783809101028B7F968113
:100DD000892B809301028681811191C061E08EE0B0
:100DE000E3DE61E080E1E0DE8091210884608093B1
:100DF000210880912008816280932008909180389A
:100E000080918138909320088093210862E4CE017C
:100E10006BDC823109F07CC0E881F9810680F781C2
:100E2000E02DCE010995CE86DF86E88AF98A460153
:100E30005701BB0C8808982C54019601A701682D16
:100E4000782D882D982D03E10E94FD10A12CE8E457
:100E5000BE2EF8EECF2EDD24D394E12CF12C00E051
:100E600010E00E94A110F22E832E942EA52EB62EF5
:100E7000C72ED82EE92E00E10E941811422F66E8F5
:100E8000CE01ECDB2F2D382D492D5A2D6B2D7C2DCD
:100E90008D2D9E2D08E00E941811422F67E8CE018B
:100EA000DDDB4F2D68E8CE01D9DB40E06EE8CE01F6
:100EB000D5DB40E06FE8CE01D1DB6CE0CE0114DC85
:100EC000482F43606CE8CE01C9DB44E066EACE01FE
:100ED000C5DBE881F9810084F185E02DCE0109951B
:100EE00081E090E0DF91CF911F910F91FF90EF9003
:100EF000DF90CF90BF90AF909F908F9008958430F7
:100F000009F072CF61E08CE04FDE61E08AE06BCFE8
:100F100090E080E0E7CFCF938FE791E08093323885
:100F2000909333381092493810924A3840E45EE08A
:100F30006FEC79E182E898E312DF892BB9F4109223
:100F40007338C3E061E08CE0FBDA64E670E080E0D7
:100F500090E021D960E08CE0F3DA64E670E080E0B4
:100F600090E019D9C15071F780E04CC084E794E05B
:100F7000809384389093853882E898E3A7DE81EFE8
:100F800094E0809386389093873882E898E39EDED9
:100F90006EE070E082E898E3DBDD43EC61EB82E831
:100FA00098E35CDB4AE067EB82E898E357DB6EE1AD
:100FB00082E898E399DB8F70482F40696EE982E8F8
:100FC00098E34CDB93DB6DE182E898E38DDB8F7077
:100FD000482F40676DE982E898E340DB87DB6DE1ED
:100FE00082E898E381DB817F482F42606DE982E8E7
:100FF00098E334DB82E898E3E5DC81E080937338A2
:1010000080939438CF91089587FD03C08630C0F453
:101010008C5F982F9F77903238F590910006992336
:1010200031F18F718093060681E0809308068091EC
:101030000B0680FFFCCF8091100690911106089559
:10104000813161F092EF980F933010F48D50E1CF21
:10105000883031F0893031F08FEFDBCF80E0D9CFAD
:101060008AE0D7CF8BE0D5CF8FEF92E8089589EF54
:1010700092E80895E0EAF0E081818D7F8183A0E02D
:10108000B6E012968C9112978F7C806512968C93A5
:1010900080E480838DE9B8DF8DE9B6DF9C0150E004
:1010A00040E064E27AE687E190E0FBD720930038E5
:1010B00030930138B90190E080E0DED620E030E0E6
:1010C0004AE754E440C64F925F926F927F928F92AC
:1010D0009F92AF92BF92CF92DF92EF92FF920F93C7
:1010E0001F93CF93DF93CDB7DEB72697CDBFDEBF7B
:1010F0008D839E83DC0159968C91C12CD12C760175
:101100008F3F09F487C01AE0C12CD12C7601ED8104
:10111000FE81818D79DF092E000CAA0BBB0BC80E56
:10112000D91EEA1EFB1E115091F7AD81BE81949627
:101130000D911C91D8011C968D919D910D90BC91A3
:10114000A02D89839A83AB83BC83F80120853185E8
:1011500042855385BC01CD018ED59B01AC016981CF
:101160007A818B819C81EFD54B015C01D80114966B
:101170008D929D92AD92BC92179754964D905D9032
:101180006D907C905797C701B6012AE030E040E0AF
:1011900050E087D7CA01B9016FD6A30192016AD581
:1011A000A50194011BD7A301920165D56B017C01B8
:1011B000F801C08AD18AE28AF38AAC019B01C3019B
:1011C000B20158D59F77D8012D913D914D915C91F9
:1011D00005D72B013C01A501940160E070E080E897
:1011E0009FE348D529813A814B815C81F7D69B01E9
:1011F000AC01C301B2013FD5F801648775878687CA
:101200009787C48AD58AE68AF78AC701B60108D6C5
:101210006B017C01AD81BE819096ED91FC9191971F
:101220000D911C91309761F1D8011C960D911C9184
:10123000AD81BE815E962D913C915F975C964D91FC
:101240005C915D975A966D917C91C6010995AB01B1
:10125000BC018D819E81F8012696CDBFDEBFDF9156
:10126000CF911F910F91FF90EF90DF90CF90BF90A3
:10127000AF909F908F907F906F905F904F90099468
:10128000A0910038B0910138A70196014ED72FEFF9
:1012900033E040E050E005D7BA01A901D801189623
:1012A000ED91FC918D819E812696CDBFDEBFDF91B1
:1012B000CF911F910F91FF90EF90DF90CF90BF9053
:1012C000AF909F908F907F906F905F904F90099418
:1012D000EF92FF920F931F93CF937C01C0917038D0
:1012E0000C2F10E0B8016F5F7F4F660F771F809162
:1012F0006E3890916F380E94671280936E38909389
:101300006F380097D9F0000F111FFC01E00FF11F9B
:10131000E082F182CF5FC09370382C2F30E02150F3
:101320003048220F331F820F931FFC01808191816F
:10133000CF911F910F91FF90EF90089590E080E082
:10134000F7CF8F9381E080938D0A8FB78F93EF93C0
:10135000FF93EBE4F8E39F9368948FEF0FC0E8945A
:1013600084819581885D9F4F84839583885E9340B7
:1013700010F08EEF03C0848395838DEF9081981BCE
:10138000919390819F4F919390819F4F91939081E2
:101390009F4F919326F39F91FF91EF918F918FBF74
:1013A0008F9118950F9304E006C00F9302E003C0DD
:1013B0000F9300E000C00F920FB60F921F921124FE
:1013C000FF921F932F933F934F935F936F937F935E
:1013D0008F939F93AF93BF93CF93DF93EF93FF933D
:1013E000A2E0B8E3A00FB11DCD91DC91000F0D5F1D
:1013F000A02FB0E0FC90109761F01F2D169518F00B
:1014000041F02296FBCFE991F9913097B9F3099514
:10141000F5CFA02FB0E0FC92FF91EF91DF91CF913B
:10142000BF91AF919F918F917F916F915F914F91FC
:101430003F912F911F91FF901F900F900FBE0F9023
:101440000F9118951F920F920FB60F9211248F9340
:101450009F9381E08093530180917138909172380D
:10146000019680937138909372389F918F910F906D
:101470000FBE0F901F90189584E08093813891E300
:101480009093803820E238E0209375383093763896
:1014900010927C382AE637EA2093823830938338DA
:1014A0009093893880938A3810928B3810928C38B8
:1014B00083E080938F3882E08093883885E798E3D3
:1014C00080938D3890938E38109290381092913886
:1014D000109292381092933810929A38109299384C
:1014E0001092983810929538EEEAF0E081E08C3056
:1014F00049F09491823009F49F5F21E0280F3196E2
:10150000992341F08093963881E080939738109228
:1015100094380895822FEBCFCF93DF93CDB7DEB70A
:10152000E097CDBFDEBF97E088ED84BF9093610068
:10153000E0E0F6E080E582838AE0858380E28383D1
:1015400081E08083109202028093030A2EEF2093A1
:10155000260A2093270A9093000AE0E8FAE02DEF8C
:1015600031E026A737A7118290E89283848783E130
:1015700080837894E0E1F4E084E0808380A3DF015D
:10158000A05CBF4F8C933196E83124E0F207A9F7B5
:101590001092120461E08CE007DB60E083E004DB82
:1015A00083E032DD843691050CF042C061E08CE0CE
:1015B0000E94A0022FB7F89480914F389091503834
:1015C000A0915138B09152382FBF81319742A10577
:1015D000B10520F164E670E080E090E00E94CB006D
:1015E00060E08CE00E94A0022FB7F89480914F3801
:1015F00090915038A0915138B09152382FBF81311D
:101600009742A105B10578F064E670E080E090E0D3
:101610000E94CB0081E080935838C2CF6CE271E029
:1016200080E090E0DBCF6CE271E080E090E0F0CF12
:1016300084E0809317042FB7F89480914F389091ED
:101640005038A0915138B09152382FBF8131974214
:10165000A105B10508F4BCC18FEF8093573861E054
:101660008CE00E94A00262E370E080E090E00E94C3
:10167000CB0060E08CE00E94A00262E370E080E0BA
:1016800090E00E94CB0061E08CE00E94A00264E642
:1016900070E080E090E00E94CB0060E08CE00E946F
:1016A000A00262E370E080E090E00E94CB0061E085
:1016B0008CE00E94A002809157388F3F91F48EE118
:1016C000809357381092563867E578E380E00E949F
:1016D000680166E578E381E00E94680181E080931B
:1016E0005838809101148093563886E290E0CAD52C
:1016F000FC0181E082838FEF9FEF8383948381E0FD
:1017000090E0838B948B24E630E0218B328B2AEAA5
:1017100030E0258B368B28EA30E0278B308F41EC88
:101720005DEB60EF7FEF41875287638774874FE3FC
:1017300052E46FE070E0458756876787708B26EE2E
:1017400036EA208331831FEF118F10A211A212A25B
:1017500013A2168E178E148E158E128E138E8583FD
:10176000968382E090E087839087CF01B1DDFC0112
:101770008AE398E080A391A3128E138E148E158EA7
:10178000168E178E8EE190E07DD57C012EE930E03B
:1017900042E061E02EDAC7019BDD8EE190E072D578
:1017A0007C0124E930E043E065E023DAC70190DD05
:1017B0008EE190E067D57C012AE830E044E064E007
:1017C00018DAC70185DD44E063E970E081E00E943A
:1017D0002A0144E063E970E085E00E942A0144E0C8
:1017E00063E970E084E00E942A0161E08AE0DCD9CC
:1017F00061E08AE00E94A00265E070E080E090E095
:101800000E94CB0088DB882309F423C180915838DB
:10181000882309F418C1109356388E010D5D1F4FAF
:10182000FEE0FF2ED801EF2D1D92EA95E9F78EEF2D
:1018300089A38DE08AA383E08BA347E050E062E8B0
:1018400070E0CE01849607D230E020E0AE014F5D1B
:101850005F4F60915738809156385CD9D8011D92FE
:10186000FA94E9F745E050E06CE770E0C801F3D185
:1018700022E030E0AE014F5D5F4F609157388091BC
:10188000563848D91BA227E030E0AE014F5D5F4FCC
:1018900060915738809156383DD9D12C5E01B3E123
:1018A000AB0EB11CAEE0CA2E80917038D81608F08D
:1018B00092C08D2D90E0880F991FE0916E38F091C5
:1018C0006F38E80FF91F00811181F80182818823A8
:1018D00009F47CC0D501EC2D1D92EA95E9F7898BBE
:1018E000D80115968C9115978A8B17968C9117971E
:1018F0008B8B5596ED90FC90C701A4D1AC01552778
:101900004E30510510F04DE050E0B701CE01449645
:10191000A2D130E020E0AE014F5E5F4F60915738BA
:1019200080915638F7D8F8016788708C611471047B
:1019300051F1C30187D14C01892B29F1D8011296AD
:101940008C9189837401FF24A701BFE0EB16F10499
:1019500010F04EE050E0B301CE0103967CD1EDE0F3
:10196000E81538F0E3E0F0E0EC0FFD1FEE0DFF1D91
:10197000108221E030E0AE014F5F5F4F6091573839
:1019800080915638C7D8D801ED91FC910288F3892F
:10199000E02DC8010995F5012C2D11922A95E9F742
:1019A000D80112968C911297898B15968C91159768
:1019B0008A8B17968C918B8B27E030E0AE014F5EBF
:1019C0005F4F6091573880915638A4D8D3946CCF2C
:1019D0008091001442CE81E08093553863E0C62E9A
:1019E000D12CE12CF12C812C912C54018A949394CC
:1019F00080915538882369F12FB7F89460914F385A
:101A00007091503880915138909152382FBFA70172
:101A1000960147D3CA01B901A501940142D36F5F72
:101A2000710977FF03C0719561957109603871057F
:101A300044F460E08CE00E94A00261E08CE0B4D845
:101A4000D7CF61E0F7CF62E370E080E090E00E94E2
:101A5000CB0080915000897F8460809350008091FA
:101A60005000816080935000F89480914101811171
:101A7000FCCF1092470181E08093520181E780936F
:101A80005001789460E08CE00E94A0024DE5E42EC5
:101A900048E3F42E50E1C52E80917338882309F471
:101AA0009BC061E08CE00E94A00210E08091703841
:101AB0001817A8F4812F90E0880F991FE0916E38D5
:101AC000F0916F38E80FF91F80819181DC01ED9171
:101AD000FC910088F189E02D09951F5FE7CFD12C9B
:101AE00080917038D81608F073C08D2D90E0880F63
:101AF000991FE0916E38F0916F38E80FF91F00815F
:101B00001181F801418552856385748585859685A7
:101B1000841B950B97FF03C0919581959109D8017E
:101B200053962D913C915497281739070CF032C0E9
:101B300012968C911297882369F1F8014587568790
:101B40006787708B0580F681E02DED30F10510F58B
:101B5000E555F24FE4C2B80DB80DB80DCA0DCC0D65
:101B6000CA0DCA0DCC0DB80DCA0DCA0DCC0DB80DDD
:101B700040935D3850935E3860935F38709360385F
:101B800051968D919C918093613890936238C801F1
:101B90000E947105D394A4CFED91FC910680F7814A
:101BA000E02DC8010995FC0101900020E9F731976B
:101BB000D7012C2D1D922A95E9F7E81BE13108F099
:101BC000E0E14E2F50E0BC018DE598E33FD5DFCF3B
:101BD00060E08CE00E94A00282E898E30E946E031D
:101BE00082E898E39BD860E08AE00E94A00280919E
:101BF00000068E7F80930006109271381092723822
:101C00007894889580917138909172388835924097
:101C1000C0F361E080E00E94D40561E083E00E94AF
:101C2000D40562E070E080E090E00E94CB0061E0CB
:101C30008AE00E94A00280910006816080930006E5
:101C40006AD92ACFFC0105900020E9F7809590958C
:101C50008E0F9F1F0895FB01DC014150504048F05A
:101C600005900D920020C9F701C01D9241505040CF
:101C7000E0F708955058BB27AA270ED075C166D14A
:101C800030F06BD120F031F49F3F11F41EF45BC1B2
:101C90000EF4E095E7FB51C1E92F77D180F3BA1735
:101CA000620773078407950718F071F49EF58FC1DA
:101CB0000EF4E0950B2EBA2FA02D0B01B901900167
:101CC0000C01CA01A0011124FF27591B99F0593FAB
:101CD00050F4503E68F11A16F040A22F232F342FF3
:101CE0004427585FF3CF469537952795A795F04041
:101CF0005395C9F77EF41F16BA0B620B730B840B56
:101D0000BAF09150A1F0FF0FBB1F661F771F881F0D
:101D1000C2F70EC0BA0F621F731F841F48F4879565
:101D200077956795B795F7959E3F08F0B3CF939554
:101D3000880F08F09927EE0F979587950895D9D0C9
:101D400008F481E008950CD00FC107D140F0FED017
:101D500030F021F45F3F19F0F0C0511139C1F3C0E8
:101D600014D198F39923C9F35523B1F3951B550B5F
:101D7000BB27AA2762177307840738F09F5F5F4F5E
:101D8000220F331F441FAA1FA9F333D00E2E3AF09F
:101D9000E0E830D091505040E695001CCAF729D0B9
:101DA000FE2F27D0660F771F881FBB1F2617370708
:101DB0004807AB07B0E809F0BB0B802DBF01FF2738
:101DC00093585F4F2AF09E3F510568F0B6C000C19E
:101DD0005F3FECF3983EDCF3869577956795B79572
:101DE000F7959F5FC9F7880F911D9695879597F98D
:101DF0000895E1E0660F771F881FBB1F6217730706
:101E00008407BA0720F0621B730B840BBA0BEE1F1A
:101E100088F7E095089504D06894B111D9C0089569
:101E2000BCD088F09F5790F0B92F9927B751A0F0F8
:101E3000D1F0660F771F881F991F1AF0BA95C9F75E
:101E400012C0B13081F0C3D0B1E00895C0C0672F97
:101E5000782F8827B85F39F0B93FCCF3869577950E
:101E60006795B395D9F73EF49095809570956195F7
:101E70007F4F8F4F9F4F0895E89409C097FB3EF422
:101E800090958095709561957F4F8F4F9F4F9923C7
:101E9000A9F0F92F96E9BB279395F6958795779545
:101EA0006795B795F111F8CFFAF4BB0F11F460FF05
:101EB0001BC06F5F7F4F8F4F9F4F16C0882311F05D
:101EC00096E911C0772321F09EE8872F762F05C071
:101ED000662371F096E8862F70E060E02AF09A950C
:101EE000660F771F881FDAF7880F9695879597F901
:101EF0000895990F0008550FAA0BE0E8FEEF16169B
:101F00001706E807F907C0F012161306E407F507ED
:101F100098F0621B730B840B950B39F40A2661F061
:101F2000232B242B252B21F408950A2609F4A14004
:101F3000A6958FEF811D811D089597F99F6780E811
:101F400070E060E008959FEF80EC089500240A940B
:101F50001616170618060906089500240A94121684
:101F60001306140605060895092E0394000C11F4B7
:101F7000882352F0BB0F40F4BF2B11F460FF04C064
:101F80006F5F7F4F8F4F9F4F089557FD9058440FBD
:101F9000551F59F05F3F71F04795880F97FB991FC8
:101FA00061F09F3F79F08795089512161306140685
:101FB000551FF2CF4695F1DF08C016161706180612
:101FC000991FF1CF86957105610508940895E894ED
:101FD000BB2766277727CB0197F908950BD0C4CF8D
:101FE000B5DF28F0BADF18F0952309F0A6CFABCF04
:101FF0001124EECFCADFA0F3959FD1F3950F50E0E7
:10200000551F629FF001729FBB27F00DB11D639FAA
:10201000AA27F00DB11DAA1F649F6627B00DA11D50
:10202000661F829F2227B00DA11D621F739FB00DF6
:10203000A11D621F839FA00D611D221F749F332766
:10204000A00D611D231F849F600D211D822F762FFF
:102050006A2F11249F5750408AF0E1F088234AF0FC
:10206000EE0FFF1FBB1F661F771F881F9150504048
:10207000A9F79E3F510570F060CFAACF5F3FECF308
:10208000983EDCF3869577956795B795F795E79534
:102090009F5FC1F7FE2B880F911D9695879597F945
:1020A0000895A1E21A2EAA1BBB1BFD010DC0AA1F99
:1020B000BB1FEE1FFF1FA217B307E407F50720F0B1
:1020C000A21BB30BE40BF50B661F771F881F991F2C
:1020D0001A9469F760957095809590959B01AC0175
:1020E000BD01CF010895052E97FB16F400940FD083
:1020F00057FD05D0D6DF07FC02D046F408C0509546
:102100004095309521953F4F4F4F5F4F08959095E3
:102110008095709561957F4F8F4F9F4F0895EE0F7B
:10212000FF1F0590F491E02D09949DD0A59F900D7F
:10213000B49F900DA49F800D911D11240895689463
:1021400001C0E8948F929F92CF93DF9305D0DF91E7
:10215000CF919F908F90089588249924F401E401F1
:10216000B0E49F93AA279A158B049C04ED05FE0505
:10217000CF05D007A10798F4AD2FDC2FCF2FFE2F6E
:10218000E92D982C892E982F872F762F652F542F85
:10219000432F322F2227B85031F7BF9127C01B2E73
:1021A000BF91BB27220F331F441F551F661F771F88
:1021B000881F991F881C991CEE1FFF1FCC1FDD1F55
:1021C000AA1FBB1F8A149B04EC05FD05CE05DF0585
:1021D000A007B10748F08A189B08EC09FD09CE0951
:1021E000DF09A00BB10B21601A94E1F62EF49401E3
:1021F000AF01BE01CD01000C0895002E083090F013
:10220000982F872F762F652F542F432F322F222779
:102210000850F4CF220F331F441F551F661F771F2E
:10222000881F991F0A95B2F7002D089597FD109405
:10223000002E083098F00850232F342F452F562FAA
:10224000672F782F892F912DF4CF15949795879527
:102250007795679557954795379527950A95AAF7E6
:102260001124002D0895A29FB001B39FC001A39F28
:10227000700D811D1124911DB29F700D811D1124BF
:10228000911D08950F931F93CF93DF938230910593
:1022900010F482E090E0E0919D38F0919E3830E0BB
:1022A00020E0B0E0A0E0309799F42115310509F461
:1022B0004AC0281B390B24303105D8F58A819B810F
:1022C0006115710589F1FB0182839383FE0111C0C1
:1022D000408151810281138148175907E0F0481766
:1022E000590799F4109761F012960C931297139670
:1022F0001C933296CF01DF91CF911F910F910895DA
:1023000000939D3810939E38F4CF2115310551F07C
:102310004217530738F0A901DB019A01BD01DF0123
:10232000F801C1CFEF01F9CF80939D3890939E388B
:10233000CDCFFE01E20FF31F81939193225031091B
:1023400028833983D7CF20919B3830919C38232B19
:1023500041F420910A3830910B3820939B38309308
:102360009C3820910838309109382115310541F405
:102370002DB73EB740910C3850910D38241B350BCA
:10238000E0919B38F0919C38E217F307A0F42E1BE4
:102390003F0B2817390778F0AC014E5F5F4F2417C9
:1023A000350748F04E0F5F1F40939B3850939C3881
:1023B000819391939FCFF0E0E0E09CCFCF93DF93A8
:1023C0000097E9F0FC01329712821382A0919D38A8
:1023D000B0919E38ED0130E020E01097A1F420810B
:1023E0003181820F931F20919B3830919C382817A0
:1023F000390709F061C0E0939B38F0939C38DF9176
:10240000CF910895EA01CE17DF07E8F54A815B8195
:102410009E0141155105B1F7E901EA83FB8349911A
:102420005991C40FD51FEC17FD0761F4808191818C
:102430000296840F951FE901888399838281938195
:102440008A839B83F0E0E0E012968D919C91139734
:102450000097B9F52D913C911197CD010296820F0D
:10246000931F20919B3830919C382817390739F6F3
:10247000309751F510929D3810929E38A0939B385A
:10248000B0939C38BCCFC283D38340815181840FE9
:10249000951FC817D90761F44E5F5F4F88819981F6
:1024A000480F591F408351838A819B818283938384
:1024B0002115310509F0B0CFE0939D38F0939E3897
:1024C0009ECFFD01DC01C0CF12821382D7CFB0E0D6
:1024D000A0E0ECE6F2E1CBC08C01009741F4CB0127
:1024E000D1DE8C01C801CDB7DEB7E0E1D9C0FC0177
:1024F000E60FF71F9C0122503109E217F30708F499
:1025000099C0D901CD91DC911197C617D70790F0EA
:10251000C530D10538F3CE0104978617970710F31D
:10252000C61BD70B2297C193D1936D937C93CF0198
:1025300045DFD8CF5B01AC1ABD0A4C018C0E9D1E45
:10254000A0919D38B0919E38512C412CF12CE12C5A
:10255000109731F580919B3890919C38881599059A
:1025600009F05CC04616570608F058C0809108383C
:1025700090910938009741F48DB79EB740910C387F
:1025800050910D38841B950BE817F90708F052C0DD
:10259000E0939B38F0939C38F90160837183A2CF5C
:1025A0008D919C91119712966C90129713967C9036
:1025B0001397A815B90559F56C0142E0C40ED11C5A
:1025C000CA14DB0420F1AC014A195B09DA01129646
:1025D000159780F06282738240835183D9016D9395
:1025E0007C93E114F10471F0D7011296ED93FC9302
:1025F000139778CF22968C0F9D1FF90180839183CA
:10260000F301EFCFE0939D38F0939E386BCF4816DF
:10261000590608F42C017D01D3019ACFCB0132DE9B
:102620007C01009739F0AE01B80107D0C801C6DEC1
:10263000870158CF10E000E055CFFB01DC0102C05C
:1026400001900D9241505040D8F70895FB01DC01F4
:102650004150504048F001900D920020C9F701C050
:102660001D9241505040E0F708952F923F924F92B3
:102670005F926F927F928F929F92AF92BF92CF9212
:10268000DF92EF92FF920F931F93CF93DF93CDB71B
:10269000DEB7CA1BDB0BCDBFDEBF09942A883988A1
:1026A00048885F846E847D848C849B84AA84B984EA
:1026B000C884DF80EE80FD800C811B81AA81B981F6
:1026C000CE0FD11DCDBFDEBFED010895F894FFCF31
:1026D00004050607050403020100000102030102CC
:1026E00003000000000021021402F001A601E7012E
:1026F000DC01B601B5016308B4010000000001016E
:10270000010101010202020200000000101080001D
:1027100000000010101040400000000010001020C9
:10272000408020100804020101020408020408018C
:10273000781E00A02800F03C00405100127A00E40E
:10274000A20024F40048E80190D00320A107000073
:10275000000021021402F001ED01E701DC01B601E5
:10276000B5014202B40100000000AF068E06E80386
:102770006E037103A8054B04FF04E204A904830659
:062780007806D1033F00C2
:0E2786008813223816380E3800009F38800065
:00000001FF
