:100000005DC000008FC000008DC000000C94020A8B
:100010000C94FF090C94FC0985C000000C944C0A58
:1000200081C000007FC000007DC000007BC00000D8
:1000300079C0000077C0000075C000000C94CB09A7
:1000400071C000006FC000006DC000006BC00000F8
:1000500069C0000067C0000065C0000063C0000008
:1000600061C000005FC000005DC000005BC0000018
:1000700059C0000057C0000055C000004D4C41332E
:1000800030004D61696C626F7800436F6E7461631C
:1000900074203300436F6E74616374203200436FC9
:1000A0006E746163742031005600566363001F1C38
:1000B0001F1E1F1E1F1F1E1F1E00660A11241FBEAB
:1000C000CFEFCDBFDFE3DEBF8091400080934000E3
:1000D000811105C098ED21E094BF209341008CBBB5
:1000E00028E3AEE0B8E301C01D92AF39B207E1F7F3
:1000F00018E3A0E0B8E3E6E9F8E202C005900D924B
:10010000AE30B107D9F710E0CEE5D0E004C02197BA
:10011000FE010E945911CD35D107C9F70E94BA0AD4
:100120000C94ED136DCF8FEF9FE180936E38909319
:100130006F3808959FB7F89488E08093840A80917F
:100140008E0A81FFFCCF80918D0AE091A20AF09186
:10015000A30A20914B3830914C3840914D38509142
:100160004E389FBF80FF07C0E730F10520F42F5FB6
:100170003F4F4F4F5F4FAEEFB1E00E94D30F6E0F76
:100180007F1F811D911D22E0660F771F881F991F19
:100190002A95D1F70895CF92DF92EF92FF92CF93F5
:1001A000DF936B017C01C6DFEB01C4DF6C1B7D0BB1
:1001B000683E7340A0F0C114D104E104F10439F4A5
:1001C000DF91CF91FF90EF90DF90CF90089581E085
:1001D000C81AD108E108F108C851DC4FE6CFC114B4
:1001E000D104E104F10409F7EBCF90E0FC01E25205
:1001F000F84520812F3F69F1885F9745FC01808198
:10020000E82FE295EE0FE07EE20FF0E0E05FFB4FBB
:100210009081917F908390E0FC0134E0EE0FFF1F0E
:100220003A95E1F7422F50E061E070E001C0660FBF
:100230002A95EAF76383880F991FFC01EE5FF74C5C
:10024000440F551F0190F081E02DE40FF51F10823F
:1002500011820895CF93DF93282F30E0F901E25205
:10026000F84590819F3F71F1A2E0443009F4A1E08C
:10027000285F3745E901E881F0E0EF01CC0FDD1F91
:10028000CE5FD74C2881398121153105D9F0492F0E
:1002900050E0440F551F240F351FE901688379830F
:1002A0004FB7F8949F0155E0220F331F5A95E1F79D
:1002B000E0E1E90FE20FF0E0FC5F8081887F8A2BAC
:1002C00080834FBFDF91CF910895FB019081A82FCC
:1002D000B0E0BC5E8C91981769F0E0E0F0E10FB6F9
:1002E00022812370E9F7F8949C939DE994BF93E0F1
:1002F00090830FBECB010895FB0190818091573808
:10030000981320C0809155388823E1F082818E3F78
:10031000C9F483818770863051F48481811112C0C1
:1003200085818093573867E578E380E0CECF8730CA
:1003300049F481818093563866E578E381E0C5DF32
:1003400010925538089508950895CF92DF92EF9254
:10035000FF92CF93DF93EC016A017B0169897A896F
:10036000072E000C880B990B0E94C00EA701960166
:100370000E941F0F0E94EA10AB01BC01E881F981C5
:100380000084F185E02DCE01DF91CF91FF90EF90B9
:10039000DF90CF900994462F50E070E060E0DC01E0
:1003A000ED91FC910084F185E02D0994FC014187D9
:1003B0005287638774870895CF92DF92EF92FF92FE
:1003C000CF93DF93EC0169857A858B859C850E94AC
:1003D000C00E6B017C0169897A89072E000C880B9D
:1003E000990B0E94C00E9B01AC01C701B6010E948F
:1003F0008210DF91CF91FF90EF90DF90CF90089522
:1004000021E0FC0181859285A385B485892B8A2B07
:100410008B2B09F420E0822F0895FC016185728501
:10042000838594850895FC0165870895FC016683A2
:100430000895CF93DF93EC016091823870E06F5F95
:100440007F4F660F771F80918038909181380E948E
:10045000181380938038909381380097D1F02091C1
:100460008238E22FF0E0EE0FFF1FE80FF91FC08384
:10047000D1832F5F2093823830E021503048220F03
:10048000331F820F931FFC0180819181DF91CF91F7
:10049000089590E080E0FACF282F30E08231A8F470
:1004A000F901E45DF74580818F3F79F0285F37459A
:1004B000D901EC91B0E2EB9FF0011124FC5F908533
:1004C000982381E019F480E008958FEF0895CF9389
:1004D000DF93EC01EE8DFF8D309729F1099590E0C7
:1004E000B0E0A0E089879A87AB87BC878C8D9D8D13
:1004F0008230910589F589859A85AB85BC854D85C6
:100500005E856F857889481759076A077B0741F030
:10051000892B8A2B8B2B21F41D861E861F86188A19
:10052000DF91CF9108958B8D2C8D3D8D213031053C
:1005300061F4B2DF51E040E030E020E0811150E0B2
:10054000852F942FA32FB22FCDCFA6DF082E000C1E
:10055000990BAA0BBB0BC6CF039711F789859A8518
:10056000AB85BC854D855E856F85788948175907B1
:100570006A077B07A9F281309105A105B10581F6D3
:100580008D879E87AF87B88BCBCFCF93DF93823198
:1005900008F047C090E0EC01C45DD74528812F3FAB
:1005A00009F43FC0AC01485F5745DA01EC91B0E275
:1005B000EB9FF0011124FC5F611136C0268330816E
:1005C0002323A1F49C0122523845D9012C91309764
:1005D00069F1283058F57096E20FF11D3FB7F89495
:1005E0002081611126C0277F20833FBF865E97450B
:1005F000FC0190819923A9F08881903409F1903809
:10060000E1F0903171F4DA019C919130A1F48530E0
:1006100010F0880F82959091010A8095892380932C
:10062000010ADF91CF9108952583C9CFF0E0E0E082
:10063000D5CF2860D9CF880FEECF1092A006F1CF8A
:1006400020E4823009F420E89091920A922349F341
:100650006FB7F8949091800A9E7F9093800A4091A2
:10066000920A30E02095309550E02423352398ED10
:1006700094BF2093920A90918E0A90FFFCCF9091A4
:10068000800A91609093800A813039F480915004FF
:100690008F77809350046FBFC4CF809151048F77C0
:1006A00080935104F8CF0F931F93CF93DF93EC0106
:1006B000062F142F60E0898568DFEB85FC859F811C
:1006C00088852085222319F02FB72187F89421E00F
:1006D000228790932008809321080000009324082B
:1006E0008091230887FFFCCF80912408000010939D
:1006F00024088091230887FFFCCF10912408EB8504
:10070000FC858285882331F012868085882311F04C
:1007100081858FBF61E0898538DF812FDF91CF919F
:100720001F910F91089540E861E8BDCF41E861E86D
:10073000BACF40E0B8CFCF92DF92EF92FF92CF9343
:10074000DF936DE189E898E3F4DF90E034E095957C
:1007500087953A95E1F78A3091050CF03FC0FC018E
:10076000EE0FFF1FE80FF91FEA5AF745C080D1804E
:10077000E2800E2C000CFF086EE189E898E3D9DFD7
:10078000D82F66E289E898E3D4DFC82FD295DF70CE
:1007900021E030E040E050E004C0220F331F441F4E
:1007A000551FDA95D2F7C701B6010E943D1168EED8
:1007B00073E080E090E00E943D1121313105410558
:1007C00051058CF04C2F486066EA89E898E3DF9188
:1007D000CF91FF90EF90DF90CF9065CFCC24CA945B
:1007E000DC2C7601C9CF4C2F477FEECFCF92DF9222
:1007F000EF92FF920F931F93CF93DF938C016AE1E7
:1008000098DFC82FD0E0F8016685778580899189C7
:100810000E94C00E2AEE36E54AEF5DE40E94BA0E51
:1008200087FD44C08DE990E0C81BD90B69E1C80180
:1008300080DF87FD8D5F85958595682F880F770B05
:10084000880B990B0E94C00E6B017C0120E030E008
:10085000A9010E94BA0E87FF0DC0BE01DD0F880BF3
:10086000990B0E94C00EA70196010E941E100E94C3
:10087000EA10EB019E01DD0F440B550B20583F4F52
:100880004F4F5F4FA4E6B0E00E94D30F26E730E061
:1008900040E050E00E943D11C901DF91CF911F91CE
:1008A0000F91FF90EF90DF90CF90089584EA90E051
:1008B000BBCFCF92DF92EF92FF920F931F93CF9314
:1008C000DF937C01C62EC72FD42E63E132DFD82FF1
:1008D0000C2D1C2FC0E0CD1751F0CD1541F060E07C
:1008E000C70127DFCF5FF80181938F01F4CF8C2FF1
:1008F00090E0DF91CF911F910F91FF90EF90DF90EB
:10090000CF9008951F93CF93DF93EC01009759F197
:10091000469710F0C5E1D0E01C2F4C2F62E378E33E
:1009200089E898E3C6DF30E02AE52197832F90E03D
:100930008C179D073CF48E5C974CFC018081280F3E
:100940003F5FF4CF8091463828130DC0E0914938BD
:10095000F0914A38309739F062E378E3812FDF91E4
:10096000CF911F910994DF91CF911F9108950F931B
:100970001F93CF93DF93EC0162E1DBDE182F482F4A
:1009800062E9CE0190DE15FD23C016FF16C063E1BB
:10099000CE01CFDE082F10E060E1CE01CADE482F85
:1009A0006DE8CE0180DEEA81FB81309789F0C801D5
:1009B000DF91CF911F910F91099413FF09C0EC8132
:1009C000FD81309729F0DF91CF911F910F9109940C
:1009D000DF91CF911F910F91089589E898E3C7CFD8
:1009E00043E861E860DE81E090E00895CF93DF9313
:1009F000EC0140E060EC57DE45E861E8CE0153DEF3
:100A000081E090E0DF91CF91089581E0809372388A
:100A100089E898E3EBDFE0914738F0914838309768
:100A200009F009940895AF92BF92DF92EF92FF927E
:100A30000F931F93CF93DF93EC015B01D42E61E002
:100A400078DE83708330C1F062E1CE0172DE83FF15
:100A500004C048E062E9CE0126DEE881F981008425
:100A6000F185E02DCE01099540E06DE8CE011BDE59
:100A700040E062EACE0117DE8501ED2CF12CC801C1
:100A80008A199B098E159F0538F4F80141918F0151
:100A900060E8CE0108DEF3CF4D2D62EACE0103DE21
:100AA0008C819D81892B21F040E460ECCE01FBDD3F
:100AB000E881F9810288F389E02DCE010995C7010B
:100AC000DF91CF911F910F91FF90EF90DF90BF903A
:100AD000AF900895FC018AE5848BDF019F012C5EB5
:100AE0003F4F9D918489890F848BA217B307C9F763
:100AF0001092723845E1BF0189E898E394DF809154
:100B00007138882351F080917238811106C062E0FB
:100B100070E080E090E03FDBF2CF0895CF93DF9369
:100B2000CDB7DEB76597CDBFDEBF89836A838EEF11
:100B30008B8328502C8380E1FA01DE011596019009
:100B40000D928A95E1F7CE010196C4DF6596CDBF7F
:100B5000DEBFDF91CF910895DC01E9E5F8E38091F4
:100B60005638808380915738818312968C911297E2
:100B7000828315969C911597990F990F990F179647
:100B80008C91890F8383CF01A5CF0F931F93CF93B0
:100B9000DF938C01EB0162317105C4F065317105A1
:100BA00014F0C4E1D0E0239747E86DECC8017BDD89
:100BB00041E36BE8C80177DD4C2F4250406869E89B
:100BC000C801DF91CF911F910F916DCD62307105FA
:100BD00014F4C2E0D0E044E86DECC80164DD4BE2FF
:100BE000E8CF8231F0F490E0FC01E45DF74520812C
:100BF0002F3FB9F0FC01E85FF745E08130E2E39F69
:100C0000F0011124FC5F60FF0DC0218382529845E2
:100C1000DC018C91E80FF11D808961FF05C08860BF
:100C2000808B08952283F2CF877FFACF0F931F9393
:100C3000CF93DF93EC01862F4A834FEF5FEF4B8317
:100C40005C834DE050E04D835E8301E010E00F8354
:100C500018871B8A1C8A098B1A8B2D8B3E8B1F8A47
:100C6000188E41EC5DEB60EF7FEF49875A876B8709
:100C70007C874EE352E46FE070E04D875E876F87BC
:100C8000788B198E1A8E22E438EA288339838B8F69
:100C90000C8F1D8F1E8E1F8E62E0A3DF2C8D3D8D6D
:100CA0002230310518F51D821E821F8218868B8D19
:100CB00021303105A1F4F0DB51E040E030E020E0EC
:100CC000811150E0852F942FA32FB22F89879A8707
:100CD000AB87BC87DF91CF911F910F910895DCDB2B
:100CE000082E000C990BAA0BBB0BF0CF88E090E00C
:100CF0008D839E830F83188789859A85AB85BC85F4
:100D00008D879E87AF87B88BE5CFCF93DF93EC01BC
:100D100060E08E8166DF8E81823130F443E06DEEDB
:100D200074E0DF91CF9196CADF91CF910895FC01D5
:100D300064837583672B09F0E8CF8681823108F4DC
:100D400054CA0895FC0162837383672B09F0DDCFD9
:100D50008681823108F449CA0895CF93DF93EC016C
:100D6000EB85FC85809120088E7F80932008178278
:100D700060E080E136DF60E08FE033DF60E08EE04E
:100D800030DF60E089852DDF8D858F3F21F060E0C9
:100D9000DF91CF9126CFDF91CF9108958F929F92CF
:100DA000AF92BF92CF92DF92EF92FF920F931F9379
:100DB000CF93DF93EC016A017B0161E0898511DF4C
:100DC00061E08985E2DB8D858F3F91F061E009DF8D
:100DD00060E08D85DADB6AE070E080E090E0DBD9EE
:100DE00061E08D85D2DB6AE070E080E090E0D3D9ED
:100DF000EB85FC858781811106C01086128680E80C
:100E0000818781E08783809101028B7F9681892B86
:100E1000809301028681811191C061E08EE0E1DE64
:100E200061E080E1DEDE809121088460809321080A
:100E30008091200881628093200890917E38809173
:100E40007F38909320088093210862E4CE0171DC02
:100E5000823109F07CC0E881F9810680F781E02DBC
:100E6000CE010995CE86DF86E88AF98A46015701C8
:100E7000BB0C8808982C54019601A701682D782D89
:100E8000882D982D03E10E94BD11A12CE8E4BE2E0F
:100E9000F8EECF2EDD24D394E12CF12C00E010E00D
:100EA0000E946111F22E832E942EA52EB62EC72EEF
:100EB000D82EE92E00E10E94D811422F66E8CE011B
:100EC000F2DB2F2D382D492D5A2D6B2D7C2D8D2D9C
:100ED0009E2D08E00E94D811422F67E8CE01E3DB87
:100EE0004F2D68E8CE01DFDB40E06EE8CE01DBDBB2
:100EF00040E06FE8CE01D7DB6CE0CE011ADC482F72
:100F000043606CE8CE01CFDB44E066EACE01CBDB88
:100F1000E881F9810084F185E02DCE01099581E019
:100F200090E0DF91CF911F910F91FF90EF90DF90B4
:100F3000CF90BF90AF909F908F900895843009F02C
:100F400072CF61E08CE04DDE61E08AE06BCF90E033
:100F500080E0E7CFCF93C1E0C09371388CE791E098
:100F60008093493890934A38109247381092483805
:100F700040E45EE06FEC79E189E898E30FDF892BCC
:100F8000B9F410927038C3E061E08CE0FEDA64E6F8
:100F900070E080E090E0FFD860E08CE0F6DA64E694
:100FA00070E080E090E0F7D8C15071F780E04AC06F
:100FB00082E894E080938B3890938C3889E898E3AA
:100FC000A4DE85E095E080938D3890938E3889E893
:100FD00098E39BDE6EE070E089E898E3D6DD43ECB1
:100FE00061EB89E898E35FDB4AE067EB89E898E327
:100FF0005ADB6EE189E898E39CDB8F70482F4069EB
:101000006EE989E898E34FDB96DB6DE189E898E3C8
:1010100090DB8F70482F40676DE989E898E343DBE8
:101020008ADB6DE189E898E384DB817F482F4260A9
:101030006DE989E898E337DB89E898E3D7DCC0936A
:10104000703881E0CF91089587FD03C08630C0F4E9
:101050008C5F982F9F77903238F5909100069923F6
:1010600031F18F718093060681E0809308068091AC
:101070000B0680FFFCCF8091100690911106089519
:10108000813161F092EF980F933010F48D50E1CFE1
:10109000883031F0893031F08FEFDBCF80E0D9CF6D
:1010A0008AE0D7CF8BE0D5CF8FEF92E8089589EF14
:1010B00092E80895E0EAF0E081818D7F8183A0E0ED
:1010C000B6E012968C9112978F7C806512968C9365
:1010D00080E480838DE9B8DF8DE9B6DF9C0150E0C4
:1010E00040E064E27AE687E190E00E941B112093E1
:1010F000003830930138B90190E080E03FD620E01D
:1011000030E04AE754E4FEC74F925F926F927F92BD
:101110008F929F92AF92BF92CF92DF92EF92FF9207
:101120000F931F93CF93DF93CDB7DEB72697CDBF35
:10113000DEBF8D839E83DC015B968C91C12CD12C0C
:1011400076018F3F09F488C01AE0C12CD12C7601BA
:10115000ED81FE81838D78DF092E000CAA0BBB0B7D
:10116000C80ED91EEA1EFB1E115091F7AD81BE813B
:1011700096960D911C91D8011C968D919D910D9084
:10118000BC91A02D89839A83AB83BC83F801208511
:10119000318542855385BC01CD0150D79B01AC01FF
:1011A00069817A818B819C81ADD74B015C01D8012B
:1011B00014968D929D92AD92BC92179754964D9035
:1011C0005D906D907C905797C701B6012AE030E0A2
:1011D00040E050E00E941B11CA01B901CFD5A30124
:1011E00092012BD7A50194012AD6A301920126D7FB
:1011F0006B017C01F801C08AD18AE28AF38AAC01D2
:101200009B01C301B20119D79F77D8012D913D9160
:101210004D915C9114D62B013C01A501940160E035
:1012200070E080E89FE309D729813A814B815C8196
:1012300006D69B01AC01C301B20100D7F801648757
:10124000758786879787C48AD58AE68AF78AC70111
:10125000B601C5D76B017C01AD81BE819296ED913F
:10126000FC9193970D911C91309761F1D8011C96D8
:101270000D911C91AD81BE8190962D913C919197DD
:101280005E964D915C915F975C966D917C91C601E5
:101290000995AB01BC018D819E81F8012696CDBFD9
:1012A000DEBFDF91CF911F910F91FF90EF90DF9004
:1012B000CF90BF90AF909F908F907F906F905F90F6
:1012C0004F900994A0910038B0910138A701960180
:1012D0006AD62FEF33E040E050E0ADD7BA01A90164
:1012E000D8011896ED91FC918D819E812696CDBFF7
:1012F000DEBFDF91CF911F910F91FF90EF90DF90B4
:10130000CF90BF90AF909F908F907F906F905F90A5
:101310004F900994EF92FF920F931F93CF93DF9317
:10132000CDB7DEB7A297CDBFDEBFFC016185728568
:10133000838594852AE0AE014F5F5F4F7A01DBD44D
:10134000F70101900020E9F7BF016E197F0990E0D5
:1013500080E00E9418138C01009719F0B7010E94D9
:10136000D713C8010E948F12C801A296CDBFDEBF5D
:10137000DF91CF911F910F91FF90EF900895DC01C5
:101380009496ED91FC919597309721F019968D9157
:101390009C910994BFCF8F9381E080938D0A8FB782
:1013A0008F93EF93FF93EBE4F8E39F9368948FEFB1
:1013B0000FC0E89484819581885D9F4F84839583D5
:1013C000885E934010F08EEF03C0848395838DEF89
:1013D0009081981B919390819F4F919390819F4F03
:1013E000919390819F4F919326F39F91FF91EF915D
:1013F0008F918FBF8F9118950F9304E006C00F93C4
:1014000002E003C00F9300E000C00F920FB60F92EE
:101410001F921124FF921F932F933F934F935F933B
:101420006F937F938F939F93AF93BF93CF93DF93EC
:10143000EF93FF93A2E0B8E3A00FB11DCD91DC9133
:10144000000F0D5FA02FB0E0FC90109761F01F2DF2
:10145000169518F041F02296FBCFE991F99130975B
:10146000B9F30995F5CFA02FB0E0FC92FF91EF9171
:10147000DF91CF91BF91AF919F918F917F916F91AC
:101480005F914F913F912F911F91FF901F900F906F
:101490000FBE0F900F9118951F920F920FB60F92DB
:1014A00011248F939F9381E08093530180916E3834
:1014B00090916F38019680936E3890936F389F911A
:1014C0008F910F900FBE0F901F90189584E080931E
:1014D0007F3891E390937E3820E238E02093733890
:1014E0003093743810927A3828E738EA2093893894
:1014F00030938A3890939038809391381092923834
:101500001092933883E08093963882E080938F38EE
:1015100083E798E3809394389093953810929738A6
:10152000109298381092993810929A381092883800
:10153000109287381092863810928338EEEAF0E0E5
:1015400081E08C3049F09491823009F49F5F21E072
:10155000280F3196992361F08093843881E080933D
:101560008538109280381092813810928238089510
:10157000822FE7CFCF93DF93CDB7DEB7E097CDBF14
:10158000DEBF97E088ED84BF90936100E0E0F6E075
:1015900080E582838AE0858380E2838381E08083A3
:1015A000109202028093030A2EEF2093260A2093C2
:1015B000270A9093000AE0E8FAE02DEF31E026A731
:1015C00037A7118290E89283848783E1808378949F
:1015D000E0E1F4E084E0808380A3DF01A05CBF4F02
:1015E0008C933196E83124E0F207A9F710921204A7
:1015F00061E08CE0F6DA60E083E0F3DA83E024DD9A
:10160000843691050CF042C061E08CE00E94C50276
:101610002FB7F89480914F3890915038A09151385D
:10162000B09152382FBF81319742A105B10520F109
:1016300064E670E080E090E00E94CB0060E08CE027
:101640000E94C5022FB7F89480914F38909150387E
:10165000A0915138B09152382FBF81319742A105E6
:10166000B10578F064E670E080E090E00E94CB0085
:1016700081E080935838C2CF6CE271E080E090E066
:10168000DBCF6CE271E080E090E0F0CF84E080930B
:1016900017042FB7F89480914F3890915038A0914B
:1016A0005138B09152382FBF81319742A105B10511
:1016B00008F4C0C18FEF8093573861E08CE00E943E
:1016C000C50262E370E080E090E00E94CB0060E041
:1016D0008CE00E94C50262E370E080E090E00E942E
:1016E000CB0061E08CE00E94C50264E670E080E01F
:1016F00090E00E94CB0060E08CE00E94C50262E3B3
:1017000070E080E090E00E94CB0061E08CE00E94FD
:10171000C502809157388F3F91F48EE180935738FE
:101720001092563867E578E380E00E94650166E52F
:1017300078E381E00E94650181E0809358388091D0
:1017400001148093563888E290E04DD6FC0181E088
:1017500082838FEF9FEF8383948381E090E0838B7C
:10176000948B24E630E0218B328B2AEA30E0258B03
:10177000368B28EA30E0278B308F41EC5DEB60EF51
:101780007FEF41875287638774874EE352E46FE0AF
:1017900070E0458756876787708B118E128E24EF15
:1017A00037EA208331831FEF138F12A213A214A2F2
:1017B00015A210A211A2168E178E148E158E858377
:1017C000968382E090E087839087CF010E94190280
:1017D000FC018AE598E082A393A3148E158E168EE1
:1017E000178E10A211A280E290E0FDD57C012EE9B7
:1017F00030E042E061E01ADAC7010E94190280E29B
:1018000090E0F1D57C0124E930E043E065E00EDAB8
:10181000C7010E94190280E290E0E5D57C012AE828
:1018200030E044E064E002DAC7010E94190244E0BB
:1018300063E970E081E00E942A0144E063E970E01E
:1018400085E00E942A0144E063E970E084E00E94A0
:101850002A0161E08AE0C5D961E08AE00E94C50200
:1018600065E070E080E090E00E94CB0073DB8823AD
:1018700009F421C180915838882309F416C11093C6
:1018800056388E010D5D1F4FFEE0FF2ED801EF2D63
:101890001D92EA95E9F78EEF89A38DE08AA383E094
:1018A0008BA347E050E062E870E0CE01849614D24A
:1018B00030E020E0AE014F5D5F4F6091573880917E
:1018C00056382CD9D8011D92FA94E9F745E050E03A
:1018D0006CE770E0C80100D222E030E0AE014F5D5D
:1018E0005F4F609157388091563818D91BA227E076
:1018F00030E0AE014F5D5F4F6091573880915638B0
:101900000DD9D12C4E01B3E18B0E911CAEE0CA2E45
:1019100080918238D81608F090C08D2D90E0880F05
:10192000991FE0918038F0918138E80FF91F00810C
:101930001181F8018281882309F47AC0D401EC2D49
:101940001D92EA95E9F7898BD80115968C91159728
:101950008A8B17968C9117978B8B5596ED90FC90F0
:10196000C701B1D18D30910510F08DE090E0AC0150
:10197000B701CE014496B0D130E020E0AE014F5E19
:101980005F4F6091573880915638C8D8F801A788C2
:10199000B08CA114B10449F1C50195D17C01892B0A
:1019A00021F1D80112968C918983A701BEE0EB1634
:1019B000F10410F04EE050E0B501CE0103968CD159
:1019C000EEE0EE16F10438F4E3E0F0E0EC0FFD1F7A
:1019D000EE0DFF1D108221E030E0AE014F5F5F4F42
:1019E000609157388091563899D8D801ED91FC9183
:1019F0000288F389E02DC8010995F4012C2D11927C
:101A00002A95E9F7D80112968C911297898B159631
:101A10008C9115978A8B17968C918B8B27E030E0F1
:101A2000AE014F5E5F4F609157388091563876D83F
:101A3000D3946ECF809100143ECE81E080935538D0
:101A400063E0C62ED12CE12CF12C812C912C540179
:101A50008A94939480915538882369F12FB7F8942C
:101A600060914F3870915038809151389091523830
:101A70002FBFA7019601DFD3CA01B901A5019401C7
:101A8000DAD36F5F710977FF03C0719561957109B2
:101A90006038710544F460E08CE00E94C50261E0AA
:101AA0008CE09FD8D7CF61E0F7CF62E370E080E0B1
:101AB00090E00E94CB0080915000897F84608093E9
:101AC000500080915000816080935000F894809184
:101AD00041018111FCCF1092470181E080935201B6
:101AE00081E780935001789460E08CE00E94C50209
:101AF0004DE5E42E48E3F42E50E1C52E8091703878
:101B0000882309F4AAC061E08CE00E94C50210E0BD
:101B1000809182381817A8F4812F90E0880F991FC0
:101B2000E0918038F0918138E80FF91F8081918130
:101B3000DC01ED91FC910088F189E02D09951F5F92
:101B4000E7CFD12C80918238D81608F082C08D2D35
:101B500090E0880F991FE0918038F0918138E80F6C
:101B6000F91F00811181F8014185528563857485D3
:101B700085859685841B950B97FF03C0919581956C
:101B80009109D80153962D913C9154972817390704
:101B90000CF041C012968C911297882309F43BC037
:101BA000F801458756876787708B0580F681E02DA1
:101BB000ED30F10510F5E252F24F7BC3EB0DEB0D6A
:101BC000EB0DFD0D0D0EFD0DFD0D0D0EEB0DFD0DC7
:101BD000FD0D0D0EEB0D40935D3850935E38609314
:101BE0005F387093603851968D919C9180936138E5
:101BF00090936238C8010E94AC05D8015996ED91C6
:101C0000FC915A97309739F019966D917D918D918D
:101C10009C911C970995D39495CFED91FC910680EA
:101C2000F781E02DC8010995FC0101900020E9F73A
:101C30003197D7012C2D1D922A95E9F7E81BE13148
:101C400008F0E0E14E2F50E0BC018DE598E3B6D5F9
:101C5000D1CF60E08CE00E94C50289E898E30E9441
:101C6000930389E898E379D860E08AE00E94C5028E
:101C7000809100068E7F8093000610926E3810923D
:101C80006F387894889580916E3890916F38883548
:101C90009240C0F361E080E00E94F10561E083E0E2
:101CA0000E94F10562E070E080E090E00E94CB00CD
:101CB00061E08AE00E94C502809100068160809305
:101CC000000648D91BCFFC0105900020E9F780955C
:101CD00090958E0F9F1F0895FB01DC0141505040ED
:101CE00048F005900D920020C9F701C01D924150A7
:101CF0005040E0F70895BB272A3051F4992342F46D
:101D0000BDE290958095709561957F4F8F4F9F4F65
:101D100001C0BB27FA01A62F621771058105910545
:101D2000330B30FB66F0AA27660F771F881F991FB9
:101D3000AA1FA21710F0A21B63953850A9F7A05D47
:101D4000AA3308F0A95DA19336F7B111B1931082BF
:101D5000CA0100C0DC01FC01672F71917723E1F714
:101D6000329704C07C916D9370836291AE17BF0768
:101D7000C8F3089540D008F481E00895E89409C0BC
:101D800097FB3EF490958095709561957F4F8F4FAE
:101D90009F4F9923A9F0F92F96E9BB279395F695C4
:101DA000879577956795B795F111F8CFFAF4BB0F42
:101DB00011F460FF1BC06F5F7F4F8F4F9F4F16C0A6
:101DC000882311F096E911C0772321F09EE8872F30
:101DD000762F05C0662371F096E8862F70E060E0EC
:101DE0002AF09A95660F771F881FDAF7880F969565
:101DF000879597F90895990F0008550FAA0BE0E809
:101E0000FEEF16161706E807F907C0F012161306BC
:101E1000E407F50798F0621B730B840B950B39F4FC
:101E20000A2661F0232B242B252B21F408950A2662
:101E300009F4A140A6958FEF811D811D08950BD057
:101E400078C069D028F06ED018F0952309F05AC0F8
:101E50005FC01124A2C07ED0A0F3959FD1F3950F4F
:101E600050E0551F629FF001729FBB27F00DB11D1E
:101E7000639FAA27F00DB11DAA1F649F6627B00DAE
:101E8000A11D661F829F2227B00DA11D621F739F97
:101E9000B00DA11D621F839FA00D611D221F749FA5
:101EA0003327A00D611D231F849F600D211D822FEC
:101EB000762F6A2F11249F5750408AF0E1F0882333
:101EC0004AF0EE0FFF1FBB1F661F771F881F915040
:101ED0005040A9F79E3F510570F014C05EC05F3FAF
:101EE000ECF3983EDCF3869577956795B795F79573
:101EF000E7959F5FC1F7FE2B880F911D96958795FB
:101F000097F9089597F99F6780E870E060E0089579
:101F10009FEF80EC089500240A9416161706180601
:101F20000906089500240A941216130614060506DD
:101F30000895092E0394000C11F4882352F0BB0F6E
:101F400040F4BF2B11F460FF04C06F5F7F4F8F4FD1
:101F50009F4F089557FD9058440F551F59F05F3F0C
:101F600071F04795880F97FB991F61F09F3F79F0BB
:101F700087950895121613061406551FF2CF46953D
:101F8000F1DF08C0161617061806991FF1CF8695BF
:101F90007105610508940895E894BB2766277727A3
:101FA000CB0197F908953AD0A59F900DB49F900D5D
:101FB000A49F800D911D112408952F923F924F925E
:101FC0005F926F927F928F929F92AF92BF92CF92C9
:101FD000DF92EF92FF920F931F93CF93DF93CDB7D2
:101FE000DEB7CA1BDB0BCDBFDEBF09942A88398858
:101FF00048885F846E847D848C849B84AA84B984A1
:10200000C884DF80EE80FD800C811B81AA81B981AC
:10201000CE0FD11DCDBFDEBFED010895A29FB0014F
:10202000B39FC001A39F700D811D1124911DB29F0C
:10203000700D811D1124911D08955058BB27AA27AA
:102040000ED077CF68DF30F06DDF20F031F49F3FA6
:1020500011F41EF45DCF0EF4E095E7FB53CFE92FAA
:1020600079DF80F3BA17620773078407950718F0C2
:1020700071F49EF591CF0EF4E0950B2EBA2FA02DA2
:102080000B01B90190010C01CA01A0011124FF2725
:10209000591B99F0593F50F4503E68F11A16F04020
:1020A000A22F232F342F4427585FF3CF469537951F
:1020B0002795A795F0405395C9F77EF41F16BA0BE4
:1020C000620B730B840BBAF09150A1F0FF0FBB1F92
:1020D000661F771F881FC2F70EC0BA0F621F731FDB
:1020E000841F48F4879577956795B795F7959E3F38
:1020F00008F0B3CF9395880F08F09927EE0F9795C6
:10210000879508950CD015CF0DDF40F004DF30F037
:1021100021F45F3F19F0F6CE51113FCFF9CE1ADF0F
:1021200098F39923C9F35523B1F3951B550BBB279E
:10213000AA2762177307840738F09F5F5F4F220F4B
:10214000331F441FAA1FA9F333D00E2E3AF0E0E844
:1021500030D091505040E695001CCAF729D0FE2F90
:1021600027D0660F771F881FBB1F26173707480722
:10217000AB07B0E809F0BB0B802DBF01FF279358D8
:102180005F4F2AF09E3F510568F0BCCE06CF5F3FFF
:10219000ECF3983EDCF3869577956795B795F795C0
:1021A0009F5FC9F7880F911D9695879597F90895B8
:1021B000E1E0660F771F881FBB1F62177307840754
:1021C000BA0720F0621B730B840BBA0BEE1F88F763
:1021D000E095089504D06894B111DFCE0895C2DE71
:1021E00088F09F5790F0B92F9927B751A0F0D1F000
:1021F000660F771F881F991F1AF0BA95C9F712C08A
:10220000B13081F0C9DEB1E00895C6CE672F782FD6
:102210008827B85F39F0B93FCCF3869577956795F5
:10222000B395D9F73EF490958095709561957F4F61
:102230008F4F9F4F0895A1E21A2EAA1BBB1BFD01D1
:102240000DC0AA1FBB1FEE1FFF1FA217B307E40795
:10225000F50720F0A21BB30BE40BF50B661F771FED
:10226000881F991F1A9469F76095709580959095CD
:102270009B01AC01BD01CF010895052E97FB16F41B
:1022800000940FD057FD05D0D6DF07FC02D046F4EE
:1022900008C050954095309521953F4F4F4F5F4F67
:1022A000089590958095709561957F4F8F4F9F4FC2
:1022B0000895EE0FFF1F0590F491E02D09946894A6
:1022C00001C0E8948F929F92CF93DF9305D0DF9166
:1022D000CF919F908F90089588249924F401E40170
:1022E000B0E49F93AA279A158B049C04ED05FE0584
:1022F000CF05D007A10798F4AD2FDC2FCF2FFE2FED
:10230000E92D982C892E982F872F762F652F542F03
:10231000432F322F2227B85031F7BF9127C01B2EF1
:10232000BF91BB27220F331F441F551F661F771F06
:10233000881F991F881C991CEE1FFF1FCC1FDD1FD3
:10234000AA1FBB1F8A149B04EC05FD05CE05DF0503
:10235000A007B10748F08A189B08EC09FD09CE09CF
:10236000DF09A00BB10B21601A94E1F62EF4940161
:10237000AF01BE01CD01000C0895002E083090F091
:10238000982F872F762F652F542F432F322F2227F8
:102390000850F4CF220F331F441F551F661F771FAD
:1023A000881F991F0A95B2F7002D089597FD109484
:1023B000002E083098F00850232F342F452F562F29
:1023C000672F782F892F912DF4CF159497958795A6
:1023D0007795679557954795379527950A95AAF765
:1023E0001124002D08950F931F93CF93DF93823014
:1023F000910510F482E090E0E0919D38F0919E38D4
:1024000030E020E0B0E0A0E0309799F421153105EC
:1024100009F44AC0281B390B24303105D8F58A81CC
:102420009B816115710589F1FB0182839383FE0114
:1024300011C0408151810281138148175907E0F092
:102440004817590799F4109761F012960C93129758
:1024500013961C933296CF01DF91CF911F910F916C
:10246000089500939D3810939E38F4CF21153105BF
:1024700051F04217530738F0A901DB019A01BD0161
:10248000DF01F801C1CFEF01F9CF80939D38909320
:102490009E38CDCFFE01E20FF31F8193919322501E
:1024A000310928833983D7CF20919B3830919C38CC
:1024B000232B41F420910A3830910B3820939B381C
:1024C00030939C3820910838309109382115310516
:1024D00041F42DB73EB740910C3850910D38241B74
:1024E000350BE0919B38F0919C38E217F307A0F48C
:1024F0002E1B3F0B2817390778F0AC014E5F5F4F5A
:102500002417350748F04E0F5F1F40939B385093B8
:102510009C38819391939FCFF0E0E0E09CCFCF93E4
:10252000DF930097E9F0FC01329712821382A091A9
:102530009D38B0919E38ED0130E020E01097A1F475
:1025400020813181820F931F20919B3830919C38DC
:102550002817390709F061C0E0939B38F0939C3845
:10256000DF91CF910895EA01CE17DF07E8F54A81A0
:102570005B819E0141155105B1F7E901EA83FB83B7
:1025800049915991C40FD51FEC17FD0761F4808163
:1025900091810296840F951FE90188839983828136
:1025A00093818A839B83F0E0E0E012968D919C9169
:1025B00013970097B9F52D913C911197CD01029693
:1025C000820F931F20919B3830919C382817390730
:1025D00039F6309751F510929D3810929E38A0939D
:1025E0009B38B0939C38BCCFC283D3834081518148
:1025F000840F951FC817D90761F44E5F5F4F88811C
:102600009981480F591F408351838A819B8182831E
:1026100093832115310509F0B0CFE0939D38F093F5
:102620009E389ECFFD01DC01C0CF12821382D7CF2E
:10263000B0E0A0E0EDE1F3E1C2CC8C01009741F401
:10264000CB01D1DE8C01C801CDB7DEB7E0E1D0CC43
:10265000FC01E60FF71F9C0122503109E217F30736
:1026600008F499C0D901CD91DC911197C617D7070D
:1026700090F0C530D10538F3CE010497861797073F
:1026800010F3C61BD70B2297C193D1936D937C9304
:10269000CF0145DFD8CF5B01AC1ABD0A4C018C0ECF
:1026A0009D1EA0919D38B0919E38512C412CF12C4B
:1026B000E12C109731F580919B3890919C388815CA
:1026C000990509F05CC04616570608F058C080917D
:1026D000083890910938009741F48DB79EB7409122
:1026E0000C3850910D38841B950BE817F90708F04A
:1026F00052C0E0939B38F0939C38F901608371835A
:10270000A2CF8D919C91119712966C90129713966F
:102710007C901397A815B90559F56C0142E0C40ED9
:10272000D11CCA14DB0420F1AC014A195B09DA019F
:102730001296159780F06282738240835183D9018B
:102740006D937C93E114F10471F0D7011296ED932F
:10275000FC93139778CF22968C0F9D1FF9018083ED
:102760009183F301EFCFE0939D38F0939E386BCFC8
:102770004816590608F42C017D01D3019ACFCB01EC
:1027800032DE7C01009739F0AE01B80107D0C801F4
:10279000C6DE870158CF10E000E055CFFB01DC0119
:1027A00002C001900D9241505040D8F70895FB01AE
:1027B000DC0101900D920020E1F70895FB01DC019E
:1027C0004150504048F001900D920020C9F701C0DF
:0E27D0001D9241505040E0F70895F894FFCF5D
:1027DE0004050607050403020100000102030102BD
:1027EE000300000000000D020002DC01BF09D6014B
:1027FE00CB01A501A4018408A30100000000010182
:10280E00010101010202020200000000101080000E
:10281E0000000010101040400000000010001020BA
:10282E00408020100804020101020408020408017D
:10283E00000000000D020002DC018A09D601CB0166
:10284E00A501A4016702A301781E00A02800F03C98
:10285E0000405100127A00E4A20024F40048E8017E
:10286E0090D00320A10700000000CE06AD06F603AF
:10287E0093039603C50559041305F604F004B70433
:08288E00A206970616021302D0
:0E2896008813223816380E3800009F38800054
:00000001FF
