:1000000004C6000036C6000034C600000C948A18EE
:100010000C9487180C9484182CC600002AC6000083
:1000200028C6000026C6000024C6000022C6000024
:1000300020C600001EC600001CC600000C94531809
:1000400018C6000016C6000014C6000012C6000044
:1000500010C600000EC600000CC600000AC6000054
:100060000C94D41806C6000004C6000002C60000A6
:1000700000C60000FEC50000FCC50000BF02030270
:100080000304010204070D00FE09FE090001BA0382
:10009000AD0B6F2006EFFCF97F210AEFFC6971DFE1
:1000A000E19C06220CEFFC4949988449CE9F00232D
:1000B00011EFFC999230C9062DC9062D09939C09B0
:1000C000240FEFFCD9D2214AD23589863467032523
:1000D0000FEFFC2959526A8DD3524B2D2701261060
:1000E000EFFCB9885116856294D4B225A700270980
:1000F000EFFC69719DBF01280DEFFC89699CC6F575
:1001000038CF4900290DEFFC49799CC7D538CD89F6
:10011000002A0DEFFCB944A1366C629473022B0CDB
:10012000EFFCB9C5E120C63937002C0AEFFCF9A76E
:1001300051CC51002D09EFFCF932E87C012E0AEF79
:10014000FCF9B774CD31002F0DEFFCA9711AA7E5AA
:1001500034CEA9003011EFFC4962544CC2244CC289
:10016000248C8A3A0D310CEFFC69A998C43D0E3AF3
:10017000053210EFFC29431426619C86621A0F3B5E
:1001800005330FEFFCF1614EAB7B9C84D190930063
:100190003411EFFC89A99864512DCAA2618D7312A4
:1001A000003510EFFCF161892B931657C268C849DE
:1001B000003611EFFC495B1A57262D0993301A724D
:1001C0001200370DEFFCF1614ECB699CC639153832
:1001D00014EFFC294314266112464314266112468B
:1001E000434E023911EFFC294314266192494B5CBE
:1001F000CD761A003A0CEFFCB9A56B4E4ED71C0316
:100200003B0CEFFCB9A56B4E1DC51C053C09EFFC72
:10021000A9BD77A7003D0BEFFCB90F3B65D8B9002E
:100220003E0AEFFC2979D7EE54003F0FEFFC29433B
:100230001426619C967338A7014014EFFC294314DF
:100240002661122DA5A4A244497DC849004113EF9F
:10025000FC4962544CC2244C86254CC224CC290053
:100260004213EFFCF1412B6551160D59298BB264F5
:10027000D04900430EEFFC29431426718FD190938F
:10028000004413EFFCF1412B655116655116655181
:10029000960C3A09450EEFFCF16189CB431697871E
:1002A0009D02460DEFFCF16189CB4316B7930147E0
:1002B00011EFFC2943142671D3122699B4E41400DB
:1002C0004814EFFCF1300993300993610993300928
:1002D0009330A700490CEFFC298318F771D029004F
:1002E0004A0CEFFC696BDC5396ED34004B12EFFCCB
:1002F000F130C9A25A12AA491865A530A7004C0AC4
:10030000EFFCF1B89F879D024D14EFFCF130911482
:100310004949948A524CC2244CC29C024E14EFFCB0
:10032000F13009132D2925515253C2244CC29C028D
:100330004F14EFFC29431426611226611226611224
:1003400046434E025010EFFCF1410A9330099341AD
:100350008ADBC9005116EFFC29431426611226617D
:100360001226A5244AA221CF11005213EFFCF1411D
:100370000A93300993414AC2282B8539055311EF5E
:10038000FC29431426713EE4711246434E02540A7E
:10039000EFFC298318F73B0D5514EFFCF13009935E
:1003A0003009933009933009A32127015611EFFC3E
:1003B000F130099330AA455914AA761A005715EF5F
:1003C000FCF130099330099344A92889A4484A983C
:1003D00053005812EFFCF13009A35A148A51161534
:1003E0009330A700590EEFFC29599455C2248DBBB8
:1003F000D3005A0DEFFCF1614EAB6AF3B053005BD2
:100400000CEFFC91218BFBF39043005C0DEFFC297A
:10041000711EE7E53CCE29005D0BEFFC9121EEDF7C
:10042000861C025E0BEFFC696992D5F90B005F092F
:10043000EFFCF9EFC38E006009EFFCA13CE7BF01C0
:10044000610FEFFC7919F26850C22493969C026206
:1004500011EFFCF1B865D2923009132D49761200E4
:10046000630EEFFC7919A230898BD190930064114F
:10047000EFFCA97169A92961122699B4E4140065F9
:100480000FEFFC7919A2301996388C869C04660D02
:10049000EFFC495B294E87306EA7026710EFFC79AD
:1004A000596A51966DF91085D110016811EFFCF170
:1004B000B865D2923009933009730A00690CEFFCD9
:1004C000D97254EE38E814006A0DEFFC597354EEFB
:1004D00094455936016B0FEFFCF1B82DAA8D51569A
:1004E0000A730A006C0AEFFC49723F0E3A056D115F
:1004F000EFFC7951B2A49494925252CA720A006EDF
:1005000010EFFCB927939684499884499853006F5B
:1005100010EFFC7919A23009933009A3212701704B
:100520000FEFFCB927939684899624535C06710ECD
:10053000EFFC79596A4A9864D212B700720BEFFC4B
:10054000B9275B296EA702730FEFFC7919A230D28D
:10055000A5301A721200740DEFFC59E27408E3B66C
:100560006C27017510EFFCB987499884499864D2CB
:10057000925300760FEFFC79C9A22CCA2A6192E649
:1005800034007710EFFC79C9A22C4A4A4929A925E1
:100590003909780DEFFCB987515115A3624E0179E5
:1005A00011EFFCB98749988449262D7112464304FE
:1005B0007A0BEFFCB90F6BD761A7007B0DEFFCB195
:1005C0002DAE877A1AD777047C09EFFC69717FA773
:1005D000017D0DEFFC913DAEE6621ED7760C7E0AE2
:1005E000EFFC492DA53A7F02A006EFFCF97FA10A96
:1005F000EFFC6939DCEF3400A210EFFC69E9969456
:1006000092300993DA9AB301A30EEFFC495B294EAD
:10061000D7B896243B09A410EFFCD9C368C8A22C14
:10062000CA8628CC5900A511EFFCF12CCA2A619288
:100630000D623888714E04A60AEFFC69713BDC9D9F
:1006400006A711EFFC2131CA7231CAA250CFA250C5
:10065000A701A80BEFFC295116E5FC1300A915EF23
:10066000FC2943142689D2949492529228C568C8D2
:100670004900AA0FEFFC497B36445936E4D0A073F9
:1006800001AB11EFFCD9922CC9922C4993344993B8
:100690009C05AC0AEFFCF932C8752E00AD09EFFCE1
:1006A000F932E47C02AE15EFFC2943142689D2A26C
:1006B0005494446951C268C84900AF09EFFC2983CA
:1006C000CE7F01B00CEFFC49629445A1CE6F00B122
:1006D0000EEFFCD9E27010E31C1C741600B20CEF94
:1006E000FCA13489D3F2CE3700B30CEFFC9139CDA5
:1006F000C324CDF908B409EFFCB134E73F02B511CA
:10070000EFFCB9874998844998484AA2D46100B659
:1007100014EFFC2983B2444BB4644A98844998840A
:10072000494E02B708EFFCF9A4F30DB808EFFCF945
:10073000DFD210B90AEFFCA1546EDDF906BA0EEF54
:10074000FC49629445A10E0E394F00BB11EFFCE944
:10075000499AA4499A6449966449CE08BC10EFFCB2
:1007600091546E4B1631099370CE2900BD0EEFFCEB
:1007700091546E8A86244ECB3B05BE10EFFCE734C5
:100780000F93A824266112CE3905BF0EEFFC49391C
:100790005C2D8749180D3909C012EFFCA13C47C5F3
:1007A000A89884C9B08449985300C112EFFCB134B1
:1007B00087C5A89884C9B08449985300C213EFFC38
:1007C0002131CA41312A2661322C6112E61400C35C
:1007D00013EFFC11298974508C8A49980C4B98842A
:1007E0003905C413EFFC91288B72508C8A49980C00
:1007F0004B98843905C513EFFC21310A55312A265F
:1008000061322C6112E61400C614EFFC29C9524C67
:10081000C2244CA63109933019720A00C70EEFFCAE
:1008200029431426718FD1901601C810EFFCA13C0A
:10083000C786258E872C8E879D02C910EFFCB134A8
:100840000787258E872C8E879D02CA11EFFC2131E8
:10085000CAA16189E3218BE361A700CB12EFFC9170
:10086000288B726858E278C8E278D82900CC0EEF5D
:10087000FCA13C070731EE38E81400CD0EEFFCB1C7
:1008800034470731EE38E81400CE0EEFFCB134C91E
:10089000B1418C3B0E3A05CF0FEFFC912CCA726828
:1008A00010E38E834E01D013EFFCF1412B6551967E
:1008B0004CB5288BB264D04900D115EFFC112989C1
:1008C00074284CB4A494949228A929614E01D2139F
:1008D000EFFCA13C0787284CC2244CC2248C869C88
:1008E00004D313EFFCB1344787284CC2244CC224F4
:1008F0008C869C04D414EFFC2131CAB1210A9330B8
:1009000009933009A3212701D515EFFC112989741A
:100910006C88C2244CC2244CC268C84900D615EF6A
:10092000FC91288B726C88C2244CC2244CC268C8CB
:100930004900D70DEFFCD9C3A8A88A51316701D867
:1009400016EFFCD1688832254A4A4953524A4A89EF
:10095000160D510E03D913EFFCA13CC7C2244CC2A3
:10096000244CC2248C869C04DA13EFFCB134072B90
:100970006112266112266134E42400DB14EFFC21AD
:1009800031CAA13009933009933009A3212701DC32
:1009900015EFFC91288B72284CC2244CC2244CC207
:1009A00068C84900DD0EEFFCC13407B328ABA47161
:1009B0003B0DDE10EFFCF17890C2244CC26490E253
:1009C0003A19DF13EFFC4962944559122661949558
:1009D000B228D14900E011EFFC49790E0E79342894
:1009E0006192494B4E01E111EFFC69698E0E793439
:1009F000286192494B4E01E212EFFC496294634335
:100A00001E0D4A9864D2925300E313EFFC29521250
:100A1000E9D8904783122699B4E41400E413EFFC5C
:100A2000295116E5D8904783122699B4E41400E5BD
:100A300013EFFC21310A7570C8A34109934C5A7217
:100A40000A00E611EFFC7951D2241A94288B9248BF
:100A5000C94900E70EEFFC7919A230898BD19016B5
:100A600001E811EFFC49790E0E51980C4B1C4643DE
:100A70004E02E911EFFC69698E0E51980C4B1C4631
:100A8000434E02EA12EFFC49629463431426C312F8
:100A900087D1909300EB13EFFC295116E5D8108510
:100AA000C9B0C46134E42400EC0CEFFC49798ECA6F
:100AB0001D079D02ED0CEFFC69690ECB1D079D0221
:100AC000EE0DEFFC4962948372C741A700EF0EEF71
:100AD000FC295116E5A0DC71D02900F014EFFC913F
:100AE0002814933C1BA23009933009A3212701F15C
:100AF00013EFFC295212E9503269499884499884CD
:100B00003905F212EFFC49790E0E51988449988408
:100B1000D1909300F312EFFC69698E0E51988449CD
:100B20009884D1909300F413EFFC496294634314CA
:100B3000266112266134E42400F513EFFC295212D9
:100B4000E9D8108549988449180D3909F613EFFC46
:100B5000295116E5D8108549988449180D3909F7A7
:100B60000DEFFCD9E21C1C7430CED900F812EFFC5A
:100B7000B94643942951D29468D110E53000F91256
:100B8000EFFC49798E85499884499864D292530044
:100B9000FA11EFFC69690E56C2244CC22493969C4C
:100BA00002FB13EFFC4962944361122661122699FD
:100BB000B4E41400FC13EFFC295116E55098844965
:100BC000988449262D3905FD13EFFC69690E56C23C
:100BD000244C32698993301A2200FE11EFFCE9712E
:100BE00065D2923009132D49A63806FF15EFFC296E
:100BF0005116E5509884499864D212276134440014
:100C000000000004FFFF0000781911241FBECFEF81
:100C1000CDBFDFE3DEBF80914000809340008111B3
:100C200005C098ED21E094BF209341008CBB2DE3DB
:100C3000ACE0B8E301C01D92AA3AB207E1F718E3AD
:100C4000A0E0B8E3ECEEF9E402C005900D92AC3000
:100C5000B107D9F716E0C5E0D6E004C02197FE0140
:100C60000E941721C430D107C9F70E94721A0C9450
:100C70002F23C6C9662329F06A3019F0862F90E029
:100C800008958FEF9FEF0895AF92BF92CF92DF92BA
:100C9000EF92FF920F93CF93DF93EC01DA0179018A
:100CA000942F9770E1E0F0E09F01092E01C0220F20
:100CB0000A94EAF7522F6E018AE8C80ED11CF60199
:100CC000808140E0823018F4422F813049F15D018B
:100CD000F8EFAF22E8ADF9AD28813981D9015096FE
:100CE0008C918A9D90018B9D300D1124620F731F92
:100CF000DF01A60FB71F01111AC0EA0EFB1E8C916F
:100D0000842B85278D93AE15BF05C9F7DF91CF9151
:100D10000F91FF90EF90DF90CF90BF90AF9008952C
:100D200050E0D5CF440F550FE114F10479F33C9115
:100D3000342B35273C939F5F9770E1E0EE1AF10862
:100D40009111F0CF2CAD3DADA20FB31FF601808104
:100D5000823028F4813009F051E041E0E5CF51E0E4
:100D6000E3CF80E0089590E080E0089581E08093F3
:100D70009D3D0895E091A338F091A438858183705A
:100D800009F442C0838180FF3FC05091A7385E7F45
:100D900030E020E090E04581842F83702F5F3F4F4B
:100DA000293E63E0360740F0823041F1813041F165
:100DB00084E093E09483089543FF04C088E0858332
:100DC00082E1F7CF813021F4578330E020E0E3CF98
:100DD000823009F746FFDFCF44FF04C0992349F36F
:100DE00083E0E7CF8091A838981760F4A92FB0E08E
:100DF000A055B74C8C9180879F5FE7CF85E0D9CF16
:100E000081E1D7CF80E0D5CF80E10895CF92DF9206
:100E1000EF92FF926B017C0180E8C8168AE1D80648
:100E200086E0E806F10480F560E271EA87E090E090
:100E3000A70196010E9445202550310937FD24C0A5
:100E40002F3F310509F014F5E091A338F091A43853
:100E50008681821799F093811382268381E8C816D0
:100E60008AE1D80686E0E806F10490F0808182608D
:100E70008083938390FF02C081E0858380E0FF90B0
:100E8000EF90DF90CF90089520E0DECF2FEFDCCF02
:100E900080818D7FEDCF9B01DC011896ED91FC9157
:100EA00041E067E10994AF92BF92CF92DF92EF9257
:100EB000FF920F931F93CF93DF936C017B018B0104
:100EC000040F151FEB015E01AE18BF08C017D10754
:100ED00059F06991D601ED91FC910190F081E02DDE
:100EE000C6010995892B79F7C501DF91CF911F9133
:100EF0000F91FF90EF90DF90CF90BF90AF9008954B
:100F000008959FB7F89488E08093840A80918E0AB0
:100F100081FFFCCF80918D0AE091A20AF091A30A93
:100F200020917E3830917F384091803850918138BF
:100F30009FBF80FF07C0E730F10520F42F5F3F4FD0
:100F40004F4F5F4FAEEFB1E00E94651F6E0F7F1FE6
:100F5000811D911D22E0660F771F881F991F2A951A
:100F6000D1F70895CF92DF92EF92FF92CF93DF9364
:100F70006B017C01C6DFEB01C114D104E104F10473
:100F800041F412C081E0C81AD108E108F108C85143
:100F9000DC4FB7DF6C1B7D0B683E734068F3C114F8
:100FA000D104E104F10471F7DF91CF91FF90EF904C
:100FB000DF90CF90089590E0FC01EF5FF643208131
:100FC0002F3F69F18D5E9643FC018081E82FE29509
:100FD000EE0FE07EE20FF0E0E05FFB4F9081917F4B
:100FE000908390E0FC0134E0EE0FFF1F3A95E1F7AB
:100FF000422F50E061E070E001C0660F2A95EAF7E9
:101000006383880F991FFC01E050F84C440F551F73
:101010000190F081E02DE40FF51F108211820895F8
:10102000DC011896ED91FC91848188608483089599
:101030009C012B5C3F4FDC011F96EC911F971E9685
:101040008C91E81730F4E20FF32FF11D808190E0CE
:1010500008958FEF9FEF0895FC01DC01D5969785E9
:101060008685981740F4A90FB11D2C919F5F978733
:10107000822F90E008958FEF9FEF0895FC01868501
:101080009785891B990B0895FC01A585A03258F41A
:10109000A80FB92FB11D55966C9385858F5F8587F5
:1010A00081E090E0089590E080E00895682F8BE95A
:1010B00098E3EACFBF92CF92DF92EF92FF920F9325
:1010C0001F93CF93DF937C016A01B62EEB010C2FA7
:1010D0000B1910E00C151D0528F46991C701D4DF28
:1010E000892BA9F7C801DF91CF911F910F91FF9034
:1010F000EF90DF90CF90BF900895DC011A96ED91AC
:10110000FC9130E020E00994DC011696ED91FC9111
:1011100030E020E040E069E10994DC011696ED91B1
:10112000FC9130E020E040E068E109949A01DC01A4
:101130001696ED91FC91462F67E10994EF92FF928C
:101140000F931F93CF93DF931F92CDB7DEB77C0130
:101150008B01D8016C91673121F150F4653198F41D
:101160000F90DF91CF911F910F91FF90EF90089515
:101170006A3108F16E3FA1F7F8014181498369E2C4
:10118000C701BBDF0BC0F80141814983D701169627
:10119000ED91FC9130E020E0C70109950E5F1F4FF3
:1011A000D8CFF80181818983AE014F5F5F4F61E045
:1011B000C701BCDFF3CF0F5F1F4FD7011696ED912C
:1011C000FC9130E020E040E0C7010995C2CF462FF6
:1011D000DC011696ED91FC9130E020E066E1099487
:1011E000462FDC011696ED91FC9130E020E065E1A0
:1011F0000994EF92FF920F931F93CF93DF93EC012B
:10120000042F79016D3009F43FC050F46B3099F12F
:10121000693009F48CC06A3009F458C080E03EC0DF
:101220006E3009F449C06F3099F777DFF701138109
:10123000110F110F110F6C89160F60E4CE01D0DF72
:10124000612F62956F706061CE01CADF612F6F7090
:10125000CE01BDDFF7016481606BCE01B8DFF7011D
:10126000408151816281660F660F660FCE015EDF9D
:101270000150A9F728C06DE978EC442311F068E922
:1012800078ECCE015BDF09C041110FC061E978EC59
:1012900055DFE881F98182898C8B81E0DF91CF91E4
:1012A0001F910F91FF90EF9008956AE878EC46DF68
:1012B000E881F9818389F0CF30DF61E8CE0190DFEA
:1012C000602FCE0184DFCE011FDFE7CFEA85FB85EB
:1012D00030E020E040E068E2CE010995EE81FF8138
:1012E00030E020E040E064E1CE01099541E06BE4AC
:1012F000CE0103DFE881F981448169E2CE01FDDEA0
:1013000040E06BE4CE01F9DEE881F981448169E2D5
:10131000CE01F3DE41E06BE4CE01EFDEE881F9813E
:10132000458169E2CE01E9DE62EA78ECAACF87ED79
:1013300098EC888399831C8AB0CFDC011896ED91D4
:10134000FC9130E020E040E069E10994DC0118966E
:10135000ED91FC9130E020E040E068E10994CF930A
:10136000DF931F92CDB7DEB76983BE016F5F7F4FFA
:1013700092DD0F90DF91CF910895EF92FF921F932E
:10138000CF93DF93EC01162F7A01E0DF60E4CE010A
:10139000E6DFE885F9859701412F67E1CE010995E0
:1013A000CE01DF91CF911F91FF90EF90C6CFEF92CA
:1013B000FF921F93CF93DF93EC01142F79016631D5
:1013C00059F138F4643109F442C0653171F080E0BC
:1013D0001DC0683189F120F16931C9F780917738F2
:1013E000882351F1CE01A9DF27C080917738882367
:1013F00011F0CE01A2DFCE01A9DF60E0CE01AFDFA8
:10140000612FCE01ACDF81E080937738DF91CF91FF
:101410001F91FF90EF900895642FA1DF81E0F6CF38
:1014200080917738882311F0CE0187DFA701193129
:1014300030F4612FCE01A1DF10927738EFCF68E151
:10144000CE019BDF185188E1E80EF11CEFCF8E89A9
:101450008F3F11F488E78E8BE885F9859701412F3E
:1014600064E1CE01DF91CF911F91FF90EF9009943D
:101470000F93FC01E05CFF4F0190F081E02D4E1BCB
:101480005F0BDC01D496ED91FC9109950F910895C5
:10149000CF93DF93FC01A081B18182AD90E09C01EC
:1014A00043E0220F331F4A95E1F726AF37AF50963E
:1014B0002C91509748E0249F9001112424AF35AF20
:1014C00023AD30E0B90153E0660F771F5A95E1F77D
:1014D000EF01C05CDF4F6883798351964C9151973F
:1014E000E901C80FD91F50E04C175D0718F4CA0175
:1014F000821B930BEF01CE5BDF4F688379832296CB
:1015000023E0880F991F2A95E1F7860F971F88839C
:101510009983229654968D919C91559788839983AF
:10152000E85BFF4F56968D919C9180839183DF916C
:10153000CF9108950F931F93FC01E25BFF4F019041
:10154000F081E02DDC01A05BBF4F0D90BC91A02D80
:101550004A175B0740F4E017F10748F00417150736
:1015600030F080E019C0E017F107C0F3FACFFC01BA
:10157000E65BFF4F40815181845B9F4FFC0180817E
:1015800091816817790758F481E04217530720F0DA
:1015900081E02617370728F71F910F91089542170A
:1015A0005307B0F3DECF2F923F924F925F926F922C
:1015B0007F928F929F92AF92BF92CF92DF92EF92E3
:1015C000FF920F931F93CF93DF93CDB7DEB72A9788
:1015D000CDBFDEBF89879A87865B9F4F89839A83B9
:1015E000FC0110821182E985FA85EA5BFF4F408099
:1015F000518029853A85245B3F4F2B833C83F90139
:1016000040825182E985FA85EE5BFF4F2080318070
:1016100029853A85225B3F4F2D833E83F901208245
:101620003182E985FA85EC5BFF4F60807180298506
:101630003A85205B3F4F2F833887F90160827182A2
:10164000E985FA85E85AFF4FE080F180E985FA855F
:10165000EC5AFF4FA080B180E985FA85EA5AFF4F26
:10166000C080D180E985FA85EE5AFF4F8080918055
:1016700087019501A601B40189859A855BDF2985DB
:101680003A852C573F4F29873A87811118C0F901B5
:1016900010822A96CDBFDEBFDF91CF911F910F91AF
:1016A000FF90EF90DF90CF90BF90AF909F908F9082
:1016B0007F906F905F904F903F902F90089581E0C2
:1016C000E985FA8580838114910421F0E981FA810A
:1016D00080829182A414B50420F4EB81FC81A08265
:1016E000B1822C143D0420F4ED81FE81C082D182B0
:1016F000E614F70470F6EF81F885E082F182C9CF35
:101700000F93CF93DF93E02FDC01AC57BF4FFC91D9
:10171000FF2309F460C02115310509F45CC02230B3
:10172000310538F0023009F04AC06F5F7F4F621B0D
:10173000730B0E2F0170E0FD52C0FC01E25BFF4F06
:101740000190F081E02D4E175F0708F444C0FC01C2
:10175000E05BFF4F0190F081E02D4E175F07D8F559
:10176000FC01E45BFF4F0190F081E02DDC01A65B02
:10177000BF4F0D90BC91A02D260F371F261737079E
:1017800038F56E177F0718F59F0121503109A21710
:10179000B30708F56A177B0708F4BD012E173F074A
:1017A00008F4F901E61BF70BEC01AEA9BFA91496EA
:1017B0000D90BC91A02D9F01FD0109950CC0033037
:1017C00009F0B7CF4F5F5F4F421B530BB2CFBD0144
:1017D0006E177F07E0F2DF91CF910F910895FC0122
:1017E000E65BFF4F0190F081E02D6E177F0798F3C5
:1017F000FC01E45BFF4F0190F081E02D6E177F0745
:1018000050F7FC01E05BFF4F0190F081E02DDC011F
:10181000A25BBF4F0D90BC91A02D240F351F241744
:101820003507A8F44E175F0788F49F01215031094E
:10183000A217B30780F64A175B0708F4AD012E170D
:101840003F0708F4F901E41BF50BAECFAD014E17CD
:101850005F0708F6EDCF8A579F4FFC018081082E65
:10186000000C990B01960895213069F038F0223070
:1018700079F0840F911D47FD9A950895860F911D6B
:1018800067FD9A950895841B910947FD93950895E6
:10189000861B910967FD93950895213069F038F012
:1018A000223079F0861B910967FD93950895840F86
:1018B000911D47FD9A950895860F911D67FD9A9594
:1018C0000895841B910947FD939508953F924F9287
:1018D0005F926F927F928F929F92AF92BF92CF92C0
:1018E000DF92EF92FF920F931F93CF93DF937C01D0
:1018F000162F442EEC01C25ADF4F5E806F806C01C0
:101900008AE8C80ED11C78847518312E711608F437
:10191000372C8C809D800E85202F462D652D8A8149
:101920009B81A2DF5C01202F462D652DC401B5DF10
:10193000AC01442071F08C85F6018083232D30E0CA
:10194000B501C701DDDE171548F017196394512C56
:10195000DACF8B858111F7CF8D85EECF150D1E83E4
:101960006F82DF91CF911F910F91FF90EF90DF90E9
:10197000CF90BF90AF909F908F907F906F905F902F
:101980004F903F900895DC011A964C911A97ED9173
:10199000FC911197249130E0042E02C035952795D3
:1019A0000A94E2F7842F860F883068F03196ED9321
:1019B000FC931197E49198E0941B01C0EE0F9A9567
:1019C000EAF72E2B88501A968C938FEF9FEF01C069
:1019D000880F6A95EAF7809582230895FC01E60F47
:1019E000F11D849190E0982F88273196E4918E0F15
:1019F000911D08954F925F926F927F928F929F9266
:101A0000AF92BF92CF92DF92EF92FF920F931F930C
:101A1000CF93DF93EC016B018A017901FC01E4595A
:101A2000FF4F8081813009F44BC008F43EC0823002
:101A300009F451C0833009F459C0FE01E05AFF4F48
:101A4000C082D18232960083118338978081918140
:101A500047962FEFE216F10411F008F0EBC0E1E633
:101A6000EE16F10408F44DC0FE01E058FF4F20814E
:101A70003181820F931F9C012F5F3F4FF9014491E9
:101A8000411148C090E080E0DF91CF911F910F910C
:101A9000FF90EF90DF90CF90BF90AF909F908F908E
:101AA0007F906F905F904F900895FE01E45AFF4F32
:101AB0000190F081E02DCE010995080F191FBDCFCF
:101AC000FE01E45AFF4F0190F081E02DCE0109950F
:101AD000C81AD90AB2CFFE01E45AFF4F0190F08133
:101AE000E02DCE010995081B190BA7CFFE01E45A82
:101AF000FF4F0190F081E02DCE010995C80ED91E4F
:101B00009CCFF1E4EF16F10408F4B5CFFE01E258E2
:101B1000FF4FADCFFC0144914E151F0409F085C065
:101B20000296009709F4AECF7E01FEE5EF0EF11CA0
:101B3000F70180839183128673966081C70123DF4A
:101B4000F701808774966081C7011DDF982EF70129
:101B500081875E01FAE8AF0EB11CF5019081F701B3
:101B6000948781E0911180E0F7018587FE01ED58AF
:101B7000FF4FC0806C2DC70106DF582EFE01EC58C8
:101B8000FF4FD0806D2DC701FEDE482EFE01EB58C1
:101B9000FF4F1081612FC701F6DE9FEF910F01E02B
:101BA00010E0980101C0220F9A95EAF7882E821A58
:101BB000F701608416140CF0A3C0CA94C80101C0D8
:101BC000880FCA94EAF7581A7684490CDA94A80167
:101BD00001C0440FDA94EAF7F42FF4194F2E272DA1
:101BE0004F2F652DF701828193813EDE6C01F70155
:101BF00082839383272D442D652D848195814DDE2D
:101C0000F70184839583F1E07F1609F47DC07F1688
:101C100008F43DC022E0721609F485C0E3E07E16A8
:101C200009F495C0BC0196013CC0F9012491820FD2
:101C3000911D21CFFE01EE57FF4F00811181080F4A
:101C4000191F680160E0C601C9DE080F191F62E0B4
:101C5000C601C4DEF4E0CF0ED11C8E159F0590F3B3
:101C6000F801849190E0982F88273196E4918E2B8B
:101C7000009709F407CFE816F90619F4C80103968E
:101C800050CFF8013296E4910E0F111DE9CF960165
:101C9000260D311D67FC3A95BC01690D711D97FC3D
:101CA0007A958B01AC01B601CE0144DC882341F169
:101CB000F701168217828E0101591F4F6E01F0E75E
:101CC000CF0ED11CF8016081C7015DDE682EF601E0
:101CD0006081C70158DE782E40E0662DCE01F6DD2A
:101CE00041E0672DCE01F2DD61E0C7014CDE8111DC
:101CF000F3CFF701878189152CF38485F501808363
:101D0000882D880C990BC0CE0919110997FC1395E1
:101D100096012F5F3F4FBC01660D711D67FC7A95E0
:101D2000C00ED11EBECFA8014619510967FC5395BC
:101D300096012F5F3F4F0919110997FC1395BC01BC
:101D40006F5F7F4F800F911FC40ED51EAACF9601E3
:101D5000290D311D97FC3A950619110967FC139559
:101D6000BC016F5F7F4F800F911F9BCFCF92DF929F
:101D7000EF92FF920F931F93CF93DF938C011092FA
:101D80002B3D7B01D12CC12CD0E0C0E0F70161914B
:101D90007F01E091153DF091163D83E19DE30995AA
:101DA0008F3F980711F18E3F2FEF920779F39C0137
:101DB000A801BE0183E19DE31DDE20917F3D21301E
:101DC00059F038F0223059F0233061F0C80ED91E96
:101DD000DDCFC80FD91FFACF080F191FF7CFC81BC7
:101DE000D90BF4CF081B190BF1CFC601DF91CF91AE
:101DF0001F910F91FF90EF90DF90CF900895CF93B8
:101E0000DF93EC016BAFEEA9FFA90190F081E02D0B
:101E10000995EEA9FFA90280F381E02DCE01DF91A3
:101E2000CF910994AF92BF92CF92DF92EF92FF923F
:101E30000F931F93CF93DF93CDB7DEB72597CDBF19
:101E4000DEBF8C01DC01DA96AC90DA97DB96EC9081
:101E5000DB97ED91FC91B188FE2CD12CC12CD801DF
:101E6000ED91FC9111978089D8962D913C911C821F
:101E7000FD828B83B8E08B9FC00111248C9DA00153
:101E80008D9D500D9C9D500D1124240F351F2983CD
:101E90003A83D8011496ED91FC919E012F5F3F4F3C
:101EA00041E06FE0C8010995F3948F2D8E198A15D2
:101EB00028F4BFEFCB1ADB0AFB1488F22596CDBFBE
:101EC000DEBFDF91CF911F910F91FF90EF90DF90D8
:101ED000CF90BF90AF900895FC01668308958091E4
:101EE0006D3D90916E3D8C57904009F491C0ECE7A8
:101EF000F0E0E0936D3DF0936E3DE491E093803D22
:101F0000EDE7F0E0E491E093813DEEE7F0E0E4916D
:101F1000E093823DEFE7F0E0E491E093833DE0E879
:101F2000F0E0E491E093843DE1E8F0E0E491E093B7
:101F3000853DE2E8F0E0E491E093863DE3E8F0E0FF
:101F4000E491E093873DE4E8F0E0E491E093883D9C
:101F5000E5E8F0E0E491E093893DE6E8F0E0E49123
:101F6000E0938A3DE7E8F0E0E491E0938B3DE8E818
:101F7000F0E0E491E0938C3DE9E8F0E0E491E09357
:101F80008D3DEAE8F0E0E491E0938E3DEBE8F0E08F
:101F9000E491E0938F3DECE8F0E0E491E093903D34
:101FA00061E18CE790E01ADD8093913D9093923D42
:101FB00063E18CE790E012DD8093933D9093943D34
:101FC00065E18CE790E00ADD8093953D9093963D26
:101FD00080916D3D90916E3D892BD1F080918D3D2A
:101FE0008093993D40918E3D40939A3D9091983DCC
:101FF000992371F09130A1F590918F3D891714F4D8
:102000009093993D8091903D841714F480939A3D6C
:1020100081E08093983D80916D3D90916E3D892B3C
:10202000A1F020918D3D2093993D90918E3D90930C
:102030009A3D80918F3D281714F48093993D8091AB
:10204000903D891714F480939A3D0E94B6068BE266
:102050009CE080936F3D9093703D10927F3D08957A
:1020600030918A3D20918C3D082E000C990B622FF7
:10207000022E000C770B630F711D37FD7A958617C2
:1020800097071CF4320F3093993D24170CF0C0CF02
:1020900020939A3DBDCFCF92DF92EF92FF920F93A4
:1020A0001F93CF93DF936C01EB017B01E40EF51ED0
:1020B00010E000E0CE15DF0561F06991D601ED91E9
:1020C000FC910190F081E02DC6010995080F191FC0
:1020D000F1CFC801DF91CF911F910F91FF90EF9049
:1020E000DF90CF900895CF92DF92EF92FF920F93FF
:1020F0001F93CF93DF93EC016C0124E0C20ED11C3F
:10210000FC01E057FF4F0190F081E02DC6010995D9
:102110008E3FEFEF9E07D0F48E010C561F4FF80153
:10212000408151817E01F2E9EF0EF11CF7016081DF
:1021300071819C01C6015EDCC059DF4F28812130CE
:10214000C1F078F02230B9F02330E9F081E090E07E
:10215000DF91CF911F910F91FF90EF90DF90CF9083
:102160000895F70120813181820F931F808391832D
:10217000EDCFF801F7CFF70120813181281B390B12
:1021800020833183E3CFF801F7CF089590E080E01A
:102190000895EBE9F8E388E78487158680E490E00A
:1021A0000C945608CF93DF93823108F047C090E03B
:1021B000EC01CB5DD64328812F3F09F43FC0AC0131
:1021C0004D5E5643DA01EC91B0E2EB9FF001112431
:1021D000FC5F611136C0268330812323A1F49C016A
:1021E0002F5F3643D9012C913097A1F1283090F51B
:1021F0007096E20FF11D3FB7F894208161112DC058
:10220000277F20833FBF81519743FC019081992311
:10221000A9F08881903441F1903819F1903171F42E
:10222000DA019C919130D9F4853010F0880F8295B5
:102230009091010A809589238093010ADF91CF91C3
:102240000895643029F43481278364816223C4CFE4
:102250002583C2CFF0E0E0E0CECF2860D2CF880F58
:10226000E7CF1092A006EACF20E4823009F420E8FC
:102270009091920A922311F36FB7F8949091800A8B
:102280009E7F9093800A4091920A30E0209530958D
:1022900050E02423352398ED94BF2093920A909127
:1022A0008E0A90FFFCCF9091800A91609093800AF3
:1022B000813039F4809150048F77809350046FBF40
:1022C000BDCF809151048F7780935104F8CF0F9345
:1022D0001F93CF93DF93EC01062F142F60E08985C5
:1022E00061DFEB85FC859F8188852085222319F09D
:1022F0002FB72187F89421E02287909320088093BC
:1023000021080000009324088091230887FFFCCF58
:10231000809124080000109324088091230887FFEF
:10232000FCCF10912408EB85FC858285882331F051
:1023300012868085882311F081858FBF61E08985B1
:1023400031DF812FDF91CF911F910F91089540E8E8
:1023500061E8BDCF41E861E8BACF40E0B8CFCF92A5
:10236000DF92EF92FF92CF93DF936DE18DEF98E3D1
:10237000F4DF90E034E0959587953A95E1F78A305F
:1023800091050CF03FC0FC01EE0FFF1FE80FF91F95
:10239000E95CF643C080D180E2800E2C000CFF087F
:1023A0006EE18DEF98E3D9DFD82F66E28DEF98E3E9
:1023B000D4DFC82FD295DF7021E030E040E050E05C
:1023C00004C0220F331F441F551FDA95D2F7C701EF
:1023D000B6010E94672068EE73E080E090E00E9402
:1023E000672021313105410551058CF04C2F4860A3
:1023F00066EA8DEF98E3DF91CF91FF90EF90DF9049
:10240000CF9065CFCC24CA94DC2C7601C9CF4C2F59
:10241000477FEECFCF93DF93EC0161E09EDF8370C7
:10242000833059F062E1CE0198DF83FF04C048E0B9
:1024300062E9CE014CDF80E001C081E0DF91CF9105
:102440000895CF92DF92EF92FF920F931F93CF9355
:10245000DF938C016AE181DFC82FD0E0F801668547
:102460007785808991890E94B51E2AEE36E54AEF6C
:102470005DE40E94AF1E87FD44C08DE990E0C81B5B
:10248000D90B69E1C80169DF87FD8D5F8595859569
:10249000682F880F770B880B990B0E94B51E6B0174
:1024A0007C0120E030E0A9010E94AF1E87FF0DC033
:1024B000BE01DD0F880B990B0E94B51EA701960186
:1024C0000E94B01F0E941420EB019E01DD0F440BFF
:1024D000550B20583F4F4F4F5F4FA4E6B0E00E948E
:1024E000651F26E730E040E050E00E946720C90108
:1024F000DF91CF911F910F91FF90EF90DF90CF90E0
:10250000089584EA90E0BBCFFB0180818D3F09F004
:102510004BC08181811148C02FB7F89480918238D7
:1025200090918338A0918438B09185382FBF8093E3
:102530005C3890935D38A0935E38B0935F3880919B
:102540005A3890915B38019680935A3890935B3853
:102550008481958180935838909359388DEF98E312
:1025600070DF80938F389093903880915C38909191
:102570005D38A0915E38B0915F38409191385091AC
:1025800092386091933870919438841B950BA60B08
:10259000B70B8093543890935538A0935638B09326
:1025A000573881E0809388380895CF92DF92EF9278
:1025B000FF920F931F93CF93DF937C01C62EC72FFB
:1025C000D42E63E1CADED82F0C2D1C2FC0E0CD170E
:1025D00051F0CD1541F060E0C701BFDECF5FF801DB
:1025E00081938F01F4CF8C2F90E0DF91CF911F91D9
:1025F0000F91FF90EF90DF90CF9008951F93CF93AE
:10260000DF93EC01009759F1469710F0C5E1D0E057
:102610001C2F4C2F62E678E38DEF98E3C6DF30E0A5
:102620002AE52197832F90E08C179D073CF48E5963
:10263000974CFC018081280F3F5FF4CF8091763862
:1026400028130DC0E0917B38F0917C38309739F039
:1026500062E678E3812FDF91CF911F910994DF919A
:10266000CF911F9108950F931F93CF93DF93EC01A8
:1026700062E173DE182F482F62E9CE0128DE15FDD6
:1026800023C016FF16C063E1CE0167DE082F10E0FD
:1026900060E1CE0162DE482F6DE8CE0118DEEA81EE
:1026A000FB81309789F0C801DF91CF911F910F9185
:1026B000099413FF09C0EC81FD81309729F0DF9167
:1026C000CF911F910F910994DF91CF911F910F919D
:1026D00008958DEF98E3C7CFCF93DF93EC0140E0EF
:1026E00060ECF5DD45E861E8CE01F1DD81E090E0E8
:1026F000DF91CF91089581E080937D388DEF98E34D
:10270000EBDFE0917938F0917A38309709F009944D
:102710000895AF92BF92DF92EF92FF920F931F93B3
:10272000CF93DF93EC015B01D42EE881F981008C1B
:10273000F18DE02D099581110FC0E881F9810084A8
:10274000F185E02DCE01099540E06DE8CE01BFDDB9
:1027500040E062EACE01BBDD8501ED2CF12CC80121
:102760008A199B098E159F0538F4F80141918F0154
:1027700060E8CE01ACDDF3CF4D2D62EACE01A7DDDE
:102780008C819D81892B21F040E460ECCE019FDD9E
:1027900043E861E8CE019BDDC701DF91CF911F9136
:1027A0000F91FF90EF90DF90BF90AF9008950F933F
:1027B0001F93CF93DF938C01EB0162317105C4F05D
:1027C0006531710514F0C4E1D0E0239747E86DEC62
:1027D000C8017DDD41E36BE8C80179DD4C2F425033
:1027E000406869E8C801DF91CF911F910F916FCDCB
:1027F0006230710514F4C2E0D0E044E86DECC80129
:1028000066DD4BE2E8CF8231F0F490E0FC01EB5D55
:10281000F64320812F3FB9F0FC01ED5EF643E081E5
:1028200030E2E39FF0011124FC5F60FF0DC02183C3
:102830008F5F9643DC018C91E80FF11D808961FF69
:1028400005C08860808B08952283F2CF877FFACFFE
:10285000CF93DF93EC0160E08E81D5DF8E818231F2
:1028600088F590E0FC01EF5FF643E081EF3F51F126
:102870008D5E9643DC018C9190E0DC01AA0FBB1FBA
:10288000A050B84C2D913C9121153105D9F04E2F17
:1028900050E0440F551F240F351F49E653E1D9017D
:1028A0004D935C932FB7F894E05F75E0880F991F04
:1028B0007A95E1F7E80FF0E0FC5F8081887F826025
:1028C00080832FBFDF91CF910895FC0164837583CE
:1028D000672B09F0BDCF8681823110F40C94DB07A1
:1028E0000895FC0162837383672B09F0B1CF868161
:1028F000823110F40C94DB070895CF93DF93EC0141
:10290000EB85FC85809120088E7F809320081782BC
:1029100060E080E178DF60E08FE075DF60E08EE00E
:1029200072DF60E089856FDF8D858F3F21F060E089
:10293000DF91CF9168CFDF91CF9108958F929F92D1
:10294000AF92BF92CF92DF92EF92FF920F931F93BD
:10295000CF93DF93EC016A017B0161E0898553DF4E
:1029600061E089851FDC8D858F3FA1F061E04BDF41
:1029700060E08D8517DC6AE070E080E090E00E9406
:10298000B20761E08D850EDC6AE070E080E090E0E7
:102990000E94B207EB85FC858781811106C01086F5
:1029A000128680E8818781E08783809101028B7F96
:1029B0009681892B809301028681811191C061E00B
:1029C0008EE021DF61E080E11EDF809121088460DC
:1029D0008093210880912008816280932008909143
:1029E000FB388091FC38909320088093210862E4A2
:1029F000CE01B3DC823109F07CC0E881F981068028
:102A0000F781E02DCE010995CE86DF86E88AF98A26
:102A100046015701BB0C8808982C54019601A70168
:102A2000682D782D882D982D03E10E94E120A12C9E
:102A3000E8E4BE2EF8EECF2EDD24D394E12CF12C69
:102A400000E010E00E948520F22E832E942EA52E09
:102A5000B62EC72ED82EE92E00E10E94FC20422F70
:102A600066E8CE0134DC2F2D382D492D5A2D6B2DE3
:102A70007C2D8D2D9E2D08E00E94FC20422F67E8C2
:102A8000CE0125DC4F2D68E8CE0121DC40E06EE868
:102A9000CE011DDC40E06FE8CE0119DC6CE0CE0118
:102AA0005CDC482F43606CE8CE0111DC44E066EA50
:102AB000CE010DDCE881F9810084F185E02DCE01A5
:102AC000099581E090E0DF91CF911F910F91FF90E8
:102AD000EF90DF90CF90BF90AF909F908F90089530
:102AE000843009F072CF61E08CE08DDE61E08AE035
:102AF0006BCF90E080E0E7CFCF93DF93EC016831BC
:102B000009F455C030F46431A1F0673159F080E028
:102B100006C0693109F461C06032C9F781E0DF9114
:102B2000CF91089550E0B9018BE998E30E945A08CB
:102B3000F5CF8C859D85AE85BF85892B8A2B8B2B08
:102B400071F4E881F981A585B0E020EA36E841E03A
:102B500050E00E94651F6C877D878E879F878091DC
:102B6000A53881FDDBCF82FDD9CF8091010284FFA2
:102B70001AC086E0809306048091A5388260809315
:102B8000A538E091A338F091A43881E08383858350
:102B90008091A53881FFC2CF60EA76E881E090E0BD
:102BA0000E940607BBCF83E080932604E5CF6C85A7
:102BB0007D858E859F85683E23E07207810591059E
:102BC00028F02091A53821FD0E9406078E898E7F6E
:102BD0008093A7381092A838A1CF0E94BA069ECF42
:102BE0000F931F93CF93DF93FC01C62F642FCC323A
:102BF000C8F5CA3208F05BC0C83209F447C0C93210
:102C000009F45BC080E0C03408F452C0CF73DF0128
:102C1000AC0FB11D5E968C918F3F09F448C0C03156
:102C200098F1282F30E0823108F050C0D901AB5D17
:102C3000B6438C918F3F09F449C02D5E3643E901BC
:102C4000A881D0E2AD9FD0011124BC5F18969C9161
:102C5000982381E009F480E091E0811101C090E0C7
:102C6000918F25C0CD3219F168F284EB8C0F823040
:102C700048F6CF73CE0FDF2FD11D8E8D411123C0AB
:102C800061E0C1DD60E08E8D8DDA11C08C01025EE5
:102C90001F4FD0E0F80181918F018F3F29F061E053
:102CA000D03108F062E0AFDDDF5FD63199F781E027
:102CB000DF91CF911F910F91089570E090E080E037
:102CC0000E94B207F4CF62E09EDDF1CF8FEFC4CF58
:102CD000CF93DF93C62FD42FEBE9F8E388E78487FF
:102CE000158690E080E00E9456088D2F90E0805578
:102CF0009F4F0E9456088C2F82958F70806190E0C4
:102D00000E9456088C2F8E70816090E00E945608B9
:102D10000E94BA06C0936038D0936138DF91CF919A
:102D20000895FF920F931F93CF93DF936D3061F05F
:102D3000C62F8C016A3081F4409161384F5F409317
:102D4000613860E0C801C4DF81E090E0DF91CF919D
:102D50001F910F91FF900895809160388B3770F02C
:102D600010926038809161388F5F883008F58093C9
:102D700061384091613860E0C801AADF0ADAC052C8
:102D800086E0C89FE0011124CE59D943F12C699106
:102D90008BE998E30E944408F39486E0F812F7CF99
:102DA0000E94BA06609160386A5F40916138CACF6C
:102DB00087E0DDCF0F931F93CF93DF93EC018881E2
:102DC0009981009759F02A813B812617370730F007
:102DD00081E0DF91CF911F910F9108958B016F5F7B
:102DE0007F4F0E944222009759F0888399830A837B
:102DF0001B832C813D81232B59F7FC011082E8CFE6
:102E000080E0E7CFEF92FF920F931F93CF93DF9372
:102E1000EC017B01FB0101900020E9F731978F0164
:102E2000061B170BB801C6DF28813981811113C039
:102E30002115310519F0C9010E94B92118821982A2
:102E40001C821D821A821B82DF91CF911F910F91EC
:102E5000FF90EF9008950C831D83B701C901DF91A6
:102E6000CF911F910F91FF90EF900C940823FC01DC
:102E7000A081B18150962C9182AD38E0839FC00132
:102E80001124289FA001299F500D112470E060E0BB
:102E900080AD91AD0C9401231F93CF93DF93EC0190
:102EA0000E94120F1BAD8AAD180FE881F98181894C
:102EB000181768F0EC81FD8130E020E040E060E12F
:102EC000CE01099580E0DF91CF911F910895FE0119
:102ED000E557FF4F8081882311F0CE01C8DF612FB5
:102EE000CE010E94FF0E81E0EECFCF93DF93EC0185
:102EF000FC01E557FF4F8081882311F0CE01B7DF39
:102F000060E0CE01DF91CF910C94FF0E83E19DE351
:102F1000ECDF83E19DE3C0DF8111FBCF60E083E163
:102F20009DE30C94FF0E6F927F928F929F92AF92CF
:102F3000BF92CF92DF92EF92FF920F931F93CF93A6
:102F4000DF93CDB7DEB7E297CDBFDEBF83E19DE370
:102F5000CCDF89E9882E89EC982E8E010F5F1F4FF8
:102F60009AE3E92E96E0F92E29EAA22E29ECB22E58
:102F700039EBC32E39ECD32E48EC642E49EC742E79
:102F80000E946F0F809159388F93809158388F939A
:102F9000809190388F9380918F388F939F928F92EA
:102FA0001F930F930E940F23E092153DF092163D60
:102FB000B80182E090E00E94B60E80915B388F935A
:102FC00080915A388F9380918A388F938091893875
:102FD0008F93BF92AF921F930F930E940F23E092A3
:102FE000153DF092163DB80182E190E00E94B60EC8
:102FF00080918B3890918C38A0918D38B0918E381B
:1030000040919138509192386091933870919438F2
:10301000841B950BA60BB70BBF93AF939F938F9316
:10302000DF92CF921F930F930E940F23E092153DE2
:10303000F092163DB80182E290E00E94B60E8091B7
:1030400057388F93809156388F93809155388F934E
:10305000809154388F937F926F921F930F930E94A9
:103060000F23E092153DF092163DCDBFDEBFB801B3
:1030700082E390E00E94B60E83E19DE30DDF8111B3
:103080007FCFE296CDBFDEBFDF91CF911F910F9131
:10309000FF90EF90DF90CF90BF90AF909F908F9078
:1030A0007F906F9008958F9381E080938D0A8FB702
:1030B0008F93EF93FF93EEE7F8E39F9368948FEF7E
:1030C0000FC0E89484819581885D9F4F84839583A8
:1030D000885E934010F08EEF03C0848395838DEF5C
:1030E0009081981B919390819F4F919390819F4FD6
:1030F000919390819F4F919326F39F91FF91EF9130
:103100008F918FBF8F9118950F9304E006C00F9396
:1031100002E003C00F9300E000C00F920FB60F92C1
:103120001F921124FF921F932F933F934F935F930E
:103130006F937F938F939F93AF93BF93CF93DF93BF
:10314000EF93FF93A0E0B8E3A00FB11DCD91DC9108
:10315000000F0D5FA02FB0E0FC90109761F01F2DC5
:10316000169518F041F02296FBCFE991F99130972E
:10317000B9F30995F5CFA02FB0E0FC92FF91EF9144
:10318000DF91CF91BF91AF919F918F917F916F917F
:103190005F914F913F912F911F91FF901F900F9042
:1031A0000FBE0F900F9118951F920F920FB60F92AE
:1031B00011241F932F933F934F935F936F937F93AC
:1031C0008F939F93AF93BF93CF93DF93EF93FF932F
:1031D000C3EAD8E3E881F981838586FF56C080FF82
:1031E00041C0158581FF38C08E81882359F08091B8
:1031F000783880935000EB85FC85309719F08E81EC
:1032000090E009951C831D821886E985FA85309720
:1032100009F009958D81882319F183E09091500080
:1032200090937838917090935000E881F98182876B
:10323000FF91EF91DF91CF91BF91AF919F918F91CE
:103240007F916F915F914F913F912F911F910F90BF
:103250000FBE0F901F9018951C831E821F82DDCF1A
:1032600086E0DCCF8091783880935000EB85FC8538
:10327000309729F08E81882311F090E009951E8205
:103280001D821F82188682E0D0CF87FF2FC081FF6A
:103290001EC0887139F08A8183FF04C01D82877F38
:1032A0008A83F1CF8B818F5F8B838A8188608A8349
:1032B000A8858D81A81738F7AC0FBD2FB11D1D96BD
:1032C0008C91858788858F5F888783E0AECF8585E1
:1032D000EE81E03258F4EC0FFD2FF11D85A78E81B1
:1032E0008F5F8E83803288F386E09FCF80E09DCF12
:1032F000CF9310929D3810929E3888EE93E0A0E014
:10330000B0E080939F389093A038A093A138B093F9
:10331000A23889E599EC80939B3890939C3880E1A2
:1033200098E08093A3389093A43884E08093FC388D
:1033300091E39093FB3820E238E02093F03830930B
:10334000F1381092F7382BE639EC2093FD383093A2
:10335000FE38909304398093053910920639109203
:10336000073983E080930A3982E08093033980EF44
:1033700098E3809308399093093910920B39109291
:103380000C3910920D3910920E391092A53D109201
:10339000113D1092123D8AE396E080939F3D9093F9
:1033A000A03D1092A13D1092A23D1092A33D10921B
:1033B000A43D10922B3D8BE899EC80930F3D9093A8
:1033C000103D1092133D1092143D1092283D109222
:1033D0001F3D1092203D1092213D1092223D8FEF13
:1033E0008093293D80932D3DE1E3FDE3CFEFC19331
:1033F0008DE3E734F807D9F789EF98E08093173D1C
:103400009093183D87ED99E08093193D90931A3D74
:103410008CE795E180931B3D90931C3D80EF95E1F7
:1034200080931D3D90931E3D30E020E040E069E038
:1034300083E19DE30E94F90810926D3D10926E3D6C
:1034400084E496E08093473D9093483D8FE099E374
:1034500080934B3D90934C3D88E080934D3D10927E
:103460004E3D10927C3D10929C3D1092983D81E023
:1034700080939D3D80939E3D83E999EC8093493DE7
:1034800090934A3D83E19DE30E94480A1092653D76
:103490001092663D1092693D10926A3D8FEF9FEF4A
:1034A0008093673D9093683D80936B3D90936C3D16
:1034B000E091493DF0914A3D0280F381E02D83E1A6
:1034C0009DE3099583EB96E080936F3D9093703D6B
:1034D00010927F3DC0933C3DC0933D3DC0933E3D27
:1034E000CF910895CF93DF93CDB7DEB76597CDBF6A
:1034F000DEBF97E088ED84BF90936100E0E0F6E0E6
:1035000080E582838AE0858380E2838381E0808313
:10351000109202028093030A2EEF2093260A209332
:10352000270A9093000AE0E8FAE02DEF31E026A7A1
:1035300037A7118290E89283848783E1808378940F
:1035400061E08AE060D961E08AE00E94D21062E323
:1035500070E080E090E00E94B207E091173DF091AA
:10356000183D30E020E040E06AE083E19DE309950A
:10357000CDDCE091173DF091183D30E020E040E0D7
:103580006BE083E19DE3099583E19DE370DC1982A3
:103590001A821B821C821D821E8270E060E0CE01B6
:1035A000019608DC29813A8181113DC1211531053F
:1035B00011F0C901DED619821A821D821E821B8279
:1035C0001C8284E892E180937B3890937C3810923F
:1035D000793810927A3840E45EE06FEC79E18DEF53
:1035E00098E3ACD967ED79EC892B09F456C08EEFDE
:1035F00092E18093FF38909300398DEF98E328D9BA
:103600008BE793E180930139909302398DEF98E332
:103610001FD96EE070E08DEF98E3C9D843EC61EB01
:103620008DEF98E30E9467114AE067EB8DEF98E316
:103630000E9467116EE18DEF98E30E94AD118F70CB
:10364000482F40696EE98DEF98E30E9467110E9450
:10365000AF116DE18DEF98E30E94AD118F70482F8F
:1036600040676DE98DEF98E30E9467110E94AF11EA
:103670006DE18DEF98E30E94AD11817F482F42608C
:103680006DE98DEF98E30E9467118DEF98E324D8E0
:1036900081E08093A53D64EE79ECCE010196B2DB2A
:1036A00083E19DE322DC0AE316E00E946F0F69814B
:1036B0007A810093153D1093163D82E090E00E94C0
:1036C000B60E83E19DE3E8DB8111EFCF60ED77E09B
:1036D00080E090E00E94B2071092A13D1092A23DBE
:1036E0001092A33D1092A43D10922B3D0FDC83E17C
:1036F0009DE3BDDB18DC89819A813BD68E010B5E90
:103700001F4F8DEFD82E99E0C92EEE24E394F12CB3
:103710003AE5B32E2FB7F894809182389091833890
:10372000A0918438B09185382FBF4091973850913F
:1037300098386091993870919A382A013B0128EEA7
:10374000420E23E0521E611C711C481659066A067F
:103750007B0628F084179507A607B70788F480939F
:10376000973890939838A0939938B0939A3880916D
:103770009538909196380196809395389093963825
:10378000809195389091963805970CF470C01092FE
:103790009538109296382FB7F8948091823890918E
:1037A0008338A0918438B09185382FBF80939138A9
:1037B00090939238A0939338B093943880918F3837
:1037C00090919038092E000CAA0BBB0B1982DA825B
:1037D000DB82CC828D839E83AF83B887E986FA86AD
:1037E000BD8AFE01319691918D89890F8D8B0E17BF
:1037F0001F07C9F710927D3845E1BE016F5F7F4F0B
:103800008DEF98E30E9489138091A53D882391F064
:1038100080917D3881110EC062E070E080E090E020
:103820000E94B207F1CF1D821E8263EE79ECC901BE
:10383000EFD6C7CE2FB7F894809182389091833815
:10384000A0918438B09185382FBF80938B389093A6
:103850008C38A0938D38B0938E38809189389091B0
:103860008A3801968093893890938A385CDB8091FE
:103870008838882309F44ECF1092883854DB4ACF19
:10388000ABE0B0E0E5E4FCE12AC37C013B018A0146
:10389000FC0116821782838181FFBAC1CE01019695
:1038A0005C01F7019381F30193FD859193FF819171
:1038B0003F01882309F449C1853239F493FD85918C
:1038C00093FF81913F01853221F4B70190E0B9D196
:1038D000E8CF912C212C312CFFE1F31538F08B32FD
:1038E00011F190F4803209F1833229F137FC3CC0A8
:1038F00020ED280F2A3050F536FE20C08AE0989E31
:10390000200D1124922E06C08D3291F0803371F774
:10391000689430F8F30193FD859193FF81913F0105
:103920008111DACF21C0689431F8689432F8F2CF6F
:10393000689433F8EFCF689434F8ECCFEAE02E9E29
:10394000200D1124222E689435F8E4CF8E3229F40C
:1039500036FCFBC0689436F8DDCF8C3619F46894D9
:1039600037F8D8CF8836B1F2982F9F7D9554933091
:10397000D8F0833691F18337B1F1833509F05EC019
:103980002801F2E04F0E511CF801C080D180692D52
:1039900070E036FC02C06FEF7FEFC6013CD14C01F6
:1039A000689437F882010AC00C5F1F4FFFE3F98368
:1039B00088248394912C6501E89437F833FE2AC05B
:1039C000522C8114910459F5552009F46ACFB7019E
:1039D00080E290E036D15A94F7CFF8018081898354
:1039E0000E5F1F4FE5CF2801F2E04F0E511CF8018A
:1039F000C080D180692D70E036FC02C06FEF7FEF90
:103A0000C60114D14C018201D7CFB70180E290E00A
:103A100018D12A942814190409F0B8F7D1CFF60167
:103A200037FC859137FE81916F01B70190E009D194
:103A300051105A94F1E08F1A9108C3CF843619F0CF
:103A4000893609F073C0F80137FE67C06081718163
:103A5000828193810C5F1F4FF32DFF763F2E97FFDE
:103A600009C090958095709561957F4F8F4F9F4FBE
:103A7000689437F82AE030E0A50113D1C82ECA189F
:103A80008C2C432C36FE0CC0E89440F8C91440F44A
:103A900034FE05C032FC03C0F32DFE7E4F2E892C70
:103AA00044FE90C0FE01EC0DF11D8081803309F0D1
:103AB00082C0242D297E422E842D8870582E43FCEE
:103AC0008FC040FE89C09C2C821418F42C0C922CC0
:103AD000981844FE8BC0B70180E390E0B2D042FE5C
:103AE00008C088E790E041FE02C088E590E0B70199
:103AF000A8D0C91408F486C0CA94D12C9FEFC91A63
:103B0000D90ACA0CDB1CF60182916F01B70190E063
:103B100098D0AC14BD04B9F757CF60817181072EDE
:103B2000000C880B990B0E5F1F4F96CFD32CE89497
:103B3000D4F82AE030E0853731F1232D297FD22EC9
:103B40008F36F9F040F48835A1F0F701868197812E
:103B50002B96E2E1DDC1803749F08837B1F7D4FE1A
:103B600002C06894D2F820E130E00DC06894D4F827
:103B7000F6CF34FE03C0822F8660D82E20E132E0DB
:103B800002C028E030E0F801D7FE0EC060817181EC
:103B9000828193810C5F1F4FA50183D0C82ECA1864
:103BA0003D2CE89437F86CCF6081718190E080E023
:103BB0000E5F1F4FF1CF42FC02C083947DCF8394F0
:103BC00083947ACF842D867809F476CFF6CFB70127
:103BD00080E290E036D083948214C8F3512C79CFE0
:103BE000522C5818821408F474CFF8CF842D86789C
:103BF00009F47FCF8BE241FE80E247FC8DE2B70102
:103C000090E076CFB70180E390E01BD09A9471CF1B
:103C10008FEF9FEF9DCFFC01059061507040011028
:103C2000D8F7809590958E0F9F1F0895FC016150E5
:103C3000704001900110D8F7809590958E0F9F1FCE
:103C400008950F931F93CF93DF93182F092FEB0144
:103C50008B8181FD09C01FEF0FEF812F902FDF9126
:103C6000CF911F910F91089582FF14C02E813F8143
:103C70008C819D81281739073CF4E881F981CF01B7
:103C800001968883998310838E819F8101968E830C
:103C90009F83E3CFE885F985812F0995892BA1F3CF
:103CA000DACFFA01AA27283051F1203181F1E894C6
:103CB0006F936E7F6E5F7F4F8F4F9F4FAF4FB1E01F
:103CC0003ED0B4E03CD0670F781F891F9A1FA11D1A
:103CD000680F791F8A1F911DA11D6A0F711D811D1B
:103CE000911DA11D20D009F468943F912AE0269FE0
:103CF00011243019305D3193DEF6CF010895462F3F
:103D00004770405D4193B3E00FD0C9F7F6CF462F1F
:103D10004F70405D4A3318F0495D31FD4052419388
:103D200002D0A9F7EACFB4E0A69597958795779545
:103D30006795BA95C9F700976105710508959B01CC
:103D4000AC010A2E06945795479537952795BA9555
:103D5000C9F7620F731F841F951FA01D089540D0DF
:103D600008F481E00895E89409C097FB3EF490952B
:103D70008095709561957F4F8F4F9F4F9923A9F044
:103D8000F92F96E9BB279395F695879577956795D3
:103D9000B795F111F8CFFAF4BB0F11F460FF1BC017
:103DA0006F5F7F4F8F4F9F4F16C0882311F096E9AA
:103DB00011C0772321F09EE8872F762F05C0662358
:103DC00071F096E8862F70E060E02AF09A95660F11
:103DD000771F881FDAF7880F9695879597F90895CA
:103DE000990F0008550FAA0BE0E8FEEF161617060C
:103DF000E807F907C0F012161306E407F50798F074
:103E0000621B730B840B950B39F40A2661F0232B8C
:103E1000242B252B21F408950A2609F4A140A69508
:103E20008FEF811D811D089597F99F6780E870E0ED
:103E300060E008959FEF80EC089500240A94161620
:103E4000170618060906089500240A941216130688
:103E5000140605060895092E0394000C11F4882316
:103E600052F0BB0F40F4BF2B11F460FF04C06F5F32
:103E70007F4F8F4F9F4F089557FD9058440F551F08
:103E800059F05F3F71F04795880F97FB991F61F0DC
:103E90009F3F79F087950895121613061406551F53
:103EA000F2CF4695F1DF08C0161617061806991FBF
:103EB000F1CF86957105610508940895E894BB27B4
:103EC00066277727CB0197F908953AD0A59F900DE3
:103ED000B49F900DA49F800D911D112408952F92E1
:103EE0003F924F925F926F927F928F929F92AF928A
:103EF000BF92CF92DF92EF92FF920F931F93CF93D7
:103F0000DF93CDB7DEB7CA1BDB0BCDBFDEBF099495
:103F10002A88398848885F846E847D848C849B8459
:103F2000AA84B984C884DF80EE80FD800C811B8167
:103F3000AA81B981CE0FD11DCDBFDEBFED0108959D
:103F4000A29FB001B39FC001A39F700D811D1124DA
:103F5000911DB29F700D811D1124911D089550581F
:103F6000BB27AA270ED077CF68DF30F06DDF20F0B7
:103F700031F49F3F11F41EF45DCF0EF4E095E7FBA2
:103F800053CFE92F79DF80F3BA17620773078407ED
:103F9000950718F071F49EF591CF0EF4E0950B2E75
:103FA000BA2FA02D0B01B90190010C01CA01A0018B
:103FB0001124FF27591B99F0593F50F4503E68F1E6
:103FC0001A16F040A22F232F342F4427585FF3CF27
:103FD000469537952795A795F0405395C9F77EF4F8
:103FE0001F16BA0B620B730B840BBAF09150A1F041
:103FF000FF0FBB1F661F771F881FC2F70EC0BA0FC7
:10400000621F731F841F48F4879577956795B7954E
:10401000F7959E3F08F0B3CF9395880F08F0992746
:10402000EE0F97958795089504D06894B11147CF06
:1040300008952ADF88F09F5790F0B92F9927B7513C
:10404000A0F0D1F0660F771F881F991F1AF0BA955C
:10405000C9F712C0B13081F031DFB1E008952ECF41
:10406000672F782F8827B85F39F0B93FCCF3869552
:1040700077956795B395D9F73EF4909580957095AF
:1040800061957F4F8F4F9F4F0895A1E21A2EAA1B73
:10409000BB1BFD010DC0AA1FBB1FEE1FFF1FA217F8
:1040A000B307E407F50720F0A21BB30BE40BF50BF5
:1040B000661F771F881F991F1A9469F7609570957E
:1040C000809590959B01AC01BD01CF010895052E0F
:1040D00097FB16F400940FD057FD05D0D6DF07FCF0
:1040E00002D046F408C050954095309521953F4F39
:1040F0004F4F5F4F089590958095709561957F4FD4
:104100008F4F9F4F0895689401C0E8948F929F92BB
:10411000CF93DF9305D0DF91CF919F908F9008953B
:1041200088249924F401E401B0E49F93AA279A1506
:104130008B049C04ED05FE05CF05D007A10798F47C
:10414000AD2FDC2FCF2FFE2FE92D982C892E982F05
:10415000872F762F652F542F432F322F2227B850C9
:1041600031F7BF9127C01B2EBF91BB27220F331FF2
:10417000441F551F661F771F881F991F881C991C95
:10418000EE1FFF1FCC1FDD1FAA1FBB1F8A149B043D
:10419000EC05FD05CE05DF05A007B10748F08A183C
:1041A0009B08EC09FD09CE09DF09A00BB10B2160CA
:1041B0001A94E1F62EF49401AF01BE01CD01000C7A
:1041C0000895002E083090F0982F872F762F652FB6
:1041D000542F432F322F22270850F4CF220F331FA2
:1041E000441F551F661F771F881F991F0A95B2F736
:1041F000002D089597FD1094002E083098F0085077
:10420000232F342F452F562F672F782F892F912D4D
:10421000F4CF15949795879577956795579547951A
:10422000379527950A95AAF71124002D0895EE0FCA
:10423000FF1F0590F491E02D09940F931F93CF93E6
:10424000DF938230910510F482E090E0E091A83D88
:10425000F091A93D30E020E0B0E0A0E0309799F483
:104260002115310509F44AC0281B390B24303105CA
:10427000D8F58A819B816115710589F1FB018283E3
:104280009383FE0111C0408151810281138148173F
:104290005907E0F04817590799F4109761F0129602
:1042A0000C93129713961C933296CF01DF91CF9106
:1042B0001F910F9108950093A83D1093A93DF4CF4D
:1042C0002115310551F04217530738F0A901DB01E0
:1042D0009A01BD01DF01F801C1CFEF01F9CF809351
:1042E000A83D9093A93DCDCFFE01E20FF31F81932E
:1042F00091932250310928833983D7CF2091A63D4D
:104300003091A73D232B41F4209108383091093892
:104310002093A63D3093A73D209106383091073871
:104320002115310541F42DB73EB740910A3850911F
:104330000B38241B350BE091A63DF091A73DE21709
:10434000F307A0F42E1B3F0B2817390778F0AC01B8
:104350004E5F5F4F2417350748F04E0F5F1F4093A5
:10436000A63D5093A73D819391939FCFF0E0E0E06D
:104370009CCFCF93DF930097E9F0FC013297128234
:104380001382A091A83DB091A93DED0130E020E05D
:104390001097A1F420813181820F931F2091A63DB7
:1043A0003091A73D2817390709F061C0E093A63D79
:1043B000F093A73DDF91CF910895EA01CE17DF0773
:1043C000E8F54A815B819E0141155105B1F7E9018C
:1043D000EA83FB8349915991C40FD51FEC17FD0760
:1043E00061F4808191810296840F951FE901888391
:1043F0009983828193818A839B83F0E0E0E0129627
:104400008D919C9113970097B9F52D913C9111973F
:10441000CD010296820F931F2091A63D3091A73DBA
:104420002817390739F6309751F51092A83D1092A8
:10443000A93DA093A63DB093A73DBCCFC283D38333
:1044400040815181840F951FC817D90761F44E5FD1
:104450005F4F88819981480F591F408351838A811A
:104460009B81828393832115310509F0B0CFE093BE
:10447000A83DF093A93D9ECFFD01DC01C0CF128283
:104480001382D7CFB0E0A0E0E7E4F2E22ACD8C01BE
:10449000009741F4CB01D1DE8C01C801CDB7DEB766
:1044A000E0E138CDFC01E60FF71F9C0122503109F5
:1044B000E217F30708F499C0D901CD91DC91119767
:1044C000C617D70790F0C530D10538F3CE01049751
:1044D0008617970710F3C61BD70B2297C193D1936A
:1044E0006D937C93CF0145DFD8CF5B01AC1ABD0A39
:1044F0004C018C0E9D1EA091A83DB091A93D512C60
:10450000412CF12CE12C109731F58091A63D909132
:10451000A73D8815990509F05CC04616570608F0B6
:1045200058C08091063890910738009741F48DB7B4
:104530009EB740910A3850910B38841B950BE817B1
:10454000F90708F052C0E093A63DF093A73DF901AA
:1045500060837183A2CF8D919C91119712966C907C
:10456000129713967C901397A815B90559F56C010D
:1045700042E0C40ED11CCA14DB0420F1AC014A197C
:104580005B09DA011296159780F06282738240838C
:104590005183D9016D937C93E114F10471F0D7013B
:1045A0001296ED93FC93139778CF22968C0F9D1F54
:1045B000F90180839183F301EFCFE093A83DF0935D
:1045C000A93D6BCF4816590608F42C017D01D30193
:1045D0009ACFCB0132DE7C01009739F0AE01B801F1
:1045E00007D0C801C6DE870158CF10E000E055CFE4
:1045F000FB01DC0102C001900D9241505040D8F700
:104600000895DC0101C06D9341505040E0F70895DA
:10461000FB01DC0101900D920020E1F70895AEE06E
:10462000B0E0E4E1F3E269CC0D891E8986E08C8379
:1046300009831A838FEF9FE78D839E83AE01475EC8
:104640005F4F6F89788DCE0101961AD92F813885F9
:10465000020F131FF80110822E96E4E067CCF89445
:02466000FFCF8A
:104662000000000000000000002F00000000070012
:10467200070000147F147F1400242A7F2A1200628C
:104682006408132300364955225000000503000038
:1046920000001C224100000041221C000014083EC0
:1046A20008140008083E0808000000A06000000886
:1046B20008080808000060600000002010080402DA
:1046C200003E5149453E0000427F40000042615198
:1046D2004946002141454B31001814127F10002732
:1046E20045454539003C4A494930000171090503F5
:1046F20000364949493600064949291E0000363626
:104702000000000056360000000814224100001488
:104712001414141400004122140800020151090665
:1047220000324959513E007C1211127C007F4949E6
:104732004936003E41414122007F4141221C007F17
:1047420049494941007F09090901003E4149497A25
:10475200007F0808087F0000417F4100002040419F
:104762003F01007F08142241007F40404040007F0B
:10477200020C027F007F0408107F003E4141413E4F
:10478200007F09090906003E4151215E007F091997
:1047920029460046494949310001017F0101003F94
:1047A2004040403F001F2040201F003F4038403F14
:1047B2000063140814630007087008070061514978
:1047C200454300007F41410000552A552A5500000B
:1047D20041417F0000040201020400404040404089
:1047E200000001020400002054545478007F484421
:1047F200443800384444442000384444487F003858
:104802005454541800087E0901020018A4A4A47C80
:10481200007F080404780000447D4000004080844A
:104822007D00007F102844000000417F4000007C92
:1048320004180478007C080404780038444444389E
:1048420000FC242424180018242418FC007C0804EA
:10485200040800485454542000043F444020003CC3
:104862004040207C001C2040201C003C4030403C4A
:10487200004428102844001CA0A0A07C00446454DA
:104882004C441414141414141815A015C019FF184C
:1048920015A115C819FF1815AE19FF1815AF19FF84
:1048A2001815AE15D5168015A8163F15D316001586
:1048B20040158D16141520160015A115C815DA1607
:1048C20012158116CF15D916F115DB1640152E15C6
:1048D200A415A619FF0001140A6464323200127A88
:1048E200000004289610080000800040001010808C
:1048F20000000000101010404000000000100004F2
:104902000506070504030201000001020301020378
:104912000000000000010101010101020202020087
:10492200000000102040802010080402010102044F
:104932000802040801781E00A02800F03C00405143
:1049420000127A00E4A20024F40048E80190D003A7
:1049520020A1070000000044085A08C61010083EB3
:10496200082C081808000000009E147D142112A7CC
:1049720011AA11D713D51289136C1333137114654D
:10498200140A126C0F0000000073104B10C610C501
:1049920010480AD30A380A4D6F643A253464204815
:1049A20075623A253464004F75743A25346420499F
:1049B2006E203A25346400202020547820202025BF
:1049C2003464206D730020202050696E67202534E6
:1049D20064206D73004C6F5261204552524F522039
:0A49E20021004C6F5261204F4B0082
:0C49EC004438383830380000AA3D800004
:00000001FF
