:10000000FCC000002EC100002CC100000C94F81AA6
:100010000C94F51A0C94F21A24C100000C94E61BFF
:1000200020C100001EC100001CC100001AC1000058
:1000300018C1000016C1000014C100000C94C11AC0
:1000400010C100000EC100000CC100000AC1000078
:1000500008C1000006C1000004C1000002C1000088
:100060000C94421BFEC00000FCC000000C94411A1E
:100070000C943B1A0C94471AF4C0000008000000CE
:10008000BE922449123EABAAAA2ABECDCCCC4C3E8D
:1000900000000080BEABAAAAAA3E00000000BF007C
:1000A0000000803F0000000000084178D3BB438778
:1000B000D1133D190E3CC3BD4282AD2B3E68EC828C
:1000C00076BED98FE1A93E4C80EFFFBE01C4FF7F11
:1000D0003F00000000001F1C1F1E1F1E1F1F1E1FB1
:1000E0001E70726F63657373206E6F74206F766518
:1000F00072726964656400706572696F6469630037
:100100006F6666006175746F006D616E75004D4CB1
:10011000443033005761746572706F6F6C004672C3
:100120006F7374206D6F646500526566696C6C2036
:100130006D6F64650046696C746572206D6F6465EF
:1001400000C2B0430046726F73742048696768004C
:10015000C2B0430046726F7374204C6F77006D69B4
:100160006E0046696C6C696E672074696D65004647
:10017000696C6C696E67204E64617900680046693D
:100180006C6C696E672073746172740068004669F4
:100190006C7465722073746172740046696C746566
:1001A000722070756D700046696C6C696E672076A0
:1001B000616C7665007073690046696C74657220C5
:1001C00070726573730049646C652066696C746550
:1001D0007200C2B043004169722074656D7000C244
:1001E000B0430057617465722074656D70000A53E6
:1001F000746172740000F71B252611241FBECFEF17
:10020000CDBFDFE3DEBF80914000809340008111CD
:1002100005C098ED21E094BF209341008CBB18E30A
:10022000A0E0B8E3E3E8F0E602C005900D92AA3141
:10023000B107D9F72AE3AAE1B8E301C01D92AD33B3
:10024000B207E1F710E0CCEFD0E004C02197FE0147
:100250000E94712DCB3FD107C9F70E94C51C0C9499
:100260000A2FCECEE091BB39F091BC3985818370E5
:1002700009F442C0838180FF3FC05091BF395E7F47
:1002800030E020E090E04581842F83702F5F3F4F66
:1002900021346FE1360740F0823041F1813041F185
:1002A00084E093E09483089543FF04C088E085834D
:1002B00082E1F7CF813021F4578330E020E0E3CFB3
:1002C000823009F746FFDFCF44FF04C0992349F38A
:1002D00083E0E7CF8091C039981760F4A92FB0E090
:1002E000A853B64C8C9180879F5FE7CF85E0D9CF2C
:1002F00081E1D7CF80E0D5CF80E108954F925F9222
:100300006F927F928F929F92AF92BF92FF922091B5
:10031000093A30910A3A8217930708F043C02B013B
:1003200066247724852E962EA72EBB24B82DA42FC5
:100330002091103AF42C222391F0E22FF0E0E49D7A
:10034000D001E59DB00DF49DB00D1124FB2E289D2C
:1003500040011124B92D249F90011124A32FE09175
:10036000163A2091113A3091123A5091133AE5130E
:1003700023C0FC01EE0FFF1F8E0F9F1F820F931FE4
:10038000E091133AE80FF92FF11DF082E091143A51
:10039000E80FF92FF11DB0832091153A820F911DBE
:1003A000FC01A083FF90BF90AF909F908F907F90B3
:1003B0006F905F904F900895880F991F880F991F35
:1003C000820F931FE80FF92FF11D1082D9CFAF9242
:1003D000BF92CF92DF92EF92FF920F931F93CF9332
:1003E000DF936C017B018B01040F151FEB015E0194
:1003F000AE18BF08C017D10759F06991D601ED9129
:10040000FC910190F081E02DC6010995892B79F7C7
:10041000C501DF91CF911F910F91FF90EF90DF9079
:10042000CF90BF90AF900895FC0157854089252F4C
:1004300030E0842F90E0821B930B541710F0CF967E
:10044000089501970895FC0195858685981761F0B8
:10045000A685AE0FBF2FB11D51968C9196859F5FDB
:100460009F73968790E008958FEF9FEF0895FC01AA
:1004700095858685981731F08685E80FF11D81896D
:1004800090E008958FEF9FEF0895FC0195852685F4
:10049000892F90E0805C9F4F821B91098F73992771
:1004A0000895DC010FB607FE04C080911101882376
:1004B000B9F01896ED91FC911997848185FF10C0D1
:1004C0001F969C911F9750968C91981304C085811C
:1004D0008F7D85830895E5E1F9E3E8940C94541A3F
:1004E00008950F931F93CF93DF93EC018C85816068
:1004F0008C879F85888998130BC0E885F98584814E
:1005000085FF06C08C8581FD0DC080E4848312C008
:10051000062F1F851F5F1F738889811315C0CE01A9
:10052000C0DFFACF85818F77806490E49483E8857B
:10053000F9858583E885F985628381E090E0DF9124
:10054000CF911F910F910895EF85EC0FFD2FF11DB5
:10055000EF5AFF4F00831F878C85E885F98581FF5F
:1005600009C085818F77806690E49483E885F9855A
:100570008583E3CF85818062FBCF0F931F93CF9359
:10058000DF938C01D0E0C0E0F801EC0FFD1F649117
:10059000662339F085E199E3A4DF892B11F02196D8
:1005A000F3CFCE01DF91CF911F910F910895CF939B
:1005B000DF93EC018C85882359F0E885F9858581E6
:1005C00085FD03C0848186FD03C0CE016ADFF5CFBF
:1005D000DF91CF9108959FB7F89488E08093840AC3
:1005E00080918E0A81FFFCCF80918D0AE091A20A52
:1005F000F091A30A2091D2383091D3384091D43869
:100600005091D5389FBF80FF07C0E730F10520F437
:100610002F5F3F4F4F4F5F4FAEEFB1E00E943C2B3B
:100620006E0F7F1F811D911D660F771F881F991FF9
:1006300008950F931F93CF93DF93CDB7DEB727971E
:10064000CDBFDEBF80910B3A90910C3A89839A839B
:100650008091113A9091123A892B09F493C08091BC
:100660000F3A823108F08EC0B6DF0091173A109130
:10067000183A2091193A30911A3AAB01BC01401B4B
:10068000510B620B730B80910D3A90910E3AB0E0D2
:10069000A0E0481759076A077B0730F3F894A09148
:1006A000113AB091123AFD0131968C918F831B82E1
:1006B000A0911B3AB0911C3A9C9180911D3A982BC5
:1006C0009E839C91809589238D838D818C838F81DE
:1006D00087FF02C08E818C835E816D814F813C815A
:1006E0002B8189819A815C93262F3C9300C046FD23
:1006F000252F6C9300C05C93362F2C9300C045FDD2
:10070000352F6C9300C05C93262F3C9300C044FDB2
:10071000252F6C9300C05C93362F2C9300C043FDB3
:10072000352F6C9300C05C93262F3C9300C042FD94
:10073000252F6C9300C05C93362F2C9300C041FD95
:10074000352F6C9300C05C93262F3C9300C040FD76
:10075000252F6C9301975C93362F2C93419147FD85
:10076000352F6C9301F64F833C832B8389839A83C7
:10077000789431DF6093173A7093183A8093193A5E
:1007800090931A3A2796CDBFDEBFDF91CF911F918C
:100790000F910895CF92DF92EF92FF92CF93DF9364
:1007A0006B017C0118DFEB0116DF6C1B7D0B683ED3
:1007B0007340A0F0C114D104E104F10439F4DF91D5
:1007C000CF91FF90EF90DF90CF90089581E0C81A0D
:1007D000D108E108F108C851DC4FE6CFC114D104BB
:1007E000E104F10409F7EBCF90E0FC01E256F1429D
:1007F00020812F3F69F18C579042FC018081E82FC6
:10080000E295EE0FE07EE20FF0E0E05FFB4F9081BB
:10081000917F908390E0FC0134E0EE0FFF1F3A954A
:10082000E1F7422F50E061E070E001C0660F2A95C9
:10083000EAF76383880F991FFC01E050F84C440FDE
:10084000551F0190F081E02DE40FF51F10821182F9
:100850000895DC011896ED91FC9184818860848371
:1008600008959C012B5C3F4FDC011F96EC911F9774
:100870001E968C91E81730F4E20FF32FF11D808162
:1008800090E008958FEF9FEF0895FC01DC01D5966D
:1008900097858685981740F4A90FB11D2C919F5F0D
:1008A0009787822F90E008958FEF9FEF0895FC01C6
:1008B00086859785891B990B0895FC01A585A03233
:1008C00058F4A80FB92FB11D55966C9385858F5F8D
:1008D000858781E090E0089590E080E00895CF93CF
:1008E000C0EDC093BF391092C03960E083EB99E34B
:1008F000E4DFB8DC882319F080E0CF910895C0933D
:10090000BF391092C239E091BB39F091BC39958161
:10091000937091F391ED978330E020E090E062E0F6
:100920004581542F53702F5F3F4F21347FE13707AC
:1009300020F443FF81C088E085839093C1399730CC
:10094000D9F683EB99E3A1DF8F77282F30E094E08D
:10095000359527959A95E1F7922F990F990F291BB5
:10096000220F820F8093263A83EB99E38EDF9C015E
:1009700044E0359527954A95E1F72F703327922F5C
:10098000990F990F291B220F820F8093253A83EB31
:1009900099E37BDF9C0154E0359527955A95E1F763
:1009A0002F703327922F990F990F291B220F820F37
:1009B0008093243A83EB99E368DF83EB99E365DF67
:1009C0009C0164E0359527956A95E1F72F703327F0
:1009D000922F990F990F291B220F820F8093233A90
:1009E00083EB99E352DF8F77282F30E074E0359561
:1009F00027957A95E1F7922F990F990F291B220FCE
:100A0000820F8093223A83EB99E33FDF9C01E4E07D
:100A100035952795EA95E1F72F703327922F990F97
:100A2000990F291B220F820F8093213A81E065CF15
:100A300030E020E087E074CF8823A9F0523009F03D
:100A40007CCF848347FF13C09032A0F72085A92F65
:100A5000B0E0A851B64C2C939F5F973048F7648361
:100A600030E020E05DCF523009F05ACFEBCF46FFA7
:100A700057CF83E055CFBF92CF92DF92EF92FF9294
:100A80000F931F93CF93DF937C016A01B62EEB0186
:100A90000C2F0B1910E00C151D0528F46991C701E6
:100AA0000CDF892BA9F7C801DF91CF911F910F911E
:100AB000FF90EF90DF90CF90BF90089590E080E09E
:100AC0000895CF92DF92EF92FF920F931F93CF93EF
:100AD000DF938B01E9016A01F12CE12CA09106382A
:100AE000B09107389C010E94772B2FEF33E040E054
:100AF00050E00E94552D2C193D094E095F098AE0EE
:100B0000809FD001819FB00D11240E943C2B9E013B
:100B100050E040E02C193D094E095F090E94552D17
:100B200057FF03C020E030E0A901CA01B9010E94CB
:100B3000292A20E030E040E251E40E94EB2BDF91D3
:100B4000CF911F910F91FF90EF90DF90CF9008957C
:100B5000CF92DF92EF92FF921F93CF93DF93EC013E
:100B600089859A85AB85BC850197A105B10509F0FA
:100B700057C18E8D9F8D892B09F452C18EA19FA1E3
:100B8000DC01ED91FC910190F081E02D099511E0DF
:100B900016161706180619060CF010E08E8D9F8D9C
:100BA000019709F04BC08AA19BA128A139A1009708
:100BB00009F442C0DC01ED91FC910480F581E02D47
:100BC000232B19F109956B017C018CA19DA1DC01FE
:100BD000ED91FC910480F581E02D09959B01AC011C
:100BE000C701B6010E94232A10E087FF27C08CA10D
:100BF0009DA1DC01ED91FC910480F581E02D09952A
:100C00006B017C0188A199A105C009956B017C014C
:100C10008CA19DA1DC01ED91FC910480F581E02D7A
:100C200009959B01AC01C701B6010E94232A182F28
:100C3000111F1127111F02C0232BC9F68E8D9F8D06
:100C40000297D9F58CA19DA1DC01ED91FC91048066
:100C5000F581E02D09956B017C018AA19BA1DC0146
:100C6000ED91FC910480F581E02D09959B01AC018B
:100C7000C701B6010E94232A11E087FD1EC088A18A
:100C800099A1DC01ED91FC910480F581E02D09959D
:100C90006B017C018CA19DA1DC01ED91FC91048094
:100CA000F581E02D09959B01AC01C701B6010E94B9
:100CB000232A182F111F1127111F8E8D9F8D039727
:100CC00011F5112309F472C08CA19DA1DC01ED91F5
:100CD000FC910480F581E02D09956B017C018AA1CE
:100CE0009BA1DC01ED91FC910480F581E02D09953B
:100CF0009B01AC01C701B6010E94232A881F8827E7
:100D0000881F11E018278E8D9F8D049711F51123F0
:100D100009F469C088A199A1DC01ED91FC910480DE
:100D2000F581E02D09956B017C018CA19DA1DC0171
:100D3000ED91FC910480F581E02D09959B01AC01BA
:100D4000C701B6010E94232A881F8827881F11E047
:100D5000182788A599A5009769F0112359F0DC019F
:100D6000ED91FC910280F381E02D099511E09AA5A7
:100D7000981310E0EBA5FCA5309721F0112311F09A
:100D80000995182F8EA19FA1412F50E070E060E0DF
:100D9000DC01ED91FC910084F185E02DDF91CF9194
:100DA0001F91FF90EF90DF90CF90099488A199A1B7
:100DB000DC01ED91FC910480F581E02D09956B013A
:100DC0007C018CA19DA1DC01ED91FC910480F58159
:100DD000E02D09959B01AC01C701B6010E94232AB1
:100DE00087FD72CF90CF8CA19DA1DC01ED91FC918C
:100DF0000480F581E02D09956B017C018AA19BA1FE
:100E0000DC01ED91FC910480F581E02D09959B01B9
:100E1000AC01C701B6010E94232A87FD7BCF99CF81
:100E2000DF91CF911F91FF90EF90DF90CF900895C9
:100E300008950F931F93CF93DF93CDB7DEB7289715
:100E4000CDBFDEBFFC0184E09FED80839183628390
:100E5000438354838DE090E08583968381E090E026
:100E600087839087138A148A818B928B258B368B8C
:100E7000078B108FDA01BC5E8C9190E0B0E0A0E0AF
:100E800081879287A387B48780959095A095B09528
:100E900085879687A787B08B118E128E80E69EED90
:100EA000808391839E012F5F3F4F80E0A42FA81B7A
:100EB000B0E0BC5E9C91D9019D939D018150883F1B
:100EC000A9F78D819E81092E000CAA0BBB0B81878F
:100ED0009287A387B48789819A81838F948F8B812E
:100EE0009C81858F968F8F819885818B928B2CE04A
:100EF00030E025833683019721F082E090E08783FC
:100F000090872896CDBFDEBFDF91CF911F910F91C3
:100F10000895462F50E070E060E0DC01ED91FC9117
:100F20000084F185E02D09940895CF92DF92EF922D
:100F3000FF92CF93DF93EC016A017B0169897A8983
:100F4000072E000C880B990B0E94292AA7019601F5
:100F50000E94882A0E94532CAB01BC01E881F981D0
:100F60000084F185E02DCE01DF91CF91FF90EF90CD
:100F7000DF90CF900994462F50E070E060E0DC01F4
:100F8000ED91FC910084F185E02D0994FC014187ED
:100F90005287638774870895CF92DF92EF92FF9212
:100FA000CF93DF93EC0169857A858B859C850E94C0
:100FB000292A6B017C0169897A89072E000C880B2C
:100FC000990B0E94292A9B01AC01C701B6010E941E
:100FD000EB2BDF91CF91FF90EF90DF90CF900895B2
:100FE00021E0FC0181859285A385B485892B8A2B1C
:100FF0008B2B09F420E0822F0895FC016185728516
:10100000838594850895DC01FB012C9130E0205309
:10101000384F808190E08053984F2817390758F156
:101020002817390731F511969C91119781819817EE
:1010300010F198131EC012969C91129782819817F6
:10104000D0F0981316C013969C911397838198172C
:1010500090F098130EC014969C9114978481981761
:1010600050F0981306C081E015962C9195812917B0
:1010700008F080E0089581E008958F929F92AF92EA
:10108000BF92CF92DF92EF92FF92CF93DF93EC016A
:101090006A017B0180E8C81A83E4D80A8DE6E80A71
:1010A00088E3F80A8CE3882E912CA12CB12CC7017F
:1010B000B601A50194010E94332D6D83CA01B901C7
:1010C000A50194010E94332D6C83C701B60120E174
:1010D0003EE040E050E00E94332DCA01B90128E112
:1010E00030E040E050E00E94332D6B83C701B60131
:1010F00020E831E541E050E00E94332D188263E999
:101100007EEF8881982F937041E050E011F050E01D
:1011100040E0FA01E359FE4F2E173F0740F0FB0174
:10112000E41BF50B2E0F3F1F8F5F8883EACF81E012
:10113000898389818C30A0F4482F4150550BFA01E6
:10114000EA52FF4FE491911103C0823009F4EF5F3E
:10115000F0E02E173F0720F02E1B3F0B8F5FE8CFEC
:101160002F5F2A83DF91CF91FF90EF90DF90CF9098
:10117000BF90AF909F908F9008950F931F93CF9340
:10118000DF93CDB7DEB72697CDBFDEBF8C0140E839
:1011900053E46DE678E3CE0101966FDF298130E0FC
:1011A0002053384FF80180A990E08053984F2817BA
:1011B0003907A1F49A8181A9981310C09B8182A953
:1011C00098130CC09C8183A9981308C09D8184A9A1
:1011D000981304C081E02E8195A9291380E091E045
:1011E00089272696CDBFDEBFDF91CF911F910F914A
:1011F0000895C3CFDC0150E0E6EDF0E081E0861712
:1012000030F49491490F511D8F5F3196F8CF6330C0
:1012100038F0CD0183709927892B11F44F5F5F4F10
:101220009D012D5F3F4F36952795369527956DE6A5
:1012300071E0A69FC001A79F900DB69F900D11244D
:101240000197820F931F840F951F0895E1E2FAE33F
:1012500080814281618190E0CDDF069667E070E099
:101260000C940C2D0895EF92FF920F931F93CF9340
:10127000DF93EC0188814A81698190E0BBDF9C01AA
:10128000A8E1B0E00E94772B2B817B018C01E20E5C
:10129000F11C011D111DA8019701ACE3B0E00E94F3
:1012A0003C2B2C817B018C01E20EF11C011D111DD8
:1012B000A80197010E943C2BAB01BC019D81892FA5
:1012C00090E0B0E0A0E080589C4BA249B74C8A0166
:1012D0009B01080F191F2A1F3B1FC901B801DF918D
:1012E000CF911F910F91FF90EF900895FC016587BA
:1012F0000895FC0166830895FC01A081B0E0BC5E06
:10130000E0E0F0E10FB622812370E9F7F8946C93E6
:101310006DE964BF63E060830FBE08950F931F9370
:10132000CF93DF931F92CDB7DEB78B018983FB018B
:101330006081E82FF0E0FC5E8081681719F0CE0133
:101340000196DADFC8010F90DF91CF911F910F91C5
:101350000895CF92DF92EF92FF920F931F93CF9356
:10136000DF931F92CDB7DEB7182FD62E072FE62EAC
:10137000F72E88E0C82EC10E1983F70161917F0115
:10138000E12FF0E0FC5E8081681719F0CE01019634
:10139000B3DF1F5F1C11F0CF8D2D902F0F90DF91C9
:1013A000CF911F910F91FF90EF90DF90CF90089514
:1013B000CF92DF92EF92FF920F931F93CF93DF9321
:1013C000CDB7DEB72897CDBFDEBF8C016A017B01A8
:1013D000DC0151966D917C91072E000C880B990BC6
:1013E0000E94292AA70196010E94882A0E94532C54
:1013F000AB01BC01D801ED91FC910084F185E02D99
:10140000C8010995F801838D948D89839A83858D10
:10141000968D8B839C83818592858D839E83818924
:1014200092898F839887BE016F5F7F4F838191DFA1
:101430002896CDBFDEBFDF91CF911F910F91FF9016
:10144000EF90DF90CF900895282F30E08231A8F4FC
:10145000F901EE58F04280818F3F79F02C573042ED
:10146000D901EC91B0E2EB9FF0011124FC5F908573
:10147000982381E019F480E008958FEF0895FC012E
:10148000838DE2DF91E0811101C090E0892F089502
:10149000FC01838DD9DF682F880F770B880B990BA0
:1014A0000895CF93DF93EC01EE8DFF8D309729F1F6
:1014B000099590E0B0E0A0E089879A87AB87BC8768
:1014C0008C8D9D8D8230910589F589859A85AB85B6
:1014D000BC854D855E856F857889481759076A07F1
:1014E0007B0741F0892B8A2B8B2B21F41D861E86CE
:1014F0001F86188ADF91CF9108958B8D2C8D3D8D9D
:101500002130310561F4A0DF51E040E030E020E01F
:10151000811150E0852F942FA32FB22FCDCF94DFD0
:10152000082E000C990BAA0BBB0BC6CF039711F723
:1015300089859A85AB85BC854D855E856F85788963
:10154000481759076A077B07A9F281309105A10561
:10155000B10581F68D879E87AF87B88BCBCFCF93B0
:10156000DF93823108F047C090E0EC01CE58D042C2
:1015700028812F3F09F43FC0AC014C575042DA019B
:10158000EC91B0E2EB9FF0011124FC5F611136C0D9
:10159000268330812323A1F49C0122563142D901B4
:1015A0002C913097A1F1283090F57096E20FF11D43
:1015B0003FB7F894208161112DC0277F20833FBF62
:1015C00084579142FC0190819923A9F0888190343D
:1015D00041F1903819F1903171F4DA019C91913018
:1015E000D9F4853010F0880F82959091010A80958A
:1015F00089238093010ADF91CF910895643029F403
:101600003481278364816223C4CF2583C2CFF0E075
:10161000E0E0CECF2860D2CF880FE7CF1092A006AF
:10162000EACF20E4823009F420E89091920A9223D4
:1016300011F36FB7F8949091800A9E7F9093800A7F
:101640004091920A30E02095309550E024233523D4
:1016500098ED94BF2093920A90918E0A90FFFCCF50
:101660009091800A91609093800A813039F4809142
:1016700050048F77809350046FBFBDCF8091510489
:101680008F7780935104F8CF0F931F93CF93DF93FD
:10169000EC01062F142F60E0898561DFEB85FC8566
:1016A0009F8188852085222319F02FB72187F89400
:1016B00021E0228790932008809321080000009366
:1016C00024088091230887FFFCCF80912408000024
:1016D000109324088091230887FFFCCF10912408E1
:1016E000EB85FC858285882331F0128680858823EE
:1016F00011F081858FBF61E0898531DF812FDF9116
:10170000CF911F910F91089540E861E8BDCF41E866
:1017100061E8BACF40E0B8CFCF92DF92EF92FF926C
:10172000CF93DF936DE187E29AE3F4DF90E034E05A
:10173000959587953A95E1F78A3091050CF03FC071
:10174000FC01EE0FFF1FE80FF91FE05DF042C080C3
:10175000D180E2800E2C000CFF086EE187E29AE354
:10176000D9DFD82F66E287E29AE3D4DFC82FD2957B
:10177000DF7021E030E040E050E004C0220F331F72
:10178000441F551FDA95D2F7C701B6010E94552DA7
:1017900068EE73E080E090E00E94552D2131310524
:1017A000410551058CF04C2F486066EA87E29AE3C8
:1017B000DF91CF91FF90EF90DF90CF9065CFCC2459
:1017C000CA94DC2C7601C9CF4C2F477FEECFCF9245
:1017D000DF92EF92FF920F931F93CF93DF938C01D1
:1017E0006AE198DFC82FD0E0F801668577858089A7
:1017F00091890E94292A2AEE36E54AEF5DE40E948B
:10180000232A87FD44C08DE990E0C81BD90B69E10C
:10181000C80180DF87FD8D5F85958595682F880FCE
:10182000770B880B990B0E94292A6B017C0120E021
:1018300030E0A9010E94232A87FF0DC0BE01DD0F01
:10184000880B990B0E94292AA70196010E94872BD9
:101850000E94532CEB019E01DD0F440B550B2058C9
:101860003F4F4F4F5F4FA4E6B0E00E943C2B26E76E
:1018700030E040E050E00E94552DC901DF91CF914A
:101880001F910F91FF90EF90DF90CF90089584EA21
:1018900090E0BBCFCF92DF92EF92FF920F931F9316
:1018A000CF93DF937C01C62EC72FD42E63E132DFA6
:1018B000D82F0C2D1C2FC0E0CD1751F0CD1541F0C5
:1018C00060E0C70127DFCF5FF80181938F01F4CF7C
:1018D0008C2F90E0DF91CF911F910F91FF90EF90AF
:1018E000DF90CF9008951F93CF93DF93EC01009783
:1018F00059F1469710F0C5E1D0E01C2F4C2F6EE354
:1019000078E387E29AE3C6DF30E02AE52197832F68
:1019100090E08C179D073CF4825C974CFC01808121
:10192000280F3F5FF4CF8091523828130DC0E0910B
:10193000D038F091D138309739F06EE378E3812FC9
:10194000DF91CF911F910994DF91CF911F9108955D
:101950000F931F93CF93DF93EC0162E1DBDE182F2F
:10196000482F62E9CE0190DE15FD23C016FF16C098
:1019700063E1CE01CFDE082F10E060E1CE01CADEC8
:10198000482F6DE8CE0180DEEA81FB81309789F037
:10199000C801DF91CF911F910F91099413FF09C0E6
:1019A000EC81FD81309729F0DF91CF911F910F914C
:1019B0000994DF91CF911F910F91089587E29AE3E7
:1019C000C7CF43E861E860DE81E090E00895CF93FF
:1019D000DF93EC0140E060EC57DE45E861E8CE01C2
:1019E00053DE81E090E0DF91CF91089581E0809314
:1019F000143987E29AE3EBDFE091CE38F091CF38EB
:101A0000309709F009940895AF92BF92DF92EF9258
:101A1000FF920F931F93CF93DF93EC015B01D42EC2
:101A200061E078DE83708330C1F062E1CE0172DE66
:101A300083FF04C048E062E9CE0126DEE881F98137
:101A40000084F185E02DCE01099540E06DE8CE01DE
:101A50001BDE40E062EACE0117DE8501ED2CF12CA1
:101A6000C8018A199B098E159F0538F4F801419128
:101A70008F0160E8CE0108DEF3CF4D2D62EACE0182
:101A800003DE8C819D81892B21F040E460ECCE0146
:101A9000FBDDE881F9810288F389E02DCE0109950B
:101AA000C701DF91CF911F910F91FF90EF90DF90D1
:101AB000BF90AF900895FC018AE5848BDF019F0100
:101AC0002C5E3F4F9D918489890F848BA217B307A9
:101AD000C9F71092143945E1BF0187E29AE394DF18
:101AE00080911339882359F080911439811107C0EE
:101AF00062E070E080E090E00E94CA03F1CF0895B8
:101B0000CF93DF93CDB7DEB76597CDBFDEBF8983B7
:101B10006A838EEF8B8328502C8380E1FA01DE01EB
:101B2000159601900D928A95E1F7CE010196C3DFDB
:101B30006596CDBFDEBFDF91CF910895DC01E7EF61
:101B4000F8E38091F53880838091F638818312968E
:101B50008C911297828315969C911597990F990FE6
:101B6000990F17968C91890F8383CF01A4CF0F9380
:101B70001F93CF93DF938C01EB0162317105C4F0A9
:101B80006531710514F0C4E1D0E0239747E86DECAE
:101B9000C8017ADD41E36BE8C80176DD4C2F425085
:101BA000406869E8C801DF91CF911F910F916CCD1A
:101BB0006230710514F4C2E0D0E044E86DECC80175
:101BC00063DD4BE2E8CF8231F0F490E0FC01EE58A7
:101BD000F04220812F3FB9F0FC01EC57F042E08148
:101BE00030E2E39FF0011124FC5F60FF0DC0218310
:101BF00082569142DC018C91E80FF11D808961FFD2
:101C000005C08860808B08952283F2CF877FFACF4A
:101C1000CF93DF93EC0160E08E81D5DF8E8182313E
:101C200088F590E0FC01E256F142E081EF3F51F18E
:101C30008C579042DC018C9190E0DC01AA0FBB1F15
:101C4000A050B84C2D913C9121153105D9F04E2F63
:101C500050E0440F551F240F351F4EED5CE0D901B5
:101C60004D935C932FB7F894E05F75E0880F991F50
:101C70007A95E1F7E80FF0E0FC5F8081887F826071
:101C800080832FBFDF91CF910895FC01648375831A
:101C9000672B09F0BDCF8681823110F40C94F403D8
:101CA0000895FC0162837383672B09F0B1CF8681AD
:101CB000823110F40C94F4030895CF93DF93EC0178
:101CC000EB85FC85809120088E7F80932008178209
:101CD00060E080E178DF60E08FE075DF60E08EE05B
:101CE00072DF60E089856FDF8D858F3F21F060E0D6
:101CF000DF91CF9168CFDF91CF9108958F929F921E
:101D0000AF92BF92CF92DF92EF92FF920F931F9309
:101D1000CF93DF93EC016A017B0161E0898553DF9A
:101D200061E089851CDC8D858F3FA1F061E04BDF90
:101D300060E08D8514DC6AE070E080E090E00E9455
:101D4000CA0361E08D850BDC6AE070E080E090E022
:101D50000E94CA03EB85FC858781811106C010862D
:101D6000128680E8818781E08783809101028B7FE2
:101D70009681892B809301028681811191C061E057
:101D80008EE021DF61E080E11EDF80912108846028
:101D9000809321088091200881628093200890918F
:101DA000B1398091B239909320088093210862E480
:101DB000CE01B0DC823109F07CC0E881F981068077
:101DC000F781E02DCE010995CE86DF86E88AF98A73
:101DD00046015701BB0C8808982C54019601A701B5
:101DE000682D782D882D982D03E10E94D52DA12CEA
:101DF000E8E4BE2EF8EECF2EDD24D394E12CF12CB6
:101E000000E010E00E94792DF22E832E942EA52E54
:101E1000B62EC72ED82EE92E00E10E94F02D422FBB
:101E200066E8CE0131DC2F2D382D492D5A2D6B2D32
:101E30007C2D8D2D9E2D08E00E94F02D422F67E80D
:101E4000CE0122DC4F2D68E8CE011EDC40E06EE8BA
:101E5000CE011ADC40E06FE8CE0116DC6CE0CE016A
:101E600059DC482F43606CE8CE010EDC44E066EAA2
:101E7000CE010ADCE881F9810084F185E02DCE01F4
:101E8000099581E090E0DF91CF911F910F91FF9034
:101E9000EF90DF90CF90BF90AF909F908F9008957C
:101EA000843009F072CF61E08CE08DDE61E08AE081
:101EB0006BCF90E080E0E7CF87FD03C08630C0F4B1
:101EC0008C5F982F9F77903238F590910006992378
:101ED00031F18F718093060681E08093080680912E
:101EE0000B0680FFFCCF809110069091110608959B
:101EF000813161F092EF980F933010F48D50E1CF63
:101F0000883031F0893031F08FEFDBCF80E0D9CFEE
:101F10008AE0D7CF8BE0D5CF8FEF92E8089589EF95
:101F200092E808954F925F926F927F928F929F9264
:101F3000AF92BF92CF92DF92EF92FF920F931F93D7
:101F4000CF93DF93CDB7DEB72697CDBFDEBF8D83AE
:101F50009E83DC015B968C91C12CD12C76018F3F46
:101F600009F494C01AE0C12CD12C7601ED81FE81D8
:101F7000838DA2DF092E000CAA0BBB0BC80ED91E45
:101F8000EA1EFB1E115091F7AD81BE8196960D9110
:101F90001C91D8011C968D919D910D90BC91A02D06
:101FA00089839A83AB83BC83F80120853185428580
:101FB0005385BC01CD010E94872B9B01AC01698137
:101FC0007A818B819C810E94EB2B4B015C01D801B3
:101FD00014968D929D92AD92BC92179754964D9007
:101FE0005D906D907C905797C701B6012AE030E074
:101FF00040E050E00E94332DCA01B9010E94272A17
:10200000A30192010E94862BA50194010E94882AB7
:10201000A30192010E94872B6B017C01F801C08A09
:10202000D18AE28AF38AAC019B01C301B2010E940A
:10203000862B9F77D8012D913D914D915C910E9407
:10204000882A2B013C01A501940160E070E080E842
:102050009FE30E94862B29813A814B815C810E94FB
:10206000882A9B01AC01C301B2010E94872BF801B1
:102070006487758786879787C48AD58AE68AF78AB0
:10208000C701B6010E94582C6B017C01AD81BE8155
:102090009296ED91FC9193970D911C91309761F17F
:1020A000D8011C960D911C91AD81BE8190962D9109
:1020B0003C9191975E964D915C915F975C966D9186
:1020C0007C91C6010995AB01BC018D819E81F8010F
:1020D0002696CDBFDEBFDF91CF911F910F91FF906C
:1020E000EF90DF90CF90BF90AF909F908F907F90B8
:1020F0006F905F904F900994A0910638B091073887
:10210000A70196010E943C2B2FEF33E040E050E006
:102110000E94332DBA01A901D8011896ED91FC91C6
:102120008D819E812696CDBFDEBFDF91CF911F911D
:102130000F91FF90EF90DF90CF90BF90AF909F9066
:102140008F907F906F905F904F900994EF92FF92E5
:102150000F931F93CF93DF93EC01862F4A834FEFAA
:102160005FEF4B835C8342E050E04B8B5C8B6AE01B
:1021700070E0698B7A8B2D8B3E8B0F8B188F01EC67
:102180001DEB20EF3FEF09871A872B873C870EE373
:1021900012E42FE030E00D871E872F87388B198ED1
:1021A0001A8E2CE13FED288339838B8F1AA21BA254
:1021B0001CA21DA218A219A21E8E1F8E1C8E1D8E7F
:1021C00021E030E02D833E834F83588760E0FBDCC5
:1021D0008B8D72DE7C0188E190E00E9431268C01BB
:1021E0008FE892ECA5EFBCE3F80180839183A28392
:1021F000B383148215821682178280E090E0A0E8F3
:10220000BFE380879187A287B38780E090E0A0E05A
:10221000B0E484879587A687B787108A118A128AC7
:10222000138AB701FF0C880B990B0E94292AF80129
:10223000648B758B868B978B0EA31FA3DF91CF9139
:102240001F910F91FF90EF900895CF93DF93CDB73B
:10225000DEB76097CDBFDEBFDC0115962D913C91B6
:102260002C30310589F5FC019E01235F3F4F84E04E
:10227000D9011D928A95E9F78281898381899289A2
:102280008A879B87838D948D092E000CAA0BBB0B2C
:102290008A839B83AC83BD83858D968D092E000C2C
:1022A000AA0BBB0B8E839F83A887B98781E090E040
:1022B0008C879D8723E030E0AE014F5F5F4F6091D8
:1022C000F6388091F5381CDC6096CDBFDEBFDF911B
:1022D000CF910895FC0101900020E9F73197AF01FB
:1022E000481B590BBC0185E199E30C94E7018F92DF
:1022F0009F92AF92BF920F931F93CF93DF93CDB76F
:10230000DEB7A197CDBFDEBF19A2423008F44AE084
:102310008E010F5D1F4F842E912CB12CA12CA50195
:1023200094010E94332DE62FB901CA01EA30D4F49A
:10233000E05DD801EE938D01232B242B252B79F71B
:1023400090E080E0109711F0CD01C4DFA196CDBFE1
:10235000DEBFDF91CF911F910F91BF90AF909F9003
:102360008F900895E95CE5CFCF92DF92EF92FF92D4
:10237000CF93DF936B017C016DE285E199E30E94CD
:102380007102EC0166277727CB016C197D098E0954
:102390009F094AE0ACDF8C0F9D1FDF91CF91FF902A
:1023A000EF90DF90CF90089595CFCF93DF93D0E05B
:1023B000C0E0009711F08EDFEC0188EB9FED8ADF23
:1023C0008C0F9D1FDF91CF910895CF92DF92EF92F6
:1023D000FF92CF93DF93FC01C184D284E384F48421
:1023E000C416D506E606F70641F121E014161506D7
:1023F000160617060CF020E06A017B01EC01622F43
:102400008B8DADD8C986DA86EB86FC868D899E8950
:102410000E94BD028FEB9FEDC7DF8BEB9FED1C147D
:102420001D041E041F0414F485E790EEDF91CF9184
:10243000FF90EF90DF90CF90B8CFDF91CF91FF90DA
:10244000EF90DF90CF900895CF93DF93FC0144810C
:1024500055816081718185E199E30E94E701EC017A
:1024600088EB9FED37DF8C0F9D1FDF91CF91089593
:102470008F929F92AF92BF92CF92DF92EF92FF9294
:102480000F931F93CF93DF9380910E3990910F3963
:10249000DC01ED91FC910480F581E02D09954B0163
:1024A0005C018091EB389091EC38DC01ED91FC916E
:1024B0000190F081E02D09956B017C01C0910C39F0
:1024C000D0910D3920E030E040E752E4C501B4017D
:1024D0000E94882A20E030E040E05FE30E94882AE2
:1024E0000E94582C07E110E020E030E00C191D0993
:1024F0002E093F09ECE3E09FA001E19F500D11245C
:102500004617570708F4BA016B39B5E07B0714F496
:102510006BE975E06CAF7DAF83EC9FED45DF6CAD93
:102520007DAD072E000C880B990B97FF10C01CDFA8
:1025300088EB9FEDDF91CF911F910F91FF90EF906E
:10254000DF90CF90BF90AF909F908F90C3CE4AE026
:10255000CEDEEECF81EE90E00E94BD0288EB9FEDD3
:10256000B9CECF93DF93EC016091203A70E06F5FBA
:102570007F4F660F771F80911E3A90911F3A0E94FD
:102580000B2E80931E3A90931F3A0097D1F0209122
:10259000203AE22FF0E0EE0FFF1FE80FF91FC08393
:1025A000D1832F5F2093203A30E021503048220F12
:1025B000331F820F931FFC0180819181DF91CF91A6
:1025C000089590E080E0FACFFF920F931F93CF938E
:1025D000DF93CDB7DEB7AD97CDBFDEBF9091533857
:1025E0008091CC38981709F4F1C0E091533888E114
:1025F0008E9FF0011124EC5AF74CDE0111960190E8
:102600000D928A95E1F7809153388F5F809353380C
:1026100080915338853010F010925338FD806F2D23
:1026200070E090E080E04AE062DE8EEC9FEDBCDE80
:102630000C81602F70E090E080E04AE058DE8CE58D
:1026400090EEB2DE1E81612F70E090E080E04AE003
:102650004EDE88EB9FED3EDE8091F538F812B6C075
:102660000F3F41F08091F6380813BCC01C3F09F0C1
:10267000BDC003C01C3F09F0B5C0F885898521E0C5
:1026800030E0882339F0282F30E02D30310514F068
:102690002CE030E04A85442309F4A1C050E04032E8
:1026A000510514F04FE150E08B8568E10E94002D48
:1026B000E92F8C853CE3632F0E94002D592F8D85D7
:1026C0000E94002DF093213A2093223A4093233A1E
:1026D000E093243A5093253A9093263A80ED8093E4
:1026E000BF391092C03960E083EB99E30E945D042A
:1026F0002091263A1AE0822F612F0E94002D682F28
:10270000660F680F660F620F83EB99E30E945D040A
:102710002091253A822F612F0E94002D682F660F8D
:10272000680F660F620F83EB99E30E945D042091AE
:10273000243A822F612F0E94002D682F660F680FA8
:10274000660F620F83EB99E30E945D040E942609E5
:1027500021E0280F822F612F0E94002D682F660F25
:10276000680F660F620F83EB99E30E945D0420916E
:10277000233A822F612F0E94002D682F660F680F69
:10278000660F620F83EB99E30E945D042091223A69
:10279000822F612F0E94002D682F660F680F660F31
:1027A000620F83EB99E30E945D042091213A822F0E
:1027B000612F0E94002D682F660F680F660F620F51
:1027C00083EB99E30E945D040E943201AD96CDBF78
:1027D000DEBFDF91CF911F910F91FF90089541E0EF
:1027E00050E062CF8091F6380813F0CF8091DC384A
:1027F0008823B9F01E3FA9F48F818770863061F479
:1028000088858111E3CF89858093F63866EF78E378
:1028100080E00E948E09DACF8730C1F61092DC3852
:10282000D5CF153009F0B7C03091203AE0911E3A6B
:10283000F0911F3A20E0321749F281919191DC0129
:1028400012964C91453011F02F5FF5CF009709F4A7
:10285000BDCFDC01ED91FC910284F385E02D68850C
:102860000995B4CF1B30E9F40091E3381091E438B6
:102870002C853D8550E040E0688579858A859B857B
:102880000E94552DCA01B9010E94292AAB01BC0141
:10289000D801ED91FC910484F585E02DC8010995DE
:1028A00095CF1C3029F40091E1381091E238E0CF47
:1028B0001730F1F40091EB381091EC382C853D8500
:1028C00050E040E0688579858A859B850E94552D7A
:1028D000CA01B9010E94292AAB01BC01D801ED91BE
:1028E000FC910484F585E02DC8010995C1DD6ECF0A
:1028F000183029F40091E9381091EA38B9CF19302D
:1029000029F40091E7381091E838B2CF1A3029F451
:102910000091E5381091E638ABCF1E30C9F440E1A4
:1029200050E0BE01685F7F4FCE0149960E94DB2ECA
:1029300019A68091DF389091E038DC01ED91FC918F
:102940000684F785E02DBE01675E7F4F09953ECF77
:102950001D3079F440E150E0BE01685F7F4FCE0149
:1029600049960E94DB2E19A680910C3990910D3961
:10297000E4CF1F3009F02ACF40E150E0BE01685F8C
:102980007F4FCE0149960E94DB2E19A68091DD383B
:102990009091DE38D2CF163009F064CF3091203AD2
:1029A000E0911E3AF0911F3A20E0321709F40ECF61
:1029B00081919191DC0112964C91463009F446CFF9
:1029C0002F5FF3CFCF92DF92EF92FF920F931F937F
:1029D000CF93DF93CDB7DEB76097CDBFDEBFDC010D
:1029E00015962D913C9116972730310509F045C079
:1029F0005C962D913C91232B09F43FC08C01F12C66
:102A00006E01B3E0CB0ED11C3EE0E32EF801838DC6
:102A1000F81698F5D601EE2D1D92EA95E9F7D80142
:102A200012968C9112978983FA828F2D90E0880FED
:102A3000991F5C96ED91FC91E80FF91F60817181FF
:102A4000FB0101900020E9F7AF0141505109461BFD
:102A5000570B4E30510510F04EE050E0C6010E9479
:102A6000DB2E22E030E0AE014F5F5F4F6091F63821
:102A70008091F53845D8F394C9CF6096CDBFDEBFBD
:102A8000DF91CF911F910F91FF90EF90DF90CF904A
:102A900008951F93CF93DF93182FF8948091CC382B
:102AA000C8E18C9FC0011124412F50E0895A974CF6
:102AB0000E94C22EE091CC38CE9FF0011124EC5A36
:102AC000F74CD1E0D08387E29AE30E94E70BE091D4
:102AD000CC38CE9FF0011124EC5AF74C81839283BD
:102AE000153141F4E091CC38CE9FF0011124EC5A1D
:102AF000F74CD0838091CC388F5F8093CC38809115
:102B0000CC38853010F01092CC389091CC38809130
:102B1000533898130BC0809153388F5F809353388C
:102B200080915338853010F0109253387894DF91AB
:102B3000CF911F9108958F929F92AF92BF92CF92A3
:102B4000DF92EF92FF920F931F93CF93DF937C015D
:102B5000EB018901BA0190E080E00E94272A4B0135
:102B60005C01B70190E080E00E94272A9B01AC0144
:102B700060E070EC8FE794E40E94EB2B20E030E003
:102B800040E85FE30E94862B9B01AC01C501B401C4
:102B90000E94EB2B6B017C01B80190E080E00E9469
:102BA000272A9B01AC01C701B6010E94EB2B0E94B2
:102BB0008D2C6B017C01BE0190E080E00E94272AF1
:102BC0009B01AC01C701B6010E94EB2B2FE03FEC4B
:102BD0004BE55BE30E94872B9B01AC0160E070E05A
:102BE00080E89FE30E94EB2B23E333E948E853E4BA
:102BF0000E94862BDF91CF911F910F91FF90EF9054
:102C0000DF90CF90BF90AF909F908F900895EF92FC
:102C1000FF920F931F93CF93DF93EC017B018A0107
:102C200088819981009729F02A813B8124173507F3
:102C300088F4B8016F5F7F4F0E940B2E009791F0D0
:102C4000888399830A831B832C813D81232B11F474
:102C5000FC0110820C831D83B701888199810E9439
:102C6000D42E0CC088819981009711F00E94CD2646
:102C7000188219821C821D821A821B82CE01DF916A
:102C8000CF911F910F91FF90EF900895EF92FF92D7
:102C90000F931F93CF93DF93CDB7DEB76997CDBF67
:102CA000DEBF8C01FB0185811F928F9384811F926F
:102CB0008F9383811F928F9382811F928F93818143
:102CC0001F928F93808190E08053984F9F938F93B2
:102CD00082ED9FED9F938F93CE0101967C019F9390
:102CE0008F930E94EA2EF8011082118212821382C1
:102CF00014821582F70101900020E9F73197AF01A6
:102D00004E195F09B701C80182DFCDBFDEBFC80120
:102D10006996CDBFDEBFDF91CF911F910F91FF90DC
:102D2000EF9008958F929F92AF92BF92CF92DF92D1
:102D3000EF92FF920F931F93CF93DF93CDB7DEB740
:102D40002C97CDBFDEBF8C01DC0119968D919C9133
:102D5000892B09F042C0C8010E94BD08882369F18F
:102D6000F801868D978DDC01ED91FC910284F3854D
:102D7000E02D60E0099540E853E46DE678E3CE018C
:102D800001960E943D0886E0FE013196D801D0965A
:102D900001900D928A95E1F740E853E46DE678E3FF
:102DA000CE0101960E943D0886E0FE013196D801D1
:102DB000D69601900D928A95E1F72C96CDBFDEBF95
:102DC000DF91CF911F910F91FF90EF90DF90CF9007
:102DD000BF90AF909F908F900895C8010E94BD084A
:102DE000E82E882309F4A0C061E27AE3C801C69600
:102DF0000E940308F82EF80186A197A1009799F088
:102E0000DC01ED91FC910280F381E02D0995F80140
:102E100094A5891741F0FF24F39485A596A5019701
:102E200009F0F12CE12CD80198968D919C919997FD
:102E3000892B09F443C09C962C919C979A968D916E
:102E40009C91DC01ED91FC910480F581E02D222321
:102E5000F9F009954B015C01F80180A591A5DC0111
:102E6000ED91FC910480F581E02D09959B01AC0169
:102E7000C501B4010E94232A87FF20C0FF24F394D8
:102E8000F80185A596A5019709F0F12CE12C16C053
:102E900009954B015C01D80198968D919C91DC01BC
:102EA000ED91FC910480F581E02D09959B01AC0129
:102EB000C501B4010E94842C181604F3FF2041F1CF
:102EC0000E942609D8019F968C9340E853E46DE652
:102ED00078E3CE0101960E943D0886E0FE0131961E
:102EE000D801D09601900D928A95E1F740E853E41D
:102EF0006DE678E3CE0101960E943D0886E0FE0172
:102F00003196D801D69601900D928A95E1F7E12C81
:102F1000F801868D978DDC01ED91FC910284F3859B
:102F2000E02D6E2D099549CFF80181859285019795
:102F300009F043CF80A191A1F12C009741F0DC0171
:102F4000ED91FC910190F081E02D0995F62EF801AC
:102F500087A5833609F0B3C0D80192968D919C91D4
:102F6000DC01ED91FC910190F081E02D09958091BB
:102F7000233A9091223A2091213A2F83988789878A
:102F80006A871B861C86F80184A195A1009709F029
:102F9000ABC0C4ACD5AC0D2C000CEE08FF08CE01C4
:102FA00007960E9433094B015C01ACE3B0E0A70136
:102FB00096010E943C2BAB01BC01480D591D6A1DB6
:102FC0007B1DCE0101960E943D08CD28CE28CF283A
:102FD00009F4F3CEBE01695F7F4F81E29AE30E945C
:102FE00003088111EACEBE016F5F7F4F81E29AE351
:102FF0000E940308882309F4E0CEF80182A193A17E
:10300000DC01ED91FC910190F081E02D099580911A
:10301000233A9091223A2091213AF80120AB91ABCA
:1030200082AB63AB14AA15AA8EEE9FEDBDD97801D1
:10303000F0E3EF0EF11CB701CE01019627DECE01C1
:10304000019602DA89819A810E94CD26D801949650
:103050008D919C919597009709F050C0DC96CD908A
:10306000DC90C7010E9433094B015C019601ACE37F
:10307000B0E00E94772BAB01BC01480D591D6A1DC1
:103080007B1DCE0101960E943D0886E0FE0131962F
:10309000D801D69601900D928A95E1F788EF9FEDC1
:1030A00083D9B8016A5C7F4FCE010196EFDDCE0176
:1030B0000196CAD989819A810E94CD267ECE0E942E
:1030C0002609282FD8019F963C918F2D90E0830FE1
:1030D000911D37FD9A9567E070E00E94202D28171A
:1030E000190609F039CF69CEDC01ED91FC91019010
:1030F000F081E02D09956B017C0151CFDC01ED9150
:10310000FC910190F081E02D09956B01AACFCF923F
:10311000DF92EF92FF920F931F93CF93DF93EC0117
:103120006B016B8D70E06F5F7F4F660F771F8C8D2B
:103130009D8D0E940B2E7C018C8F9D8F892BF1F031
:10314000C6010E945D270B8D10E0000F111F0E0DB0
:103150001F1D01960E943126F801808391838B8D7B
:1031600090E0880F991FE80EF91EB601F7018081E3
:1031700091810E9456278B8D8F5F8B8FDF91CF912E
:103180001F910F91FF90EF90DF90CF9008952F92B5
:103190003F924F925F926F927F928F929F92AF92E7
:1031A000BF92CF92DF92EF92FF920F931F93CF9334
:1031B000DF93CDB7DEB72897CDBFDEBF4C012F839D
:1031C000388784E09FEDF401808391836283438399
:1031D00054838DE090E08583968381E090E087833F
:1031E0009087138A148A818B928BA58AB68A178A54
:1031F000108E5C5EFA01808190E0B0E0A0E0F40106
:1032000081879287A387B48780959095A095B09584
:1032100085879687A787B08B118E128E87E0482E00
:10322000512C4582568293E0292E312C27823086FC
:10323000138E148E158E88E79EED80839183540142
:10324000F0E3AF0EB11C40E853E46DE678E3C5014E
:103250000E943D08340186E3680E711C40E853E487
:103260006DE678E3C3010E943D088F819885F401E3
:10327000868F978F00A311A3E2A2F3A2C4A2D5A2C6
:1032800016A217A210A611A612A613A614A615A67A
:1032900016A614AE15AE83E687A740E853E46DE6A4
:1032A00078E3CE0101960E943D0886E0FE0131964A
:1032B000D50101900D928A95E1F740E853E46DE65F
:1032C00078E3CE0101960E943D0886E0FE0131962A
:1032D000D30101900D928A95E1F760E071E0C4019D
:1032E00016DF67EF70E0C40112DFF40145825682F9
:1032F000278230862896CDBFDEBFDF91CF911F9108
:103300000F91FF90EF90DF90CF90BF90AF909F9084
:103310008F907F906F905F904F903F902F90089587
:10332000AF92BF92CF92DF92EF92FF920F931F93D3
:10333000CF93DF931F92CDB7DEB78C015B01DC0129
:103340005B96EC90D12CC12CFC2CCE1458F5C60108
:10335000880F991FD8015C96ED91FC91E80FF91F39
:1033600060817181C5010E94CB2EBFEFCB1ADB0AB1
:10337000892B51F74F2D50E070E060E0D801ED91BE
:10338000FC910084F185E02DC80109950F90DF9133
:10339000CF911F910F91FF90EF90DF90CF90BF9052
:1033A000AF900895F801618583818983CE010196EC
:1033B0000E947C09EBCF0F931F93CF93DF93CDB780
:1033C000DEB7A897CDBFDEBFFC016185728583851E
:1033D00094851BA21CA21DA21EA21FA218A62AE051
:1033E0008E010F5F1F4FA8010E947527F801019001
:1033F0000020E9F73197AF01401B510BB801CE0116
:10340000839605DC0BA11CA1C8010E94CD26C80132
:10341000A896CDBFDEBFDF91CF911F910F91089588
:103420000F931F93FC014185528563857485038D3D
:1034300010E030E020E0401751076207730764F4A2
:10344000440F551F848D958D480F591FFA018081B7
:1034500091811F910F9108951F910F91ACCFDC01C5
:103460009496ED91FC919597309721F019968D9156
:103470009C910994A0CFEF93FF93F898E5E1F9E3CD
:103480000BC0EF93FF93F898E5E1F9E334C0EF93B5
:10349000FF93E5E1F9E35CC02F932FB72F938F9350
:1034A0009F93AF93BF936894CF93DF9320E0C08541
:1034B000D8E09089DF01A90FB21FAF5ABF4F8C919E
:1034C00020E42C838A839F5F9F738D812785291336
:1034D00002C08F7D8D83908BDF91CF9116F00C947D
:1034E0007002BF91AF919F918F912F912FBF2F911C
:1034F000FF91EF9118952F932FB72F933F938F93B1
:103500009F93CF93DF93C085D8E08981988186749B
:10351000880F3485382B82FD0DC0C58581E08C0F66
:103520008F732685281791F0CE0FDF2F20E0D21F52
:10353000998B85873487DF91CF919F918F913F91B0
:103540002F912FBF2F91FF91EF9118953064F2CFFB
:103550008F938FB78F939F93CF93DF93C085D8E0DE
:103560009D8188818C8187FDFCCF9F7B90689D83A6
:10357000DF91CF919F918F918FBF8F91FF91EF91AD
:1035800018958F9381E080938D0A8FB78F93EF9377
:10359000FF93E2EDF8E39F9368948FEF0FC0E894F8
:1035A000848195818C5E9F4F84839583885E934050
:1035B00010F08FEF03C0848395838EEF9081981B6A
:1035C000919390819F4F919390819F4F9193908180
:1035D0009F4F919326F39F91FF91EF918F918FBF12
:1035E0008F9118950F9304E006C00F9302E003C07B
:1035F0000F9300E000C00F920FB60F921F9211249C
:10360000FF921F932F933F934F935F936F937F93FB
:103610008F939F93AF93BF93CF93DF93EF93FF93DA
:10362000A0E0B8E3A00FB11DCD91DC91000F0D5FBC
:10363000A02FB0E0FC90109761F01F2D169518F0A8
:1036400041F02296FBCFE991F9913097B9F30995B2
:10365000F5CFA02FB0E0FC92FF91EF91DF91CF91D9
:10366000BF91AF919F918F917F916F915F914F919A
:103670003F912F911F91FF901F900F900FBE0F90C1
:103680000F9118951F920F920FB60F9211241F934E
:103690002F933F934F935F936F937F938F939F935A
:1036A000AF93BF93CF93DF93EF93FF93CBEBD9E32C
:1036B000E881F981838586FF56C080FF41C015856A
:1036C00081FF38C08E81882359F08091CD38809356
:1036D0005000EB85FC85309719F08E8190E00995BC
:1036E0001C831D821886E985FA85309709F00995B3
:1036F0008D81882319F183E0909150009093CD380B
:10370000917090935000E881F9818287FF91EF9149
:10371000DF91CF91BF91AF919F918F917F916F91E9
:103720005F914F913F912F911F910F900FBE0F907E
:103730001F9018951C831E821F82DDCF86E0DCCF90
:103740008091CD3880935000EB85FC85309729F02F
:103750008E81882311F090E009951E821D821F82C0
:10376000188682E0D0CF87FF2FC081FF1EC08871EE
:1037700039F08A8183FF04C01D82877F8A83F1CF5D
:103780008B818F5F8B838A8188608A83A8858D81F6
:10379000A81738F7AC0FBD2FB11D1D968C918587EA
:1037A00088858F5F888783E0AECF8585EE81E032A4
:1037B00058F4EC0FFD2FF11D85A78E818F5F8E834E
:1037C000803288F386E09FCF80E09DCF1F920F92DA
:1037D0000FB60F9211248F9381E08093123980935A
:1037E00053018F910F900FBE0F901F901895CF939C
:1037F000109217391092183948EE53E060E070E0EB
:103800004093193950931A3960931B3970931C39BE
:1038100082E59FED809315399093163980E098E00A
:1038200080931D3990931E3910921F3910922039C0
:1038300084E08093B23991E39093B13920E238E08B
:103840002093A6393093A7391092AD391092B5392B
:103850001092B6394093B7395093B8396093B9395B
:103860007093BA3924E63FED2093B3393093B439DD
:1038700020E138E02093BB393093BC392AE93FED91
:103880002093273A3093283A90932E3A80932F3AF8
:103890001092303A1092313A83E08093343AC2E089
:1038A000C0932D3A86EA99E38093323A9093333A63
:1038B0001092353A1092363A1092373A1092383ABE
:1038C00040E853E46DE678E381E29AE30E943D0824
:1038D00010921E3A10921F3A1092203A1092083A13
:1038E00082E390E080930D3A90930E3A1092103A52
:1038F0001092173A1092183A1092193A10921A3AF6
:1039000081E08093163A8093133A1092143AC09350
:10391000153A89E090E080930B3A90930C3A0E941C
:1039200031268093113A9093123A009729F129E0B9
:10393000FC0111922A95E9F783E090E08093093A1F
:1039400090930A3A8CE080930F3A8091083A88234A
:1039500041F061E08CE00E94E30D60E08CE00E94A9
:10396000AF0A84E494E080931B3A90931C3A84E07D
:1039700080931D3ACF91089510920B3A10920C3A11
:103980001092093A10920A3ADDCFCF93DF93CDB768
:10399000DEB7E697CDBFDEBF81E098ED94BF8093A0
:1039A0006100E0E0F6E092E592839AE0958390E290
:1039B00093838083109202028093030A9EEF909378
:1039C000260A9093270A9BE09093000AE0E8FAE029
:1039D0002DEF31E026A737A7118290E892838487E4
:1039E00081E1808378948091213980FF12C085E144
:1039F00099E30E94D702E0911D39F0911E39168299
:103A0000158280EC8483809123398093223910922F
:103A10002139FFB6F894E0911D39F0911E391682D4
:103A200083E0878385E191E080879187148680E831
:103A3000858380EC86839091203900911F39809195
:103A40000102992309F450C0816080930102090F9B
:103A50001127111F000F111F000F111F00551142D8
:103A600061E0D8018C910E94E30D62E0F801818150
:103A70000E94E30DFFBE8EEE91E00E94BD0288EB36
:103A80009FED0E946A1161E080910F3A0E94E30D60
:103A900060E080910F3A0E94AF0A81E08093083A7B
:103AA0006091103A6B3041F12091113A3091123A05
:103AB0006150E1F070E08FEF9AE00E940C2DF90167
:103AC00040910B3A50910C3ACF01821B930B841713
:103AD000950778F4DF014D91469FC001479F900DF7
:103AE00011249083FD01ECCF8E7FAFCF70E060E0BA
:103AF000E6CF8BE08093103A809100148093F638E3
:103B000060E083E00E94E30D1EAA83E00E945C0F48
:103B1000843691050CF04CC04FEF50E060E070E04F
:103B200090E080E00E947E010E9419032FB7F89474
:103B30008091D6389091D738A091D838B091D938A3
:103B40002FBF81319742A105B10540F164E670E0D5
:103B500080E090E00E94CA0340E050E0BA0190E0AB
:103B600080E00E947E010E9419032FB7F894809193
:103B7000D6389091D738A091D838B091D9382FBF86
:103B800081319742A105B10570F064E670E080E0F4
:103B900090E00E94CA0381E08EABB7CF6CE271E087
:103BA00080E090E0D7CF6CE271E080E090E0F1CF70
:103BB0002FB7F8948091D6389091D738A091D83803
:103BC000B091D9382FBF81319742A105B10518F0C6
:103BD0008FEF8093F6384FEF50E060E070E090E0B8
:103BE00080E00E947E010E9419038091F6388F3F89
:103BF00009F084C086E190EE0E94D51185E18093A2
:103C0000F6381092F53866EF78E380E00E948E096E
:103C100065EF78E381E00E948E0982E0898360E0AD
:103C2000CE0101960E947C0983E0898360E0CE0189
:103C300001960E947C0984E0898360E0CE010196B0
:103C40000E947C0988E0ECE2FEEDDE011196019015
:103C50000D928A95E1F7BE016F5F7F4F85E00E946C
:103C6000A90988E0E4E3FEEDDE01119601900D92D2
:103C70008A95E1F7BE016F5F7F4F8DE00E94A90931
:103C800088E0ECE3FEEDDE01119601900D928A953D
:103C9000E1F7BE016F5F7F4F85E10E94A90988E0CF
:103CA000E4E4FEEDDE01119601900D928A95E1F7B4
:103CB000BE016F5F7F4F8DE10E94A90988E0ECE4AF
:103CC000FEEDDE01119601900D928A95E1F7BE019D
:103CD0006F5F7F4F85E20E94A90988E0E4E5FEED71
:103CE000DE01119601900D928A95E1F7BE016F5F9A
:103CF0007F4F8DE20E94A909F1E0FEAB8091011493
:103D00008093F53811E01093133989E495E180939D
:103D1000D0389093D1381092CE381092CF3840E4FA
:103D20005EE06FEC79E187E29AE30E947E0E892BD8
:103D300049F51092103988E290EE0E94D51113E0F7
:103D400040E050E06FEF70E081E090E00E947E0183
:103D50000E94190364E670E080E090E00E94CA03CC
:103D600040E050E0BA0181E090E00E947E010E94B4
:103D7000190364E670E080E090E00E94CA031150ED
:103D8000F9F699C083E79CE08093293A90932A3A08
:103D900087E29AE30E94080E86EF9CE080932B3A1C
:103DA00090932C3A87E29AE30E94080E63E170E058
:103DB00087E29AE30E94B70D43EC61EB87E29AE356
:103DC0000E94440B4AE067EB87E29AE30E94440BAF
:103DD0006EE187E29AE30E948A0B8F70482F406958
:103DE0006EE987E29AE30E94440B0E948C0B6DE11E
:103DF00087E29AE30E948A0B8F70482F40676DE933
:103E000087E29AE30E94440B0E948C0B6DE187E2EB
:103E10009AE30E948A0B817F482F42606DE987E216
:103E20009AE30E94440B87E29AE30E94E70C109306
:103E3000103983E390EE0E94D4116091F63870E05F
:103E400090E080E04AE00E9477118EE390EE0E94BD
:103E5000D4116091F53870E090E080E04AE00E9473
:103E600077118CEF9FED0E94D4114AE061EB71E075
:103E700080E090E00E94771183E490EE0E94D411DC
:103E80004AE061E070E080E090E00E94771188EB0A
:103E90009FED0E946A1140E05FEF60E070E090E00B
:103EA00080E00E947E010E94190364E670E080E0D9
:103EB00090E00E94CA0388E893E1809306389093CB
:103EC00007388091BD3981FD26C082FD24C08091D4
:103ED000010284FF29C486E0809306048091BD39E5
:103EE00082608093BD39E091BB39F091BC3981E0AB
:103EF000838385839091BD3991FF0DC09681913266
:103F000051F02381138291E2968390819D7F90836B
:103F1000238320FD85838EE490EE0E94D51188E2F4
:103F200090E09FD67C010FED11E023EE31E041E0FF
:103F300062E00E94A610C7010E94B112FC018093AA
:103F40000E3990930F398BE9882E85E1982E82A245
:103F500093A29EE6A92E9FE0B92EA48EB58E28EEE0
:103F6000C22E23E0D22EC68ED78E38E8E32E33E160
:103F7000F32EE0A2F1A288E290E073D63C0102EDBC
:103F800011E026ED31E042E063E00E94A610C3019B
:103F90000E94B112FC018093F3389093F43882A20E
:103FA00093A2A48EB58EC68ED78EE0A2F1A280E237
:103FB00090E057D68C0183E0D80112968C9312972B
:103FC0008FEF9FEF13968D939C9314978DE090E065
:103FD00015968D939C931697EE24E394F12C1796E7
:103FE000ED92FC92189753961D921C9254975196FD
:103FF000ED92FC92529786EC91E055968D939C93AE
:10400000569757961D921C92589781EC9DEBA0EF06
:10401000BFEFF80181879287A387B4878EE392E48C
:10402000AFE0B0E085879687A787B08B118E128EA0
:104030008CEB9EED8083918384E0838FE48EF58EFC
:10404000168E178E62E00E94E30DD8015C962D91CA
:104050003C915D972230310508F072C315961D9290
:104060001C92169717961D921C9218975B968C912E
:104070002130310509F05CC30E94240A51E040E080
:1040800030E020E0811150E0852F942FA32FB22F34
:10409000F80181879287A387B487C8010E94B11273
:1040A0008093F1389093F23888E290E0DAD57C0181
:1040B00005EB11E029EB31E044E065E00E94A61039
:1040C000C7010E94B112FC0181E695E082A393A38F
:1040D00086E490E0848F958F84EF91E0868F978FB0
:1040E00084E991E180A391A38CE190E0BAD58C01A1
:1040F00085E0D80112968C931297AA24AA94BA2C20
:104100001396AD92BC921497EDE0F0E01596ED9306
:10411000FC93169788248394912C17968D929C92E9
:10412000189753961D921C92549751968D929C927B
:10413000529787EA91E055968D939C9356975796A0
:104140001D921C92589741ECC42E4DEBD42E40EF9B
:10415000E42EFF24FA941996CD92DD92ED92FC9212
:104160001C975EE3452E52E4552E5FE0652E712CC0
:10417000F801458656866786708A118E128E84ED08
:104180009EED808391838BE0838F61E00E94E30D3D
:10419000D8015B968C910E94240A082E000C990B82
:1041A000AA0BBB0BF80181879287A387B48762E0D3
:1041B000262E312C2582368217821086C8010E9455
:1041C000B1128093EF389093F0388CE190E049D5AC
:1041D0008C0186E0D80112968C9312971396AD92BB
:1041E000BC921497EDE0F0E01596ED93FC931697D2
:1041F00017968D929C92189753961D921C925497E5
:1042000051968D929C9252978BE991E055968D93A1
:104210009C93569757961D921C9258971996CD923B
:10422000DD92ED92FC921C97F801458656866786D2
:10423000708A118E128E84ED9EED808391838AE0C8
:10424000838F61E00E94E30DD8015B968C910E9400
:10425000240A082E000C990BAA0BBB0BF8018187CE
:104260009287A387B4872582368217821086C80179
:104270000E94B1122C018093ED389093EE388FE1BB
:1042800090E0EFD47C010CE811E02EE831E045E14C
:1042900050E067E00E941907C7010E94B1127C013B
:1042A0008093EB389093EC388FE190E0DAD46C0196
:1042B0000CE711E02EE731E04DE150E068E00E94AC
:1042C0001907C6010E94B1128093E9389093EA3829
:1042D0008FE190E0C6D46C0110E000E02FE631E001
:1042E00045E250E069E00E941907C6010E94B11240
:1042F0008093E7389093E8388FE190E0B2D46C0176
:104300000EE511E022E631E04DE250E06AE00E9465
:104310001907C6010E94B1128093E5389093E638E0
:104320008FE190E09ED46C0100E511E024E531E0DE
:1043300045E050E06BE00E941907C6010E94B112EF
:104340008093E3389093E4388FE190E08AD46C0155
:1043500001E411E025E431E04DE050E06CE00E9422
:104360001907C6010E94B1128093E1389093E23898
:104370008EE390E076D43C0175E3A72E71E0B72E72
:10438000D12CC12C10E000E0920143E050E06DE040
:104390000E94C718C3010E94B112FC0180930C391E
:1043A00090930D398091F1389091F23886A397A3BC
:1043B00014A615A616A68EE390E053D43C01C09037
:1043C000E538D090E638E090E938F090EA3800918E
:1043D000E7381091E8382091EF383091F038E9E271
:1043E000AE2EE1E0BE2E44E050E06EE00E94C71821
:1043F000C3010E94B1128093DF389093E0388DE2C0
:1044000090E02FD48C018091E1389091E238209196
:10441000E3383091E4384091ED385091EE386091B6
:10442000F3387091F438E4E0FFEDD801ED93FC939C
:104430001197EFE01296EC93129713962D923C92FF
:104440001497EDE0F0E01596ED93FC931697179610
:104450008D929C92189753961D921C925497519648
:104460008D929C925297EEE1F1E05596ED93FC937C
:10447000569757961D921C925897C0900214D12CB3
:10448000F12CE12C1996CD92DD92ED92FC921C97C5
:10449000C094D094E094F094F801C586D686E7865F
:1044A000F08A118E128E0F2EF7E0CF2ED12CF02D28
:1044B000C582D6820F2EF3E0EF2EF12CF02DE7828D
:1044C000F086138E148E158EECEEFEEDED93FC93BC
:1044D000119794966D937C93959796964D935C93D4
:1044E000979792962D933C93939790968D939C9348
:1044F000919784E090E05E968D939C935F97989659
:104500001D921C9299979A961C929A979B961D922F
:104510001C929C9769E071E0C8010E94871864E0D2
:1045200071E0C8010E948718F801C582D682E7822F
:10453000F086C8010E94B1128093DD389093DE3876
:10454000FEA981E090EEF11102C08EE090EE0E9493
:10455000D5112EA9222309F444C180911039882352
:1045600009F43FC181E08093DC388E01085D1F4F64
:104570008EE0F82ED801EF2D1D92EA95E9F78EEF27
:104580008EA38DE08FA383E088A749E050E064E12B
:1045900071E0CE0189969AD430E020E0AE014A5D08
:1045A0005F4F6091F6388091F5380E94800DD801F8
:1045B0001D92FA94E9F745E050E06EE071E0C80121
:1045C00085D422E030E0AE014A5D5F4F6091F6385D
:1045D0008091F5380E94800D18A627E030E0AE01EA
:1045E0004A5D5F4F6091F6388091F5380E94800DEA
:1045F000D12C4E01B8E18B0E911C9EE0C92E80910A
:10460000203AD81608F0B2C08D2D90E0880F991F7F
:10461000E0911E3AF0911F3AE80FF91F00811181D5
:10462000F8018281882309F47DC0D401EC2D1D920C
:10463000EA95E9F78E8BD80115968C9115978F8B9B
:1046400017968C911797888F5596ED90FC90C7011F
:1046500034D48D30910510F08DE090E0AC01B701BD
:10466000CE01499633D430E020E0AE014A5E5F4F80
:104670006091F6388091F5380E94800DF801A78886
:10468000B08CA114B10451F1C50117D47C01892B60
:1046900029F1D80112968C918983A701BEE0EB160F
:1046A000F10410F04EE050E0B501CE0103960ED4B7
:1046B000EEE0EE16F10438F4E3E0F0E0EC0FFD1F5D
:1046C000EE0DFF1D108221E030E0AE014F5F5F4F25
:1046D0006091F6388091F5380E94800DD801ED91F7
:1046E000FC910288F389E02DC8010995F4012C2D75
:1046F00011922A95E9F7D80112968C9112978E8B18
:1047000015968C9115978F8B17968C91888F27E033
:1047100030E0AE014A5E5F4F6091F6388091F53827
:104720000E94800DD3946BCF83E080932604D6CB78
:104730000E94240A082E000C990BAA0BBB0BA8CCD4
:1047400088E090E015968D939C9316971796ED92BE
:10475000FC92189719968D919D910D90BC91A02D6A
:10476000F80185879687A787B08B97CCF3E0CF2E8B
:10477000D12CE12CF12C812C912C54018A9493940E
:104780008091DC38882369F10E94E4122FB7F894F5
:104790006091D6387091D7388091D8389091D938B7
:1047A0002FBFA70196010E94332DCA01B901A501AF
:1047B00094010E94332D6F5F710977FF03C07195DB
:1047C00061957109AB01770F660B770B762F652F1B
:1047D000542F442790E080E00E947E010E9419033C
:1047E000CFCF80ED8093BF391092C0390E94320143
:1047F00091E0811190E0909311398111BEC08EE556
:1048000090EE0E94D5110E946F0461E27AE3CE011E
:1048100001960E944616CE0101960E9424128981BB
:104820009A81BBD28091A1008D7F8093A10080915D
:1048300002068F7C806580930206F8948091410186
:104840008111FCCF11E010934001109247011093A9
:10485000520181E78093500178948FE690EE0E9498
:10486000D5111093123840E050E0BA0190E080E09A
:104870000E947E010E9419038091F6389091F538CC
:1048800099838A838CEF8B838DE68C83CE0101968E
:104890000E945B0D88E790EE0E94D5114BEFC42E6D
:1048A00048E3D42E50E1A52E80911239882309F4D3
:1048B00038C11092123981E29AE30E9433092B0128
:1048C0003C01BFEF4B1A5B0A6B0A7B0AB301A201E2
:1048D000CE0101960E943D0886E0FE013196A1E2DC
:1048E000BAE301900D928A95E1F740E050E0BA01F9
:1048F00040FE10C080911139882341F08091103919
:1049000040E05FEF60E070E0811104C040E050E003
:104910006FEF70E090E080E00E947E010E9419033A
:1049200080911238882379F01092123880910E39D4
:1049300090910F39DC01ED91FC910088F189E02D17
:1049400009950E94381210E08091203A181798F5C6
:10495000812F90E0880F991FE0911E3AF0911F3A45
:10496000E80FF91F80819181DC01ED91FC910088B5
:10497000F189E02D09951F5FE7CF40E050E06FEF30
:1049800070E082E090E00E947E010E94190364E6DC
:1049900070E080E090E00E94CA0340E050E0BA017D
:1049A00082E090E00E947E010E94190385E690EE6D
:1049B0000E94D51137CFB12C8091203AB81608F05B
:1049C000B0C08B2D90E0880F991FE0911E3AF091B6
:1049D0001F3AE80FF91F00811181F80141855285C6
:1049E0006385748585859685841B950B97FF03C029
:1049F000919581959109D80153962D913C915497A9
:104A0000281739070CF05DC012968C9112978823F5
:104A100009F457C0F801458756876787708B058072
:104A2000F681E02DED30F10508F03DC0E65EFA4D6F
:104A30000C94712D272527252725532567255325D8
:104A40005325672527255325532567252725559663
:104A50008D919C910E94BD028EEC9FED0E94D4111D
:104A6000F801618572858385948597FF2CC00E942B
:104A7000B41188EB9FED0E946A11F801818592853F
:104A8000A385B4858093FB389093FC38A093FD38C0
:104A9000B093FE38818992898093FF3890930039D2
:104AA000C8010E949E0DD8015996ED91FC915A972C
:104AB000309739F019966D917D918D919C911C974D
:104AC0000995B39479CF4AE00E947711D2CFED9146
:104AD000FC910680F781E02DC80109957C01F80161
:104AE000858996890E94BD028EEC9FED0E94D411AB
:104AF000C7010E94D511F70101900020E9F7319715
:104B0000D6012A2D1D922A95E9F7EE19E13108F018
:104B1000E0E14E2F50E0B7018BEF98E30E94DB2ECF
:104B2000BFCF8091253A90E0B0E0A0E040910E38F0
:104B300050910F3860911038709111388417950793
:104B4000A607B707A9F080930E3890930F38A0936B
:104B50001038B093113861E27AE3CE0101960E94D9
:104B60004616CE0101960E94241289819A8115D1A0
:104B70008091243A90E0B0E0A0E040910A38509152
:104B80000B3860910C3870910D3884179507A60783
:104B9000B707C9F080910C3990910D390E94BD087A
:104BA000811102C00E9438120E946F048091243A41
:104BB00090E0B0E0A0E080930A3890930B38A09387
:104BC0000C38B0930D380E94E4128BE00E94240A46
:104BD000082E000C990B2091093828171906A1F00E
:104BE0008BE00E94240A8093093840E05FEF60E088
:104BF00070E0811103C040E050E0BA0181E090E034
:104C00000E947E010E9419038AE00E94240A082E55
:104C1000000C990B209108382817190609F444CE86
:104C20008AE00E94240A8093083840E05FEF60E049
:104C300070E0811103C040E050E0BA0182E090E0F2
:104C40000E947E010E9419032FCE8091113A90910B
:104C5000123A009709F0A1D060E080910F3A0C94CD
:104C6000E30D0F931F93CF93DF938230910510F4E0
:104C700082E090E0E0913B3AF0913C3A30E020E075
:104C8000B0E0A0E0309799F42115310509F44AC04D
:104C9000281B390B24303105D8F58A819B81611599
:104CA000710589F1FB0182839383FE0111C040816C
:104CB00051810281138148175907E0F048175907BD
:104CC00099F4109761F012960C93129713961C9317
:104CD0003296CF01DF91CF911F910F9108950093EC
:104CE0003B3A10933C3AF4CF2115310551F042176D
:104CF000530738F0A901DB019A01BD01DF01F8017A
:104D0000C1CFEF01F9CF80933B3A90933C3ACDCF9E
:104D1000FE01E20FF31F8193919322503109288302
:104D20003983D7CF2091393A30913A3A232B41F445
:104D300020911538309116382093393A30933A3A09
:104D400020911338309114382115310541F42DB7D5
:104D50003EB74091173850911838241B350BE0911D
:104D6000393AF0913A3AE217F307A0F42E1B3F0BC1
:104D70002817390778F0AC014E5F5F4F24173507CD
:104D800048F04E0F5F1F4093393A50933A3A81935F
:104D900091939FCFF0E0E0E09CCFCF93DF9300971B
:104DA000E9F0FC01329712821382A0913B3AB09154
:104DB0003C3AED0130E020E01097A1F420813181F0
:104DC000820F931F2091393A30913A3A28173907C8
:104DD00009F061C0E093393AF0933A3ADF91CF910C
:104DE0000895EA01CE17DF07E8F54A815B819E014D
:104DF00041155105B1F7E901EA83FB8349915991C6
:104E0000C40FD51FEC17FD0761F4808191810296D4
:104E1000840F951FE90188839983828193818A8316
:104E20009B83F0E0E0E012968D919C9113970097A0
:104E3000B9F52D913C911197CD010296820F931FE8
:104E40002091393A30913A3A2817390739F6309794
:104E500051F510923B3A10923C3AA093393AB093F4
:104E60003A3ABCCFC283D38340815181840F951FCE
:104E7000C817D90761F44E5F5F4F88819981480F49
:104E8000591F408351838A819B818283938321159B
:104E9000310509F0B0CFE0933B3AF0933C3A9ECF16
:104EA000FD01DC01C0CF12821382D7CFFB01DC01F0
:104EB00005900D920020E1F70895FC010590002077
:104EC000E9F7809590958E0F9F1F0895FB01DC01F7
:104ED0004150504048F005900D920020C9F701C0A4
:104EE0001D9241505040E0F70895BB272A3051F4FD
:104EF000992342F4BDE290958095709561957F4F1E
:104F00008F4F9F4F01C0BB27FA01A62F6217710573
:104F100081059105330B30FB66F0AA27660F771FDA
:104F2000881F991FAA1FA21710F0A21B6395385063
:104F3000A9F7A05DAA3308F0A95DA19336F7B111D6
:104F4000B1931082CA01E1C1ABE0B0E0E9EAF7E257
:104F50009DC37C013B018A01FC011682178283817B
:104F600081FFBAC1CE0101965C01F7019381F30183
:104F700093FD859193FF81913F01882309F449C1F5
:104F8000853239F493FD859193FF81913F018532FC
:104F900021F4B70190E0C9D1E8CF912C212C312C1C
:104FA000FFE1F31538F08B3211F190F4803209F102
:104FB000833229F137FC3CC020ED280F2A3050F510
:104FC00036FE20C08AE0989E200D1124922E06C045
:104FD0008D3291F0803371F7689430F8F30193FDCE
:104FE000859193FF81913F018111DACF21C06894AF
:104FF00031F8689432F8F2CF689433F8EFCF6894C0
:1050000034F8ECCFEAE02E9E200D1124222E689475
:1050100035F8E4CF8E3229F436FCFBC0689436F8BC
:10502000DDCF8C3619F4689437F8D8CF8836B1F2D2
:10503000982F9F7D95549330D8F0833691F1833724
:10504000B1F1833509F05EC02801F2E04F0E511C2A
:10505000F801C080D180692D70E036FC02C06FEF8E
:105060007FEFC6013CD14C01689437F882010AC039
:105070000C5F1F4FFFE3F98388248394912C650113
:10508000E89437F833FE2AC0522C8114910459F564
:10509000552009F46ACFB70180E290E046D15A94D6
:1050A000F7CFF801808189830E5F1F4FE5CF28017C
:1050B000F2E04F0E511CF801C080D180692D70E0E4
:1050C00036FC02C06FEF7FEFC60114D14C018201A4
:1050D000D7CFB70180E290E028D12A942814190490
:1050E00009F0B8F7D1CFF60137FC859137FE8191F1
:1050F0006F01B70190E019D151105A94F1E08F1A65
:105100009108C3CF843619F0893609F073C0F801CD
:1051100037FE67C060817181828193810C5F1F4F70
:10512000F32DFF763F2E97FF09C0909580957095DF
:1051300061957F4F8F4F9F4F689437F82AE030E09A
:10514000A50123D1C82ECA188C2C432C36FE0CC0C6
:10515000E89440F8C91440F434FE05C032FC03C0A2
:10516000F32DFE7E4F2E892C44FE90C0FE01EC0DE7
:10517000F11D8081803309F082C0242D297E422ECA
:10518000842D8870582E43FC8FC040FE89C09C2C13
:10519000821418F42C0C922C981844FE8BC0B70182
:1051A00080E390E0C2D042FE08C088E790E041FE74
:1051B00002C088E590E0B701B8D0C91408F486C0F1
:1051C000CA94D12C9FEFC91AD90ACA0CDB1CF6016C
:1051D00082916F01B70190E0A8D0AC14BD04B9F77B
:1051E00057CF60817181072E000C880B990B0E5FE1
:1051F0001F4F96CFD32CE894D4F82AE030E08537BF
:1052000031F1232D297FD22E8F36F9F040F48835E5
:10521000A1F0F701868197812B96E2E150C2803799
:1052200049F08837B1F7D4FE02C06894D2F820E183
:1052300030E00DC06894D4F8F6CF34FE03C0822F5E
:105240008660D82E20E132E002C028E030E0F8018C
:10525000D7FE0EC060817181828193810C5F1F4FE8
:10526000A50193D0C82ECA183D2CE89437F86CCF0E
:105270006081718190E080E00E5F1F4FF1CF42FCB2
:1052800002C083947DCF839483947ACF842D8678D3
:1052900009F476CFF6CFB70180E290E046D0839450
:1052A0008214C8F3512C79CF522C5818821408F468
:1052B00074CFF8CF842D867809F47FCF8BE241FE3E
:1052C00080E247FC8DE2B70190E076CFB70180E342
:1052D00090E02BD09A9471CF8FEF9FEF9DCFFC0180
:1052E0000590615070400110D8F7809590958E0F11
:1052F0009F1F0895FC016150704001900110D8F784
:10530000809590958E0F9F1F0895DC01FC01672FFB
:1053100071917723E1F7329704C07C916D9370838C
:105320006291AE17BF07C8F308950F931F93CF93F1
:10533000DF93182F092FEB018B8181FD09C01FEF2F
:105340000FEF812F902FDF91CF911F910F91089533
:1053500082FF14C02E813F818C819D8128173907DF
:105360003CF4E881F981CF01019688839983108309
:105370008E819F8101968E839F83E3CFE885F98597
:10538000812F0995892BA1F3DACFFA01AA272830BA
:1053900051F1203181F1E8946F936E7F6E5F7F4F02
:1053A0008F4F9F4FAF4FB1E03ED0B4E03CD0670F7E
:1053B000781F891F9A1FA11D680F791F8A1F911DD1
:1053C000A11D6A0F711D811D911DA11D20D009F421
:1053D00068943F912AE0269F11243019305D319363
:1053E000DEF6CF010895462F4770405D4193B3E04C
:1053F0000FD0C9F7F6CF462F4F70405D4A3318F0F3
:10540000495D31FD4052419302D0A9F7EACFB4E0A3
:10541000A6959795879577956795BA95C9F700975B
:105420006105710508959B01AC010A2E06945795FC
:10543000479537952795BA95C9F7620F731F841F53
:10544000951FA01D089540D008F481E00895E894C8
:1054500009C097FB3EF490958095709561957F4FBC
:105460008F4F9F4F9923A9F0F92F96E9BB2793956A
:10547000F695879577956795B795F111F8CFFAF47A
:10548000BB0F11F460FF1BC06F5F7F4F8F4F9F4FAB
:1054900016C0882311F096E911C0772321F09EE809
:1054A000872F762F05C0662371F096E8862F70E06F
:1054B00060E02AF09A95660F771F881FDAF7880F49
:1054C0009695879597F90895990F0008550FAA0B9F
:1054D000E0E8FEEF16161706E807F907C0F0121607
:1054E0001306E407F50798F0621B730B840B950B0A
:1054F00039F40A2661F0232B242B252B21F408955F
:105500000A2609F4A140A6958FEF811D811D0895FB
:105510000BD078C069D028F06ED018F0952309F030
:105520005AC05FC01124A2C07ED0A0F3959FD1F3D2
:10553000950F50E0551F629FF001729FBB27F00D41
:10554000B11D639FAA27F00DB11DAA1F649F662796
:10555000B00DA11D661F829F2227B00DA11D621FE5
:10556000739FB00DA11D621F839FA00D611D221F9F
:10557000749F3327A00D611D231F849F600D211D83
:10558000822F762F6A2F11249F5750408AF0E1F026
:1055900088234AF0EE0FFF1FBB1F661F771F881F6F
:1055A00091505040A9F79E3F510570F014C05EC065
:1055B0005F3FECF3983EDCF3869577956795B7955A
:1055C000F795E7959F5FC1F7FE2B880F911D969584
:1055D000879597F9089597F99F6780E870E060E0F4
:1055E00008959FEF80EC089500240A94161617067C
:1055F00018060906089500240A94121613061406C4
:1056000005060895092E0394000C11F4882352F026
:10561000BB0F40F4BF2B11F460FF04C06F5F7F4FDE
:105620008F4F9F4F089557FD9058440F551F59F0C5
:105630005F3F71F04795880F97FB991F61F09F3F7F
:1056400079F087950895121613061406551FF2CFA8
:105650004695F1DF08C0161617061806991FF1CFF8
:1056600086957105610508940895E894BB2766271F
:105670007727CB0197F908953AD0A59F900DB49F55
:10568000900DA49F800D911D112408952F923F929B
:105690004F925F926F927F928F929F92AF92BF9242
:1056A000CF92DF92EF92FF920F931F93CF93DF93EE
:1056B000CDB7DEB7CA1BDB0BCDBFDEBF09942A888E
:1056C000398848885F846E847D848C849B84AA8416
:1056D000B984C884DF80EE80FD800C811B81AA81A3
:1056E000B981CE0FD11DCDBFDEBFED010895A29FC0
:1056F000B001B39FC001A39F700D811D1124911DA6
:10570000B29F700D811D1124911D08955058BB2723
:10571000AA270ED077CF68DF30F06DDF20F031F4AC
:105720009F3F11F41EF45DCF0EF4E095E7FB53CFDD
:10573000E92F79DF80F3BA176207730784079507AB
:1057400018F071F49EF591CF0EF4E0950B2EBA2F60
:10575000A02D0B01B90190010C01CA01A001112477
:10576000FF27591B99F0593F50F4503E68F11A1623
:10577000F040A22F232F342F4427585FF3CF4695B4
:1057800037952795A795F0405395C9F77EF41F16D6
:10579000BA0B620B730B840BBAF09150A1F0FF0FA0
:1057A000BB1F661F771F881FC2F70EC0BA0F621F8C
:1057B000731F841F48F4879577956795B795F7957C
:1057C0009E3F08F0B3CF9395880F08F09927EE0F0E
:1057D0009795879508950CD015CF0DDF40F004DF25
:1057E00030F021F45F3F19F0F6CE51113FCFF9CEE2
:1057F0001ADF98F39923C9F35523B1F3951B550B81
:10580000BB27AA2762177307840738F09F5F5F4F93
:10581000220F331F441FAA1FA9F333D00E2E3AF0D4
:10582000E0E830D091505040E695001CCAF729D0EE
:10583000FE2F27D0660F771F881FBB1F261737073D
:105840004807AB07B0E809F0BB0B802DBF01FF276D
:1058500093585F4F2AF09E3F510568F0BCCE06CFAB
:105860005F3FECF3983EDCF3869577956795B795A7
:10587000F7959F5FC9F7880F911D9695879597F9C2
:105880000895E1E0660F771F881FBB1F621773073B
:105890008407BA0720F0621B730B840BBA0BEE1F50
:1058A00088F7E095089504D06894B111DFCE08958B
:1058B000C2DE88F09F5790F0B92F9927B751A0F01A
:1058C000D1F0660F771F881F991F1AF0BA95C9F794
:1058D00012C0B13081F0C9DEB1E00895C6CE672FA5
:1058E000782F8827B85F39F0B93FCCF38695779544
:1058F0006795B395D9F73EF490958095709561952D
:105900007F4F8F4F9F4F0895DFDD08F48FEF08958D
:105910000EF043C066CE68945ECE8DDEC8F3992348
:10592000D1F3C6F3DF93CF931F930F93FF92C92F49
:10593000DD2788232AF02197660F771F881FDAF763
:1059400020E030E040E85FEB9FE3883920F0803EC4
:1059500030F021968F77DBDEECE7F0E003C0D7DE96
:10596000E9EAF0E028D08B01BE01EC01FB2E6F5775
:1059700071097595771F880B990B6BDD28E132E76C
:1059800041E35FE3D1DDAF2D9801AE01FF900F91B0
:105990001F91CF91DF91CCDE35CE9F3F31F09150FA
:1059A00020F4879577956795B795880F911D969503
:1059B000879597F90895DF93CF931F930F93FF92E5
:1059C000EF92DF927B018C01689405C0DA2EEF0123
:1059D000ABDDFE01E894A591259135914591559156
:1059E000AEF3EF01A5DEFE019701A801DA9479F785
:1059F000DF90EF90FF900F911F91CF91DF9108956D
:105A0000991B79E004C0991F961708F0961B881F10
:105A10007A95C9F780950895AA1BBB1B51E107C071
:105A2000AA1FBB1FA617B70710F0A61BB70B881F2E
:105A3000991F5A95A9F780959095BC01CD010895BD
:105A400097FB072E16F4009406D077FD08D0E4DF0C
:105A500007FC05D03EF4909581959F4F0895709571
:105A600061957F4F0895A1E21A2EAA1BBB1BFD0171
:105A70000DC0AA1FBB1FEE1FFF1FA217B307E4072D
:105A8000F50720F0A21BB30BE40BF50B661F771F85
:105A9000881F991F1A9469F7609570958095909565
:105AA0009B01AC01BD01CF010895052E97FB16F4B3
:105AB00000940FD057FD05D0D6DF07FC02D046F486
:105AC00008C050954095309521953F4F4F4F5F4FFF
:105AD000089590958095709561957F4F8F4F9F4F5A
