:10000000FCC000002EC100002CC100000C94B41AEA
:100010000C94B11A0C94AE1A24C100000C94A21BCB
:1000200020C100001EC100001CC100001AC1000058
:1000300018C1000016C1000014C100000C947D1A04
:1000400010C100000EC100000CC100000AC1000078
:1000500008C1000006C1000004C1000002C1000088
:100060000C94FE1AFEC00000FCC000000C94FD19A8
:100070000C94F7190C94031AF4C000000800000057
:10008000BE922449123EABAAAA2ABECDCCCC4C3E8D
:1000900000000080BEABAAAAAA3E00000000BF007C
:1000A0000000803F0000000000084178D3BB438778
:1000B000D1133D190E3CC3BD4282AD2B3E68EC828C
:1000C00076BED98FE1A93E4C80EFFFBE01C4FF7F11
:1000D0003F00000000001F1C1F1E1F1E1F1F1E1FB1
:1000E0001E70726F63657373206E6F74206F766518
:1000F00072726964656400706572696F6469630037
:100100006F6666006175746F006D616E75004D4CB1
:10011000443033005761746572706F6F6C004672C3
:100120006F7374206D6F646500526566696C6C2036
:100130006D6F64650046696C746572206D6F6465EF
:1001400000C2B0430046726F73742048696768004C
:10015000C2B0430046726F7374204C6F77006D69B4
:100160006E0046696C6C696E672074696D65004647
:10017000696C6C696E67204E64617900680046693D
:100180006C6C696E672073746172740068004669F4
:100190006C7465722073746172740046696C746566
:1001A000722070756D700046696C6C696E672076A0
:1001B000616C7665007073690046696C74657220C5
:1001C00070726573730049646C652066696C746550
:1001D0007200C2B043004169722074656D7000C244
:1001E000B0430057617465722074656D70000A53E6
:1001F000746172740000B31BCA2511241FBECFEFB7
:10020000CDBFDFE3DEBF80914000809340008111CD
:1002100005C098ED21E094BF209341008CBB18E30A
:10022000A0E0B8E3ECE4FFE502C005900D92AA312E
:10023000B107D9F72AE3AAE1B8E301C01D92AD33B3
:10024000B207E1F710E0CCEFD0E004C02197FE0147
:100250000E94D72CCB3FD107C9F70E947D1C0C947C
:10026000702ECECEE091B039F091B1398581837096
:1002700009F442C0838180FF3FC05091B4395E7F52
:1002800030E020E090E04581842F83702F5F3F4F66
:1002900021346FE1360740F0823041F1813041F185
:1002A00084E093E09483089543FF04C088E085834D
:1002B00082E1F7CF813021F4578330E020E0E3CFB3
:1002C000823009F746FFDFCF44FF04C0992349F38A
:1002D00083E0E7CF8091B539981760F4A92FB0E09B
:1002E000A354B64C8C9180879F5FE7CF85E0D9CF30
:1002F00081E1D7CF80E0D5CF80E108954F925F9222
:100300006F927F928F929F92AF92BF92FF922091B5
:100310001D3A30911E3A8217930708F043C02B0113
:1003200066247724852E962EA72EBB24B82DA42FC5
:100330002091243AF42C222391F0E22FF0E0E49D66
:10034000D001E59DB00DF49DB00D1124FB2E289D2C
:1003500040011124B92D249F90011124A32FE09175
:100360002A3A2091253A3091263A5091273AE513BE
:1003700023C0FC01EE0FFF1F8E0F9F1F820F931FE4
:10038000E091273AE80FF92FF11DF082E091283A29
:10039000E80FF92FF11DB0832091293A820F911DAA
:1003A000FC01A083FF90BF90AF909F908F907F90B3
:1003B0006F905F904F900895880F991F880F991F35
:1003C000820F931FE80FF92FF11D1082D9CFAF9242
:1003D000BF92CF92DF92EF92FF920F931F93CF9332
:1003E000DF936C017B018B01040F151FEB015E0194
:1003F000AE18BF08C017D10759F06991D601ED9129
:10040000FC910190F081E02DC6010995892B79F7C7
:10041000C501DF91CF911F910F91FF90EF90DF9079
:10042000CF90BF90AF900895FC0157854089252F4C
:1004300030E0842F90E0821B930B541710F0CF967E
:10044000089501970895FC0195858685981761F0B8
:10045000A685AE0FBF2FB11D51968C9196859F5FDB
:100460009F73968790E008958FEF9FEF0895FC01AA
:1004700095858685981731F08685E80FF11D81896D
:1004800090E008958FEF9FEF0895FC0195852685F4
:10049000892F90E0805C9F4F821B91098F73992771
:1004A0000895DC010FB607FE04C080911101882376
:1004B000B9F01896ED91FC911997848185FF10C0D1
:1004C0001F969C911F9750968C91981304C085811C
:1004D0008F7D85830895E7E1F9E3E8940C94101A81
:1004E00008950F931F93CF93DF93EC018C85816068
:1004F0008C879F85888998130BC0E885F98584814E
:1005000085FF06C08C8581FD0DC080E4848312C008
:10051000062F1F851F5F1F738889811315C0CE01A9
:10052000C0DFFACF85818F77806490E49483E8857B
:10053000F9858583E885F985628381E090E0DF9124
:10054000CF911F910F910895EF85EC0FFD2FF11DB5
:10055000EF5AFF4F00831F878C85E885F98581FF5F
:1005600009C085818F77806690E49483E885F9855A
:100570008583E3CF85818062FBCF0F931F93CF9359
:10058000DF938C01D0E0C0E0F801EC0FFD1F649117
:10059000662339F087E199E3A4DF892B11F02196D6
:1005A000F3CFCE01DF91CF911F910F910895CF939B
:1005B000DF93EC018C85882359F0E885F9858581E6
:1005C00085FD03C0848186FD03C0CE016ADFF5CFBF
:1005D000DF91CF9108959FB7F89488E08093840AC3
:1005E00080918E0A81FFFCCF80918D0AE091A20A52
:1005F000F091A30A2091D2383091D3384091D43869
:100600005091D5389FBF80FF07C0E730F10520F437
:100610002F5F3F4F4F4F5F4FAEEFB1E00E94A22AD6
:100620006E0F7F1F811D911D660F771F881F991FF9
:1006300008950F931F93CF93DF93CDB7DEB727971E
:10064000CDBFDEBF80911F3A9091203A89839A8373
:100650008091253A9091263A892B09F493C0809194
:10066000233A823108F08EC0B6DF00912B3A109108
:100670002C3A20912D3A30912E3AAB01BC01401B0F
:10068000510B620B730B8091213A9091223AB0E0AA
:10069000A0E0481759076A077B0730F3F894A09148
:1006A000253AB091263AFD0131968C918F831B82B9
:1006B000A0912F3AB091303A9C918091313A982B89
:1006C0009E839C91809589238D838D818C838F81DE
:1006D00087FF02C08E818C835E816D814F813C815A
:1006E0002B8189819A815C93262F3C9300C046FD23
:1006F000252F6C9300C05C93362F2C9300C045FDD2
:10070000352F6C9300C05C93262F3C9300C044FDB2
:10071000252F6C9300C05C93362F2C9300C043FDB3
:10072000352F6C9300C05C93262F3C9300C042FD94
:10073000252F6C9300C05C93362F2C9300C041FD95
:10074000352F6C9300C05C93262F3C9300C040FD76
:10075000252F6C9301975C93362F2C93419147FD85
:10076000352F6C9301F64F833C832B8389839A83C7
:10077000789431DF60932B3A70932C3A80932D3A22
:1007800090932E3A2796CDBFDEBFDF91CF911F9178
:100790000F910895CF92DF92EF92FF92CF93DF9364
:1007A0006B017C0118DFEB0116DF6C1B7D0B683ED3
:1007B0007340A0F0C114D104E104F10439F4DF91D5
:1007C000CF91FF90EF90DF90CF90089581E0C81A0D
:1007D000D108E108F108C851DC4FE6CFC114D104BB
:1007E000E104F10409F7EBCF90E0FC01E659F24295
:1007F00020812F3F69F182599142FC018081E82FCD
:10080000E295EE0FE07EE20FF0E0E05FFB4F9081BB
:10081000917F908390E0FC0134E0EE0FFF1F3A954A
:10082000E1F7422F50E061E070E001C0660F2A95C9
:10083000EAF76383880F991FFC01E050F84C440FDE
:10084000551F0190F081E02DE40FF51F10821182F9
:100850000895DC011896ED91FC9184818860848371
:1008600008959C012B5C3F4FDC011F96EC911F9774
:100870001E968C91E81730F4E20FF32FF11D808162
:1008800090E008958FEF9FEF0895FC01DC01D5966D
:1008900097858685981740F4A90FB11D2C919F5F0D
:1008A0009787822F90E008958FEF9FEF0895FC01C6
:1008B00086859785891B990B0895FC01A585A03233
:1008C00058F4A80FB92FB11D55966C9385858F5F8D
:1008D000858781E090E0089590E080E00895CF93CF
:1008E000C0EDC093B4391092B53960E088EA99E35D
:1008F000E4DFB8DC882319F080E0CF910895C0933D
:10090000B4391092B739E091B039F091B13995818D
:10091000937091F391ED978330E020E090E062E0F6
:100920004581542F53702F5F3F4F21347FE13707AC
:1009300020F443FF81C088E085839093B6399730D7
:10094000D9F688EA99E3A1DF8F77282F30E094E089
:10095000359527959A95E1F7922F990F990F291BB5
:10096000220F820F8093383A88EA99E38EDF9C0148
:1009700044E0359527954A95E1F72F703327922F5C
:10098000990F990F291B220F820F8093373A88EA1B
:1009900099E37BDF9C0154E0359527955A95E1F763
:1009A0002F703327922F990F990F291B220F820F37
:1009B0008093363A88EA99E368DF88EA99E365DF4D
:1009C0009C0164E0359527956A95E1F72F703327F0
:1009D000922F990F990F291B220F820F8093353A7E
:1009E00088EA99E352DF8F77282F30E074E035955D
:1009F00027957A95E1F7922F990F990F291B220FCE
:100A0000820F8093343A88EA99E33FDF9C01E4E067
:100A100035952795EA95E1F72F703327922F990F97
:100A2000990F291B220F820F8093333A81E065CF03
:100A300030E020E087E074CF8823A9F0523009F03D
:100A40007CCF848347FF13C09032A0F72085A92F65
:100A5000B0E0A352B64C2C939F5F973048F7648365
:100A600030E020E05DCF523009F05ACFEBCF46FFA7
:100A700057CF83E055CFBF92CF92DF92EF92FF9294
:100A80000F931F93CF93DF937C016A01B62EEB0186
:100A90000C2F0B1910E00C151D0528F46991C701E6
:100AA0000CDF892BA9F7C801DF91CF911F910F911E
:100AB000FF90EF90DF90CF90BF90089590E080E09E
:100AC0000895CF92DF92EF92FF920F931F93CF93EF
:100AD000DF938B01E9016A01F12CE12CA09106382A
:100AE000B09107389C010E94DD2A2FEF33E040E0EF
:100AF00050E00E94BB2C2C193D094E095F098AE089
:100B0000809FD001819FB00D11240E94A22A9E01D6
:100B100050E040E02C193D094E095F090E94BB2CB2
:100B200057FF03C020E030E0A901CA01B9010E94CB
:100B30008F2920E030E040E251E40E94512BDF9108
:100B4000CF911F910F91FF90EF90DF90CF9008957C
:100B5000CF92DF92EF92FF921F93CF93DF93EC013E
:100B600089859A85AB85BC850097A105B10509F5F6
:100B70008CA19DA1DC01ED91FC910190F081E02D13
:100B80000995672B682B692B09F458C18CA19DA18D
:100B9000DC01ED91FC910084F185E02D40E050E016
:100BA000BA01DF91CF911F91FF90EF90DF90CF902E
:100BB00009940197A105B10509F040C18C8D9D8D67
:100BC000892B09F43BC18CA19DA1DC01ED91FC9125
:100BD0000190F081E02D09952C8D3D8D213031055E
:100BE00041F011E01616170618061906E4F110E098
:100BF0003AC088A199A1DC01ED91FC910480F581B6
:100C0000E02D09956B017C018AA19BA1DC01ED918E
:100C1000FC910480F581E02D09959B01AC01C70191
:100C2000B6010E94892987FFE2CF8AA19BA1DC013E
:100C3000ED91FC910480F581E02D09956B017C011B
:100C40008E8D9F8DDC01ED91FC910480F581E02D6E
:100C500009959B01AC01C701B6010E948929182F93
:100C6000111F1127111F8C8D9D8D0297D9F58AA117
:100C70009BA1DC01ED91FC910480F581E02D0995AB
:100C80006B017C0188A199A1DC01ED91FC910480AC
:100C9000F581E02D09959B01AC01C701B6010E94C9
:100CA000892911E087FD1EC08E8D9F8DDC01ED919D
:100CB000FC910480F581E02D09956B017C018AA1EE
:100CC0009BA1DC01ED91FC910480F581E02D09955B
:100CD0009B01AC01C701B6010E948929182F111F81
:100CE0001127111F8C8D9D8D039711F5112309F488
:100CF0006BC08AA19BA1DC01ED91FC910480F58180
:100D0000E02D09956B017C0188A199A1DC01ED9191
:100D1000FC910480F581E02D09959B01AC01C70190
:100D2000B6010E948929881F8827881F11E018278B
:100D30008C8D9D8D049711F5112309F462C08E8D61
:100D40009F8DDC01ED91FC910480F581E02D0995EA
:100D50006B017C018AA19BA1DC01ED91FC910480D7
:100D6000F581E02D09959B01AC01C701B6010E94F8
:100D70008929881F8827881F11E018278EA19FA125
:100D8000009769F0112359F0DC01ED91FC9102808C
:100D9000F381E02D099511E098A5981310E0E9A5DD
:100DA000FAA5309721F0112311F00995182F8CA185
:100DB0009DA1412F50E070E060E0DC01ED91FC91DD
:100DC0000084F185E02DEDCE8E8D9F8DDC01ED91BF
:100DD000FC910480F581E02D09956B017C018AA1CD
:100DE0009BA1DC01ED91FC910480F581E02D09953A
:100DF0009B01AC01C701B6010E94892987FD79CF0B
:100E000097CF8AA19BA1DC01ED91FC910480F58133
:100E1000E02D09956B017C0188A199A1DC01ED9180
:100E2000FC910480F581E02D09959B01AC01C7017F
:100E3000B6010E94892987FD82CFA0CFDF91CF9193
:100E40001F91FF90EF90DF90CF9008950895FC01DF
:100E50004185528563857485818D90E0B0E0A0E086
:100E6000481759076A077B0754F4440F551F828DB2
:100E7000938D480F591FFA0180819181089580E870
:100E80009EED08950F931F93CF93DF93CDB7DEB7F9
:100E90002897CDBFDEBFFC018EEE9DED8083918350
:100EA0006283438354838DE090E08583968381E061
:100EB00090E087839087138A148A818B928B258B8D
:100EC000368B078B108FDA01BC5E8C9190E0B0E01E
:100ED000A0E081879287A387B487B095A09590956D
:100EE00081959F4FAF4FBF4F85879687A787B08B60
:100EF0008CE29DED808391839E012F5F3F4F80E0C8
:100F0000A42FA81BB0E0BC5E9C91D9019D939D01CC
:100F10008150883FA9F78D819E81092E000CAA0B74
:100F2000BB0B81879287A387B48789819A81818F40
:100F3000928F8B819C81838F948F8F819885818BF9
:100F4000928B2CE030E025833683019721F082E0FC
:100F500090E0878390872896CDBFDEBFDF91CF9149
:100F60001F910F910895462F50E070E060E0DC0182
:100F7000ED91FC910084F185E02D0994DC019296BD
:100F8000ED91FC919397309721F019968D919C915A
:100F9000099480E89EED089520910E39A0910C39B6
:100FA000B0910D3990E0291739F0ED91FD91328122
:100FB000831721F09F5FF7CFF0E0E0E0CF010895C5
:100FC0000895CF92DF92EF92FF92CF93DF93EC01DF
:100FD0006A017B0169897A89072E000C880B990BBD
:100FE0000E948F29A70196010E94EE290E94B92B29
:100FF000AB01BC01E881F9810084F185E02DCE01CF
:10100000DF91CF91FF90EF90DF90CF900994462F22
:1010100050E070E060E0DC01ED91FC910084F1852E
:10102000E02D0994FC0141875287638774870895F6
:1010300080E89EED0895CF92DF92EF92FF92CF93DA
:10104000DF93EC0169857A858B859C850E948F29C9
:101050006B017C0169897A89072E000C880B990B3A
:101060000E948F299B01AC01C701B6010E94512B40
:10107000DF91CF91FF90EF90DF90CF90089521E026
:10108000FC0181859285A385B485892B8A2B8B2BC6
:1010900009F420E0822F0895FC0161857285838523
:1010A00094850895DC01FB012C9130E02053384FEA
:1010B000808190E08053984F2817390758F12817FE
:1010C000390731F511969C9111978181981710F18C
:1010D00098131EC012969C91129782819817D0F097
:1010E000981316C013969C9113978381981790F0CC
:1010F00098130EC014969C9114978481981750F001
:10110000981306C081E015962C919581291708F057
:1011100080E0089581E008958F929F92AF92BF92F0
:10112000CF92DF92EF92FF92CF93DF93EC016A01AF
:101130007B0180E8C81A83E4D80A8DE6E80A88E3D0
:10114000F80A8CE3882E912CA12CB12CC701B60192
:10115000A50194010E94992C6D83CA01B901A501D2
:1011600094010E94992C6C83C701B60120E13EE0F6
:1011700040E050E00E94992CCA01B90128E130E01A
:1011800040E050E00E94992C6B83C701B60120E833
:1011900031E541E050E00E94992C188263E97EEF2E
:1011A0008881982F937041E050E011F050E040E0CA
:1011B000FA01E359FE4F2E173F0740F0FB01E41BF5
:1011C000F50B2E0F3F1F8F5F8883EACF81E0898365
:1011D00089818C30A0F4482F4150550BFA01EA5216
:1011E000FF4FE491911103C0823009F4EF5FF0E00A
:1011F0002E173F0720F02E1B3F0B8F5FE8CF2F5F8E
:101200002A83DF91CF91FF90EF90DF90CF90BF9036
:10121000AF909F908F9008950F931F93CF93DF937C
:10122000CDB7DEB72697CDBFDEBF8C0140E853E4D3
:101230006DE678E3CE0101966FDF298130E020531F
:10124000384FF80186A590E08053984F281739074A
:10125000A1F49A8187A5981310C09B8180A9981347
:101260000CC09C8181A9981308C09D8182A9981304
:1012700004C081E02E8193A9291380E091E08927A1
:101280002696CDBFDEBFDF91CF911F910F910895BC
:10129000C3CFDC0150E0E6EDF0E081E0861730F4EA
:1012A0009491490F511D8F5F3196F8CF633038F01C
:1012B000CD0183709927892B11F44F5F5F4F9D01FA
:1012C0002D5F3F4F36952795369527956DE671E052
:1012D000A69FC001A79F900DB69F900D1124019766
:1012E000820F931F840F951F0895E3E3FAE3808133
:1012F0004281618190E0CDDF069667E070E00C945A
:10130000722C0895EF92FF920F931F93CF93DF9368
:10131000EC0188814A81698190E0BBDF9C01A8E1F2
:10132000B0E00E94DD2A2B817B018C01E20EF11CD2
:10133000011D111DA8019701ACE3B0E00E94A22A93
:101340002C817B018C01E20EF11C011D111DA801F5
:1013500097010E94A22AAB01BC019D81892F90E0D8
:10136000B0E0A0E080589C4BA249B74C8A019B0199
:10137000080F191F2A1F3B1FC901B801DF91CF9128
:101380001F910F91FF90EF900895FC01A081B0E0B4
:10139000BC5EE0E0F0E10FB622812370E9F7F8943B
:1013A0006C936DE964BF63E060830FBE08950F9393
:1013B0001F93CF93DF931F92CDB7DEB78B01898345
:1013C000FB016081E82FF0E0FC5E8081681719F076
:1013D000CE010196DADFC8010F90DF91CF911F9106
:1013E0000F910895CF92DF92EF92FF920F931F9388
:1013F000CF93DF931F92CDB7DEB7182FD62E072FCE
:10140000E62EF72E88E0C82EC10E1983F7016191F0
:101410007F01E12FF0E0FC5E8081681719F0CE01BA
:101420000196B3DF1F5F1C11F0CF8D2D902F0F9011
:10143000DF91CF911F910F91FF90EF90DF90CF90B0
:101440000895CF92DF92EF92FF920F931F93CF9365
:10145000DF93CDB7DEB72897CDBFDEBF8C016A0121
:101460007B01DC0151966D917C91072E000C880B5D
:10147000990B0E948F29A70196010E94EE290E94D4
:10148000B92BAB01BC01D801ED91FC910084F18531
:10149000E02DC8010995F801818D928D89839A8389
:1014A000838D948D8B839C83818592858D839E8390
:1014B000818992898F839887BE016F5F7F4F838177
:1014C00091DF2896CDBFDEBFDF91CF911F910F91A5
:1014D000FF90EF90DF90CF900895282F30E0823179
:1014E000A8F4F901E45AF14280818F3F79F0225942
:1014F0003142D901EC91B0E2EB9FF0011124FC5F85
:101500009085982381E019F480E008958FEF089585
:10151000FC01818DE2DF91E0811101C090E0892F13
:101520000895FC01818DD9DF682F880F770B880B18
:10153000990B0895CF93DF93EC01EC8DFD8D3097DF
:1015400029F1099590E0B0E0A0E089879A87AB8700
:10155000BC878A8D9B8D8230910589F589859A8516
:10156000AB85BC854D855E856F85788948175907A1
:101570006A077B0741F0892B8A2B8B2B21F41D8670
:101580001E861F86188ADF91CF910895898D2A8D36
:101590003B8D2130310561F4A0DF51E040E030E0C7
:1015A00020E0811150E0852F942FA32FB22FCDCFB3
:1015B00094DF082E000C990BAA0BBB0BC6CF039728
:1015C00011F789859A85AB85BC854D855E856F85CC
:1015D0007889481759076A077B07A9F28130910576
:1015E000A105B10581F68D879E87AF87B88BCBCFDC
:1015F000CF93DF93823108F047C090E0EC01C45AEA
:10160000D14228812F3F09F43FC0AC0142595142D9
:10161000DA01EC91B0E2EB9FF0011124FC5F611163
:1016200036C0268330812323A1F49C0126593242FF
:10163000D9012C913097A1F1283090F57096E20FE6
:10164000F11D3FB7F894208161112DC0277F2083C1
:101650003FBF885A9242FC0190819923A9F088816A
:10166000903441F1903819F1903171F4DA019C9184
:101670009130D9F4853010F0880F82959091010A4D
:10168000809589238093010ADF91CF91089564307A
:1016900029F43481278364816223C4CF2583C2CF98
:1016A000F0E0E0E0CECF2860D2CF880FE7CF1092F5
:1016B000A006EACF20E4823009F420E89091920A53
:1016C000922311F36FB7F8949091800A9E7F9093C4
:1016D000800A4091920A30E02095309550E0242312
:1016E000352398ED94BF2093920A90918E0A90FF33
:1016F000FCCF9091800A91609093800A813039F4F8
:10170000809150048F77809350046FBFBDCF80913C
:1017100051048F7780935104F8CF0F931F93CF9389
:10172000DF93EC01062F142F60E0898561DFEB85E4
:10173000FC859F8188852085222319F02FB721877A
:10174000F89421E0228790932008809321080000DC
:10175000009324088091230887FFFCCF8091240800
:101760000000109324088091230887FFFCCF10917C
:101770002408EB85FC858285882331F012868085DC
:10178000882311F081858FBF61E0898531DF812F4A
:10179000DF91CF911F910F91089540E861E8BDCF8F
:1017A00041E861E8BACF40E0B8CFCF92DF92EF9244
:1017B000FF92CF93DF936DE18AE09AE3F4DF90E04C
:1017C00034E0959587953A95E1F78A3091050CF0CC
:1017D0003FC0FC01EE0FFF1FE80FF91FE453F24278
:1017E000C080D180E2800E2C000CFF086EE18AE000
:1017F0009AE3D9DFD82F66E28AE09AE3D4DFC82FD4
:10180000D295DF7021E030E040E050E004C0220FCC
:10181000331F441F551FDA95D2F7C701B6010E9446
:10182000BB2C68EE73E080E090E00E94BB2C21317D
:101830003105410551058CF04C2F486066EA8AE07D
:101840009AE3DF91CF91FF90EF90DF90CF9065CF3B
:10185000CC24CA94DC2C7601C9CF4C2F477FEECF25
:10186000CF93DF93EC0161E09EDF8370833059F00A
:1018700062E1CE0198DF83FF04C048E062E9CE0157
:101880004CDF80E001C081E0DF91CF910895CF92DD
:10189000DF92EF92FF920F931F93CF93DF938C0110
:1018A0006AE181DFC82FD0E0F801668577858089FD
:1018B00091890E948F292AEE36E54AEF5DE40E9465
:1018C000892987FD44C08DE990E0C81BD90B69E1E7
:1018D000C80169DF87FD8D5F85958595682F880F25
:1018E000770B880B990B0E948F296B017C0120E0FC
:1018F00030E0A9010E94892987FF0DC0BE01DD0FDC
:10190000880B990B0E948F29A70196010E94ED2A4E
:101910000E94B92BEB019E01DD0F440B550B2058A3
:101920003F4F4F4F5F4FA4E6B0E00E94A22A26E748
:1019300030E040E050E00E94BB2CC901DF91CF9124
:101940001F910F91FF90EF90DF90CF90089584EA60
:1019500090E0BBCFCF92DF92EF92FF920F931F9355
:10196000CF93DF937C01C62EC72FD42E63E11BDFFC
:10197000D82F0C2D1C2FC0E0CD1751F0CD1541F004
:1019800060E0C70110DFCF5FF80181938F01F4CFD2
:101990008C2F90E0DF91CF911F910F91FF90EF90EE
:1019A000DF90CF9008951F93CF93DF93EC010097C2
:1019B00059F1469710F0C5E1D0E01C2F4C2F68EB91
:1019C00078E38AE09AE3C6DF30E02AE52197832FA7
:1019D00090E08C179D073CF48854974CFC01808163
:1019E000280F3F5FF4CF8091CC3828130DC0E091D1
:1019F000D038F091D138309739F068EB78E3812F07
:101A0000DF91CF911F910994DF91CF911F9108959C
:101A10000F931F93CF93DF93EC0162E1C4DE182F85
:101A2000482F62E9CE0179DE15FD23C016FF16C0EE
:101A300063E1CE01B8DE082F10E060E1CE01B3DE35
:101A4000482F6DE8CE0169DEEA81FB81309789F08D
:101A5000C801DF91CF911F910F91099413FF09C025
:101A6000EC81FD81309729F0DF91CF911F910F918B
:101A70000994DF91CF911F910F9108958AE09AE325
:101A8000C7CFCF93DF93EC0140E060EC46DE45E842
:101A900061E8CE0142DE81E090E0DF91CF910895D0
:101AA00081E0809316398AE09AE3EBDFE091CE384B
:101AB000F091CF38309709F009940895AF92BF9212
:101AC000DF92EF92FF920F931F93CF93DF93EC017E
:101AD0005B01D42EE881F981008CF18DE02D099510
:101AE00081110FC0E881F9810084F185E02DCE01DC
:101AF000099540E06DE8CE0110DE40E062EACE01DB
:101B00000CDE8501ED2CF12CC8018A199B098E157C
:101B10009F0538F4F80141918F0160E8CE01FDDDA9
:101B2000F3CF4D2D62EACE01F8DD8C819D81892BAA
:101B300021F040E460ECCE01F0DD43E861E8CE0145
:101B4000ECDDC701DF91CF911F910F91FF90EF90D6
:101B5000DF90BF90AF900895FC018AE5848BDF0190
:101B60009F012C5E3F4F9D918489890F848BA21722
:101B7000B307C9F71092163945E1BF018AE09AE32D
:101B80009DDF8091323A882359F080911639811176
:101B900007C062E070E080E090E00E94CA03F1CFED
:101BA0000895DC01E7EFF8E38091F53880838091B8
:101BB000F638818312968C911297828315969C91A8
:101BC0001597990F990F990F17968C91890F838309
:101BD000CF01C2CFCF93DF93CDB7DEB76597CDBF2F
:101BE000DEBF89836A838EEF8B8328502C8380E14C
:101BF000FA01DE01159601900D928A95E1F7CE016A
:101C00000196AADF6596CDBFDEBFDF91CF91089523
:101C1000CF93DF93CDB7DEB76097CDBFDEBFDC01DA
:101C200015962D913C912C30310589F5FC019E01D2
:101C3000235F3F4F84E0D9011D928A95E9F78281A5
:101C40008983818992898A879B87818D928D092ECC
:101C5000000CAA0BBB0B8A839B83AC83BD83838D53
:101C6000948D092E000CAA0BBB0B8E839F83A88733
:101C7000B98781E090E08C879D8723E030E0AE015A
:101C80004F5F5F4F6091F6388091F538A3DF609623
:101C9000CDBFDEBFDF91CF9108950F931F93CF93F8
:101CA000DF938C01EB0162317105C4F06531710580
:101CB00014F0C4E1D0E0239747E86DECC8012DDDB6
:101CC00041E36BE8C80129DD4C2F4250406869E8C8
:101CD000C801DF91CF911F910F911FCD6230710527
:101CE00014F4C2E0D0E044E86DECC80116DD4BE22C
:101CF000E8CF8231F0F490E0FC01E45AF142208117
:101D00002F3FB9F0FC01E259F142E08130E2E39F5C
:101D1000F0011124FC5F60FF0DC0218386599242BF
:101D2000DC018C91E80FF11D808961FF05C088609E
:101D3000808B08952283F2CF877FFACFCF93DF93F2
:101D4000EC0160E08E81D5DF8E81823188F590E0F4
:101D5000FC01E659F242E081EF3F51F18259914294
:101D6000DC018C9190E0DC01AA0FBB1FA050B84CA5
:101D70002D913C9121153105D9F04E2F50E0440FA3
:101D8000551F240F351F4EE35DE0D9014D935C9341
:101D90002FB7F894E05F75E0880F991F7A95E1F707
:101DA000E80FF0E0FC5F8081887F826080832FBF36
:101DB000DF91CF910895FC0164837583672B09F04F
:101DC000BDCF8681823110F40C94F4030895FC0198
:101DD00062837383672B09F0B1CF8681823110F45F
:101DE0000C94F4030895CF93DF93EC01EB85FC850D
:101DF000809120088E7F80932008178260E080E128
:101E000078DF60E08FE075DF60E08EE072DF60E039
:101E100089856FDF8D858F3F21F060E0DF91CF9165
:101E200068CFDF91CF9108958F929F92AF92BF922A
:101E3000CF92DF92EF92FF920F931F93CF93DF9396
:101E4000EC016A017B0161E0898553DF61E08985EE
:101E5000CFDB8D858F3FA1F061E04BDF60E08D85AA
:101E6000C7DB6AE070E080E090E00E94CA0361E0B6
:101E70008D85BEDB6AE070E080E090E00E94CA03DE
:101E8000EB85FC858781811106C01086128680E86B
:101E9000818781E08783809101028B7F9681892BE6
:101EA000809301028681811191C061E08EE021DF83
:101EB00061E080E11EDF8091210884608093210829
:101EC000809120088162809320089091083A809147
:101ED000093A909320088093210862E4CE0163DCE4
:101EE000823109F07CC0E881F9810680F781E02D1C
:101EF000CE010995CE86DF86E88AF98A4601570128
:101F0000BB0C8808982C54019601A701682D782DE8
:101F1000882D982D03E10E943B2DA12CE8E4BE2ED4
:101F2000F8EECF2EDD24D394E12CF12C00E010E06C
:101F30000E94DF2CF22E832E942EA52EB62EC72EB5
:101F4000D82EE92E00E10E94562D422F66E8CE01E0
:101F5000E4DB2F2D382D492D5A2D6B2D7C2D8D2D09
:101F60009E2D08E00E94562D422F67E8CE01D5DB5A
:101F70004F2D68E8CE01D1DB40E06EE8CE01CDDB2D
:101F800040E06FE8CE01C9DB6CE0CE010CDC482FED
:101F900043606CE8CE01C1DB44E066EACE01BDDB04
:101FA000E881F9810084F185E02DCE01099581E079
:101FB00090E0DF91CF911F910F91FF90EF90DF9014
:101FC000CF90BF90AF909F908F900895843009F08C
:101FD00072CF61E08CE08DDE61E08AE06BCF90E053
:101FE00080E0E7CF87FD03C08630C0F48C5F982F78
:101FF0009F77903238F590910006992331F18F71D7
:102000008093060681E08093080680910B0680FF8E
:10201000FCCF80911006909111060895813161F0F6
:1020200092EF980F933010F48D50E1CF883031F05B
:10203000893031F08FEFDBCF80E0D9CF8AE0D7CF86
:102040008BE0D5CF8FEF92E8089589EF92E808955D
:10205000EF92FF920F931F93CF93DF93EC01862FA4
:102060004A834FEF5FEF4B835C8342E050E04B8B42
:102070005C8B6AE070E0698B7A8B2D8B3E8B0F8BCB
:10208000188F01EC1DEB20EF3FEF09871A872B8794
:102090003C870FE312E42FE030E00D871E872F8787
:1020A000388B26E03EED28833983898F18A219A248
:1020B0001AA21BA21E8E1F8E1C8E1D8E1A8E1B8EA8
:1020C00021E030E02D833E834F83588760E011DEAE
:1020D000898D88DF7C0188E190E00E94D6258C0103
:1020E0008FE892ECA5EFBCE3F80180839183A28393
:1020F000B383148215821682178280E090E0A0E8F4
:10210000BFE380879187A287B38780E090E0A0E05B
:10211000B0E484879587A687B787108A118A128AC8
:10212000138AB701FF0C880B990B0E948F29F801C5
:10213000648B758B868B978B0CA31DA3DF91CF913E
:102140001F910F91FF90EF9008954F925F926F92C1
:102150007F928F929F92AF92BF92CF92DF92EF9237
:10216000FF920F931F93CF93DF93CDB7DEB72697E0
:10217000CDBFDEBF8D839E83DC0159968C91C12C2F
:10218000D12C76018F3F09F494C01AE0C12CD12CD8
:102190007601ED81FE81818D25DF092E000CAA0BD1
:1021A000BB0BC80ED91EEA1EFB1E115091F7AD8164
:1021B000BE8194960D911C91D8011C968D919D9194
:1021C0000D90BC91A02D89839A83AB83BC83F801C9
:1021D0002085318542855385BC01CD010E94ED2AC1
:1021E0009B01AC0169817A818B819C810E94512B7A
:1021F0004B015C01D80114968D929D92AD92BC92D8
:10220000179754964D905D906D907C905797C701AD
:10221000B6012AE030E040E050E00E94992CCA016B
:10222000B9010E948D29A30192010E94EC2AA50107
:1022300094010E94EE29A30192010E94ED2A6B01F4
:102240007C01F801C08AD18AE28AF38AAC019B0141
:10225000C301B2010E94EC2A9F77D8012D913D91D4
:102260004D915C910E94EE292B013C01A501940146
:1022700060E070E080E89FE30E94EC2A29813A81C7
:102280004B815C810E94EE299B01AC01C301B2012C
:102290000E94ED2AF8016487758786879787C48A2C
:1022A000D58AE68AF78AC701B6010E94BE2B6B0168
:1022B0007C01AD81BE819096ED91FC9191970D913D
:1022C0001C91309761F1D8011C960D911C91AD8144
:1022D000BE815E962D913C915F975C964D915C918D
:1022E0005D975A966D917C91C6010995AB01BC0131
:1022F0008D819E81F8012696CDBFDEBFDF91CF9103
:102300001F910F91FF90EF90DF90CF90BF90AF9013
:102310009F908F907F906F905F904F900994A091C5
:102320000638B0910738A70196010E94A22A2FEF24
:1023300033E040E050E00E94992CBA01A901D80195
:102340001896ED91FC918D819E812696CDBFDEBFC2
:10235000DF91CF911F910F91FF90EF90DF90CF9081
:10236000BF90AF909F908F907F906F905F904F90B5
:102370000994FC0101900020E9F73197AF01481B57
:10238000590BBC0187E199E30C94E7018F929F926E
:10239000AF92BF920F931F93CF93DF93CDB7DEB76A
:1023A000A197CDBFDEBF19A2423008F44AE08E01EA
:1023B0000F5D1F4F842E912CB12CA12CA5019401EF
:1023C0000E94992CE62FB901CA01EA30D4F4E05DED
:1023D000D801EE938D01232B242B252B79F790E048
:1023E00080E0109711F0CD01C4DFA196CDBFDEBF14
:1023F000DF91CF911F910F91BF90AF909F908F90E1
:102400000895E95CE5CFCF92DF92EF92FF92CF93F0
:10241000DF936B017C016DE287E199E30E94710219
:10242000EC0166277727CB016C197D098E099F097E
:102430004AE0ACDF8C0F9D1FDF91CF91FF90EF90B2
:10244000DF90CF90089595CFCF93DF93D0E0C0E099
:10245000009711F08EDFEC0182E89EED8ADF8C0F91
:102460009D1FDF91CF910895CF92DF92EF92FF925F
:10247000CF93DF93FC01C184D284E384F484C41637
:10248000D506E606F70641F121E0141615061606F4
:1024900017060CF020E06A017B01EC01622F898DA8
:1024A000A7D8C986DA86EB86FC868D899E890E942C
:1024B000BD0289E89EEDC7DF85E89EED1C141D0472
:1024C0001E041F0414F48EE39FEDDF91CF91FF9063
:1024D000EF90DF90CF90B8CFDF91CF91FF90EF904A
:1024E000DF90CF900895CF93DF93FC014481558115
:1024F0006081718187E199E30E94E701EC0182E844
:102500009EED37DF8C0F9D1FDF91CF9108958F9245
:102510009F92AF92BF92CF92DF92EF92FF920F9372
:102520001F93CF93DF938091113990911239DC0181
:10253000ED91FC910480F581E02D09954B015C0142
:102540008091EB389091EC38DC01ED91FC91019099
:10255000F081E02D09956B017C01C0910F39D0917C
:10256000103920E030E040E752E4C501B4010E9498
:10257000EE2920E030E040E05FE30E94EE290E9477
:10258000BE2B07E110E020E030E00C191D092E09F8
:102590003F09ECE3E09FA001E19F500D1124461795
:1025A000570708F4BA016B39B5E07B0714F46BE9FF
:1025B00075E06AAF7BAF8DE89EED45DF6AAD7BAD20
:1025C000072E000C880B990B97FF10C01CDF82E8C8
:1025D0009EEDDF91CF911F910F91FF90EF90DF90D3
:1025E000CF90BF90AF909F908F90C3CE4AE0CEDE49
:1025F000EECF81EE90E00E94BD0282E89EEDB9CE62
:10260000CF92DF92EF92FF920F931F93CF93DF93BE
:10261000CDB7DEB76997CDBFDEBF8C01FB018581E9
:102620001F928F9384811F928F9383811F928F9328
:1026300082811F928F9381811F928F93808190E07E
:102640008053984F9F938F9388E99EED9F938F932C
:102650009E012F5F3F4F69013F932F930E94502EA1
:10266000F801108211821282138214821582F601FF
:1026700001900020E9F731977F01EC18FD08B701C0
:102680006F5F7F4F90E080E00E94712DCDBFDEBF75
:10269000F801009799F080839183E282F38224818C
:1026A0003581232B11F4FC011082F801E482F582BC
:1026B000B601808191810E943A2E0DC08081918166
:1026C000009711F00E947226F80110821182148284
:1026D000158212821382C8016996CDBFDEBFDF91D9
:1026E000CF911F910F91FF90EF90DF90CF900895C1
:1026F0008F929F92AF92BF92CF92DF92EF92FF9212
:102700000F931F93CF93DF93CDB7DEB72C97CDBF39
:10271000DEBF8C01DC0119968D919C91892B09F00B
:1027200042C0C8010E940C09882369F1F801848D18
:10273000958DDC01ED91FC910284F385E02D60E044
:10274000099540E853E46DE678E3CE0101960E94D6
:102750008C0886E0FE013196D8019E9601900D927C
:102760008A95E1F740E853E46DE678E3CE010196FF
:102770000E948C0886E0FE013196D801D496019023
:102780000D928A95E1F72C96CDBFDEBFDF91CF91F8
:102790001F910F91FF90EF90DF90CF90BF90AF907F
:1027A0009F908F900895C8010E940C09E82E8823FD
:1027B00009F4A0C063E37AE3C801C4960E945208FA
:1027C000F82EF80184A195A1009799F0DC01ED9114
:1027D000FC910280F381E02D0995F80192A58917FB
:1027E00041F0FF24F39483A594A5019709F0F12CFF
:1027F000E12CD80196968D919C919797892B09F49D
:1028000043C09A962C919A9798968D919C91DC0151
:10281000ED91FC910480F581E02D2223F9F00995DA
:102820004B015C01F80186A197A1DC01ED91FC91BF
:102830000480F581E02D09959B01AC01C501B4012F
:102840000E94892987FF20C0FF24F394F80183A503
:1028500094A5019709F0F12CE12C16C009954B01C4
:102860005C01D80196968D919C91DC01ED91FC91D3
:102870000480F581E02D09959B01AC01C501B401EF
:102880000E94EA2B181604F3FF2041F10E947509FB
:10289000D8019D968C9340E853E46DE678E3CE0131
:1028A00001960E948C0886E0FE013196D8019E9622
:1028B00001900D928A95E1F740E853E46DE678E3E4
:1028C000CE0101960E948C0886E0FE013196D80167
:1028D000D49601900D928A95E1F7E12CF801848D50
:1028E000958DDC01ED91FC910284F385E02D6E2D38
:1028F000099549CFF80181859285019709F043CF69
:10290000868D978DF12C009741F0DC01ED91FC91C3
:102910000190F081E02D0995F62EF80185A583360A
:1029200009F0B3C0D80190968D919C91DC01ED9196
:10293000FC910190F081E02D09958091353A9091BC
:10294000343A2091333A2F83988789876A871B8688
:102950001C86F80182A193A1009709F0ABC0C2AC1C
:10296000D3AC0D2C000CEE08FF08CE0107960E9498
:1029700082094B015C01ACE3B0E0A70196010E9423
:10298000A22AAB01BC01480D591D6A1D7B1DCE0159
:1029900001960E948C08CD28CE28CF2809F4F3CECA
:1029A000BE01695F7F4F83E39AE30E945208811161
:1029B000EACEBE016F5F7F4F83E39AE30E94520825
:1029C000882309F4E0CEF80180A191A1DC01ED910A
:1029D000FC910190F081E02D09958091353A90911C
:1029E000343A2091333AF80126A797A780AB61AB20
:1029F00012AA13AA84EB9EED26DD7801FEE2EF0E0B
:102A0000F11CB701CE010196FBDDCE0101966BDD15
:102A100089819A810E947226D80192968D919C910B
:102A20009397009709F050C0DA96CD90DC90C701DB
:102A30000E9482094B015C019601ACE3B0E00E9468
:102A4000DD2AAB01BC01480D591D6A1D7B1DCE015D
:102A500001960E948C0886E0FE013196D801D4963A
:102A600001900D928A95E1F78DEB9EEDECDCB801BB
:102A70006C5C7F4FCE010196C3DDCE01019633DD44
:102A800089819A810E9472267ECE0E947509282F24
:102A9000D8019D963C918F2D90E0830F911D37FDBD
:102AA0009A9567E070E00E94862C2817190609F0B5
:102AB00039CF69CEDC01ED91FC910190F081E02DE0
:102AC00009956B017C0151CFDC01ED91FC910190E6
:102AD000F081E02D09956B01AACFEF92FF920F9341
:102AE0001F93CF937C01C0910E390C2F10E0B801D9
:102AF0006F5F7F4F660F771F80910C3990910D3972
:102B00000E94712D80930C3990930D390097D9F064
:102B1000000F111FFC01E00FF11FE082F182CF5F77
:102B2000C0930E392C2F30E021503048220F331F34
:102B3000820F931FFC0180819181CF911F910F9192
:102B4000FF90EF90089590E080E0F7CFFF920F9311
:102B50001F93CF93DF93CDB7DEB7AD97CDBFDEBF69
:102B600090913E388091B738981709F4F1C0E09100
:102B70003E3888E18E9FF0011124E15CF74CDE01C4
:102B8000119601900D928A95E1F780913E388F5F02
:102B900080933E3880913E38853010F010923E3858
:102BA000FD806F2D70E090E080E04AE0EFDB86EC86
:102BB0009EED49DC0C81602F70E090E080E04AE0FF
:102BC000E5DB85E29FED3FDC1E81612F70E090E048
:102BD00080E04AE0DBDB82E89EEDCBDB8091F538DC
:102BE000F812B6C00F3F41F08091F6380813BCC010
:102BF0001C3F09F0BDC003C01C3F09F0B5C0F885FB
:102C0000898521E030E0882339F0282F30E02D300D
:102C1000310514F02CE030E04A85442309F4A1C0CA
:102C200050E04032510514F04FE150E08B8568E1EF
:102C30000E94662CE92F8C853CE3632F0E94662C52
:102C4000592F8D850E94662CF093333A2093343AA5
:102C50004093353AE093363A5093373A9093383A66
:102C600080ED8093B4391092B53960E088EA99E339
:102C70000E945D042091383A1AE0822F612F0E9451
:102C8000662C682F660F680F660F620F88EA99E35B
:102C90000E945D042091373A822F612F0E94662C9A
:102CA000682F660F680F660F620F88EA99E30E942B
:102CB0005D042091363A822F612F0E94662C682F86
:102CC000660F680F660F620F88EA99E30E945D0441
:102CD0000E94750921E0280F822F612F0E94662C27
:102CE000682F660F680F660F620F88EA99E30E94EB
:102CF0005D042091353A822F612F0E94662C682F47
:102D0000660F680F660F620F88EA99E30E945D0400
:102D10002091343A822F612F0E94662C682F660F13
:102D2000680F660F620F88EA99E30E945D042091A4
:102D3000333A822F612F0E94662C682F660F680F2E
:102D4000660F620F88EA99E30E945D040E943201D7
:102D5000AD96CDBFDEBFDF91CF911F910F91FF9058
:102D6000089541E050E062CF8091F6380813F0CF2B
:102D70008091DC388823B9F01E3FA9F48F818770D9
:102D8000863061F488858111E3CF89858093F63898
:102D900066EF78E380E00E94D709DACF8730C1F68A
:102DA0001092DC38D5CF85E0153019F0163071F46B
:102DB00086E00E94CC07009759F2DC01ED91FC916E
:102DC0000284F385E02D68850995C2CF1B30E9F4B4
:102DD0000091E3381091E4382C853D8550E040E0C7
:102DE000688579858A859B850E94BB2CCA01B901BB
:102DF0000E948F29AB01BC01D801ED91FC910484A4
:102E0000F585E02DC8010995A3CF1C3029F4009168
:102E1000E1381091E238E0CF1730F1F40091EB384F
:102E20001091EC382C853D8550E040E0688579852F
:102E30008A859B850E94BB2CCA01B9010E948F29FB
:102E4000AB01BC01D801ED91FC910484F585E02D26
:102E5000C80109955CDB7CCF183029F40091E93872
:102E60001091EA38B9CF193029F40091E738109160
:102E7000E838B2CF1A3029F40091E5381091E638DD
:102E8000ABCF1E30C9F440E150E0BE01685F7F4F18
:102E9000CE0149960E94412E19A68091DF3890916B
:102EA000E038DC01ED91FC910684F785E02DBE0150
:102EB000675E7F4F09954CCF1D3079F440E150E0BB
:102EC000BE01685F7F4FCE0149960E94412E19A630
:102ED00080910F3990911039E4CF1F3009F038CF2D
:102EE00040E150E0BE01685F7F4FCE0149960E94ED
:102EF000412E19A68091DD389091DE38D2CFCF9245
:102F0000DF92EF92FF920F931F93CF93DF93CDB792
:102F1000DEB76097CDBFDEBFDC0115962D913C91E9
:102F200016972730310509F046C05A962D913C91ED
:102F3000232B09F440C08C01F12C6E01B3E0CB0EC1
:102F4000D11C3EE0E32EF801818DF816A0F5D601E4
:102F5000EE2D1D92EA95E9F7D80112968C91129701
:102F60008983FA828F2D90E0880F991F5A96ED91F0
:102F7000FC91E80FF91F60817181FB010190002035
:102F8000E9F73197AF01461B570B55274F305105D5
:102F900010F04EE050E0C6010E94412E22E030E0E9
:102FA000AE014F5F5F4F6091F6388091F5380E9417
:102FB000EA0DF394C8CF6096CDBFDEBFDF91CF910D
:102FC0001F910F91FF90EF90DF90CF9008951F9386
:102FD000CF93DF93182FF8948091B738C8E18C9F76
:102FE000C0011124412F50E08E5B974C0E94282E87
:102FF000E091B738CE9FF0011124E15CF74CD1E0AD
:10300000D0838AE09AE30E94470CE091B738CE9FC4
:10301000F0011124E15CF74C81839283153141F476
:10302000E091B738CE9FF0011124E15CF74CD083DA
:103030008091B7388F5F8093B7388091B7388530EB
:1030400010F01092B7389091B73880913E389813AD
:103050000BC080913E388F5F80933E3880913E3820
:10306000853010F010923E387894DF91CF911F9107
:1030700008958F929F92AF92BF92CF92DF92EF927C
:10308000FF920F931F93CF93DF937C01EB01890194
:10309000BA0190E080E00E948D294B015C01B701EC
:1030A00090E080E00E948D299B01AC0160E070EC13
:1030B0008FE794E40E94512B20E030E040E85FE38A
:1030C0000E94EC2A9B01AC01C501B4010E94512B66
:1030D0006B017C01B80190E080E00E948D299B018A
:1030E000AC01C701B6010E94512B0E94F32B6B016A
:1030F0007C01BE0190E080E00E948D299B01AC0123
:10310000C701B6010E94512B2FE03FEC4BE55BE37A
:103110000E94ED2A9B01AC0160E070E080E89FE333
:103120000E94512B23E333E948E853E40E94EC2A40
:10313000DF91CF911F910F91FF90EF90DF90CF9093
:10314000BF90AF909F908F900895CF92DF92EF92B3
:10315000FF920F931F93CF93DF93EC016B01698D67
:1031600070E06F5F7F4F660F771F8A8D9B8D0E9487
:10317000712D7C018A8F9B8F892BF1F0C6010E94F3
:103180000227098D10E0000F111F0E0D1F1D019663
:103190000E94D625F80180839183898D90E0880F65
:1031A000991FE80EF91EB601F701808191810E94F6
:1031B000FB26898D8F5F898FDF91CF911F910F91B2
:1031C000FF90EF90DF90CF9008952F923F924F9213
:1031D0005F926F927F928F929F92AF92BF92CF92A7
:1031E000DF92EF92FF920F931F93CF93DF93CDB7B0
:1031F000DEB72897CDBFDEBF4C012F8338878EEE18
:103200009DEDF401808391836283438354838DE039
:1032100090E08583968381E090E087839087138A8E
:10322000148A818B928BA58AB68A178A108E5C5E6F
:10323000FA01808190E0B0E0A0E0F40181879287FC
:10324000A387B487B095A095909581959F4FAF4F78
:10325000BF4F85879687A787B08B87E0482E512C74
:103260004582568293E0292E312C2782308684E4D1
:103270009DED808391835401FEE2AF0EB11C40E8C6
:1032800053E46DE678E3C5010E948C08340184E3C1
:10329000680E711C40E853E46DE678E3C3010E94B8
:1032A0008C088F819885F401848F958F068F178FF6
:1032B000E0A2F1A2C2A2D3A214A215A216A217A242
:1032C00010A611A612A613A614A612AE13AE83E67C
:1032D00085A740E853E46DE678E3CE0101960E94AD
:1032E0008C0886E0FE013196D50101900D928A95F9
:1032F000E1F740E853E46DE678E3CE0101960E94E1
:103300008C0886E0FE013196D30101900D928A95DA
:10331000E1F760E071E0C40118DF67EF70E0C4011D
:1033200014DFF40145825682278230862896CDBF6D
:10333000DEBFDF91CF911F910F91FF90EF90DF9053
:10334000CF90BF90AF909F908F907F906F905F9045
:103350004F903F902F900895AF92BF92CF92DF92FF
:10336000EF92FF920F931F93CF93DF931F92CDB7EE
:10337000DEB78C015B01DC015996EC90D12CC12C9D
:10338000FC2CCE1458F5C601880F991FD8015A9607
:10339000ED91FC91E80FF91F60817181C5010E94D8
:1033A000312EBFEFCB1ADB0A892B51F74F2D50E09E
:1033B00070E060E0D801ED91FC910084F185E02D92
:1033C000C80109950F90DF91CF911F910F91FF9048
:1033D000EF90DF90CF90BF90AF900895F801618596
:1033E00083818983CE0101960E94C509EBCFEF93BB
:1033F000FF93F898E7E1F9E30BC0EF93FF93F89898
:10340000E7E1F9E334C0EF93FF93E7E1F9E35CC050
:103410002F932FB72F938F939F93AF93BF9368945E
:10342000CF93DF9320E0C085D8E09089DF01A90F1A
:10343000B21FAF5ABF4F8C9120E42C838A839F5FC9
:103440009F738D812785291302C08F7D8D83908B7B
:10345000DF91CF9116F00C947002BF91AF919F91C4
:103460008F912F912FBF2F91FF91EF9118952F934F
:103470002FB72F933F938F939F93CF93DF93C08565
:10348000D8E0898198818674880F3485382B82FD35
:103490000DC0C58581E08C0F8F732685281791F0AC
:1034A000CE0FDF2F20E0D21F998B85873487DF91E5
:1034B000CF919F918F913F912F912FBF2F91FF918E
:1034C000EF9118953064F2CF8F938FB78F939F93BE
:1034D000CF93DF93C085D8E09D8188818C8187FD63
:1034E000FCCF9F7B90689D83DF91CF919F918F91BF
:1034F0008FBF8F91FF91EF9118958F9381E080930B
:103500008D0A8FB78F93EF93FF93E2EDF8E39F93CC
:1035100068948FEF0FC0E894848195818C5E9F4FF3
:1035200084839583885E934010F08FEF03C084837B
:1035300095838EEF9081981B919390819F4F9193EB
:1035400090819F4F919390819F4F919326F39F91EC
:10355000FF91EF918F918FBF8F9118950F9304E09A
:1035600006C00F9302E003C00F9300E000C00F926B
:103570000FB60F921F921124FF921F932F933F9328
:103580004F935F936F937F938F939F93AF93BF936B
:10359000CF93DF93EF93FF93A0E0B8E3A00FB11DAB
:1035A000CD91DC91000F0D5FA02FB0E0FC90109743
:1035B00061F01F2D169518F041F02296FBCFE9918E
:1035C000F9913097B9F30995F5CFA02FB0E0FC92AF
:1035D000FF91EF91DF91CF91BF91AF919F918F912B
:1035E0007F916F915F914F913F912F911F91FF902C
:1035F0001F900F900FBE0F900F9118951F920F9272
:103600000FB60F9211241F932F933F934F935F9305
:103610006F937F938F939F93AF93BF93CF93DF93DA
:10362000EF93FF93C0EBD9E3E881F981838586FFAF
:1036300056C080FF41C0158581FF38C08E81882328
:1036400059F08091CD3880935000EB85FC85309700
:1036500019F08E8190E009951C831D821886E985FA
:10366000FA85309709F009958D81882319F183E057
:10367000909150009093CD38917090935000E881D4
:10368000F9818287FF91EF91DF91CF91BF91AF9147
:103690009F918F917F916F915F914F913F912F916A
:1036A0001F910F900FBE0F901F9018951C831E82C4
:1036B0001F82DDCF86E0DCCF8091CD388093500033
:1036C000EB85FC85309729F08E81882311F090E0FE
:1036D00009951E821D821F82188682E0D0CF87FF47
:1036E0002FC081FF1EC0887139F08A8183FF04C01A
:1036F0001D82877F8A83F1CF8B818F5F8B838A8145
:1037000088608A83A8858D81A81738F7AC0FBD2FF4
:10371000B11D1D968C91858788858F5F888783E092
:10372000AECF8585EE81E03258F4EC0FFD2FF11D10
:1037300085A78E818F5F8E83803288F386E09FCF4E
:1037400080E09DCF1F920F920FB60F9211248F939E
:1037500081E080931539809353018F910F900FBEB4
:103760000F901F901895CF931092193910921A3913
:1037700088EE93E0A0E0B0E080931B3990931C3971
:10378000A0931D39B0931E392EE13EED20931739D9
:103790003093183920E038E020931F3930932039D6
:1037A00010922139109222391092AA391092AB3915
:1037B0008093AC399093AD39A093AE39B093AF39C3
:1037C00080E39EED8093A8399093A93980E198E039
:1037D0008093B0399093B13984E08093093A91E3B2
:1037E0009093083A20E238E02093FD393093FE3977
:1037F0001092043A22E43EED20930A3A30930B3AB9
:103800009093113A8093123A1092133A1092143A0C
:1038100083E08093173AC2E0C093103A8DEF99E3AA
:103820008093153A9093163A1092183A1092193ADA
:1038300010921A3A10921B3A40E853E46DE678E38E
:1038400083E39AE30E948C081092323A10921C3A59
:1038500082E390E08093213A9093223A1092243AA6
:1038600010922B3A10922C3A10922D3A10922E3A36
:1038700081E080932A3A8093273A1092283AC093A5
:10388000293A89E090E080931F3A9093203A0E9471
:10389000D6258093253A9093263A009729F129E07E
:1038A000FC0111922A95E9F783E090E080931D3A9C
:1038B00090931E3A8CE08093233A80911C3A88239F
:1038C00041F061E08CE00E94790E60E08CE00E94A3
:1038D000F80A84E494E080932F3A9093303A84E09D
:1038E0008093313ACF91089510921F3A1092203A66
:1038F00010921D3A10921E3ADDCFCF93DF93CDB7D1
:10390000DEB7E697CDBFDEBF81E098ED94BF809330
:103910006100E0E0F6E092E592839AE0958390E220
:1039200093838083109202028093030A9EEF909308
:10393000260A9093270A9BE09093000AE0E8FAE0B9
:103940002DEF31E026A737A7118290E89283848774
:1039500081E1808378948091233980FF12C087E1D0
:1039600099E30E94D702E0911F39F0912039168225
:10397000158280EC848380912539809324391092BC
:103980002339FFB6F894E0911F39F091203916825F
:1039900083E0878385E191E080879187148680E8C2
:1039A000858380EC86839091223900912139809122
:1039B0000102992309F450C0816080930102090F2C
:1039C0001127111F000F111F000F111F0458124261
:1039D00061E0D8018C910E94790E62E0F80181814A
:1039E0000E94790EFFBE8EEE91E00E94BD0282E839
:1039F0009EED0E94B91161E08091233A0E94790EF8
:103A000060E08091233A0E94F80A81E080931C3A9A
:103A10006091243A6B3041F12091253A3091263A59
:103A20006150E1F070E08FEF9AE00E94722CF90192
:103A300040911F3A5091203ACF01821B930B84177B
:103A4000950778F4DF014D91469FC001479F900D87
:103A500011249083FD01ECCF8E7FAFCF70E060E04A
:103A6000E6CF8BE08093243A809100148093F6385F
:103A700060E083E00E94790E1EAA83E00E94F20FAC
:103A8000843691050CF04CC04FEF50E060E070E0E0
:103A900090E080E00E947E010E9419032FB7F89405
:103AA0008091D6389091D738A091D838B091D93834
:103AB0002FBF81319742A105B10540F164E670E066
:103AC00080E090E00E94CA0340E050E0BA0190E03C
:103AD00080E00E947E010E9419032FB7F894809124
:103AE000D6389091D738A091D838B091D9382FBF17
:103AF00081319742A105B10570F064E670E080E085
:103B000090E00E94CA0381E08EABB7CF6CE271E017
:103B100080E090E0D7CF6CE271E080E090E0F1CF00
:103B20002FB7F8948091D6389091D738A091D83893
:103B3000B091D9382FBF81319742A105B10518F056
:103B40008FEF8093F6384FEF50E060E070E090E048
:103B500080E00E947E010E9419038091F6388F3F19
:103B600009F084C08FED9EED0E94241285E18093C0
:103B7000F6381092F53866EF78E380E00E94D709B6
:103B800065EF78E381E00E94D70982E0898360E0F5
:103B9000CE0101960E94C50983E0898360E0CE01D1
:103BA00001960E94C50984E0898360E0CE010196F8
:103BB0000E94C50988E0E8EFFCEDDE011196019056
:103BC0000D928A95E1F7BE016F5F7F4F85E00E94FD
:103BD000F20988E0E0E0FDEDDE01119601900D9222
:103BE0008A95E1F7BE016F5F7F4F8DE00E94F20979
:103BF00088E0E8E0FDEDDE01119601900D928A95D6
:103C0000E1F7BE016F5F7F4F85E10E94F20988E016
:103C1000E0E1FDEDDE01119601900D928A95E1F74C
:103C2000BE016F5F7F4F8DE10E94F20988E0E8E1FD
:103C3000FDEDDE01119601900D928A95E1F7BE012E
:103C40006F5F7F4F85E20E94F20988E0E0E2FDEDC0
:103C5000DE01119601900D928A95E1F7BE016F5F2A
:103C60007F4F8DE20E94F209F1E0FEAB80910114DA
:103C70008093F53887EE97E18093D0389093D138D0
:103C80001092CE381092CF3840E45EE06FEC79E1CC
:103C90008AE09AE30E94140F892B49F51092133998
:103CA00081EF9EED0E94241213E040E050E06FEFA0
:103CB00070E081E090E00E947E010E94190364E6BA
:103CC00070E080E090E00E94CA0340E050E0BA015A
:103CD00081E090E00E947E010E94190364E670E09A
:103CE00080E090E00E94CA031150F9F69CC083ED79
:103CF0009CE080930C3A90930D3A8AE09AE30E94FC
:103D00009E0E80E59DE080930E3A90930F3A8AE0F4
:103D10009AE30E949E0E63E170E08AE09AE30E94BB
:103D20004D0E43EC61EB8AE09AE30E948D0B4AE072
:103D300067EB8AE09AE30E948D0B6EE18AE09AE3DA
:103D40000E94D30B8F70482F40696EE98AE09AE396
:103D50000E948D0B0E94D50B6DE18AE09AE30E94D0
:103D6000D30B8F70482F40676DE98AE09AE30E9479
:103D70008D0B0E94D50B6DE18AE09AE30E94D30B74
:103D8000817F482F42606DE98AE09AE30E948D0BA3
:103D90008AE09AE30E94410D81E080931339809379
:103DA000323A8CEF9EED0E9423126091F63870E05B
:103DB00090E080E04AE00E94C61187E09FED0E94FB
:103DC00023126091F53870E090E080E04AE00E94B4
:103DD000C61181EC9EED0E9423124AE061EB71E076
:103DE00080E090E00E94C6118CE09FED0E942312BB
:103DF0004AE061E070E080E090E00E94C61182E855
:103E00009EED0E94B91140E05FEF60E070E090E04D
:103E100080E00E947E010E94190364E670E080E069
:103E200090E00E94CA0388E893E18093063890935B
:103E300007388091B23981FD26C082FD24C080916F
:103E4000010284FF24C486E0809306048091B23985
:103E500082608093B239E091B039F091B13981E05C
:103E6000838385839091B23991FF0DC09681913201
:103E700051F02381138291E2968390819D7F9083FC
:103E8000238320FD858387E19FED0E94241286E233
:103E900090E08CD67C010FED11E023EE31E041E0A3
:103EA00062E00E942810C7010E946D15FC018093FA
:103EB00011399093123989E3882E88E1982E80A2D7
:103EC00091A29EE6A92E9FE0B92EA28EB38E28EE77
:103ED000C22E23E0D22EC48ED58E38E8E32E33E1F5
:103EE000F32EE68EF78E86E290E060D63C0102ED7E
:103EF00011E026ED31E042E063E00E942810C301AA
:103F00000E946D15FC018093F3389093F43880A2E1
:103F100091A2A28EB38EC48ED58EE68EF78E8EE1E0
:103F200090E044D68C0183E0D80112968C931297CE
:103F30008FEF9FEF13968D939C9314978DE090E0F5
:103F400015968D939C931697EE24E394F12C179677
:103F5000ED92FC92189753961D921C92549751968D
:103F6000ED92FC92529786EC91E055968D939C933E
:103F7000569757961D921C92589781EC9DEBA0EF97
:103F8000BFEFF80181879287A387B4878FE392E41C
:103F9000AFE0B0E085879687A787B08B88E89DED76
:103FA0008083918384E0818FE28EF38E148E158E50
:103FB00062E00E94790ED8015A962D913C915B9750
:103FC0002230310508F06FC315961D921C9216978A
:103FD00017961D921C92189759968C912130310595
:103FE00009F059C30E946D0A51E040E030E020E042
:103FF000811150E0852F942FA32FB22FF8018187D4
:104000009287A387B487C8010E946D158093F13809
:104010009093F23886E290E0C9D57C0105EB11E07F
:1040200029EB31E044E065E00E942810C7010E94BE
:104030006D15FC0181E695E080A391A386E490E0F4
:10404000828F938F84EF91E0848F958F84E991E143
:10405000868F978F8AE190E0A9D58C0185E0D80101
:1040600012968C931297AA24AA94BA2C1396AD9206
:10407000BC921497EDE0F0E01596ED93FC93169743
:1040800088248394912C17968D929C92189753961E
:104090001D921C92549751968D929C92529787EA4A
:1040A00091E055968D939C93569757961D921C922E
:1040B000589741ECC42E4DEBD42E40EFE42EFF2454
:1040C000FA941996CD92DD92ED92FC921C975FE3E3
:1040D000452E52E4552E5FE0652E712CF801458681
:1040E00056866786708A80EA9DED808391838BE097
:1040F000818F61E00E94790ED80159968C910E94BF
:104100006D0A082E000C990BAA0BBB0BF8018187D6
:104110009287A387B48762E0262E312C25823682CF
:1041200017821086C8010E946D158093EF38909316
:10413000F0388AE190E03AD58C0186E0D8011296F9
:104140008C9312971396AD92BC921497EDE0F0E029
:104150001596ED93FC93169717968D929C9218974F
:1041600053961D921C92549751968D929C92529701
:104170008BE991E055968D939C93569757961D9297
:104180001C9258971996CD92DD92ED92FC921C9755
:10419000F801458656866786708A80EA9DED8083A1
:1041A00091838AE0818F61E00E94790ED80159964F
:1041B0008C910E946D0A082E000C990BAA0BBB0B68
:1041C000F80181879287A387B48725823682178278
:1041D0001086C8010E946D152C018093ED389093D4
:1041E000EE388DE190E0E2D47C010CE811E02EE89D
:1041F00031E045E150E067E00E944207C7010E94BC
:104200006D157C018093EB389093EC388DE190E054
:10421000CDD46C010CE711E02EE731E04DE150E028
:1042200068E00E944207C6010E946D158093E9383C
:104230009093EA388DE190E0B9D46C0110E000E091
:104240002FE631E045E250E069E00E944207C601F6
:104250000E946D158093E7389093E8388DE190E0E7
:10426000A5D46C010EE511E022E631E04DE250E00C
:104270006AE00E944207C6010E946D158093E538EE
:104280009093E6388DE190E091D46C0100E511E067
:1042900024E531E045E050E06BE00E944207C601B2
:1042A0000E946D158093E3389093E4388DE190E09F
:1042B0007DD46C0101E411E025E431E04DE050E0F3
:1042C0006CE00E944207C6010E946D158093E138A0
:1042D0009093E2388CE390E069D43C0175E3A72E1B
:1042E00071E0B72ED12CC12C10E000E0920143E028
:1042F00050E06DE00E94E518C3010E946D15FC01BD
:1043000080930F39909310398091F1389091F23861
:1043100084A395A312A613A614A68CE390E046D41A
:104320003C01C090E538D090E638E090E938F09054
:10433000EA380091E7381091E8382091EF38309151
:10434000F038E9E2AE2EE1E0BE2E44E050E06EE04F
:104350000E94E518C3010E946D158093DF38909389
:10436000E0388BE290E022D48C018091E13890918A
:10437000E2382091E3383091E4384091ED385091A3
:10438000EE386091F3387091F438EEEEFDEDD8011F
:10439000ED93FC931197EFE01296EC93129713961E
:1043A0002D923C921497EDE0F0E01596ED93FC937E
:1043B000169717968D929C92189753961D921C9261
:1043C000549751968D929C925297EEE1F1E055965A
:1043D000ED93FC93569757961D921C925897C09058
:1043E0000214D12CF12CE12C1996CD92DD92ED9294
:1043F000FC921C97F094E094D094C094C11CD11C02
:10440000E11CF11CF801C586D686E786F08A0F2EDE
:10441000F7E0CF2ED12CF02DC582D6820F2EF3E0FF
:10442000EF2EF12CF02DE782F086E8EBFDEDED9319
:10443000FC93119792966D937C93939794964D93DA
:104440005C93959790962D933C9391975E968D9360
:104450009C935F9784E090E05C968D939C935D972E
:1044600096961D921C92979798961C92989799965B
:104470001D921C929A9769E071E0C8010E94A518EC
:1044800064E071E0C8010E94A518F801C582D682D7
:10449000E782F086C8010E946D158093DD38909305
:1044A000DE38FEA98AEC9EEDF11102C087ED9EED8B
:1044B0000E9424122EA9222309F446C180911339A7
:1044C000882309F441C181E08093DC388E01085DC6
:1044D0001F4F8EE0F82ED801EF2D1D92EA95E9F7D7
:1044E0008EEF8EA38DE08FA383E088A749E050E094
:1044F00064E171E0CE0189968ED430E020E0AE0117
:104500004A5D5F4F6091F6388091F5380E94EA0D60
:10451000D8011D92FA94E9F745E050E06EE071E0B1
:10452000C80179D422E030E0AE014A5D5F4F60916E
:10453000F6388091F5380E94EA0D18A627E030E0A1
:10454000AE014A5D5F4F6091F6388091F5380E9468
:10455000EA0DD12C5E01B8E1AB0EB11C9EE0C92E74
:1045600080910E39D81608F0B4C08D2D90E0880FD8
:10457000991FE0910C39F0910D39E80FF91F008176
:104580001181F8018281882309F47FC0D501EC2DC7
:104590001D92EA95E9F78E8BD80115968C911597A7
:1045A0008F8B17968C911797888F5596ED90FC906E
:1045B000C70128D4AC0155274E30510510F04DE00D
:1045C00050E0B701CE01499626D430E020E0AE019C
:1045D0004A5E5F4F6091F6388091F5380E94EA0D8F
:1045E000F8016788708C6114710459F1C3010AD411
:1045F0004C01892B31F1D80112968C918983740179
:10460000FF24A701BFE0EB16F10410F04EE050E0EC
:10461000B301CE010396FFD3EDE0E81538F0E3E0F7
:10462000F0E0EC0FFD1FEE0DFF1D108221E030E0E9
:10463000AE014F5F5F4F6091F6388091F5380E9470
:10464000EA0DD801ED91FC910288F389E02DC801B3
:104650000995F5012C2D11922A95E9F7D8011296AA
:104660008C9112978E8B15968C9115978F8B179630
:104670008C91888F27E030E0AE014A5E5F4F6091F9
:10468000F6388091F5380E94EA0DD39469CF83E023
:1046900080932604DBCB0E946D0A082E000C990B38
:1046A000AA0BBB0BABCC88E090E015968D939C9346
:1046B00016971796ED92FC92189719968D919D91E9
:1046C0000D90BC91A02DF80185879687A787B08BA8
:1046D0009ACCF3E0CF2ED12CE12CF12C812C912C13
:1046E00054018A9493948091DC38882369F10E9464
:1046F000A6152FB7F8946091D6387091D73880916D
:10470000D8389091D9382FBFA70196010E94992CD3
:10471000CA01B901A50194010E94992C6F5F71092A
:1047200077FF03C0719561957109AB01770F660B37
:10473000770B762F652F542F442790E080E00E945E
:104740007E010E941903CFCF80ED8093B43910927F
:10475000B5390E94320191E0811190E090931439B3
:104760008111BEC087E29FED0E9424120E946F0457
:1047700063E37AE3CE0101960E940013CE01019615
:104780000E94731289819A81ADD28091A1008D7FA0
:104790008093A100809102068F7C80658093020641
:1047A000F894809141018111FCCF11E010934001F8
:1047B000109247011093520181E780935001789441
:1047C00088E39FED0E9424121093123840E050E0DD
:1047D000BA0190E080E00E947E010E94190380915E
:1047E000F6389091F53899838A838CEF8B838DE628
:1047F0008C83CE0101960E94AC0D81E49FED0E9456
:1048000024124BEFC42E48E3D42E50E1A52E809104
:104810001539882309F42AC11092153983E39AE3E4
:104820000E9482092B013C01BFEF4B1A5B0A6B0A05
:104830007B0AB301A201CE0101960E948C0886E09A
:10484000FE013196A3E3BAE301900D928A95E1F758
:1048500040E050E0BA0140FE10C080911439882336
:1048600041F08091133940E05FEF60E070E081112A
:1048700004C040E050E06FEF70E090E080E00E9404
:104880007E010E94190380911238882379F01092DA
:1048900012388091113990911239DC01ED91FC911F
:1048A0000088F189E02D09950E94871210E080911F
:1048B0000E39181798F5812F90E0880F991FE09115
:1048C0000C39F0910D39E80FF91F80819181DC01DD
:1048D000ED91FC910088F189E02D09951F5FE7CFEC
:1048E00040E050E06FEF70E082E090E00E947E01D7
:1048F0000E94190364E670E080E090E00E94CA0321
:1049000040E050E0BA0182E090E00E947E010E9407
:1049100019038EE29FED0E94241237CFB12C8091B3
:104920000E39B81608F0A2C08B2D90E0880F991FA1
:10493000E0910C39F0910D39E80FF91F00811181D8
:10494000F801418552856385748585859685841B2C
:10495000950B97FF03C0919581959109D8015396C6
:104960002D913C915497281739070CF04FC012969F
:104970008C911297882309F449C0F801458756871E
:104980006787708B0580F681E02DED30F10508F02A
:104990003DC0E353FB4D0C94D72CDA24DA24DA24FF
:1049A00006250C25062506250C25DA2406250625D0
:1049B0000C25DA2455968D919C910E94BD0286ECBF
:1049C0009EED0E942312F80161857285838594858E
:1049D00097FF1EC00E94031282E89EED0E94B9114B
:1049E000F80181859285A385B4858093FB389093E7
:1049F000FC38A093FD38B093FE388189928980936A
:104A0000FF3890930039C8010E94D10DB39487CF2D
:104A10004AE00E94C611E0CFED91FC910680F7813B
:104A2000E02DC80109957C01F801858996890E94CD
:104A3000BD0286EC9EED0E942312C7010E94241243
:104A4000F70101900020E9F73197D6012A2D1D9238
:104A50002A95E9F7EE19E13108F0E0E14E2F50E038
:104A6000B7018BEF98E30E94412ECDCF8091373A6A
:104A700090E0B0E0A0E040910E3850910F38609186
:104A800010387091113884179507A607B707A9F059
:104A900080930E3890930F38A0931038B09311384C
:104AA00063E37AE3CE0101960E940013CE010196E2
:104AB0000E94731289819A8115D18091363A90E0D3
:104AC000B0E0A0E040910A3850910B3860910C386A
:104AD00070910D3884179507A607B707C9F0809124
:104AE0000F39909110390E940C09811102C00E9467
:104AF00087120E946F048091363A90E0B0E0A0E007
:104B000080930A3890930B38A0930C38B0930D38EB
:104B10000E94A6158BE00E946D0A082E000C990BCE
:104B20002091093828171906A1F08BE00E946D0A20
:104B30008093093840E05FEF60E070E0811103C0CE
:104B400040E050E0BA0181E090E00E947E010E94C6
:104B500019038AE00E946D0A082E000C990B20911F
:104B600008382817190609F452CE8AE00E946D0A07
:104B70008093083840E05FEF60E070E0811103C08F
:104B800040E050E0BA0182E090E00E947E010E9485
:104B900019033DCE8091253A9091263A009709F06D
:104BA000A1D060E08091233A0C94790E0F931F936B
:104BB000CF93DF938230910510F482E090E0E09192
:104BC0003B3AF0913C3A30E020E0B0E0A0E0309792
:104BD00099F42115310509F44AC0281B390B2430FA
:104BE0003105D8F58A819B816115710589F1FB0139
:104BF00082839383FE0111C0408151810281138120
:104C000048175907E0F04817590799F4109761F0D1
:104C100012960C93129713961C933296CF01DF9144
:104C2000CF911F910F91089500933B3A10933C3A16
:104C3000F4CF2115310551F04217530738F0A9017F
:104C4000DB019A01BD01DF01F801C1CFEF01F9CF0E
:104C500080933B3A90933C3ACDCFFE01E20FF31F95
:104C6000819391932250310928833983D7CF2091A2
:104C7000393A30913A3A232B41F42091153830914A
:104C800016382093393A30933A3A209113383091BC
:104C900014382115310541F42DB73EB7409117382E
:104CA00050911838241B350BE091393AF0913A3A7B
:104CB000E217F307A0F42E1B3F0B2817390778F0F3
:104CC000AC014E5F5F4F2417350748F04E0F5F1F52
:104CD0004093393A50933A3A819391939FCFF0E0C1
:104CE000E0E09CCFCF93DF930097E9F0FC0132978F
:104CF00012821382A0913B3AB0913C3AED0130E030
:104D000020E01097A1F420813181820F931F209120
:104D1000393A30913A3A2817390709F061C0E093DF
:104D2000393AF0933A3ADF91CF910895EA01CE17DC
:104D3000DF07E8F54A815B819E0141155105B1F716
:104D4000E901EA83FB8349915991C40FD51FEC1700
:104D5000FD0761F4808191810296840F951FE9011E
:104D600088839983828193818A839B83F0E0E0E04A
:104D700012968D919C9113970097B9F52D913C91C6
:104D80001197CD010296820F931F2091393A3091ED
:104D90003A3A2817390739F6309751F510923B3ACD
:104DA00010923C3AA093393AB0933A3ABCCFC283BE
:104DB000D38340815181840F951FC817D90761F4AF
:104DC0004E5F5F4F88819981480F591F40835183FF
:104DD0008A819B81828393832115310509F0B0CFAD
:104DE000E0933B3AF0933C3A9ECFFD01DC01C0CF0B
:104DF00012821382D7CFFB01DC0105900D920020B7
:104E0000E1F70895FC0105900020E9F78095909561
:104E10008E0F9F1F0895FB01DC014150504048F068
:104E200005900D920020C9F701C01D9241505040DD
:104E3000E0F70895ABE0B0E0EFE1F7E28DC37C016D
:104E40003B018A01FC0116821782838181FFBAC16E
:104E5000CE0101965C01F7019381F30193FD8591E9
:104E600093FF81913F01882309F449C1853239F4C8
:104E700093FD859193FF81913F01853221F4B70124
:104E800090E0B9D1E8CF912C212C312CFFE1F31522
:104E900038F08B3211F190F4803209F1833229F12C
:104EA00037FC3CC020ED280F2A3050F536FE20C0DC
:104EB0008AE0989E200D1124922E06C08D3291F02A
:104EC000803371F7689430F8F30193FD859193FF77
:104ED00081913F018111DACF21C0689431F8689443
:104EE00032F8F2CF689433F8EFCF689434F8ECCF0F
:104EF000EAE02E9E200D1124222E689435F8E4CF8E
:104F00008E3229F436FCFBC0689436F8DDCF8C363F
:104F100019F4689437F8D8CF8836B1F2982F9F7D6E
:104F200095549330D8F0833691F18337B1F18335BE
:104F300009F05EC02801F2E04F0E511CF801C0805C
:104F4000D180692D70E036FC02C06FEF7FEFC601A3
:104F50003CD14C01689437F882010AC00C5F1F4FA6
:104F6000FFE3F98388248394912C6501E89437F852
:104F700033FE2AC0522C8114910459F5552009F4AE
:104F80006ACFB70180E290E036D15A94F7CFF801AA
:104F9000808189830E5F1F4FE5CF2801F2E04F0E1D
:104FA000511CF801C080D180692D70E036FC02C030
:104FB0006FEF7FEFC60114D14C018201D7CFB7014B
:104FC00080E290E018D12A942814190409F0B8F767
:104FD000D1CFF60137FC859137FE81916F01B70182
:104FE00090E009D151105A94F1E08F1A9108C3CF83
:104FF000843619F0893609F073C0F80137FE67C0AE
:1050000060817181828193810C5F1F4FF32DFF7648
:105010003F2E97FF09C090958095709561957F4FC1
:105020008F4F9F4F689437F82AE030E0A50113D1E5
:10503000C82ECA188C2C432C36FE0CC0E89440F8BD
:10504000C91440F434FE05C032FC03C0F32DFE7ECB
:105050004F2E892C44FE90C0FE01EC0DF11D808185
:10506000803309F082C0242D297E422E842D887041
:10507000582E43FC8FC040FE89C09C2C821418F42B
:105080002C0C922C981844FE8BC0B70180E390E062
:10509000B2D042FE08C088E790E041FE02C088E539
:1050A00090E0B701A8D0C91408F486C0CA94D12CE6
:1050B0009FEFC91AD90ACA0CDB1CF60182916F0155
:1050C000B70190E098D0AC14BD04B9F757CF608118
:1050D0007181072E000C880B990B0E5F1F4F96CF26
:1050E000D32CE894D4F82AE030E0853731F1232D31
:1050F000297FD22E8F36F9F040F48835A1F0F701E0
:10510000868197812B96E2E140C2803749F088374B
:10511000B1F7D4FE02C06894D2F820E130E00DC0AF
:105120006894D4F8F6CF34FE03C0822F8660D82E60
:1051300020E132E002C028E030E0F801D7FE0EC0E6
:1051400060817181828193810C5F1F4FA50183D0A3
:10515000C82ECA183D2CE89437F86CCF6081718155
:1051600090E080E00E5F1F4FF1CF42FC02C08394BD
:105170007DCF839483947ACF842D867809F476CF7B
:10518000F6CFB70180E290E036D083948214C8F362
:10519000512C79CF522C5818821408F474CFF8CFC0
:1051A000842D867809F47FCF8BE241FE80E247FCB4
:1051B0008DE2B70190E076CFB70180E390E01BD09D
:1051C0009A9471CF8FEF9FEF9DCFFC0105906150B6
:1051D00070400110D8F7809590958E0F9F1F08950D
:1051E000FC016150704001900110D8F780959095B6
:1051F0008E0F9F1F08950F931F93CF93DF93182F48
:10520000092FEB018B8181FD09C01FEF0FEF812F6B
:10521000902FDF91CF911F910F91089582FF14C0BD
:105220002E813F818C819D81281739073CF4E881CC
:10523000F981CF0101968883998310838E819F81A4
:1052400001968E839F83E3CFE885F985812F0995A9
:10525000892BA1F3DACFFA01AA27283051F12031A6
:1052600081F1E8946F936E7F6E5F7F4F8F4F9F4FFA
:10527000AF4FB1E03ED0B4E03CD0670F781F891F3C
:105280009A1FA11D680F791F8A1F911DA11D6A0F0A
:10529000711D811D911DA11D20D009F468943F91BD
:1052A0002AE0269F11243019305D3193DEF6CF01BC
:1052B0000895462F4770405D4193B3E00FD0C9F782
:1052C000F6CF462F4F70405D4A3318F0495D31FDEF
:1052D0004052419302D0A9F7EACFB4E0A695979542
:1052E000879577956795BA95C9F700976105710518
:1052F00008959B01AC010A2E069457954795379562
:105300002795BA95C9F7620F731F841F951FA01DBB
:10531000089540D008F481E00895E89409C097FB0F
:105320003EF490958095709561957F4F8F4F9F4F7C
:105330009923A9F0F92F96E9BB279395F6958795C0
:1053400077956795B795F111F8CFFAF4BB0F11F483
:1053500060FF1BC06F5F7F4F8F4F9F4F16C088232A
:1053600011F096E911C0772321F09EE8872F762F60
:1053700005C0662371F096E8862F70E060E02AF0A1
:105380009A95660F771F881FDAF7880F969587958D
:1053900097F90895990F0008550FAA0BE0E8FEEF62
:1053A00016161706E807F907C0F012161306E407E9
:1053B000F50798F0621B730B840B950B39F40A26E2
:1053C00061F0232B242B252B21F408950A2609F4C0
:1053D000A140A6958FEF811D811D08950BD078C047
:1053E00069D028F06ED018F0952309F05AC05FC03C
:1053F0001124A2C07ED0A0F3959FD1F3950F50E069
:10540000551F629FF001729FBB27F00DB11D639F76
:10541000AA27F00DB11DAA1F649F6627B00DA11D1C
:10542000661F829F2227B00DA11D621F739FB00DC2
:10543000A11D621F839FA00D611D221F749F332732
:10544000A00D611D231F849F600D211D822F762FCB
:105450006A2F11249F5750408AF0E1F088234AF0C8
:10546000EE0FFF1FBB1F661F771F881F9150504014
:10547000A9F79E3F510570F014C05EC05F3FECF38A
:10548000983EDCF3869577956795B795F795E79500
:105490009F5FC1F7FE2B880F911D9695879597F911
:1054A000089597F99F6780E870E060E008959FEFA6
:1054B00080EC089500240A941616170618060906AB
:1054C000089500240A94121613061406050608957A
:1054D000092E0394000C11F4882352F0BB0F40F402
:1054E000BF2B11F460FF04C06F5F7F4F8F4F9F4F42
:1054F000089557FD9058440F551F59F05F3F71F0C4
:105500004795880F97FB991F61F09F3F79F087952A
:105510000895121613061406551FF2CF4695F1DFB3
:1055200008C0161617061806991FF1CF8695710543
:10553000610508940895E894BB2766277727CB0177
:1055400097F908953AD0A59F900DB49F900DA49F10
:10555000800D911D112408952F923F924F925F92DA
:105560006F927F928F929F92AF92BF92CF92DF9273
:10557000EF92FF920F931F93CF93DF93CDB7DEB7D8
:10558000CA1BDB0BCDBFDEBF09942A883988488847
:105590005F846E847D848C849B84AA84B984C8844F
:1055A000DF80EE80FD800C811B81AA81B981CE0F46
:1055B000D11DCDBFDEBFED010895A29FB001B39F05
:1055C000C001A39F700D811D1124911DB29F700D0C
:1055D000811D1124911D08955058BB27AA270ED074
:1055E00077CF68DF30F06DDF20F031F49F3F11F4AA
:1055F0001EF45DCF0EF4E095E7FB53CFE92F79DF82
:1056000080F3BA17620773078407950718F071F4DF
:105610009EF591CF0EF4E0950B2EBA2FA02D0B0125
:10562000B90190010C01CA01A0011124FF27591BE7
:1056300099F0593F50F4503E68F11A16F040A22FED
:10564000232F342F4427585FF3CF4695379527955E
:10565000A795F0405395C9F77EF41F16BA0B620B5D
:10566000730B840BBAF09150A1F0FF0FBB1F661FA4
:10567000771F881FC2F70EC0BA0F621F731F841FE7
:1056800048F4879577956795B795F7959E3F08F00D
:10569000B3CF9395880F08F09927EE0F97958795CC
:1056A00008950CD015CF0DDF40F004DF30F021F469
:1056B0005F3F19F0F6CE51113FCFF9CE1ADF98F3C4
:1056C0009923C9F35523B1F3951B550BBB27AA2783
:1056D00062177307840738F09F5F5F4F220F331FF5
:1056E000441FAA1FA9F333D00E2E3AF0E0E830D0C1
:1056F00091505040E695001CCAF729D0FE2F27D0C4
:10570000660F771F881FBB1F261737074807AB0791
:10571000B0E809F0BB0B802DBF01FF2793585F4F06
:105720002AF09E3F510568F0BCCE06CF5F3FECF3F8
:10573000983EDCF3869577956795B795F7959F5FCB
:10574000C9F7880F911D9695879597F90895E1E01F
:10575000660F771F881FBB1F621773078407BA077E
:1057600020F0621B730B840BBA0BEE1F88F7E095D9
:10577000089504D06894B111DFCE0895C2DE88F098
:105780009F5790F0B92F9927B751A0F0D1F0660F2D
:10579000771F881F991F1AF0BA95C9F712C0B13048
:1057A00081F0C9DEB1E00895C6CE672F782F882733
:1057B000B85F39F0B93FCCF3869577956795B39587
:1057C000D9F73EF490958095709561957F4F8F4FF6
:1057D0009F4F0895DFDD08F48FEF08950EF043C06A
:1057E00066CE68945ECE8DDEC8F39923D1F3C6F3FE
:1057F000DF93CF931F930F93FF92C92FDD27882349
:105800002AF02197660F771F881FDAF720E030E033
:1058100040E85FEB9FE3883920F0803E30F021962E
:105820008F77DBDEECE7F0E003C0D7DEE9EAF0E0FB
:1058300028D08B01BE01EC01FB2E6F5771097595C5
:10584000771F880B990B6BDD28E132E741E35FE3BB
:10585000D1DDAF2D9801AE01FF900F911F91CF9137
:10586000DF91CCDE35CE9F3F31F0915020F487950B
:1058700077956795B795880F911D9695879597F9B8
:105880000895DF93CF931F930F93FF92EF92DF92D0
:105890007B018C01689405C0DA2EEF01ABDDFE01BF
:1058A000E894A5912591359145915591AEF3EF017D
:1058B000A5DEFE019701A801DA9479F7DF90EF9059
:1058C000FF900F911F91CF91DF910895991B79E07F
:1058D00004C0991F961708F0961B881F7A95C9F780
:1058E00080950895AA1BBB1B51E107C0AA1FBB1FCF
:1058F000A617B70710F0A61BB70B881F991F5A955C
:10590000A9F780959095BC01CD01089597FB072ECE
:1059100016F4009406D077FD08D0E4DF07FC05D02C
:105920003EF4909581959F4F0895709561957F4FB6
:105930000895A1E21A2EAA1BBB1BFD010DC0AA1FD0
:10594000BB1FEE1FFF1FA217B307E407F50720F0E8
:10595000A21BB30BE40BF50B661F771F881F991F63
:105960001A9469F760957095809590959B01AC01AC
:10597000BD01CF010895052E97FB16F400940FD0BA
:1059800057FD05D0D6DF07FC02D046F408C050957D
:105990004095309521953F4F4F4F5F4F089590951B
:1059A0008095709561957F4F8F4F9F4F0895EE0FB3
:1059B000FF1F0590F491E02D0994689401C0E894CC
:1059C0008F929F92CF93DF9305D0DF91CF919F90DD
:1059D0008F90089588249924F401E401B0E49F9302
:1059E000AA279A158B049C04ED05FE05CF05D00768
:1059F000A10798F4AD2FDC2FCF2FFE2FE92D982C87
:105A0000892E982F872F762F652F542F432F322FD3
:105A10002227B85031F7BF9127C01B2EBF91BB275B
:105A2000220F331F441F551F661F771F881F991FA2
:105A3000881C991CEE1FFF1FCC1FDD1FAA1FBB1F58
:105A40008A149B04EC05FD05CE05DF05A007B10710
:105A500048F08A189B08EC09FD09CE09DF09A00B64
:105A6000B10B21601A94E1F62EF49401AF01BE014E
:105A7000CD01000C0895002E083090F0982F872F4C
:105A8000762F652F542F432F322F22270850F4CF23
:105A9000220F331F441F551F661F771F881F991F32
:105AA0000A95B2F7002D089597FD1094002E083046
:105AB00098F00850232F342F452F562F672F782F1B
:105AC000892F912DF4CF15949795879577956795A4
:105AD00057954795379527950A95AAF71124002DD4
