:10000000A6C00000D8C00000D6C000000C94AD12FD
:100010000C94AA120C94A712CEC000000C949B134F
:10002000CAC00000C8C00000C6C00000C4C00000B4
:10003000C2C00000C0C00000BEC000000C94761218
:10004000BAC00000B8C00000B6C00000B4C00000D4
:10005000B2C00000B0C00000AEC00000ACC00000E4
:100060000C94F712A8C00000A6C00000A4C00000B5
:10007000A2C00000A0C000009EC000001F1C1F1EE8
:100080001F1E1F1F1E1F1E706572696F646963004B
:100090006F6666004D4C44303300537072696E6B6E
:1000A0006C65005A32206D6F6465005A31206D6FA7
:1000B00064650025005A322068756D206D696E00F8
:1000C0006D696E005A32206475726174696F6E00DA
:1000D00068005A32207374617274005A3220736B54
:1000E0006970206461790025005A312068756D209F
:1000F0006D696E006D696E005A31206475726174AD
:10010000696F6E0068005A31207374617274005A0E
:100110003120736B697020646179005A32207661F6
:100120006C7665005A312076616C76650025005A40
:10013000322048756D69646974790025005A312050
:1001400048756D69646974790000AC135F1B1124F4
:100150001FBECFEFCDBFDFE3DEBF809140008093B5
:100160004000811105C098ED21E094BF209341002B
:100170008CBB18E3A0E0B8E3ECE3F3E402C0059025
:100180000D92A831B107D9F729E3A8E1B8E301C07E
:100190001D92AA3AB207E1F710E0C6EAD0E004C027
:1001A0002197FE010E943B1FC53AD107C9F70E9463
:1001B00058140C94F62024CF4F925F926F927F9246
:1001C0008F929F92AF92BF92FF9220918A39309185
:1001D0008B398217930708F043C02B0166247724DC
:1001E000852E962EA72EBB24B82DA42F20919139B1
:1001F000F42C222391F0E22FF0E0E49DD001E59D64
:10020000B00DF49DB00D1124FB2E289D400111244A
:10021000B92D249F90011124A32FE09197392091AB
:1002200092393091933950919439E51323C0FC01F0
:10023000EE0FFF1F8E0F9F1F820F931FE0919439C7
:10024000E80FF92FF11DF082E0919539E80FF92FB1
:10025000F11DB08320919639820F911DFC01A0837E
:10026000FF90BF90AF909F908F907F906F905F9026
:100270004F900895880F991F880F991F820F931F21
:10028000E80FF92FF11D1082D9CF9FB7F89488E0BD
:100290008093840A80918E0A81FFFCCF80918D0A21
:1002A000E091A20AF091A30A2091D0383091D13880
:1002B0004091D2385091D3389FBF80FF07C0E730BC
:1002C000F10520F42F5F3F4F4F4F5F4FAEEFB1E08E
:1002D0000E94501F6E0F7F1F811D911D660F771F9B
:1002E000881F991F08950F931F93CF93DF93CDB766
:1002F000DEB72797CDBFDEBF80918C3990918D39C5
:1003000089839A838091923990919339892B09F44A
:1003100093C080919039823108F08EC0B6DF009191
:1003200098391091993920919A3930919B39AB01C4
:10033000BC01401B510B620B730B80918E39909165
:100340008F39B0E0A0E0481759076A077B0730F300
:10035000F894A0919239B0919339FD0131968C9126
:100360008F831B82A0919C39B0919D399C91809183
:100370009E39982B9E839C91809589238D838D81B6
:100380008C838F8187FF02C08E818C835E816D811B
:100390004F813C812B8189819A815C93262F3C93EC
:1003A00000C046FD252F6C9300C05C93362F2C9324
:1003B00000C045FD352F6C9300C05C93262F3C9305
:1003C00000C044FD252F6C9300C05C93362F2C9306
:1003D00000C043FD352F6C9300C05C93262F3C93E7
:1003E00000C042FD252F6C9300C05C93362F2C93E8
:1003F00000C041FD352F6C9300C05C93262F3C93C9
:1004000000C040FD252F6C9301975C93362F2C93F1
:10041000419147FD352F6C9301F64F833C832B832D
:1004200089839A83789431DF6093983970939939EE
:1004300080939A3990939B392796CDBFDEBFDF9189
:10044000CF911F910F910895CF92DF92EF92FF927B
:10045000CF93DF936B017C0118DFEB0116DF6C1B80
:100460007D0B683E7340A0F0C114D104E104F10497
:1004700039F4DF91CF91FF90EF90DF90CF90089506
:1004800081E0C81AD108E108F108C851DC4FE6CF75
:10049000C114D104E104F10409F7EBCF90E0FC01B1
:1004A000E259FD4320812F3F69F1885D9C43FC01A7
:1004B0008081E82FE295EE0FE07EE20FF0E0E05F52
:1004C000FB4F9081917F908390E0FC0134E0EE0F30
:1004D000FF1F3A95E1F7422F50E061E070E001C064
:1004E000660F2A95EAF76383880F991FFC01E05095
:1004F000F84C440F551F0190F081E02DE40FF51FDB
:10050000108211820895DC011896ED91FC9184818E
:100510008860848308959C012B5C3F4FDC011F960B
:10052000EC911F971E968C91E81730F4E20FF32F91
:10053000F11D808190E008958FEF9FEF0895FC01F9
:10054000DC01D59697858685981740F4A90FB11DD3
:100550002C919F5F9787822F90E008958FEF9FEFF8
:100560000895FC0186859785891B990B0895FC01E8
:10057000A585A03258F4A80FB92FB11D55966C93DC
:1005800085858F5F858781E090E0089590E080E029
:100590000895BF92CF92DF92EF92FF920F931F9335
:1005A000CF93DF937C016A01B62EEB010C2F0B1960
:1005B00010E00C151D0528F46991C701D8DF892BBF
:1005C000A9F7C801DF91CF911F910F91FF90EF9094
:1005D000DF90CF90BF90089590E080E008959C0157
:1005E000A8E8B3E10E94411F2FEF33E040E050E064
:1005F0000E941F1FA4E6B0E00E94501F28E833E1CC
:1006000040E050E00E941F1FCA01B9010C94B31DC5
:100610000895FC014185528563857485818D90E044
:10062000B0E0A0E0481759076A077B0754F4440F6D
:10063000551F828D938D480F591FFA01808191813A
:1006400008958AE393EC08950F931F93CF93DF935C
:10065000CDB7DEB72897CDBFDEBFFC018AEB92ECA9
:10066000808391836283438354838DE090E085830C
:10067000968381E090E087839087138A148A818B28
:10068000928B258B368B078B108FDA01BC5E8C9199
:1006900090E0B0E0A0E081879287A387B487B0950F
:1006A000A095909581959F4FAF4FBF4F85879687B7
:1006B000A787B08B80E392EC808391839E012F5FAC
:1006C0003F4F80E0A42FA81BB0E0BC5E9C91D901F5
:1006D0009D939D018150883FA9F78D819E81092EB0
:1006E000000CAA0BBB0B81879287A387B4878981F3
:1006F0009A81818F928F8B819C81838F948F8F8140
:100700009885818B928B2CE030E02583368301978E
:1007100021F082E090E0878390872896CDBFDEBFEE
:10072000DF91CF911F910F910895462F50E070E017
:1007300060E0DC01ED91FC910084F185E02D0994ED
:10074000DC019296ED91FC919397309721F01996E8
:100750008D919C9109948AE393EC089520910C3932
:10076000A0910A39B0910B3990E0291739F0ED9139
:10077000FD913281831721F09F5FF7CFF0E0E0E039
:10078000CF0108950895CF92DF92EF92FF92CF9319
:10079000DF93EC016A017B0169897A89072E000CDD
:1007A000880B990B0E94B31DA70196010E94671E3A
:1007B0000E94801DAB01BC01E881F9810084F185B4
:1007C000E02DCE01DF91CF91FF90EF90DF90CF90A1
:1007D0000994462F50E070E060E0DC01ED91FC915F
:1007E0000084F185E02D0994FC01418752876387DD
:1007F000748708958AE393EC0895CF92DF92EF9285
:10080000FF92CF93DF93EC0169857A858B859C8578
:100810000E94B31D6B017C0169897A89072E000C47
:10082000880B990B0E94B31D9B01AC01C701B60157
:100830000E94181DDF91CF91FF90EF90DF90CF9035
:10084000089521E0FC0181859285A385B485892BDB
:100850008A2B8B2B09F420E0822F0895FC016185FF
:100860007285838594850895DC01FB012C9130E02D
:100870002053384F808190E08053984F28173907D4
:1008800058F12817390731F511969C9111978181FC
:10089000981710F198131EC012969C91129782819E
:1008A0009817D0F0981316C013969C9113978381D4
:1008B000981790F098130EC014969C911497848109
:1008C000981750F0981306C081E015962C919581E9
:1008D000291708F080E0089581E008958F929F9293
:1008E000AF92BF92CF92DF92EF92FF92CF93DF93BE
:1008F000EC016A017B0180E8C81A83E4D80A8DE61E
:10090000E80A88E3F80A8CE3882E912CA12CB12CFC
:10091000C701B601A50194010E94FD1E6D83CA01A5
:10092000B901A50194010E94FD1E6C83C701B601A7
:1009300020E13EE040E050E00E94FD1ECA01B90106
:1009400028E130E040E050E00E94FD1E6B83C701CB
:10095000B60120E831E541E050E00E94FD1E18821A
:1009600063E97EEF8881982F937041E050E011F0A9
:1009700050E040E0FA01E359FE4F2E173F0740F0E8
:10098000FB01E41BF50B2E0F3F1F8F5F8883EACF1F
:1009900081E0898389818C30A0F4482F4150550B28
:1009A000FA01E458FF4FE491911103C0823009F439
:1009B000EF5FF0E02E173F0720F02E1B3F0B8F5FFD
:1009C000E8CF2F5F2A83DF91CF91FF90EF90DF90E8
:1009D000CF90BF90AF909F908F9008950F931F93EB
:1009E000CF93DF93CDB7DEB72697CDBFDEBF8C01A7
:1009F00040E853E46DE678E3CE0101966FDF29818C
:100A000030E02053384FF80186A590E08053984F8E
:100A100028173907A1F49A8187A5981310C09B81E4
:100A200080A998130CC09C8181A9981308C09D814E
:100A300082A9981304C081E02E8193A9291380E034
:100A400091E089272696CDBFDEBFDF91CF911F9120
:100A50000F910895C3CFDC0150E0ECE7F0E081E0B6
:100A6000861730F49491490F511D8F5F3196F8CF5E
:100A7000633038F0CD0183709927892B11F44F5FD3
:100A80005F4F9D012D5F3F4F3695279536952795F2
:100A90006DE671E0A69FC001A79F900DB69F900DD7
:100AA00011240197820F931F840F951F0895EF92D1
:100AB000FF920F931F93CF93DF93EC0188814A81BC
:100AC000698190E0C8DF9C01A8E1B0E00E94411F6D
:100AD0002B817B018C01E20EF11C011D111DA8016F
:100AE0009701ACE3B0E00E94501F2C817B018C0188
:100AF000E20EF11C011D111DA80197010E94501F5B
:100B0000AB01BC019D81892F90E0B0E0A0E080584E
:100B10009C4BA249B74C8A019B01080F191F2A1F41
:100B20003B1FC901B801DF91CF911F910F91FF9039
:100B3000EF9008958F929F92AF92BF92CF92DF92E3
:100B4000EF92FF920F931F93CF93DF93CDB7DEB752
:100B50002C97CDBFDEBF8C01DC0119968D919C9145
:100B6000892B89F5C8013ADF882309F4D9C0F80137
:100B7000848D958DDC01ED91FC910284F385E02D4F
:100B800060E0099540E853E46DE678E3CE01019614
:100B9000A5DE86E0FE013196D8019E9601900D9269
:100BA0008A95E1F740E853E46DE678E3CE010196DB
:100BB00095DE86E0FE013196D801D49601900D9223
:100BC0008A95E1F7ADC0C80109DFE82E882309F452
:100BD000B7C060EA79E3C801C49646DEF82EF80192
:100BE00084A195A1009799F0DC01ED91FC91028020
:100BF000F381E02D0995F80192A5891741F0FF24B2
:100C0000F39483A594A5019709F0F12CE12CD80168
:100C100096968D919C919797892B09F443C09A964B
:100C20002C919A9798968D919C91DC01ED91FC9175
:100C30000480F581E02D2223F9F009954B015C0138
:100C4000F80186A197A1DC01ED91FC910480F5816A
:100C5000E02D09959B01AC01C501B4010E94141D52
:100C600087FF20C0FF24F394F80183A594A5019782
:100C700009F0F12CE12C16C009954B015C01D8015B
:100C800096968D919C91DC01ED91FC910480F5810B
:100C9000E02D09959B01AC01C501B4010E94631EC2
:100CA000181604F3FF2089F18091A0394091A239F0
:100CB0006091A13990E0CFDE069667E070E00E9477
:100CC000D61ED8019D968C9340E853E46DE678E3F8
:100CD000CE01019603DE86E0FE013196D8019E9694
:100CE00001900D928A95E1F740E853E46DE678E3D0
:100CF000CE010196F3DD86E0FE013196D801D4964F
:100D000001900D928A95E1F7E12CF801848D958D83
:100D1000DC01ED91FC910284F385E02D6E2D0995A7
:100D20002C96CDBFDEBFDF91CF911F910F91FF9029
:100D3000EF90DF90CF90BF90AF909F908F900895ED
:100D4000F80181859285019759F7868D978DF12C51
:100D5000009741F0DC01ED91FC910190F081E02DD4
:100D60000995F62EF80185A5833609F07CC0D801D7
:100D700090968D919C91DC01ED91FC910190F08118
:100D8000E02D09958091A2399091A1392091A03947
:100D90002F83988789876A871B861C86F80182A122
:100DA00093A1009709F07FC0C2ACD3AC0D2C000C0E
:100DB000EE08FF08CE0107967ADE4B015C01ACE33A
:100DC000B0E0A70196010E94501FAB01BC01480D85
:100DD000591D6A1D7B1DCE01019680DDCD28CE28D0
:100DE000CF2809F49DCFBE01695F7F4F80EA99E368
:100DF0003BDD811195CFBE016F5F7F4F80EA99E3A4
:100E000033DD882309F48CCFF80180A191A1DC01A6
:100E1000ED91FC910190F081E02D09958091A2392E
:100E20009091A1392091A039F80126A797A780AB0E
:100E300061AB12AA13AA82A193A1009709F03DC049
:100E4000E2ACF3ACC8018E9632DE4B015C01970137
:100E5000ACE3B0E00E94411FAB01BC01480D591D3D
:100E60006A1D7B1DA3CE8091A0394091A23960916B
:100E7000A13990E0F0DD069627E030E0B9010E944C
:100E8000D61EFC01D8019D964C918F2D90E0840FC9
:100E9000911D47FD9A95B9010E94EA1EE817F907CE
:100EA00009F065CF3DCFDC01ED91FC910190F0811F
:100EB000E02D09956B017C017DCFDC01ED91FC916A
:100EC0000190F081E02D09957B01BCCFFC01A08150
:100ED000B0E0BC5EE0E0F0E10FB622812370E9F7FC
:100EE000F8946C936DE964BF63E060830FBE08956E
:100EF0000F931F93CF93DF931F92CDB7DEB78B0174
:100F00008983FB016081E82FF0E0FC5E8081681737
:100F100019F0CE010196DADFC8010F90DF91CF9171
:100F20001F910F910895CF92DF92EF92FF920F934E
:100F30001F93CF93DF931F92CDB7DEB7182FD62E16
:100F4000072FE62EF72E88E0C82EC10E1983F70171
:100F500061917F01E12FF0E0FC5E8081681719F05C
:100F6000CE010196B3DF1F5F1C11F0CF8D2D902FA6
:100F70000F90DF91CF911F910F91FF90EF90DF9035
:100F8000CF900895CF92DF92EF92FF920F931F932D
:100F9000CF93DF93CDB7DEB72897CDBFDEBF8C01EF
:100FA0006A017B01DC0151966D917C91072E000C4A
:100FB000880B990B0E94B31DA70196010E94671E22
:100FC0000E94801DAB01BC01D801ED91FC91008411
:100FD000F185E02DC8010995F801818D928D8983F5
:100FE0009A83838D948D8B839C83818592858D8359
:100FF0009E83818992898F839887BE016F5F7F4F1F
:10100000838191DF2896CDBFDEBFDF91CF911F9105
:101010000F91FF90EF90DF90CF9008950F931F9363
:10102000CF93DF93CDB7DEB7AD97CDBFDEBF909145
:101030003C388091B538981709F458C0E0913C3895
:1010400088E18E9FF0011124E35CF74CDE011196DC
:1010500001900D928A95E1F780913C388F5F8093E3
:101060003C3880913C38853010F010923C389D819E
:101070008091F23898133AC08C818F3F21F0909183
:10108000F43889133EC09E819C3FD9F5F885898547
:1010900021E030E0882339F0282F30E02D30310571
:1010A00014F02CE030E04A85442341F150E0403216
:1010B000510514F04FE150E08B8568E10E94CA1E93
:1010C000E92F8C853CE3632F0E94CA1E592F8D8522
:1010D0000E94CA1EF093A0392093A1394093A239EF
:1010E000E093A3395093A4399093A539AD96CDBF21
:1010F000DEBFDF91CF911F910F91089541E050E045
:10110000DBCF9091F4388913F1CF8E819091F33831
:10111000992309F490C08E3F09F08DC08F818770AC
:10112000863059F488858111E1CF89858093F43820
:1011300064EF78E380E0DCDED9CF8730B9F6109237
:10114000F338D4CF863009F47AC00091EC3810918E
:10115000ED38873051F10091E6381091E7388A3048
:1011600021F10091EA381091EB388830F1F00091CC
:10117000E8381091E9388930C1F00091E4381091D5
:10118000E5388B3091F00091DE381091DF388E30E9
:1011900061F00091E2381091E3388C3031F08D30FD
:1011A000E9F40091E0381091E1382C853D8550E05C
:1011B00040E0688579858A859B850E941F1FCA014A
:1011C000B9010E94B31DAB01BC01D801ED91FC91A6
:1011D0000484F585E02DC801099588CF8F30C9F4C6
:1011E00040E150E0BE01685F7F4FCE0149960E940A
:1011F000B62019A68091DC389091DD38DC01ED91A4
:10120000FC910684F785E02DBE01675E7F4F09954E
:101210006DCF803109F06ACF40E150E0BE01685FD8
:101220007F4FCE0149960E94B62019A68091DA38E8
:101230009091DB38E3CF853009F084CF85E08EDAFA
:10124000009709F453CFDC01ED91FC910284F38502
:10125000E02D688509954ACF282F30E08231A8F427
:10126000F901EA5EFC4380818F3F79F0285D3C43C1
:10127000D901EC91B0E2EB9FF0011124FC5F908565
:10128000982381E019F480E008958FEF0895FC0120
:10129000818DE2DF91E0811101C090E0892F0895F6
:1012A000FC01818DD9DF682F880F770B880B990B94
:1012B0000895CF93DF93823108F047C090E0EC01AE
:1012C000CA5EDC4328812F3F09F43FC0AC01485D72
:1012D0005C43DA01EC91B0E2EB9FF0011124FC5F7A
:1012E000611136C0268330812323A1F49C01225949
:1012F0003D43D9012C91309769F1283058F570960B
:10130000E20FF11D3FB7F8942081611126C0277FBD
:1013100020833FBF845A9D43FC0190819923A9F00B
:101320008881903409F19038E1F0903171F4DA015C
:101330009C919130A1F4853010F0880F82959091A6
:10134000010A809589238093010ADF91CF91089546
:101350002583C9CFF0E0E0E0D5CF2860D9CF880F52
:10136000EECF1092A006F1CF20E4823009F420E8FD
:101370009091920A922349F36FB7F8949091800A62
:101380009E7F9093800A4091920A30E0209530959C
:1013900050E02423352398ED94BF2093920A909136
:1013A0008E0A90FFFCCF9091800A91609093800A02
:1013B000813039F4809150048F77809350046FBF4F
:1013C000C4CF809151048F7780935104F8CF0F934D
:1013D0001F93CF93DF93EC01062F142F60E08985D4
:1013E00068DFEB85FC859F8188852085222319F0A5
:1013F0002FB72187F89421E02287909320088093CB
:1014000021080000009324088091230887FFFCCF67
:10141000809124080000109324088091230887FFFE
:10142000FCCF10912408EB85FC858285882331F060
:1014300012868085882311F081858FBF61E08985C0
:1014400038DF812FDF91CF911F910F91089540E8F0
:1014500061E8BDCF41E861E8BACF40E0B8CFCF92B4
:10146000DF92EF92FF92CF93DF936DE187E799E3ED
:10147000F4DF90E034E0959587953A95E1F78A306E
:1014800091050CF03FC0FC01EE0FFF1FE80FF91FA4
:10149000E856FD43C080D180E2800E2C000CFF088E
:1014A0006EE187E799E3D9DFD82F66E287E799E312
:1014B000D4DFC82FD295DF7021E030E040E050E06B
:1014C00004C0220F331F441F551FDA95D2F7C701FE
:1014D000B6010E941F1F68EE73E080E090E00E945A
:1014E0001F1F21313105410551058CF04C2F4860FB
:1014F00066EA87E799E3DF91CF91FF90EF90DF9065
:10150000CF9065CFCC24CA94DC2C7601C9CF4C2F68
:10151000477FEECFCF93DF93EC0161E09EDF8370D6
:10152000833059F062E1CE0198DF83FF04C048E0C8
:1015300062E9CE014CDF80E001C081E0DF91CF9114
:101540000895CF92DF92EF92FF920F931F93CF9364
:10155000DF938C016AE181DFC82FD0E0F801668556
:101560007785808991890E94B31D2AEE36E54AEF7E
:101570005DE40E94141D87FD44C08DE990E0C81B06
:10158000D90B69E1C80169DF87FD8D5F8595859578
:10159000682F880F770B880B990B0E94B31D6B0186
:1015A0007C0120E030E0A9010E94141D87FF0DC0DE
:1015B000BE01DD0F880B990B0E94B31DA701960198
:1015C0000E94B01C0E94801DEB019E01DD0F440BA8
:1015D000550B20583F4F4F4F5F4FA4E6B0E00E949D
:1015E000501F26E730E040E050E00E941F1FC90175
:1015F000DF91CF911F910F91FF90EF90DF90CF90EF
:10160000089584EA90E0BBCF1F93CF93DF93182F08
:10161000F8948091B538C8E18C9FC0011124412F06
:1016200050E0805C974C0E94A420E091B538CE9F9A
:10163000F0011124E35CF74CD1E0D08387E799E314
:1016400080DFE091B538CE9FF0011124E35CF74CC8
:1016500081839283153141F4E091B538CE9FF0013A
:101660001124E35CF74CD0838091B5388F5F809371
:10167000B5388091B538853010F01092B53890911A
:10168000B53880913C3898130BC080913C388F5FFF
:1016900080933C3880913C38853010F010923C3873
:1016A0007894DF91CF911F910895CF92DF92EF92BE
:1016B000FF920F931F93CF93DF937C01C62EC72F0A
:1016C000D42E63E1CADED82F0C2D1C2FC0E0CD171D
:1016D00051F0CD1541F060E0C701BFDECF5FF801EA
:1016E00081938F01F4CF8C2F90E0DF91CF911F91E8
:1016F0000F91FF90EF90DF90CF9008951F93CF93BD
:10170000DF93EC01009759F1469710F0C5E1D0E066
:101710001C2F4C2F66EB78E387E799E3C6DF30E0B8
:101720002AE52197832F90E08C179D073CF48A547B
:10173000974CFC018081280F3F5FF4CF8091CA381D
:1017400028130DC0E091CE38F091CF38309739F0A2
:1017500066EB78E3812FDF91CF911F910994DF91A0
:10176000CF911F9108950F931F93CF93DF93EC01B7
:1017700062E173DE182F482F62E9CE0128DE15FDE5
:1017800023C016FF16C063E1CE0167DE082F10E00C
:1017900060E1CE0162DE482F6DE8CE0118DEEA81FD
:1017A000FB81309789F0C801DF91CF911F910F9194
:1017B000099413FF09C0EC81FD81309729F0DF9176
:1017C000CF911F910F910994DF91CF911F910F91AC
:1017D000089587E799E3C7CFCF93DF93EC0140E00B
:1017E00060ECF5DD45E861E8CE01F1DD81E090E0F7
:1017F000DF91CF91089581E08093143987E799E3D1
:10180000EBDFE091CC38F091CD38309709F00994B6
:101810000895AF92BF92DF92EF92FF920F931F93C2
:10182000CF93DF93EC015B01D42EE881F981008C2A
:10183000F18DE02D099581110FC0E881F9810084B7
:10184000F185E02DCE01099540E06DE8CE01BFDDC8
:1018500040E062EACE01BBDD8501ED2CF12CC80130
:101860008A199B098E159F0538F4F80141918F0163
:1018700060E8CE01ACDDF3CF4D2D62EACE01A7DDED
:101880008C819D81892B21F040E460ECCE019FDDAD
:1018900043E861E8CE019BDDC701DF91CF911F9145
:1018A0000F91FF90EF90DF90BF90AF900895FC01F3
:1018B0008AE5848BDF019F012C5E3F4F9D918489D7
:1018C000890F848BA217B307C9F71092143945E129
:1018D000BF0187E799E39DDF80919F39882359F005
:1018E00080911439811107C062E070E080E090E0DF
:1018F0000E942402F1CF0895DC01E5EFF8E3809126
:10190000F23880838091F438818312968C911297FB
:10191000828315969C911597990F990F990F179699
:101920008C91890F8383CF01C2CFCF93DF93CDB743
:10193000DEB76597CDBFDEBF89836A838EEF8B8369
:1019400028502C8380E1FA01DE01159601900D925A
:101950008A95E1F7CE010196AADF6596CDBFDEBF7D
:10196000DF91CF910895CF92DF92EF92FF920F9384
:101970001F93CF93DF93CDB7DEB76097CDBFDEBFA8
:10198000DC0115962D913C9116972730310509F011
:1019900045C05A962D913C91232B09F43FC08C01F0
:1019A000F12C6E01B3E0CB0ED11C3EE0E32EF8012A
:1019B000818DF81698F5D601EE2D1D92EA95E9F77E
:1019C000D80112968C9112978983FA828F2D90E01C
:1019D000880F991F5A96ED91FC91E80FF91F6081CD
:1019E0007181FB0101900020E9F73197AF01461B9F
:1019F000570B55274F30510510F04EE050E0C6010F
:101A00000E94B62022E030E0AE014F5F5F4F609150
:101A1000F4388091F23889DFF394C9CF6096CDBF56
:101A2000DEBFDF91CF911F910F91FF90EF90DF907C
:101A3000CF900895CF93DF93CDB7DEB76097CDBF3A
:101A4000DEBFDC0115962D913C912C30310589F5D6
:101A5000FC019E01235F3F4F84E0D9011D928A95CE
:101A6000E9F782818983818992898A879B87818D21
:101A7000928D092E000CAA0BBB0B8A839B83AC832F
:101A8000BD83838D948D092E000CAA0BBB0B8E8316
:101A90009F83A887B98781E090E08C879D8723E0AA
:101AA00030E0AE014F5F5F4F6091F4388091F238C3
:101AB0003CDF6096CDBFDEBFDF91CF9108950F93DD
:101AC0001F93CF93DF938C01EB0162317105C4F05A
:101AD0006531710514F0C4E1D0E0239747E86DEC5F
:101AE000C80175DC41E36BE8C80171DC4C2F425042
:101AF000406869E8C801DF91CF911F910F9167CCD1
:101B00006230710514F4C2E0D0E044E86DECC80125
:101B10005EDC4BE2E8CFCF92DF92EF92FF92CF9361
:101B2000DF93FC01C184D284E384F484C416D50617
:101B3000E606F70689F021E01416150616061706C4
:101B40000CF020E06A017B01EC01622F898DB1DB92
:101B5000C986DA86EB86FC86DF91CF91FF90EF9005
:101B6000DF90CF9008958231E0F490E0FC01EA5ECE
:101B7000FC4320812F3FA9F0FC01E85DFC43E0819C
:101B800030E2E39FF0011124FC5F662359F02183CA
:101B900082599D43DC018C91E80FF11D8089877F7C
:101BA000808B08952283F4CFCF93DF93EC0160E024
:101BB0008E81D9DF8E81823188F590E0FC01E25977
:101BC000FD43E081EF3F51F1885D9C43DC018C9146
:101BD00090E0DC01AA0FBB1FA050B84C2D913C91A6
:101BE00021153105D9F04E2F50E0440F551F240F19
:101BF000351F49EE5BE0D9014D935C932FB7F89404
:101C0000E05F75E0880F991F7A95E1F7E80FF0E043
:101C1000FC5F8081887F826080832FBFDF91CF91BE
:101C20000895FC0164837583672B09F0BDCF86811D
:101C3000823110F40C944E020895FC016283738388
:101C4000672B09F0B1CF8681823110F40C944E02DB
:101C50000895CF93DF93EC01EB85FC8580912008FC
:101C60008E7F80932008178260E080E17CDF60E057
:101C70008FE079DF60E08EE076DF60E0898573DFFA
:101C80008D858F3F21F060E0DF91CF916CCFDF91A8
:101C9000CF9108958F929F92AF92BF92CF92DF9291
:101CA000EF92FF920F931F93CF93DF93EC016A01A2
:101CB0007B0161E0898557DF61E08985FADA8D85EE
:101CC0008F3FA1F061E04FDF60E08D85F2DA6AE0DE
:101CD00070E080E090E00E94240261E08D85E9DA06
:101CE0006AE070E080E090E00E942402EB85FC85D1
:101CF0008781811106C01086128680E8818781E085
:101D00008783809101028B7F9681892B80930102CA
:101D10008681811191C061E08EE025DF61E080E184
:101D200022DF80912108846080932108809120081F
:101D300081628093200890917539809176399093D3
:101D400020088093210862E4CE0187DB823109F00C
:101D50007CC0E881F9810680F781E02DCE010995EC
:101D6000CE86DF86E88AF98A46015701BB0C8808CF
:101D7000982C54019601A701682D782D882D982D57
:101D800003E10E94B81FA12CE8E4BE2EF8EECF2E8E
:101D9000DD24D394E12CF12C00E010E00E945C1FC4
:101DA000F22E832E942EA52EB62EC72ED82EE92ED7
:101DB00000E10E94D31F422F66E8CE0108DB2F2DE1
:101DC000382D492D5A2D6B2D7C2D8D2D9E2D08E003
:101DD0000E94D31F422F67E8CE01F9DA4F2D68E841
:101DE000CE01F5DA40E06EE8CE01F1DA40E06FE8CE
:101DF000CE01EDDA6CE0CE0130DB482F43606CE8B9
:101E0000CE01E5DA44E066EACE01E1DAE881F98163
:101E10000084F185E02DCE01099581E090E0DF910D
:101E2000CF911F910F91FF90EF90DF90CF90BF90D7
:101E3000AF909F908F900895843009F072CF61E049
:101E40008CE091DE61E08AE06BCF90E080E0E7CF4C
:101E500087FD03C08630C0F48C5F982F9F77903247
:101E600038F590910006992331F18F718093060621
:101E700081E08093080680910B0680FFFCCF809163
:101E80001006909111060895813161F092EF980F3C
:101E9000933010F48D50E1CF883031F0893031F03B
:101EA0008FEFDBCF80E0D9CF8AE0D7CF8BE0D5CFE3
:101EB0008FEF92E8089589EF92E80895EF92FF92EC
:101EC0000F931F93CF93DF93EC01862F4A834FEF3D
:101ED0005FEF4B835C8341E050E04F83588762E0C3
:101EE00070E06B8B7C8B498B5A8B2D8B3E8B0F8BD1
:101EF000188F01EC1DEB20EF3FEF09871A872B8726
:101F00003C870FE312E42FE030E00D871E872F8718
:101F1000388B22ED32EC28833983898F18A219A2DD
:101F20001AA21BA21E8E1F8E1C8E1D8E1A8E1B8E39
:101F30004D835E8360E017DE898D8ADF7C0188E156
:101F400090E00E946B1B8C018FE892ECA5EFBCE344
:101F5000F80180839183A283B38314821582168251
:101F6000178280E090E0A0E8BFE380879187A28796
:101F7000B38780E090E0A0E0B0E484879587A687EF
:101F8000B787108A118A128A138AB701FF0C880B4F
:101F9000990B0E94B31DF801648B758B868B978B10
:101FA0000CA31DA3DF91CF911F910F91FF90EF9094
:101FB00008954F925F926F927F928F929F92AF920D
:101FC000BF92CF92DF92EF92FF920F931F93CF9326
:101FD000DF93CDB7DEB72697CDBFDEBF8D839E835F
:101FE000DC0159968C91C12CD12C76018F3F09F4DC
:101FF00094C01AE0C12CD12C7601ED81FE81818D37
:1020000027DF092E000CAA0BBB0BC80ED91EEA1E37
:10201000FB1E115091F7AD81BE8194960D911C91DC
:10202000D8011C968D919D910D90BC91A02D898316
:102030009A83AB83BC83F801208531854285538523
:10204000BC01CD010E94B01C9B01AC0169817A8169
:102050008B819C810E94181D4B015C01D801149654
:102060008D929D92AD92BC92179754964D905D9033
:102070006D907C905797C701B6012AE030E040E0B0
:1020800050E00E94FD1ECA01B9010E94B11DA301CA
:1020900092010E94AF1CA50194010E94671EA3013A
:1020A00092010E94B01C6B017C01F801C08AD18AA8
:1020B000E28AF38AAC019B01C301B2010E94AF1C0A
:1020C0009F77D8012D913D914D915C910E94671EA3
:1020D0002B013C01A501940160E070E080E89FE3E2
:1020E0000E94AF1C29813A814B815C810E94671E4E
:1020F0009B01AC01C301B2010E94B01CF8016487CE
:10210000758786879787C48AD58AE68AF78AC70142
:10211000B6010E94851D6B017C01AD81BE81909648
:10212000ED91FC9191970D911C91309761F1D8013F
:102130001C960D911C91AD81BE815E962D913C91B6
:102140005F975C964D915C915D975A966D917C91ED
:10215000C6010995AB01BC018D819E81F8012696CF
:10216000CDBFDEBFDF91CF911F910F91FF90EF9018
:10217000DF90CF90BF90AF909F908F907F906F90A7
:102180005F904F900994A8E8B3E1A70196010E94DF
:10219000501F2FEF33E040E050E00E94FD1EBA01D7
:1021A000A901D8011896ED91FC918D819E8126960A
:1021B000CDBFDEBFDF91CF911F910F91FF90EF90C8
:1021C000DF90CF90BF90AF909F908F907F906F9057
:1021D0005F904F900994CF92DF92EF92FF920F930E
:1021E0001F93CF93DF93EC016B01698D70E06F5FFC
:1021F0007F4F660F771F8A8D9B8D0E94EE1F7C019B
:102200008A8F9B8F892BF1F0C6010E94971C098D44
:1022100010E0000F111F0E0D1F1D01960E946B1B79
:10222000F80180839183898D90E0880F991FE80ED3
:10223000F91EB601F701808191810E94901C898D61
:102240008F5F898FDF91CF911F910F91FF90EF905A
:10225000DF90CF9008952F923F924F925F926F92AE
:102260007F928F929F92AF92BF92CF92DF92EF9226
:10227000FF920F931F93CF93DF93CDB7DEB72897CD
:10228000CDBFDEBF4C012F8338878AEB92ECF4017F
:10229000808391836283438354838DE090E08583C0
:1022A000968381E090E087839087138A148A818BDC
:1022B000928BA58AB68A178A108E5C5EFA0180819D
:1022C00090E0B0E0A0E0F40181879287A387B48713
:1022D000B095A095909581959F4FAF4FBF4F858743
:1022E0009687A787B08B87E0482E512C458256826F
:1022F00093E0292E312C2782308688E492EC80836B
:1023000091835401FEE2AF0EB11C40E853E46DE648
:1023100078E3C5010E946E04340184E3680E711CE9
:1023200040E853E46DE678E3C3010E946E048F81B8
:102330009885F401848F958F068F178FE0A2F1A204
:10234000C2A2D3A214A215A216A217A210A611A669
:1023500012A613A614A612AE13AE83E685A740E814
:1023600053E46DE678E3CE0101960E946E0486E0A8
:10237000FE013196D50101900D928A95E1F740E872
:1023800053E46DE678E3CE0101960E946E0486E088
:10239000FE013196D30101900D928A95E1F760E933
:1023A00070E0C40118DF67E870E0C40114DFF401D5
:1023B00045825682278230862896CDBFDEBFDF91C8
:1023C000CF911F910F91FF90EF90DF90CF90BF9032
:1023D000AF909F908F907F906F905F904F903F90C5
:1023E0002F900895EF92FF920F931F93CF937C014C
:1023F000C0910C390C2F10E0B8016F5F7F4F660F52
:10240000771F80910A3990910B390E94EE1F8093BB
:102410000A3990930B390097D9F0000F111FFC0176
:10242000E00FF11FE082F182CF5FC0930C392C2FB7
:1024300030E021503048220F331F820F931FFC01E0
:1024400080819181CF911F910F91FF90EF9008951E
:1024500090E080E0F7CFAF92BF92CF92DF92EF9201
:10246000FF920F931F93CF93DF931F92CDB7DEB7E9
:102470008C015B01DC015996EC90D12CC12CFC2C19
:10248000CE1458F5C601880F991FD8015A96ED91C0
:10249000FC91E80FF91F60817181C5010E94AD2098
:1024A000BFEFCB1ADB0A892B51F74F2D50E070E0BC
:1024B00060E0D801ED91FC910084F185E02DC80128
:1024C00009950F90DF91CF911F910F91FF90EF90A1
:1024D000DF90CF90BF90AF900895F8016185838120
:1024E0008983CE0101960E946607EBCF8F9381E02E
:1024F00080938D0A8FB78F93EF93FF93E0EDF8E30E
:102500009F9368948FEF0FC0E894848195818C5ECF
:102510009F4F84839583885E934010F08FEF03C0B4
:10252000848395838EEF9081981B919390819F4F28
:10253000919390819F4F919390819F4F919326F318
:102540009F91FF91EF918F918FBF8F9118950F936E
:1025500004E006C00F9302E003C00F9300E000C048
:102560000F920FB60F921F921124FF921F932F9379
:102570003F934F935F936F937F938F939F93AF930B
:10258000BF93CF93DF93EF93FF93A0E0B8E3A00F47
:10259000B11DCD91DC91000F0D5FA02FB0E0FC903C
:1025A000109761F01F2D169518F041F02296FBCF81
:1025B000E991F9913097B9F30995F5CFA02FB0E0E3
:1025C000FC92FF91EF91DF91CF91BF91AF919F91DD
:1025D0008F917F916F915F914F913F912F911F91BB
:1025E000FF901F900F900FBE0F900F9118951F92A4
:1025F0000F920FB60F9211241F932F933F934F9377
:102600005F936F937F938F939F93AF93BF93CF937A
:10261000DF93EF93FF93CDE1D9E3E881F9818385DF
:1026200086FF56C080FF41C0158581FF38C08E816E
:10263000882359F08091CB3880935000EB85FC853E
:10264000309719F08E8190E009951C831D821886C1
:10265000E985FA85309709F009958D81882319F16C
:1026600083E0909150009093CB38917090935000FC
:10267000E881F9818287FF91EF91DF91CF91BF913E
:10268000AF919F918F917F916F915F914F913F910A
:102690002F911F910F900FBE0F901F9018951C83C4
:1026A0001E821F82DDCF86E0DCCF8091CB38809305
:1026B0005000EB85FC85309729F08E81882311F03E
:1026C00090E009951E821D821F82188682E0D0CF7D
:1026D00087FF2FC081FF1EC0887139F08A8183FF78
:1026E00004C01D82877F8A83F1CF8B818F5F8B83AC
:1026F0008A8188608A83A8858D81A81738F7AC0FF6
:10270000BD2FB11D1D968C91858788858F5F888729
:1027100083E0AECF8585EE81E03258F4EC0FFD2FDB
:10272000F11D85A78E818F5F8E83803288F386E0CE
:102730009FCF80E09DCF1F920F920FB60F92112472
:102740008F9381E080931339809353018F910F9081
:102750000FBE0F901F901895CF93109217391092BB
:10276000183988EE93E0A0E0B0E080931939909397
:102770001A39A0931B39B0931C398AEE92EC8093DE
:1027800015399093163980E198E080931D39909324
:102790001E3984E08093763991E39093753920E275
:1027A00038E020936A3930936B39109271392CEFED
:1027B00032EC209377393093783990937E39809337
:1027C0007F39109280391092813983E08093843967
:1027D000C2E0C0937D398AE699E380938239909371
:1027E0008339109285391092863910928739109268
:1027F000883940E853E46DE678E380EA99E30E9483
:102800006E0410929F391092893982E390E0809390
:102810008E3990938F391092913910929839109285
:10282000993910929A3910929B3981E080939739A7
:102830008093943910929539C093963989E090E04D
:1028400080938C3990938D3946D7809392399093A9
:102850009339009721F129E0FC0111922A95E9F7BB
:1028600083E090E080938A3990938B398CE0809359
:10287000903980918939882339F061E08CE073D9EF
:1028800060E08CE00E94590984E494E080939C39D4
:1028900090939D3984E080939E39CF910895109252
:1028A0008C3910928D3910928A3910928B39DECF83
:1028B000CF93DF93CDB7DEB7E597CDBFDEBF11E095
:1028C00088ED84BF10936100E0E0F6E082E582834A
:1028D0008AE0858380E28383108310920202109342
:1028E000030A8EEF8093260A8093270A8BE0809359
:1028F000000AE0E8FAE08DEF91E086A797A7118241
:1029000080E88283148781E18083789461E08091FC
:10291000903929D960E0809190390E94590910932B
:102920008939609191396B3031F120919239309130
:1029300093396150D1F070E08FEF9AE00E94D61E7B
:10294000F90140918C3950918D39CF01821B930B45
:102950008417950768F4DF014D91469FC001479F9A
:10296000900D11249083FD01ECCF70E060E0E8CF82
:102970008BE08093913940E050E06FEF70E090E0A1
:1029800080E00E94DC000E9473018091001480931B
:10299000F43860E083E0E7D811E083E059DA843668
:1029A00091050CF04CC04FEF50E060E070E090E01B
:1029B00080E00E94DC000E9473012FB7F8948091A0
:1029C000D4389091D538A091D638B091D7382FBF50
:1029D00081319742A105B10540F164E670E080E0E5
:1029E00090E00E94240240E050E0BA0190E080E0D4
:1029F0000E94DC000E9473012FB7F8948091D438B4
:102A00009091D538A091D638B091D7382FBF813169
:102A10009742A105B10570F064E670E080E090E0B7
:102A20000E9424021093F338B8CF6CE271E080E08A
:102A300090E0D7CF6CE271E080E090E0F1CF2FB76B
:102A4000F8948091D4389091D538A091D638B0912F
:102A5000D7382FBF81319742A105B10518F08FEF0C
:102A60008093F4384FEF50E060E070E090E080E059
:102A70000E94DC000E9473018091F4388F3F09F0BE
:102A800098C086E18093F4381092F23864EF78E3CE
:102A900080E00E94780762EF78E381E00E94780787
:102AA00088E0E4E0F2ECDE01119601900D928A9547
:102AB000E1F7BE016F5F7F4F82E00E94930788E0DD
:102AC000ECE0F2ECDE01119601900D928A95E1F7AF
:102AD000BE016F5F7F4F8AE00E94930788E0E4E1C8
:102AE000F2ECDE01119601900D928A95E1F7BE019C
:102AF0006F5F7F4F82E10E94930788E0ECE1F2EC88
:102B0000DE01119601900D928A95E1F7BE016F5F8B
:102B10007F4F8AE10E94930788E0E4E0F2ECDE0157
:102B2000119601900D928A95E1F7BE016F5F7F4F7C
:102B300082E20E94930788E0ECE0F2ECDE0111965D
:102B400001900D928A95E1F7BE016F5F7F4F8AE297
:102B50000E94930788E0E4E2F2ECDE011196019016
:102B60000D928A95E1F7BE016F5F7F4F82E30E946D
:102B7000930788E0ECE1F2ECDE01119601900D92F2
:102B80008A95E1F7BE016F5F7F4F8AE30E9493074A
:102B900082E48E8B60E0CE0146960E94660783E455
:102BA0008E8B60E0CE0146960E94660781E080939E
:102BB000F338809101148093F23884E09BE0809395
:102BC000CE389093CF381092CC381092CD3840E464
:102BD0005EE06FEC79E187E799E35CD8892B29F512
:102BE0001092113913E040E050E06FEF70E081E0A7
:102BF00090E00E94DC000E94730164E670E080E0D7
:102C000090E00E94240240E050E0BA0181E090E0B0
:102C10000E94DC000E94730164E670E080E090E0B6
:102C20000E9424021150F9F66AC08EE79BE080935F
:102C3000793990937A3987E799E30E94D40D8BEF25
:102C40009BE080937B3990937C3987E799E30E94DE
:102C5000D40D63E170E087E799E30E945F0D43ECD8
:102C600061EB87E799E30E94E7094AE067EB87E7B2
:102C700099E30E94E7096EE187E799E30E942D0A34
:102C80008F70482F40696EE987E799E30E94E70952
:102C90000E942F0A6DE187E799E30E942D0A8F7049
:102CA000482F40676DE987E799E30E94E7090E9492
:102CB0002F0A6DE187E799E30E942D0A817F482F53
:102CC00042606DE987E799E30E94E70987E799E3A6
:102CD0000E94EC0B81E08093113980939F3940E092
:102CE0005FEF60E070E090E080E00E94DC000E9416
:102CF000730164E670E080E090E00E94240280911D
:102D00001F3981FD26C082FD24C08091010284FF0D
:102D1000FBC286E08093060480911F398260809315
:102D20001F39E0911D39F0911E3981E0838385833D
:102D300090911F3991FF0DC09681913251F02381FE
:102D4000138291E2968390819D7F9083238320FD5F
:102D5000858386E290E0BFD47C010BE311E02DE394
:102D600031E041E062E0AAD8C7013CDBFC0180937E
:102D70000F39909310392FEEE22E22E0F22EE0A2CE
:102D8000F1A2128E138E148E158E168E178E86E279
:102D900090E0A1D46C010DE211E02FE231E042E0BD
:102DA00063E08CD8C6011EDBFC0180930D39909343
:102DB0000E39E0A2F1A2128E138E148E158E168E8D
:102DC000178E8AE190E087D48C0185E0D8011296B5
:102DD0008C931297CC24CA94DC2C1396CD92DC925F
:102DE00014974DE0242E312C15962D923C92169777
:102DF000EE24E394F12C1796ED92FC9218975396DB
:102E00001D921C9254975196ED92FC92529784E237
:102E100091E055968D939C93569757961D921C92D0
:102E2000589761EC462E6DEB562E60EF662E772498
:102E30007A94F80141865286638674867FE3872EF2
:102E400072E4972E7FE0A72EB12C1D968D929D9255
:102E5000AD92BC925097E4E8F2ECED93FC9311979D
:102E60008BE059968C9361E00E94B30DD80159967E
:102E70008C910E942C09082E000C990BAA0BBB0BFD
:102E8000F80181879287A387B48782E090E08583E9
:102E9000968317821086C801A5DA8093F038909344
:102EA000F1388AE190E017D48C0186E0D8011296BF
:102EB0008C9312971396CD92DC92149715962D92BF
:102EC0003C9216971796ED92FC92189753961D9286
:102ED0001C9254975196ED92FC9252978BE191E09F
:102EE00055968D939C93569757961D921C92589782
:102EF000F80141865286638674861D968D929D9256
:102F0000AD92BC925097E4E8F2ECED93FC931197EC
:102F10008AE059968C9361E00E94B30DD8015996CE
:102F20008C910E942C09082E000C990BAA0BBB0B4C
:102F3000F80181879287A387B48782E090E0858338
:102F4000968317821086C8014DDA8093EE389093ED
:102F5000EF388DE190E0BFD37C0110E000E02FE07E
:102F600031E042E050E067E00E942403C7013ADA12
:102F70003C018093EC389093ED388DE190E0ABD339
:102F80007C0104E011E026E031E042E150E068E03D
:102F90000E942403C70126DA7C018093EA389093CB
:102FA000EB388DE190E097D36C0104EF10E028EF4F
:102FB00030E04AE150E069E00E942403C60112DAE1
:102FC0006C018093E8389093E9388DE190E083D3E9
:102FD0005C0107EE10E029EE30E04AE050E06AE0E4
:102FE0000E942403C501FED98093E6389093E73808
:102FF0008DE190E070D35C0110E000E02BED30E05B
:1030000042E250E06BE00E942403C501EBD98093BB
:10301000E4389093E5388DE190E05DD35C0100EDFC
:1030200010E022ED30E042E350E06CE00E94240327
:10303000C501D8D98093E2389093E3388DE190E0D0
:103040004AD35C0100EC10E024EC30E04AE350E0AD
:103050006DE00E942403C501C5D98093E0389093A8
:10306000E1388DE190E037D35C0103EB10E025EB14
:1030700030E04AE250E06EE00E942403C501B2D97C
:103080008093DE389093DF388CE390E024D34C01BA
:103090002091F0383091F138EBEAAE2EE0E0BE2E10
:1030A000830142E450E06FE0D6D8C4019BD9FC0113
:1030B0008093DC389093DD3880910F3990911039EE
:1030C0002091E6383091E73826A337A380A791A74F
:1030D00012A68CE390E0FFD24C01C090E038D09073
:1030E000E138E090E238F090E3380091E438109154
:1030F000E5382091EE383091EF38F3EAAF2EF0E06A
:10310000BF2E43E450E060E1A6D8C4016BD9FC01B6
:103110008093DA389093DB3880910D3990910E3995
:103120002091DE383091DF3826A337A380A791A7FE
:1031300012A68091F338882309F423C180911139B4
:10314000882309F41EC18E01085D1F4F8EE0F82E02
:10315000D801EF2D1D92EA95E9F78EEF8EA38DE051
:103160008FA383E088A748E050E06AE970E0CE01D1
:103170008996E6D330E020E0AE014A5D5F4F609172
:10318000F4388091F2380E94950CD8011D92FA947F
:10319000E9F745E050E064E970E0C801D1D322E0EE
:1031A00030E0AE014A5D5F4F6091F4388091F238B3
:1031B0000E94950C18A627E030E0AE014A5D5F4FF3
:1031C0006091F4388091F2380E94950CD12C5E0108
:1031D000B8E1AB0EB11C9EE0C92E80910C39D81617
:1031E00008F096C08D2D90E0880F991FE0910A3964
:1031F000F0910B39E80FF91F00811181F8018281EC
:10320000882309F47FC0D501EC2D1D92EA95E9F7DA
:103210008E8BD80115968C9115978F8B17968C9164
:103220001797888F5596ED90FC90C70180D3AC011D
:1032300055274E30510510F04DE050E0B701CE015A
:1032400049967ED330E020E0AE014A5E5F4F609148
:10325000F4388091F2380E94950CF8016788708CE0
:103260006114710459F1C30162D34C01892B31F10E
:10327000D80112968C9189837401FF24A701BFE0C5
:10328000EB16F10410F04EE050E0B301CE010396CE
:1032900057D3EDE0E81538F0E3E0F0E0EC0FFD1F68
:1032A000EE0DFF1D108221E030E0AE014F5F5F4F59
:1032B0006091F4388091F2380E94950CD801ED911C
:1032C000FC910288F389E02DC8010995F5012C2DA8
:1032D00011922A95E9F7D80112968C9112978E8B4C
:1032E00015968C9115978F8B17968C91888F27E068
:1032F00030E0AE014A5E5F4F6091F4388091F23861
:103300000E94950CD39469CF83E08093260404CD6A
:10331000F3E0CF2ED12CE12CF12C812C912C5401F7
:103320008A9493948091F338882359F10E940E086F
:103330002FB7F8946091D4387091D5388091D638F1
:103340009091D7382FBFA701960157D5CA01B9016F
:10335000A501940152D56F5F710977FF03C0719584
:1033600061957109AB01770F660B770B762F652F8F
:10337000542F442790E080E00E94DC000E947301FB
:10338000D1CF81E0809312398091A1008D7F80930D
:10339000A100809102068F7C806580930206F894DC
:1033A000809141018111FCCF81E080934001109216
:1033B00047018093520191E7909350017894809354
:1033C000103840E050E0BA0190E080E00E94DC005C
:1033D0000E9473018091F4389091F23899838A8326
:1033E0008CEF8B838DE68C83CE0101960E94570C67
:1033F00049EFE42E48E3F42E50E1C52E80911339B5
:10340000882309F46DC01092133980EA99E30E9471
:1034100057054B015C01BFEF8B1A9B0AAB0ABB0A35
:10342000B501A401CE0101960E946E0486E0FE0162
:103430003196A0EAB9E301900D928A95E1F740E058
:1034400050E0BA0180FE10C080911239882341F00B
:103450008091113940E05FEF60E070E0811104C0BD
:1034600040E050E06FEF70E090E080E00E94DC0010
:103470000E947301809110388823C1F01092103897
:1034800080910F3990911039DC01ED91FC91008809
:10349000F189E02D099580910D3990910E39DC016B
:1034A000ED91FC910088F189E02D099510E0809163
:1034B0000C391817A8F4812F90E0880F991FE0911C
:1034C0000A39F0910B39E80FF91F80819181DC01F5
:1034D000ED91FC910088F189E02D09951F5FE7CF00
:1034E0008091A43990E0B0E0A0E040910C38509178
:1034F0000D3860910E3870910F3884179507A60724
:10350000B70741F080930C3890930D38A0930E3894
:10351000B0930F388091A33990E0B0E0A0E04091E3
:1035200008385091093860910A3870910B38841727
:103530009507A607B70741F080930838909309389C
:10354000A0930A38B0930B380E940E08D12C8091BA
:103550000C39D81608F073C08D2D90E0880F991F94
:10356000E0910A39F0910B39E80FF91F00811181C0
:10357000F801418552856385748585859685841B10
:10358000950B97FF03C0919581959109D8015396AA
:103590002D913C915497281739070CF032C01296A0
:1035A0008C911297882369F1F801458756876787C0
:1035B000708B0580F681E02DED30F10510F5EE51B0
:1035C000F54E59C4EF1AEF1AEF1A011B031B011B2A
:1035D000011B031BEF1A011B011B031BEF1A409376
:1035E000F9385093FA386093FB387093FC38519651
:1035F0008D919C918093FD389093FE38C8010E9474
:103600007C0CD394A4CFED91FC910680F781E02D42
:10361000C8010995FC0101900020E9F73197D70115
:103620002C2D1D922A95E9F7E81BE13108F0E0E125
:103630004E2F50E0BC0189EF98E398D5DFCF8BE0A7
:103640000E942C09082E000C990B2091073828178E
:103650001906A1F08BE00E942C098093073840E006
:103660005FEF60E070E0811103C040E050E0BA011C
:1036700081E090E00E94DC000E9473018AE00E94D9
:103680002C09082E000C990B2091063828171906D2
:1036900009F4B4CE8AE00E942C098093063840E0F9
:1036A0005FEF60E070E0811103C040E050E0BA01DC
:1036B00082E090E00E94DC000E9473019FCE809126
:1036C000923990919339009709F0A1D060E08091F0
:1036D00090390C94B30D0F931F93CF93DF938230E7
:1036E000910510F482E090E0E091A839F091A939B9
:1036F00030E020E0B0E0A0E0309799F421153105EA
:1037000009F44AC0281B390B24303105D8F58A81C9
:103710009B816115710589F1FB0182839383FE0111
:1037200011C0408151810281138148175907E0F08F
:103730004817590799F4109761F012960C93129755
:1037400013961C933296CF01DF91CF911F910F9169
:1037500008950093A8391093A939F4CF21153105A4
:1037600051F04217530738F0A901DB019A01BD015E
:10377000DF01F801C1CFEF01F9CF8093A839909311
:10378000A939CDCFFE01E20FF31F8193919322500F
:10379000310928833983D7CF2091A6393091A739B1
:1037A000232B41F420911338309114382093A639FB
:1037B0003093A739209111383091123821153105F5
:1037C00041F42DB73EB74091153850911638241B5F
:1037D000350BE091A639F091A739E217F307A0F471
:1037E0002E1B3F0B2817390778F0AC014E5F5F4F57
:1037F0002417350748F04E0F5F1F4093A6395093AA
:10380000A739819391939FCFF0E0E0E09CCFCF93D5
:10381000DF930097E9F0FC01329712821382A091A6
:10382000A839B091A939ED0130E020E01097A1F45A
:1038300020813181820F931F2091A6393091A739C1
:103840002817390709F061C0E093A639F093A7392A
:10385000DF91CF910895EA01CE17DF07E8F54A819D
:103860005B819E0141155105B1F7E901EA83FB83B4
:1038700049915991C40FD51FEC17FD0761F4808160
:1038800091810296840F951FE90188839983828133
:1038900093818A839B83F0E0E0E012968D919C9166
:1038A00013970097B9F52D913C911197CD01029690
:1038B000820F931F2091A6393091A7392817390715
:1038C00039F6309751F51092A8391092A939A09382
:1038D000A639B093A739BCCFC283D383408151812D
:1038E000840F951FC817D90761F44E5F5F4F888119
:1038F0009981480F591F408351838A819B8182831C
:1039000093832115310509F0B0CFE093A839F093E6
:10391000A9399ECFFD01DC01C0CF12821382D7CF1F
:10392000FB01DC0105900D920020E1F70895FC01F8
:1039300005900020E9F7809590958E0F9F1F0895C0
:10394000FB01DC014150504048F005900D920020F1
:10395000C9F701C01D9241505040E0F708955058FA
:10396000BB27AA270ED075C166D130F06BD120F0ED
:1039700031F49F3F11F41EF45BC10EF4E095E7FBB8
:1039800051C1E92F77D180F3BA1762077307840713
:10399000950718F071F49EF58FC10EF4E0950B2E8B
:1039A000BA2FA02D0B01B90190010C01CA01A00191
:1039B0001124FF27591B99F0593F50F4503E68F1EC
:1039C0001A16F040A22F232F342F4427585FF3CF2D
:1039D000469537952795A795F0405395C9F77EF4FE
:1039E0001F16BA0B620B730B840BBAF09150A1F047
:1039F000FF0FBB1F661F771F881FC2F70EC0BA0FCD
:103A0000621F731F841F48F4879577956795B79554
:103A1000F7959E3F08F0B3CF9395880F08F099274C
:103A2000EE0F979587950895D9D008F481E0089511
:103A30000CD00FC107D140F0FED030F021F45F3F31
:103A400019F0F0C0511139C1F3C014D198F3992382
:103A5000C9F35523B1F3951B550BBB27AA27621752
:103A60007307840738F09F5F5F4F220F331F441F97
:103A7000AA1FA9F333D00E2E3AF0E0E830D09150CF
:103A80005040E695001CCAF729D0FE2F27D0660FBC
:103A9000771F881FBB1F261737074807AB07B0E8FB
:103AA00009F0BB0B802DBF01FF2793585F4F2AF011
:103AB0009E3F510568F0B6C000C15F3FECF3983EF1
:103AC000DCF3869577956795B795F7959F5FC9F76E
:103AD000880F911D9695879597F90895E1E0660FF7
:103AE000771F881FBB1F621773078407BA0720F070
:103AF000621B730B840BBA0BEE1F88F7E0950895D9
:103B000004D06894B111D9C00895BCD088F09F57F3
:103B100090F0B92F9927B751A0F0D1F0660F771F19
:103B2000881F991F1AF0BA95C9F712C0B13081F0F9
:103B3000C3D0B1E00895C0C0672F782F8827B85F41
:103B400039F0B93FCCF3869577956795B395D9F75A
:103B50003EF490958095709561957F4F8F4F9F4F64
:103B60000895E89409C097FB3EF490958095709570
:103B700061957F4F8F4F9F4F9923A9F0F92F96E9B9
:103B8000BB279395F695879577956795B795F1112E
:103B9000F8CFFAF4BB0F11F460FF1BC06F5F7F4FCB
:103BA0008F4F9F4F16C0882311F096E911C07723DD
:103BB00021F09EE8872F762F05C0662371F096E8E6
:103BC000862F70E060E02AF09A95660F771F881FB5
:103BD000DAF7880F9695879597F90895990F000859
:103BE000550FAA0BE0E8FEEF16161706E807F907CF
:103BF000C0F012161306E407F50798F0621B730B6A
:103C0000840B950B39F40A2661F0232B242B252BEA
:103C100021F408950A2609F4A140A6958FEF811D8D
:103C2000811D089597F99F6780E870E060E008952E
:103C30009FEF80EC089500240A94161617061806C4
:103C40000906089500240A941216130614060506A0
:103C50000895092E0394000C11F4882352F0BB0F31
:103C600040F4BF2B11F460FF04C06F5F7F4F8F4F94
:103C70009F4F089557FD9058440F551F59F05F3FCF
:103C800071F04795880F97FB991F61F09F3F79F07E
:103C900087950895121613061406551FF2CF469500
:103CA000F1DF08C0161617061806991FF1CF869582
:103CB0007105610508940895E894BB276627772766
:103CC000CB0197F908958ADF08F48FEF08950BD0A0
:103CD000C0CFB1DF28F0B6DF18F0952309F0A2CFEE
:103CE000A7CF1124EACFC6DFA0F3959FD1F3950F9C
:103CF00050E0551F629FF001729FBB27F00DB11D70
:103D0000639FAA27F00DB11DAA1F649F6627B00DFF
:103D1000A11D661F829F2227B00DA11D621F739FE8
:103D2000B00DA11D621F839FA00D611D221F749FF6
:103D30003327A00D611D231F849F600D211D822F3D
:103D4000762F6A2F11249F5750408AF0E1F0882384
:103D50004AF0EE0FFF1FBB1F661F771F881F915091
:103D60005040A9F79E3F510570F05CCFA6CF5F3F52
:103D7000ECF3983EDCF3869577956795B795F795C4
:103D8000E7959F5FC1F7FE2B880F911D969587954C
:103D900097F90895991B79E004C0991F961708F0C8
:103DA000961B881F7A95C9F780950895AA1BBB1B9F
:103DB00051E107C0AA1FBB1FA617B70710F0A61B2B
:103DC000B70B881F991F5A95A9F780959095BC014C
:103DD000CD01089597FB072E16F4009406D077FDC9
:103DE00008D0E4DF07FC05D03EF4909581959F4F05
:103DF0000895709561957F4F0895A1E21A2EAA1B30
:103E0000BB1BFD010DC0AA1FBB1FEE1FFF1FA2178A
:103E1000B307E407F50720F0A21BB30BE40BF50B87
:103E2000661F771F881F991F1A9469F76095709510
:103E3000809590959B01AC01BD01CF010895052EA1
:103E400097FB16F400940FD057FD05D0D6DF07FC82
:103E500002D046F408C050954095309521953F4FCB
:103E60004F4F5F4F089590958095709561957F4F66
:103E70008F4F9F4F0895EE0FFF1F0590F491E02D97
:103E80000994A29FB001B39FC001A39F700D811D33
:103E90001124911DB29F700D811D1124911D089553
:103EA000F0DFA59F900DB49F900DA49F800D911DF4
:103EB00011240895689401C0E8948F929F92CF9343
:103EC000DF9305D0DF91CF919F908F900895882444
:103ED0009924F401E401B0E49F93AA279A158B0476
:103EE0009C04ED05FE05CF05D007A10798F4AD2F82
:103EF000DC2FCF2FFE2FE92D982C892E982F872F7E
:103F0000762F652F542F432F322F2227B85031F7A9
:103F1000BF9127C01B2EBF91BB27220F331F441F09
:103F2000551F661F771F881F991F881C991CEE1F3D
:103F3000FF1FCC1FDD1FAA1FBB1F8A149B04EC05AB
:103F4000FD05CE05DF05A007B10748F08A189B08DC
:103F5000EC09FD09CE09DF09A00BB10B21601A9411
:103F6000E1F62EF49401AF01BE01CD01000C0895DD
:103F7000002E083090F0982F872F762F652F542F22
:103F8000432F322F22270850F4CF220F331F441F14
:103F9000551F661F771F881F991F0A95B2F7002DBE
:103FA000089597FD1094002E083098F00850232FA4
:103FB000342F452F562F672F782F892F912DF4CF2F
:103FC0001594979587957795679557954795379564
:103FD00027950A95AAF71124002D0895B0E0A0E0D6
:103FE000E3EFFFE1D4C08C01009741F4CB0173DB18
:103FF0008C01C801CDB7DEB7E0E1E2C0FC01E60FFD
:10400000F71F9C0122503109E217F30708F499C009
:10401000D901CD91DC911197C617D70790F0C53023
:10402000D10538F3CE0104978617970710F3C61B06
:10403000D70B2297C193D1936D937C93CF01E7DB8C
:10404000D8CF5B01AC1ABD0A4C018C0E9D1EA0910D
:10405000A839B091A939512C412CF12CE12C1097A1
:1040600031F58091A6399091A7398815990509F005
:104070005CC04616570608F058C0809111389091E0
:104080001238009741F48DB79EB740911538509182
:104090001638841B950BE817F90708F052C0E09317
:1040A000A639F093A739F90160837183A2CF8D916E
:1040B0009C91119712966C90129713967C9013977F
:1040C000A815B90559F56C0142E0C40ED11CCA14FB
:1040D000DB0420F1AC014A195B09DA01129615974D
:1040E00080F06282738240835183D9016D937C9307
:1040F000E114F10471F0D7011296ED93FC9313973C
:1041000078CF22968C0F9D1FF90180839183F30154
:10411000EFCFE093A839F093A9396BCF4816590631
:1041200008F42C017D01D3019ACFCB01D4DA7C01B4
:10413000009739F0AE01B80107D0C80168DB8701EC
:1041400058CF10E000E055CFFB01DC0102C0019028
:104150000D9241505040D8F70895FB01DC018D913C
:10416000019080190110D9F3990B0895FB01DC012E
:104170004150504048F001900D920020C9F701C015
:104180001D9241505040E0F708952F923F924F9278
:104190005F926F927F928F929F92AF92BF92CF92D7
:1041A000DF92EF92FF920F931F93CF93DF93CDB7E0
:1041B000DEB7CA1BDB0BCDBFDEBF09942A88398866
:1041C00048885F846E847D848C849B84AA84B984AF
:1041D000C884DF80EE80FD800C811B81AA81B981BB
:1041E000CE0FD11DCDBFDEBFED01089510E0C6EAB0
:1041F000D0E003C0FE013FDE2196C73AD107D1F7D8
:04420000F894FFCF60
:10420400000006000100010000006400320001000B
:1042140000001700140001000A0058023C000100CD
:104224000000170015000100000000002E04210406
:10423400FD03FA03F403E903C207C20308031A0DDA
:10424400000000002E042A05FD030903F403E9031A
:10425400C3032B129A05B30C101080000000001049
:10426400101040400000000010000405060705047B
:104274000302010000010203010203000000000028
:1042840050094709FD03FA038B0D9503C303C203C9
:1042940008030803781E00A02800F03C00405100E9
:1042A400127A00E4A20024F40048E80190D003202C
:1042B400A107000000002E042104FD03FA03F40307
:1042C400E903C303C20308030803000000002E042B
:1042D4002104FD03A003F403E903C303C203D90FBC
:1042E400080300000000B702C902EC028302B10215
:1042F4009F028B02000000004A0E290EA10A270A21
:104304002A0A5F0D550B090CEC0BB30B1D0E110E95
:104314008A0A1020408020100804020101020408C7
:104324000204080100000000010101010101020270
:084334000202000000003F003E
:10433C002C3820381838FFFF6300000063000000A1
:08434C00010000AA3980000005
:00000001FF
