:10000000B4C00000E6C00000E4C000000C949417E7
:100010000C9491170C948E17DCC000000C9482187D
:10002000D8C00000D6C00000D4C00000D2C000007C
:10003000D0C00000CEC00000CCC000000C945D1702
:10004000C8C00000C6C00000C4C00000C2C000009C
:10005000C0C00000BEC00000BCC00000BAC00000AC
:100060000C94DE17B6C00000B4C000000C94DD167E
:100070000C94D7160C94E316ACC000001F1C1F1E76
:100080001F1E1F1F1E1F1E70726F63657373206E0D
:100090006F74206F76657272696465640070657252
:1000A000696F646963006F6666004D4C44303300CD
:1000B000537072696E6B6C65005A32206D6F6465A7
:1000C000005A31206D6F64650025005A3220687532
:1000D0006D206D696E006D696E005A322064757214
:1000E0006174696F6E0068005A32207374617274B3
:1000F000005A3220736B6970206461790025005AC0
:10010000312068756D206D696E006D696E005A3121
:10011000206475726174696F6E0068005A312073D3
:1001200074617274005A3120736B69702064617954
:10013000005A322076616C7665005A312076616C07
:1001400076650025005A322048756D6964697479B6
:100150000025005A312048756D6964697479000A78
:100160005374617274009318B82111241FBECFEF2D
:10017000CDBFDFE3DEBF809140008093400081115E
:1001800005C098ED21E094BF209341008CBB18E39B
:10019000A0E0B8E3E4E6F6E502C005900D92A831D0
:1001A000B107D9F72AE3A8E1B8E301C01D92AB3348
:1001B000B207E1F710E0C4EBD0E004C02197FE01E4
:1001C0000E948C28C33BD107C9F70E9461190C9487
:1001D000252A16CFE091B939F091BA39858183701B
:1001E00009F442C0838180FF3FC05091BD395E7FDA
:1001F00030E020E090E04581842F83702F5F3F4FF7
:1002000021346FE1360740F0823041F1813041F115
:1002100084E093E09483089543FF04C088E08583DD
:1002200082E1F7CF813021F4578330E020E0E3CF43
:10023000823009F746FFDFCF44FF04C0992349F31A
:1002400083E0E7CF8091BE39981760F4A92FB0E022
:10025000AA53B64C8C9180879F5FE7CF85E0D9CFBA
:1002600081E1D7CF80E0D5CF80E108954F925F92B2
:100270006F927F928F929F92AF92BF92FF92209146
:10028000073A3091083A8217930708F043C02B01D0
:1002900066247724852E962EA72EBB24B82DA42F56
:1002A00020910E3AF42C222391F0E22FF0E0E49D0D
:1002B000D001E59DB00DF49DB00D1124FB2E289DBD
:1002C00040011124B92D249F90011124A32FE09106
:1002D000143A20910F3A3091103A5091113AE513A7
:1002E00023C0FC01EE0FFF1F8E0F9F1F820F931F75
:1002F000E091113AE80FF92FF11DF082E091123AE6
:10030000E80FF92FF11DB0832091133A820F911D50
:10031000FC01A083FF90BF90AF909F908F907F9043
:100320006F905F904F900895880F991F880F991FC5
:10033000820F931FE80FF92FF11D1082D9CFAF92D2
:10034000BF92CF92DF92EF92FF920F931F93CF93C2
:10035000DF936C017B018B01040F151FEB015E0124
:10036000AE18BF08C017D10759F06991D601ED91B9
:10037000FC910190F081E02DC6010995892B79F758
:10038000C501DF91CF911F910F91FF90EF90DF900A
:10039000CF90BF90AF900895FC0157854089252FDD
:1003A00030E0842F90E0821B930B541710F0CF960F
:1003B000089501970895FC0195858685981761F049
:1003C000A685AE0FBF2FB11D51968C9196859F5F6C
:1003D0009F73968790E008958FEF9FEF0895FC013B
:1003E00095858685981731F08685E80FF11D8189FE
:1003F00090E008958FEF9FEF0895FC019585268585
:10040000892F90E0805C9F4F821B91098F73992701
:100410000895DC010FB607FE04C080911101882306
:10042000B9F01896ED91FC911997848185FF10C061
:100430001F969C911F9750968C91981304C08581AC
:100440008F7D85830895E3E1F9E3E8940C94F01639
:1004500008950F931F93CF93DF93EC018C858160F8
:100460008C879F85888998130BC0E885F9858481DE
:1004700085FF06C08C8581FD0DC080E4848312C099
:10048000062F1F851F5F1F738889811315C0CE013A
:10049000C0DFFACF85818F77806490E49483E8850C
:1004A000F9858583E885F985628381E090E0DF91B5
:1004B000CF911F910F910895EF85EC0FFD2FF11D46
:1004C000EF5AFF4F00831F878C85E885F98581FFF0
:1004D00009C085818F77806690E49483E885F985EB
:1004E0008583E3CF85818062FBCF0F931F93CF93EA
:1004F000DF938C01D0E0C0E0F801EC0FFD1F6491A8
:10050000662339F083E199E3A4DF892B11F021966A
:10051000F3CFCE01DF91CF911F910F910895CF932B
:10052000DF93EC018C85882359F0E885F985858176
:1005300085FD03C0848186FD03C0CE016ADFF5CF4F
:10054000DF91CF9108959FB7F89488E08093840A53
:1005500080918E0A81FFFCCF80918D0AE091A20AE2
:10056000F091A30A2091D0383091D1384091D238FF
:100570005091D3389FBF80FF07C0E730F10520F4CA
:100580002F5F3F4F4F4F5F4FAEEFB1E00E94CF263E
:100590006E0F7F1F811D911D660F771F881F991F8A
:1005A00008950F931F93CF93DF93CDB7DEB72797AF
:1005B000CDBFDEBF8091093A90910A3A89839A8330
:1005C00080910F3A9091103A892B09F493C0809151
:1005D0000D3A823108F08EC0B6DF0091153A1091C5
:1005E000163A2091173A3091183AAB01BC01401BE2
:1005F000510B620B730B80910B3A90910C3AB0E067
:10060000A0E0481759076A077B0730F3F894A091D8
:100610000F3AB091103AFD0131968C918F831B8275
:10062000A091193AB0911A3A9C9180911B3A982B5B
:100630009E839C91809589238D838D818C838F816E
:1006400087FF02C08E818C835E816D814F813C81EA
:100650002B8189819A815C93262F3C9300C046FDB3
:10066000252F6C9300C05C93362F2C9300C045FD62
:10067000352F6C9300C05C93262F3C9300C044FD43
:10068000252F6C9300C05C93362F2C9300C043FD44
:10069000352F6C9300C05C93262F3C9300C042FD25
:1006A000252F6C9300C05C93362F2C9300C041FD26
:1006B000352F6C9300C05C93262F3C9300C040FD07
:1006C000252F6C9301975C93362F2C93419147FD16
:1006D000352F6C9301F64F833C832B8389839A8358
:1006E000789431DF6093153A7093163A8093173AF5
:1006F0009093183A2796CDBFDEBFDF91CF911F911F
:100700000F910895CF92DF92EF92FF92CF93DF93F4
:100710006B017C0118DFEB0116DF6C1B7D0B683E63
:100720007340A0F0C114D104E104F10439F4DF9165
:10073000CF91FF90EF90DF90CF90089581E0C81A9D
:10074000D108E108F108C851DC4FE6CFC114D1044B
:10075000E104F10409F7EBCF90E0FC01E453FB4224
:1007600020812F3F69F18E579A42FC018081E82F4A
:10077000E295EE0FE07EE20FF0E0E05FFB4F90814C
:10078000917F908390E0FC0134E0EE0FFF1F3A95DB
:10079000E1F7422F50E061E070E001C0660F2A955A
:1007A000EAF76383880F991FFC01E050F84C440F6F
:1007B000551F0190F081E02DE40FF51F108211828A
:1007C0000895DC011896ED91FC9184818860848302
:1007D00008959C012B5C3F4FDC011F96EC911F9705
:1007E0001E968C91E81730F4E20FF32FF11D8081F3
:1007F00090E008958FEF9FEF0895FC01DC01D596FE
:1008000097858685981740F4A90FB11D2C919F5F9D
:100810009787822F90E008958FEF9FEF0895FC0156
:1008200086859785891B990B0895FC01A585A032C3
:1008300058F4A80FB92FB11D55966C9385858F5F1D
:10084000858781E090E0089590E080E00895CF935F
:10085000C0EDC093BD391092BE3960E081EB99E3E1
:10086000E4DFB8DC882319F080E0CF910895C093CD
:10087000BD391092C039E091B939F091BA399581FA
:10088000937091F391ED978330E020E090E062E087
:100890004581542F53702F5F3F4F21347FE137073D
:1008A00020F443FF81C088E085839093BF3997305F
:1008B000D9F681EB99E3A1DF8F77282F30E094E020
:1008C000359527959A95E1F7922F990F990F291B46
:1008D000220F820F8093243A81EB99E38EDF9C01F3
:1008E00044E0359527954A95E1F72F703327922FED
:1008F000990F990F291B220F820F8093233A81EBC6
:1009000099E37BDF9C0154E0359527955A95E1F7F3
:100910002F703327922F990F990F291B220F820FC7
:100920008093223A81EB99E368DF81EB99E365DFFD
:100930009C0164E0359527956A95E1F72F70332780
:10094000922F990F990F291B220F820F8093213A22
:1009500081EB99E352DF8F77282F30E074E03595F3
:1009600027957A95E1F7922F990F990F291B220F5E
:10097000820F8093203A81EB99E33FDF9C01E4E012
:1009800035952795EA95E1F72F703327922F990F28
:10099000990F291B220F820F80931F3A81E065CFA8
:1009A00030E020E087E074CF8823A9F0523009F0CE
:1009B0007CCF848347FF13C09032A0F72085A92FF6
:1009C000B0E0AA51B64C2C939F5F973048F76483F0
:1009D00030E020E05DCF523009F05ACFEBCF46FF38
:1009E00057CF83E055CFBF92CF92DF92EF92FF9225
:1009F0000F931F93CF93DF937C016A01B62EEB0117
:100A00000C2F0B1910E00C151D0528F46991C70176
:100A10000CDF892BA9F7C801DF91CF911F910F91AE
:100A2000FF90EF90DF90CF90BF90089590E080E02E
:100A300008959C01A8E8B3E10E940A272FEF33E054
:100A400040E050E00E947028A4E6B0E00E94CF266B
:100A500028E833E140E050E00E947028CA01B90163
:100A60000C94BC2508950F931F93CF93DF93CDB7BC
:100A7000DEB72897CDBFDEBFFC0182E095ED808315
:100A800091836283438354838DE090E085839683D2
:100A900081E090E087839087138A148A818B928B00
:100AA000258B368B078B108FDA01BC5E8C9190E022
:100AB000B0E0A0E081879287A387B4878095909566
:100AC000A095B09585879687A787B08B118E128EDB
:100AD0008EE894ED808391839E012F5F3F4F80E0ED
:100AE000A42FA81BB0E0BC5E9C91D9019D939D01F1
:100AF0008150883FA9F78D819E81092E000CAA0B99
:100B0000BB0B81879287A387B48789819A81838F62
:100B1000948F8B819C81858F968F8F819885818B17
:100B2000928B2CE030E025833683019721F082E020
:100B300090E0878390872896CDBFDEBFDF91CF916D
:100B40001F910F910895462F50E070E060E0DC01A6
:100B5000ED91FC910084F185E02D09940895CF92E8
:100B6000DF92EF92FF92CF93DF93EC016A017B015A
:100B700069897A89072E000C880B990B0E94BC2585
:100B8000A70196010E941B260E94E627AB01BC012B
:100B9000E881F9810084F185E02DCE01DF91CF91CC
:100BA000FF90EF90DF90CF900994462F50E070E0D7
:100BB00060E0DC01ED91FC910084F185E02D099469
:100BC000FC0141875287638774870895CF92DF9233
:100BD000EF92FF92CF93DF93EC0169857A858B8545
:100BE0009C850E94BC256B017C0169897A89072E4E
:100BF000000C880B990B0E94BC259B01AC01C7011E
:100C0000B6010E947E27DF91CF91FF90EF90DF9099
:100C1000CF90089521E0FC0181859285A385B4855C
:100C2000892B8A2B8B2B09F420E0822F0895FC015D
:100C300061857285838594850895DC01FB012C9183
:100C400030E02053384F808190E08053984F281730
:100C5000390758F12817390731F511969C911197EA
:100C60008181981710F198131EC012969C911297CB
:100C700082819817D0F0981316C013969C91139701
:100C80008381981790F098130EC014969C91149736
:100C90008481981750F0981306C081E015962C9126
:100CA0009581291708F080E0089581E008958F92DA
:100CB0009F92AF92BF92CF92DF92EF92FF92CF932B
:100CC000DF93EC016A017B0180E8C81A83E4D80A4B
:100CD0008DE6E80A88E3F80A8CE3882E912CA12C93
:100CE000B12CC701B601A50194010E944E286D8365
:100CF000CA01B901A50194010E944E286C83C70165
:100D0000B60120E13EE040E050E00E944E28CA01DA
:100D1000B90128E130E040E050E00E944E286B83AA
:100D2000C701B60120E831E541E050E00E944E28BD
:100D3000188263E97EEF8881982F937041E050E03C
:100D400011F050E040E0FA01E359FE4F2E173F0743
:100D500040F0FB01E41BF50B2E0F3F1F8F5F8883D4
:100D6000EACF81E0898389818C30A0F4482F4150FB
:100D7000550BFA01E458FF4FE491911103C0823002
:100D800009F4EF5FF0E02E173F0720F02E1B3F0B1A
:100D90008F5FE8CF2F5F2A83DF91CF91FF90EF9095
:100DA000DF90CF90BF90AF909F908F9008950F935A
:100DB0001F93CF93DF93CDB7DEB72697CDBFDEBFAE
:100DC0008C0140E853E46DE678E3CE0101966FDFD5
:100DD000298130E02053384FF80180A990E08053FA
:100DE000984F28173907A1F49A8181A9981310C048
:100DF0009B8182A998130CC09C8183A9981308C079
:100E00009D8184A9981304C081E02E8195A929139E
:100E100080E091E089272696CDBFDEBFDF91CF919C
:100E20001F910F910895C3CFDC0150E0ECE7F0E093
:100E300081E0861730F49491490F511D8F5F3196F0
:100E4000F8CF633038F0CD0183709927892B11F4E6
:100E50004F5F5F4F9D012D5F3F4F3695279536952C
:100E600027956DE671E0A69FC001A79F900DB69FE4
:100E7000900D11240197820F931F840F951F0895E1
:100E8000EFE1FAE380814281618190E0CDDF069657
:100E900067E070E00C9427280895EF92FF920F937B
:100EA0001F93CF93DF93EC0188814A81698190E0A1
:100EB000BBDF9C01A8E1B0E00E940A272B817B01E7
:100EC0008C01E20EF11C011D111DA8019701ACE37C
:100ED000B0E00E94CF262C817B018C01E20EF11C38
:100EE000011D111DA80197010E94CF26AB01BC0175
:100EF0009D81892F90E0B0E0A0E080589C4BA249F2
:100F0000B74C8A019B01080F191F2A1F3B1FC901FB
:100F1000B801DF91CF911F910F91FF90EF9008954D
:100F2000FC0165870895FC0166830895FC01A0819A
:100F3000B0E0BC5EE0E0F0E10FB622812370E9F79B
:100F4000F8946C936DE964BF63E060830FBE08950D
:100F50000F931F93CF93DF931F92CDB7DEB78B0113
:100F60008983FB016081E82FF0E0FC5E80816817D7
:100F700019F0CE010196DADFC8010F90DF91CF9111
:100F80001F910F910895CF92DF92EF92FF920F93EE
:100F90001F93CF93DF931F92CDB7DEB7182FD62EB6
:100FA000072FE62EF72E88E0C82EC10E1983F70111
:100FB00061917F01E12FF0E0FC5E8081681719F0FC
:100FC000CE010196B3DF1F5F1C11F0CF8D2D902F46
:100FD0000F90DF91CF911F910F91FF90EF90DF90D5
:100FE000CF900895CF92DF92EF92FF920F931F93CD
:100FF000CF93DF93CDB7DEB72897CDBFDEBF8C018F
:101000006A017B01DC0151966D917C91072E000CE9
:10101000880B990B0E94BC25A70196010E941B26F4
:101020000E94E627AB01BC01D801ED91FC91008440
:10103000F185E02DC8010995F801838D948D898390
:101040009A83858D968D8B839C83818592858D83F4
:101050009E83818992898F839887BE016F5F7F4FBE
:10106000838191DF2896CDBFDEBFDF91CF911F91A5
:101070000F91FF90EF90DF90CF900895282F30E0F0
:101080008231A8F4F901E059FA4280818F3F79F06A
:101090002E573A42D901EC91B0E2EB9FF0011124B6
:1010A000FC5F9085982381E019F480E008958FEF2C
:1010B0000895FC01838DE2DF91E0811101C090E091
:1010C000892F0895FC01838DD9DF682F880F770B56
:1010D000880B990B0895CF93DF93823108F047C0B6
:1010E00090E0EC01C059DA4228812F3F09F43FC05B
:1010F000AC014E575A42DA01EC91B0E2EB9FF0019D
:101100001124FC5F611136C0268330812323A1F4B2
:101110009C0124533B42D9012C913097A1F12830F6
:1011200090F57096E20FF11D3FB7F89420816111A0
:101130002DC0277F20833FBF86549B42FC019081B6
:101140009923A9F08881903441F1903819F19031B8
:1011500071F4DA019C919130D9F4853010F0880F48
:1011600082959091010A809589238093010ADF91ED
:10117000CF910895643029F43481278364816223F8
:10118000C4CF2583C2CFF0E0E0E0CECF2860D2CF3D
:10119000880FE7CF1092A006EACF20E4823009F44E
:1011A00020E89091920A922311F36FB7F8949091EE
:1011B000800A9E7F9093800A4091920A30E02095A9
:1011C000309550E02423352398ED94BF2093920A64
:1011D00090918E0A90FFFCCF9091800A916090933D
:1011E000800A813039F4809150048F7780935004C5
:1011F0006FBFBDCF809151048F7780935104F8CF9A
:101200000F931F93CF93DF93EC01062F142F60E011
:10121000898561DFEB85FC859F8188852085222378
:1012200019F02FB72187F89421E0228790932008A6
:10123000809321080000009324088091230887FFF1
:10124000FCCF80912408000010932408809123088B
:1012500087FFFCCF10912408EB85FC8582858823CD
:1012600031F012868085882311F081858FBF61E07F
:10127000898531DF812FDF91CF911F910F910895E3
:1012800040E861E8BDCF41E861E8BACF40E0B8CFBF
:10129000CF92DF92EF92FF92CF93DF936DE185E2E1
:1012A0009AE3F4DF90E034E0959587953A95E1F77D
:1012B0008A3091050CF03FC0FC01EE0FFF1FE80FD4
:1012C000F91FE25DFA42C080D180E2800E2C000C52
:1012D000FF086EE185E29AE3D9DFD82F66E285E266
:1012E0009AE3D4DFC82FD295DF7021E030E040E0F0
:1012F00050E004C0220F331F441F551FDA95D2F768
:10130000C701B6010E94702868EE73E080E090E0AB
:101310000E94702821313105410551058CF04C2F78
:10132000486066EA85E29AE3DF91CF91FF90EF9003
:10133000DF90CF9065CFCC24CA94DC2C7601C9CF46
:101340004C2F477FEECFCF92DF92EF92FF920F9319
:101350001F93CF93DF938C016AE198DFC82FD0E011
:10136000F80166857785808991890E94BC252AEEDF
:1013700036E54AEF5DE40E94B62587FD44C08DE95D
:1013800090E0C81BD90B69E1C80180DF87FD8D5F44
:1013900085958595682F880F770B880B990B0E9490
:1013A000BC256B017C0120E030E0A9010E94B6253C
:1013B00087FF0DC0BE01DD0F880B990B0E94BC2575
:1013C000A70196010E941A270E94E627EB019E01C1
:1013D000DD0F440B550B20583F4F4F4F5F4FA4E696
:1013E000B0E00E94CF2626E730E040E050E00E94C7
:1013F0007028C901DF91CF911F910F91FF90EF905D
:10140000DF90CF90089584EA90E0BBCFCF92DF9237
:10141000EF92FF920F931F93CF93DF937C01C62E21
:10142000C72FD42E63E132DFD82F0C2D1C2FC0E044
:10143000CD1751F0CD1541F060E0C70127DFCF5F38
:10144000F80181938F01F4CF8C2F90E0DF91CF9141
:101450001F910F91FF90EF90DF90CF9008951F9311
:10146000CF93DF93EC01009759F1469710F0C5E157
:10147000D0E01C2F4C2F6CE378E385E29AE3C6DFC3
:1014800030E02AE52197832F90E08C179D073CF4EC
:10149000845C974CFC018081280F3F5FF4CF8091E2
:1014A000503828130DC0E091CE38F091CF383097E6
:1014B00039F06CE378E3812FDF91CF911F9109948C
:1014C000DF91CF911F9108950F931F93CF93DF93D7
:1014D000EC0162E1DBDE182F482F62E9CE0190DEDD
:1014E00015FD23C016FF16C063E1CE01CFDE082F25
:1014F00010E060E1CE01CADE482F6DE8CE0180DE4B
:10150000EA81FB81309789F0C801DF91CF911F916B
:101510000F91099413FF09C0EC81FD81309729F0E8
:10152000DF91CF911F910F910994DF91CF911F917E
:101530000F91089585E29AE3C7CF43E861E860DE42
:1015400081E090E00895CF93DF93EC0140E060EC00
:1015500057DE45E861E8CE0153DE81E090E0DF919F
:10156000CF91089581E08093123985E29AE3EBDF11
:10157000E091CC38F091CD38309709F00994089576
:10158000AF92BF92DF92EF92FF920F931F93CF9390
:10159000DF93EC015B01D42E61E078DE8370833051
:1015A000C1F062E1CE0172DE83FF04C048E062E96F
:1015B000CE0126DEE881F9810084F185E02DCE019F
:1015C000099540E06DE8CE011BDE40E062EACE0105
:1015D00017DE8501ED2CF12CC8018A199B098E15A7
:1015E0009F0538F4F80141918F0160E8CE0108DED3
:1015F000F3CF4D2D62EACE0103DE8C819D81892BD4
:1016000021F040E460ECCE01FBDDE881F981028845
:10161000F389E02DCE010995C701DF91CF911F918C
:101620000F91FF90EF90DF90BF90AF900895FC0175
:101630008AE5848BDF019F012C5E3F4F9D91848959
:10164000890F848BA217B307C9F71092123945E1AD
:10165000BF0185E29AE394DF80911139882351F02C
:1016600080911239811106C062E070E080E090E064
:1016700049D8F2CF0895CF93DF93CDB7DEB7659702
:10168000CDBFDEBF89836A838EEF8B8328502C8386
:1016900080E1FA01DE01159601900D928A95E1F73D
:1016A000CE010196C4DF6596CDBFDEBFDF91CF913D
:1016B0000895DC01E5EFF8E38091F23880838091B2
:1016C000F438818312968C911297828315969C919F
:1016D0001597990F990F990F17968C91890F8383FE
:1016E000CF01A5CF0F931F93CF93DF938C01EB0115
:1016F00062317105C4F06531710514F0C4E1D0E0C8
:10170000239747E86DECC8017BDD41E36BE8C80136
:1017100077DD4C2F4250406869E8C801DF91CF91D6
:101720001F910F916DCD6230710514F4C2E0D0E0CD
:1017300044E86DECC80164DD4BE2E8CF8231F0F49F
:1017400090E0FC01E059FA4220812F3FB9F0FC0102
:10175000EE57FA42E08130E2E39FF0011124FC5F92
:1017600060FF0DC0218384539B42DC018C91E80F04
:10177000F11D808961FF05C08860808B08952283F8
:10178000F2CF877FFACFCF93DF93EC0160E08E81B9
:10179000D5DF8E81823188F590E0FC01E453FB4275
:1017A000E081EF3F51F18E579A42DC018C9190E03D
:1017B000DC01AA0FBB1FA050B84C2D913C91211504
:1017C0003105D9F04E2F50E0440F551F240F351F1F
:1017D0004AE95AE0D9014D935C932FB7F894E05F42
:1017E00075E0880F991F7A95E1F7E80FF0E0FC5F4C
:1017F0008081887F826080832FBFDF91CF910895A1
:10180000FC0164837583672B09F0BDCF868182312B
:1018100010F40C94AC030895FC0162837383672B6E
:1018200009F0B1CF8681823110F40C94AC03089595
:10183000CF93DF93EC01EB85FC85809120088E7FB0
:1018400080932008178260E080E178DF60E08FE01D
:1018500075DF60E08EE072DF60E089856FDF8D8587
:101860008F3F21F060E0DF91CF9168CFDF91CF9182
:1018700008958F929F92AF92BF92CF92DF92EF9294
:10188000FF920F931F93CF93DF93EC016A017B01CB
:1018900061E0898553DF61E089851DDC8D858F3F9F
:1018A000A1F061E04BDF60E08D8515DC6AE070E05F
:1018B00080E090E00E94820361E08D850CDC6AE0AC
:1018C00070E080E090E00E948203EB85FC858781D8
:1018D000811106C01086128680E8818781E08783A7
:1018E000809101028B7F9681892B809301028681F2
:1018F000811191C061E08EE021DF61E080E11EDFB7
:101900008091210884608093210880912008816261
:10191000809320089091AF398091B039909320083E
:101920008093210862E4CE01B1DC823109F07CC0F1
:10193000E881F9810680F781E02DCE010995CE86F8
:10194000DF86E88AF98A46015701BB0C8808982C83
:1019500054019601A701682D782D882D982D03E15B
:101960000E94F028A12CE8E4BE2EF8EECF2EDD2454
:10197000D394E12CF12C00E010E00E949428F22E88
:10198000832E942EA52EB62EC72ED82EE92E00E13A
:101990000E940B29422F66E8CE0132DC2F2D382D14
:1019A000492D5A2D6B2D7C2D8D2D9E2D08E00E94EA
:1019B0000B29422F67E8CE0123DC4F2D68E8CE01CA
:1019C0001FDC40E06EE8CE011BDC40E06FE8CE019A
:1019D00017DC6CE0CE015ADC482F43606CE8CE0186
:1019E0000FDC44E066EACE010BDCE881F98100847B
:1019F000F185E02DCE01099581E090E0DF91CF9156
:101A00001F910F91FF90EF90DF90CF90BF90AF901C
:101A10009F908F900895843009F072CF61E08CE040
:101A20008DDE61E08AE06BCF90E080E0E7CF87FD5C
:101A300003C08630C0F48C5F982F9F77903238F5C2
:101A400090910006992331F18F718093060681E011
:101A50008093080680910B0680FFFCCF80911006D2
:101A6000909111060895813161F092EF980F9330B3
:101A700010F48D50E1CF883031F0893031F08FEFA4
:101A8000DBCF80E0D9CF8AE0D7CF8BE0D5CF8FEF07
:101A900092E8089589EF92E808954F925F926F92CD
:101AA0007F928F929F92AF92BF92CF92DF92EF92EE
:101AB000FF920F931F93CF93DF93CDB7DEB7269797
:101AC000CDBFDEBF8D839E83DC015B968C91C12CE4
:101AD000D12C76018F3F09F494C01AE0C12CD12C8F
:101AE0007601ED81FE81838DA2DF092E000CAA0B09
:101AF000BB0BC80ED91EEA1EFB1E115091F7AD811B
:101B0000BE8196960D911C91D8011C968D919D9148
:101B10000D90BC91A02D89839A83AB83BC83F8017F
:101B20002085318542855385BC01CD010E941A274D
:101B30009B01AC0169817A818B819C810E947E2707
:101B40004B015C01D80114968D929D92AD92BC928E
:101B5000179754964D905D906D907C905797C70164
:101B6000B6012AE030E040E050E00E944E28CA0171
:101B7000B9010E94BA25A30192010E941927A5016B
:101B800094010E941B26A30192010E941A276B0157
:101B90007C01F801C08AD18AE28AF38AAC019B01F8
:101BA000C301B2010E9419279F77D8012D913D9161
:101BB0004D915C910E941B262B013C01A5019401D3
:101BC00060E070E080E89FE30E94192729813A8154
:101BD0004B815C810E941B269B01AC01C301B201B9
:101BE0000E941A27F8016487758786879787C48AB9
:101BF000D58AE68AF78AC701B6010E94EB276B01F6
:101C00007C01AD81BE819296ED91FC9193970D91EF
:101C10001C91309761F1D8011C960D911C91AD81FA
:101C2000BE8190962D913C9191975E964D915C91DD
:101C30005F975C966D917C91C6010995AB01BC01E3
:101C40008D819E81F8012696CDBFDEBFDF91CF91B9
:101C50001F910F91FF90EF90DF90CF90BF90AF90CA
:101C60009F908F907F906F905F904F900994A8E81D
:101C7000B3E1A70196010E94CF262FEF33E040E0A9
:101C800050E00E944E28BA01A901D8011896ED91A2
:101C9000FC918D819E812696CDBFDEBFDF91CF91D5
:101CA0001F910F91FF90EF90DF90CF90BF90AF907A
:101CB0009F908F907F906F905F904F900994EF92DC
:101CC000FF920F931F93CF93DF93EC01862F4A83EC
:101CD0004FEF5FEF4B835C8341E050E04F835887C9
:101CE00062E070E06B8B7C8B498B5A8B2D8B3E8B2B
:101CF0000F8B188F01EC1DEB20EF3FEF09871A8740
:101D00002B873C870EE312E42FE030E00D871E871F
:101D10002F87388B198E1A8E2AE135ED2883398367
:101D20008B8F1AA21BA21CA21DA218A219A21E8E82
:101D30001F8E1C8E1D8E4D835E8360E0FFDC8B8DBD
:101D400076DE7C0188E190E00E94C4218C018FE85E
:101D500092ECA5EFBCE3F80180839183A283B38367
:101D6000148215821682178280E090E0A0E8BFE31B
:101D700080879187A287B38780E090E0A0E0B0E4FD
:101D800084879587A687B787108A118A128A138A53
:101D9000B701FF0C880B990B0E94BC25F801648BDE
:101DA000758B868B978B0EA31FA3DF91CF911F910D
:101DB0000F91FF90EF900895CF93DF93CDB7DEB7EB
:101DC0006097CDBFDEBFDC0115962D913C912C3084
:101DD000310589F5FC019E01235F3F4F84E0D90165
:101DE0001D928A95E9F782818983818992898A8700
:101DF0009B87838D948D092E000CAA0BBB0B8A83C5
:101E00009B83AC83BD83858D968D092E000CAA0B18
:101E1000BB0B8E839F83A887B98781E090E08C8776
:101E20009D8723E030E0AE014F5F5F4F6091F43853
:101E30008091F23820DC6096CDBFDEBFDF91CF917C
:101E40000895FC0101900020E9F73197AF01481B8C
:101E5000590BBC0183E199E30C949F018F929F92EF
:101E6000AF92BF920F931F93CF93DF93CDB7DEB79F
:101E7000A197CDBFDEBF19A2423008F44AE08E011F
:101E80000F5D1F4F842E912CB12CA12CA501940124
:101E90000E944E28E62FB901CA01EA30D4F4E05D71
:101EA000D801EE938D01232B242B252B79F790E07D
:101EB00080E0109711F0CD01C4DFA196CDBFDEBF49
:101EC000DF91CF911F910F91BF90AF909F908F9016
:101ED0000895E95CE5CFCF93DF93D0E0C0E00097B1
:101EE00011F0AFDFEC0186EB95EDABDF8C0F9D1FA2
:101EF000DF91CF910895CF93DF93FC014481558109
:101F00006081718183E199E30E949F01EC0186EB7E
:101F100095ED97DF8C0F9D1FDF91CF910895CF92A4
:101F2000DF92EF92FF92CF93DF93FC01C184D284C2
:101F3000E384F484C416D506E606F70641F121E0F1
:101F400014161506160617060CF020E06A017B0130
:101F5000EC01622F8B8DBFD8C986DA86EB86FC86B2
:101F60008D899E890E9475028DEB95ED6ADF89EB64
:101F700095ED1C141D041E041F0414F486E596ED53
:101F8000DF91CF91FF90EF90DF90CF90A4CFDF91C2
:101F9000CF91FF90EF90DF90CF90089587E890E089
:101FA0000E94750286EB95ED4CCFCF93DF93EC0149
:101FB00060911E3A70E06F5F7F4F660F771F8091D0
:101FC0001C3A90911D3A0E94262980931C3A9093C6
:101FD0001D3A0097D1F020911E3AE22FF0E0EE0F6B
:101FE000FF1FE80FF91FC083D1832F5F20931E3A94
:101FF00030E021503048220F331F820F931FFC0125
:1020000080819181DF91CF91089590E080E0FACFB7
:10201000FF920F931F93CF93DF93CDB7DEB7AD97AA
:10202000CDBFDEBF909151388091CA38981709F41E
:10203000F1C0E091513888E18E9FF0011124EE5AF1
:10204000F74CDE01119601900D928A95E1F780918F
:1020500051388F5F8093513880915138853010F01E
:1020600010925138FD806F2D70E090E080E04AE0E2
:10207000F5DE81EC95EDE5DE0C81602F70E090E0FF
:1020800080E04AE0EBDE8DE396EDDBDE1E81612F22
:1020900070E090E080E04AE0E1DE86EB95EDD1DE95
:1020A0008091F238F812B6C00F3F41F08091F438B9
:1020B0000813BCC01C3F09F0BDC003C01C3F09F0A1
:1020C000B5C0F885898521E030E0882339F0282FD4
:1020D00030E02D30310514F02CE030E04A85442307
:1020E00009F4A1C050E04032510514F04FE150E036
:1020F0008B8568E10E941B28E92F8C853CE3632FC8
:102100000E941B28592F8D850E941B28F0931F3A8F
:102110002093203A4093213AE093223A5093233A75
:102120009093243A80ED8093BD391092BE3960E0DF
:1021300081EB99E30E9415042091243A1AE0822F42
:10214000612F0E941B28682F660F680F660F620FB1
:1021500081EB99E30E9415042091233A822F612F8D
:102160000E941B28682F660F680F660F620F81EBB5
:1021700099E30E9415042091223A822F612F0E9438
:102180001B28682F660F680F660F620F81EB99E3BB
:102190000E9415040E94400721E0280F822F612F22
:1021A0000E941B28682F660F680F660F620F81EB75
:1021B00099E30E9415042091213A822F612F0E94F9
:1021C0001B28682F660F680F660F620F81EB99E37B
:1021D0000E9415042091203A822F612F0E941B2813
:1021E000682F660F680F660F620F81EB99E30E94FC
:1021F000150420911F3A822F612F0E941B28682FFF
:10220000660F680F660F620F81EB99E30E94150459
:102210000E94EA00AD96CDBFDEBFDF91CF911F9146
:102220000F91FF90089541E050E062CF8091F43823
:102230000813F0CF8091F3388823B9F01E3FA9F43A
:102240008F818770863061F488858111E3CF89851D
:102250008093F43864EF78E380E00E94A807DACF37
:102260008730C1F61092F338D5CF153009F09BC0F6
:1022700030911E3AE0911C3AF0911D3A20E032175D
:1022800049F281919191DC0112964C91453011F007
:102290002F5FF5CF009709F4BDCFDC01ED91FC91E4
:1022A0000284F385E02D68850995B4CF1730E9F4F1
:1022B0000091EC381091ED382C853D8550E040E0E0
:1022C000688579858A859B850E947028CA01B90135
:1022D0000E94BC25AB01BC01D801ED91FC910484A6
:1022E000F585E02DC801099595CF1A3029F40091A4
:1022F000E6381091E738E0CF183029F40091EA3839
:102300001091EB38D9CF193029F40091E8381091A9
:10231000E938D2CF1B3029F40091E4381091E53828
:10232000CBCF1E3029F40091DE381091DF38C4CFB6
:102330001C3029F40091E2381091E338BDCF1D30F4
:1023400029F40091E0381091E138B6CF1F30C9F47C
:1023500040E150E0BE01685F7F4FCE0149960E9488
:10236000F62919A68091DC389091DD38DC01ED91D9
:10237000FC910684F785E02DBE01675E7F4F0995CD
:1023800049CF103109F046CF40E150E0BE01685F0F
:102390007F4FCE0149960E94F62919A68091DA381E
:1023A0009091DB38E3CF163009F080CF30911E3AA0
:1023B000E0911C3AF0911D3A20E0321709F42ACF3F
:1023C00081919191DC0112964C91463009F462CFD3
:1023D0002F5FF3CFCF92DF92EF92FF920F931F9375
:1023E000CF93DF93CDB7DEB76097CDBFDEBFDC0103
:1023F00015962D913C9116972730310509F045C06F
:102400005C962D913C91232B09F43FC08C01F12C5B
:102410006E01B3E0CB0ED11C3EE0E32EF801838DBC
:10242000F81698F5D601EE2D1D92EA95E9F7D80138
:1024300012968C9112978983FA828F2D90E0880FE3
:10244000991F5C96ED91FC91E80FF91F60817181F5
:10245000FB0101900020E9F7AF0141505109461BF3
:10246000570B4E30510510F04EE050E0C6010E946F
:10247000F62922E030E0AE014F5F5F4F6091F43803
:102480008091F238F8D8F394C9CF6096CDBFDEBF03
:10249000DF91CF911F910F91FF90EF90DF90CF9040
:1024A00008951F93CF93DF93182FF8948091CA3823
:1024B000C8E18C9FC0011124412F50E08B5A974CEA
:1024C0000E94DD29E091CA38CE9FF0011124EE5A16
:1024D000F74CD1E0D08385E29AE30E94A309E09112
:1024E000CA38CE9FF0011124EE5AF74C81839283B3
:1024F000153141F4E091CA38CE9FF0011124EE5A13
:10250000F74CD0838091CA388F5F8093CA3880910E
:10251000CA38853010F01092CA389091CA3880912C
:10252000513898130BC0809151388F5F8093513888
:1025300080915138853010F0109251387894DF91A5
:10254000CF911F910895EF92FF920F931F93CF9316
:10255000DF93EC017B018A0188819981009729F042
:102560002A813B812417350788F4B8016F5F7F4FBC
:102570000E942629009791F0888399830A831B8300
:102580002C813D81232B11F4FC0110820C831D83CF
:10259000B701888199810E94EF290CC088819981B7
:1025A000009711F00E946022188219821C821D82FD
:1025B0001A821B82CE01DF91CF911F910F91FF9064
:1025C000EF900895EF92FF920F931F93CF93DF93B5
:1025D000CDB7DEB76997CDBFDEBF8C01FB0185812A
:1025E0001F928F9384811F928F9383811F928F9369
:1025F00082811F928F9381811F928F93808190E0BF
:102600008053984F9F938F9385EC95ED9F938F9375
:10261000CE0101967C019F938F930E94052AF801B9
:10262000108211821282138214821582F7010190A6
:102630000020E9F73197AF014E195F09B701C801D2
:1026400082DFCDBFDEBFC8016996CDBFDEBFDF919F
:10265000CF911F910F91FF90EF9008958F929F92CD
:10266000AF92BF92CF92DF92EF92FF920F931F93A0
:10267000CF93DF93CDB7DEB72C97CDBFDEBF8C01F4
:10268000DC0119968D919C91892B09F042C0C801FB
:102690000E94D706882369F1F801868D978DDC01A9
:1026A000ED91FC910284F385E02D60E0099540E80E
:1026B00053E46DE678E3CE0101960E94570686E06A
:1026C000FE013196D801D09601900D928A95E1F7DE
:1026D00040E853E46DE678E3CE0101960E94570688
:1026E00086E0FE013196D801D69601900D928A952A
:1026F000E1F72C96CDBFDEBFDF91CF911F910F91F7
:10270000FF90EF90DF90CF90BF90AF909F908F9011
:102710000895C8010E94D706E82E882309F4A0C0B6
:102720006FE17AE3C801C6960E941D06F82EF801F3
:1027300086A197A1009799F0DC01ED91FC910280B0
:10274000F381E02D0995F80194A5891741F0FF2444
:10275000F39485A596A5019709F0F12CE12CD801F9
:1027600098968D919C919997892B09F443C09C96DA
:102770002C919C979A968D919C91DC01ED91FC9106
:102780000480F581E02D2223F9F009954B015C01CD
:10279000F80180A591A5DC01ED91FC910480F58103
:1027A000E02D09959B01AC01C501B4010E94B6253D
:1027B00087FF20C0FF24F394F80185A596A5019713
:1027C00009F0F12CE12C16C009954B015C01D801F0
:1027D00098968D919C91DC01ED91FC910480F5819E
:1027E000E02D09959B01AC01C501B4010E94172899
:1027F000181604F3FF2041F10E944007D8019F966C
:102800008C9340E853E46DE678E3CE0101960E9494
:10281000570686E0FE013196D801D09601900D92C0
:102820008A95E1F740E853E46DE678E3CE0101963E
:102830000E94570686E0FE013196D801D696019097
:102840000D928A95E1F7E12CF801868D978DDC01D8
:10285000ED91FC910284F385E02D6E2D099549CF11
:10286000F80181859285019709F043CF80A191A15C
:10287000F12C009741F0DC01ED91FC910190F08189
:10288000E02D0995F62EF80187A5833609F0B3C02F
:10289000D80192968D919C91DC01ED91FC91019073
:1028A000F081E02D09958091213A9091203A209174
:1028B0001F3A2F83988789876A871B861C86F801B1
:1028C00084A195A1009709F0ABC0C4ACD5AC0D2C88
:1028D000000CEE08FF08CE0107960E944D074B0141
:1028E0005C01ACE3B0E0A70196010E94CF26AB01EA
:1028F000BC01480D591D6A1D7B1DCE0101960E9429
:102900005706CD28CE28CF2809F4F3CEBE01695F43
:102910007F4F8FE19AE30E941D068111EACEBE012E
:102920006F5F7F4F8FE19AE30E941D06882309F4B1
:10293000E0CEF80182A193A1DC01ED91FC91019020
:10294000F081E02D09958091213A9091203A2091D3
:102950001F3AF80120AB91AB82AB63AB14AA15AA66
:1029600081EE95ED6EDA7801F0E3EF0EF11CB70120
:10297000CE01019627DECE010196BDDA89819A81CA
:102980000E946022D80194968D919C919597009712
:1029900009F050C0DC96CD90DC90C7010E944D0735
:1029A0004B015C019601ACE3B0E00E940A27AB0149
:1029B000BC01480D591D6A1D7B1DCE0101960E9468
:1029C000570686E0FE013196D801D69601900D9209
:1029D0008A95E1F78BEE95ED34DAB8016A5C7F4FAA
:1029E000CE010196EFDDCE01019685DA89819A81CB
:1029F0000E9460227ECE0E944007282FD8019F9619
:102A00003C918F2D90E0830F911D37FD9A9567E0E3
:102A100070E00E943B282817190609F039CF69CECB
:102A2000DC01ED91FC910190F081E02D09956B01A5
:102A30007C0151CFDC01ED91FC910190F081E02D02
:102A400009956B01AACFCF92DF92EF92FF920F937D
:102A50001F93CF93DF93EC016B016B8D70E06F5F81
:102A60007F4F660F771F8C8D9D8D0E9426297C01DC
:102A70008C8F9D8F892BF1F0C6010E94F0220B8D67
:102A800010E0000F111F0E0D1F1D01960E94C421A2
:102A9000F801808391838B8D90E0880F991FE80E59
:102AA000F91EB601F701808191810E94E9228B8D88
:102AB0008F5F8B8FDF91CF911F910F91FF90EF90E0
:102AC000DF90CF9008952F923F924F925F926F9236
:102AD0007F928F929F92AF92BF92CF92DF92EF92AE
:102AE000FF920F931F93CF93DF93CDB7DEB7289755
:102AF000CDBFDEBF4C012F83388782E095EDF40116
:102B0000808391836283438354838DE090E0858347
:102B1000968381E090E087839087138A148A818B63
:102B2000928BA58AB68A178A108E5C5EFA01808124
:102B300090E0B0E0A0E0F40181879287A387B4879A
:102B400080959095A095B09585879687A787B08B3F
:102B5000118E128E87E0482E512C4582568293E0CA
:102B6000292E312C27823086138E148E158E86EAFC
:102B700094ED808391835401F0E3AF0EB11C40E8E3
:102B800053E46DE678E3C5010E945706340186E3FD
:102B9000680E711C40E853E46DE678E3C3010E94BF
:102BA00057068F819885F401868F978F00A311A314
:102BB000E2A2F3A2C4A2D5A216A217A210A611A641
:102BC00012A613A614A615A616A614AE15AE83E675
:102BD00087A740E853E46DE678E3CE0101960E94B2
:102BE000570686E0FE013196D50101900D928A9537
:102BF000E1F740E853E46DE678E3CE0101960E94E8
:102C0000570686E0FE013196D30101900D928A9518
:102C1000E1F766EA70E0C40116DF6DE970E0C40117
:102C200012DFF40145825682278230862896CDBF76
:102C3000DEBFDF91CF911F910F91FF90EF90DF905A
:102C4000CF90BF90AF909F908F907F906F905F904C
:102C50004F903F902F900895AF92BF92CF92DF9206
:102C6000EF92FF920F931F93CF93DF931F92CDB7F5
:102C7000DEB78C015B01DC015B96EC90D12CC12CA2
:102C8000FC2CCE1458F5C601880F991FD8015C960C
:102C9000ED91FC91E80FF91F60817181C5010E94DF
:102CA000E629BFEFCB1ADB0A892B51F74F2D50E0F5
:102CB00070E060E0D801ED91FC910084F185E02D99
:102CC000C80109950F90DF91CF911F910F91FF904F
:102CD000EF90DF90CF90BF90AF900895F80161859D
:102CE00083818983CE0101960E949607EBCF0F93D3
:102CF0001F93CF93DF93CDB7DEB7A897CDBFDEBFCD
:102D0000FC0161857285838594851BA21CA21DA28E
:102D10001EA21FA218A62AE08E010F5F1F4FA80156
:102D20000E940823F80101900020E9F73197AF01D4
:102D3000401B510BB801CE01839605DC0BA11CA1F1
:102D4000C8010E946022C801A896CDBFDEBFDF91F6
:102D5000CF911F910F9108950F931F93FC0141850F
:102D6000528563857485038D10E030E020E04017C4
:102D700051076207730764F4440F551F848D958DC6
:102D8000480F591FFA01808191811F910F91089579
:102D90001F910F91ACCFDC019496ED91FC9195972A
:102DA000309721F019968D919C910994A0CFEF93C3
:102DB000FF93F898E3E1F9E30BC0EF93FF93F898E2
:102DC000E3E1F9E334C0EF93FF93E3E1F9E35CC09F
:102DD0002F932FB72F938F939F93AF93BF936894A5
:102DE000CF93DF9320E0C085D8E09089DF01A90F61
:102DF000B21FAF5ABF4F8C9120E42C838A839F5F10
:102E00009F738D812785291302C08F7D8D83908BC1
:102E1000DF91CF9116F00C942802BF91AF919F9152
:102E20008F912F912FBF2F91FF91EF9118952F9395
:102E30002FB72F933F938F939F93CF93DF93C085AB
:102E4000D8E0898198818674880F3485382B82FD7B
:102E50000DC0C58581E08C0F8F732685281791F0F2
:102E6000CE0FDF2F20E0D21F998B85873487DF912B
:102E7000CF919F918F913F912F912FBF2F91FF91D4
:102E8000EF9118953064F2CF8F938FB78F939F9304
:102E9000CF93DF93C085D8E09D8188818C8187FDA9
:102EA000FCCF9F7B90689D83DF91CF919F918F9105
:102EB0008FBF8F91FF91EF9118958F9381E0809351
:102EC0008D0A8FB78F93EF93FF93E0EDF8E39F9315
:102ED00068948FEF0FC0E894848195818C5E9F4F3A
:102EE00084839583885E934010F08FEF03C08483C2
:102EF00095838EEF9081981B919390819F4F919332
:102F000090819F4F919390819F4F919326F39F9132
:102F1000FF91EF918F918FBF8F9118950F9304E0E0
:102F200006C00F9302E003C00F9300E000C00F92B1
:102F30000FB60F921F921124FF921F932F933F936E
:102F40004F935F936F937F938F939F93AF93BF93B1
:102F5000CF93DF93EF93FF93A0E0B8E3A00FB11DF1
:102F6000CD91DC91000F0D5FA02FB0E0FC90109789
:102F700061F01F2D169518F041F02296FBCFE991D4
:102F8000F9913097B9F30995F5CFA02FB0E0FC92F5
:102F9000FF91EF91DF91CF91BF91AF919F918F9171
:102FA0007F916F915F914F913F912F911F91FF9072
:102FB0001F900F900FBE0F900F9118951F920F92B8
:102FC0000FB60F9211241F932F933F934F935F934C
:102FD0006F937F938F939F93AF93BF93CF93DF9321
:102FE000EF93FF93C9EBD9E3E881F981838586FFED
:102FF00056C080FF41C0158581FF38C08E8188236F
:1030000059F08091CB3880935000EB85FC85309748
:1030100019F08E8190E009951C831D821886E98540
:10302000FA85309709F009958D81882319F183E09D
:10303000909150009093CB38917090935000E8811C
:10304000F9818287FF91EF91DF91CF91BF91AF918D
:103050009F918F917F916F915F914F913F912F91B0
:103060001F910F900FBE0F901F9018951C831E820A
:103070001F82DDCF86E0DCCF8091CB38809350007B
:10308000EB85FC85309729F08E81882311F090E044
:1030900009951E821D821F82188682E0D0CF87FF8D
:1030A0002FC081FF1EC0887139F08A8183FF04C060
:1030B0001D82877F8A83F1CF8B818F5F8B838A818B
:1030C00088608A83A8858D81A81738F7AC0FBD2F3B
:1030D000B11D1D968C91858788858F5F888783E0D9
:1030E000AECF8585EE81E03258F4EC0FFD2FF11D57
:1030F00085A78E818F5F8E83803288F386E09FCF95
:1031000080E09DCF1F920F920FB60F9211248F93E4
:1031100081E080931039809353018F910F900FBEFF
:103120000F901F901895CF93109215391092163961
:1031300048EE53E060E070E040931739509318393F
:103140006093193970931A3980E595ED809313399E
:103150009093143980E098E080931B3990931C3948
:1031600010921D3910921E3984E08093B03991E39A
:103170009093AF3920E238E02093A4393093A539F9
:103180001092AB391092B3391092B4394093B539DB
:103190005093B6396093B7397093B83922E635ED5C
:1031A0002093B1393093B23920E138E02093B93916
:1031B0003093BA3928E935ED2093253A3093263AF1
:1031C00090932C3A80932D3A10922E3A10922F3AE7
:1031D00083E08093323AC2E0C0932B3A84EA99E3C9
:1031E0008093303A9093313A1092333A1092343AB5
:1031F0001092353A1092363A40E853E46DE678E39F
:103200008FE19AE30E94570610921C3A10921D3AE1
:1032100010921E3A1092063A82E390E080930B3AA5
:1032200090930C3A10920E3A1092153A1092163A68
:103230001092173A1092183A81E08093143A8093D2
:10324000113A1092123AC093133A89E090E08093B9
:10325000093A90930A3A0E94C42180930F3A9093BE
:10326000103A009729F129E0FC0111922A95E9F71B
:1032700083E090E08093073A9093083A8CE0809343
:103280000D3A8091063A882341F061E08CE00E947B
:103290009E0B60E08CE00E946B0884E494E08093D5
:1032A000193A90931A3A84E080931B3ACF9108958B
:1032B0001092093A10920A3A1092073A1092083A7C
:1032C000DDCFCF93DF93CDB7DEB7E597CDBFDEBFC0
:1032D00081E098ED94BF80936100E0E0F6E092E534
:1032E00092839AE0958390E2938380831092020206
:1032F0008093030A9EEF9093260A9093270A9BE0FF
:103300009093000AE0E8FAE02DEF31E026A737A716
:10331000118290E89283848781E180837894809100
:103320001F3980FF12C083E199E30E948F02E09170
:103330001B39F0911C391682158280EC84838091B0
:1033400021398093203910921F39FFB6F894E0910B
:103350001B39F0911C39168283E0878385E191E067
:1033600080879187148680E8858380EC868390919E
:103370001E3900911D3980910102992309F450C032
:10338000816080930102090F1127111F000F111F87
:10339000000F111F02521B4261E0D8018C910E9464
:1033A0009E0B62E0F80181810E949E0BFFBE8FE5BB
:1033B00091E00E94750286EB95ED0E94210F61E07D
:1033C00080910D3A0E949E0B60E080910D3A0E9420
:1033D0006B0881E08093063A60910E3A6B3041F1C0
:1033E00020910F3A3091103A6150E1F070E08FEF88
:1033F0009AE00E942728F9014091093A50910A3A2F
:10340000CF01821B930B8417950778F4DF014D9150
:10341000469FC001479F900D11249083FD01ECCF82
:103420008E7FAFCF70E060E0E6CF8BE080930E3A06
:1034300040E050E06FEF70E090E080E00E943601E5
:103440000E94D102809100148093F43860E083E000
:103450000E949E0B11E083E00E94170D84369105B7
:103460000CF04CC04FEF50E060E070E090E080E086
:103470000E9436010E94D1022FB7F8948091D4386F
:103480009091D538A091D638B091D7382FBF8131DF
:103490009742A105B10540F164E670E080E090E05C
:1034A0000E94820340E050E0BA0190E080E00E9478
:1034B00036010E94D1022FB7F8948091D4389091B0
:1034C000D538A091D638B091D7382FBF81319742E7
:1034D000A105B10570F064E670E080E090E00E9424
:1034E00082031093F338B7CF6CE271E080E090E094
:1034F000D7CF6CE271E080E090E0F1CF2FB7F89485
:103500008091D4389091D538A091D638B091D738E1
:103510002FBF81319742A105B10518F08FEF80933D
:10352000F4384FEF50E060E070E090E080E00E94FF
:1035300036010E94D1028091F4388F3F09F09CC07F
:1035400086E096ED0E946B0F86E18093F43810922E
:10355000F23864EF78E380E00E94A80762EF78E336
:1035600081E00E94A80788E0E2E6F4EDDE01119612
:1035700001900D928A95E1F7BE016F5F7F4F82E067
:103580000E94C30788E0EAE6F4EDDE01119601909F
:103590000D928A95E1F7BE016F5F7F4F8AE00E942E
:1035A000C30788E0E2E7F4EDDE01119601900D9289
:1035B0008A95E1F7BE016F5F7F4F82E10E94C307EA
:1035C00088E0EAE7F4EDDE01119601900D928A950C
:1035D000E1F7BE016F5F7F4F8AE10E94C30788E079
:1035E000E2E6F4EDDE01119601900D928A95E1F785
:1035F000BE016F5F7F4F82E20E94C30788E0EAE668
:10360000F4EDDE01119601900D928A95E1F7BE016D
:103610006F5F7F4F8AE20E94C30788E0E2E8F4ED23
:10362000DE01119601900D928A95E1F7BE016F5F60
:103630007F4F82E30E94C30788E0EAE7F4EDDE01F2
:10364000119601900D928A95E1F7BE016F5F7F4F51
:103650008AE30E94C30782E48E8B60E0CE01469627
:103660000E94960783E48E8B60E0CE0146960E940E
:10367000960781E08093F338809101148093F238AB
:103680006091F43870E090E080E04AE00E942E0FF4
:1036900081EC95ED0E94210F6091F23870E090E08E
:1036A00080E04AE00E942E0F88E196ED0E94210FF3
:1036B0004AE061EB71E080E090E00E942E0F86EB23
:1036C00095ED0E94210F11E01093113981E592E1EF
:1036D0008093CE389093CF381092CC381092CD385A
:1036E00040E45EE06FEC79E185E29AE30E94390CF8
:1036F000892B49F510920E398CE196ED0E946B0FE3
:1037000013E040E050E06FEF70E081E090E00E9455
:1037100036010E94D10264E670E080E090E00E94F1
:10372000820340E050E0BA0181E090E00E9436015F
:103730000E94D10264E670E080E090E00E94820383
:103740001150F9F66BC08FE29AE08093273A90937C
:10375000283A85E29AE30E94C30B82EB9AE08093B9
:10376000293A90932A3A85E29AE30E94C30B63E1D7
:1037700070E085E29AE30E94720B43EC61EB85E214
:103780009AE30E9400094AE067EB85E29AE30E940F
:1037900000096EE185E29AE30E9446098F70482F86
:1037A00040696EE985E29AE30E9400090E94480997
:1037B0006DE185E29AE30E9446098F70482F4067C9
:1037C0006DE985E29AE30E9400090E9448096DE1D3
:1037D00085E29AE30E944609817F482F42606DE9A5
:1037E00085E29AE30E94000985E29AE30E94A30A17
:1037F00010930E3987E296ED0E946B0F40E05FEF69
:1038000060E070E090E080E00E9436010E94D1020A
:1038100064E670E080E090E00E9482038091BB3912
:1038200081FD26C082FD24C08091010284FF20C357
:1038300086E0809306048091BB3982608093BB3917
:10384000E091B939F091BA3981E083838583909111
:10385000BB3991FF0DC09681913251F023811382C3
:1038600091E2968390819D7F9083238320FD8583C1
:103870008FE296ED0E946B0F88E290E085D57C0187
:1038800001E511E023E531E041E062E00E945F0ED6
:10389000C7010E94D50FFC0180930C3990930D391C
:1038A00029E1E22E25E0F22EE2A2F3A2148E158E7B
:1038B000168E178E10A211A288E290E065D56C01D9
:1038C00003E411E025E431E042E063E00E945F0E92
:1038D000C6010E94D50FFC0180930A3990930B39E1
:1038E000E2A2F3A2148E158E168E178E10A211A2CC
:1038F0008CE190E049D58C0185E0D80112968C933B
:103900001297CC24CA94DC2C1396CD92DC92149797
:103910004DE0242E312C15962D923C921697EE24D4
:10392000E394F12C1796ED92FC92189753961D9202
:103930001C9254975196ED92FC9252978AE391E033
:1039400055968D939C93569757961D921C92589717
:1039500061EC462E6DEB562E60EF662E77247A943E
:10396000F80141865286638674867EE3872E72E470
:10397000972E7FE0A72EB12C1D968D929D92AD9231
:10398000BC92509759961D921C925A97EAEEF4ED0C
:10399000ED93FC9311978BE05B968C9361E00E9412
:1039A0009E0BD8015B968C910E943E08082E000C5D
:1039B000990BAA0BBB0BF80181879287A387B48769
:1039C00082E090E08583968317821086C8010E946A
:1039D000D50F8093F0389093F1388CE190E0D4D4F7
:1039E0008C0186E0D80112968C9312971396CD9293
:1039F000DC92149715962D923C9216971796ED929D
:103A0000FC92189753961D921C9254975196ED92E2
:103A1000FC92529781E391E055968D939C93569733
:103A200057961D921C925897F801418652866386DC
:103A300074861D968D929D92AD92BC925097599628
:103A40001D921C925A97EAEEF4EDED93FC931197B8
:103A50008AE05B968C9361E00E949E0BD8015B9696
:103A60008C910E943E08082E000C990BAA0BBB0BF0
:103A7000F80181879287A387B48782E090E08583ED
:103A8000968317821086C8010E94D50F8093EE3866
:103A90009093EF388FE190E077D47C0110E000E064
:103AA00025E231E042E050E067E00E943305C701C3
:103AB0000E94D50F3C018093EC389093ED388FE154
:103AC00090E062D47C010AE111E02CE131E042E1B6
:103AD00050E068E00E943305C7010E94D50F7C01C9
:103AE0008093EA389093EB388FE190E04DD46C01ED
:103AF0000AE011E02EE031E04AE150E069E00E9486
:103B00003305C6010E94D50F6C018093E83890936D
:103B1000E9388FE190E038D45C010DEF10E02FEF31
:103B200030E04AE050E06AE00E943305C5010E949F
:103B3000D50F8093E6389093E7388FE190E024D456
:103B40005C0110E000E021EF30E042E250E06BE089
:103B50000E943305C5010E94D50F8093E4389093ED
:103B6000E5388FE190E010D45C0106EE10E028EE1D
:103B700030E042E350E06CE00E943305C5010E9452
:103B8000D50F8093E2389093E3388FE190E0FCD337
:103B90005C0106ED10E02AED30E04AE350E06DE014
:103BA0000E943305C5010E94D50F8093E0389093A1
:103BB000E1388FE190E0E8D35C0109EC10E02BECF8
:103BC00030E04AE250E06EE00E943305C5010E94F9
:103BD000D50F8093DE389093DF388EE390E0D4D316
:103BE0004C012091F0383091F138E1ECAE2EE0E05C
:103BF000BE2E830142E450E06FE00E946315C401D1
:103C00000E94D50FFC018093DC389093DD388091C1
:103C10000C3990910D392091E6383091E73820A782
:103C200031A782A793A714A68EE390E0ADD34C01F1
:103C3000C090E038D090E138E090E238F090E3387E
:103C40000091E4381091E5382091EE383091EF384A
:103C5000F9EBAF2EF0E0BF2E43E450E060E10E94AC
:103C60006315C4010E94D50FFC018093DA3890934C
:103C7000DB3880910A3990910B392091DE383091F0
:103C8000DF3820A731A782A793A714A68091F33825
:103C9000882309F4F1C084EF95ED0E946B0F8091A9
:103CA000F338882309F426C180910E39882309F45A
:103CB00021C18E01085D1F4F8EE0F82ED801EF2D37
:103CC0001D92EA95E9F78EEF8EA38DE08FA383E036
:103CD00088A748E050E060EB70E0CE01899689D477
:103CE00030E020E0AE014A5D5F4F6091F438809192
:103CF000F2380E943B0BD8011D92FA94E9F745E097
:103D000050E06AEA70E0C80174D422E030E0AE010D
:103D10004A5D5F4F6091F4388091F2380E943B0B0E
:103D200018A627E030E0AE014A5D5F4F6091F4389D
:103D30008091F2380E943B0BD12C4E01B8E18B0EE2
:103D4000911C9EE0C92E80911E3AD81608F097C0AB
:103D50008D2D90E0880F991FE0911C3AF0911D3A4B
:103D6000E80FF91F00811181F8018281882309F48D
:103D70007DC0D401EC2D1D92EA95E9F78E8BD80118
:103D800015968C9115978F8B17968C911797888F16
:103D90005596ED90FC90C70123D48D30910510F01D
:103DA0008DE090E0AC01B701CE01499622D430E01D
:103DB00020E0AE014A5E5F4F6091F4388091F238A6
:103DC0000E943B0BF801A788B08CA114B10451F1FB
:103DD000C50106D47C01892B29F1D80112968C915A
:103DE0008983A701BEE0EB16F10410F04EE050E02D
:103DF000B501CE010396FDD3EEE0EE16F10438F4E2
:103E0000E3E0F0E0EC0FFD1FEE0DFF1D108221E05E
:103E100030E0AE014F5F5F4F6091F4388091F2382F
:103E20000E943B0BD801ED91FC910288F389E02DB3
:103E3000C8010995F4012C2D11922A95E9F7D801B2
:103E400012968C9112978E8B15968C9115978F8B5D
:103E500017968C91888F27E030E0AE014A5E5F4F65
:103E60006091F4388091F2380E943B0BD3946BCF71
:103E700083E080932604DFCC8EEF95ED0ECFF3E048
:103E8000CF2ED12CE12CF12C812C912C54018A9431
:103E900093948091F338882369F10E9408102FB71A
:103EA000F8946091D4387091D5388091D63890913B
:103EB000D7382FBFA70196010E944E28CA01B90129
:103EC000A50194010E944E286F5F710977FF03C01E
:103ED000719561957109AB01770F660B770B762FA2
:103EE000652F542F442790E080E00E9436010E9405
:103EF000D102CFCF80ED8093BD391092BE390E94A0
:103F0000EA0091E0811190E090930F398111C7C0D0
:103F10008FE396ED0E946B0F0E9427046FE17AE316
:103F2000CE0101960E94E212CE0101960E947B0F03
:103F300089819A81C5D28091A1008D7F8093A10053
:103F4000809102068F7C806580930206F8948091B0
:103F500041018111FCCF11E0109340011092470103
:103F60001093520181E780935001789480E596ED9B
:103F70000E946B0F1093103840E050E0BA0190E0BF
:103F800080E00E9436010E94D1028091F438909125
:103F9000F23899838A838CEF8B838DE68C83CE01F4
:103FA00001960E94170B89E596ED0E946B0F49EF71
:103FB000C42E48E3D42E50E1A52E809110398823D9
:103FC00009F48BC0109210398FE19AE30E944D07DB
:103FD0002B013C01BFEF4B1A5B0A6B0A7B0AB30152
:103FE000A201CE0101960E94570686E0FE0131969D
:103FF000AFE1BAE301900D928A95E1F740E050E01D
:10400000BA0140FE10C080910F39882341F08091A1
:104010000E3940E05FEF60E070E0811104C040E0E5
:1040200050E06FEF70E090E080E00E9436010E9467
:10403000D102809110388823C1F0109210388091FD
:104040000C3990910D39DC01ED91FC910088F189DA
:10405000E02D099580910A3990910B39DC01ED91A1
:10406000FC910088F189E02D099510E080911E3ABD
:10407000181798F5812F90E0880F991FE0911C3A4E
:10408000F0911D3AE80FF91F80819181DC01ED91DB
:10409000FC910088F189E02D09951F5FE7CF40E092
:1040A00050E06FEF70E082E090E00E9436010E94E5
:1040B000D10264E670E080E090E00E94820340E07C
:1040C00050E0BA0182E090E00E9436010E94D102E5
:1040D00086E496ED0E946B0F2ECF8091233A90E0FC
:1040E000B0E0A0E040910C3850910D3860910E384E
:1040F00070910F3884179507A607B707A9F080932A
:104100000C3890930D38A0930E38B0930F386FE1B0
:104110007AE3CE0101960E94E212CE0101960E943E
:104120007B0F89819A81CCD18091223A90E0B0E0D6
:10413000A0E0409108385091093860910A38709198
:104140000B3884179507A607B70779F00E94270454
:104150008091223A90E0B0E0A0E0809308389093FC
:104160000938A0930A38B0930B380E940810B12C7C
:1041700080911E3AB81608F0BBC08B2D90E0880FD6
:10418000991FE0911C3AF0911D3AE80FF91F008148
:104190001181F801418552856385748585859685F1
:1041A000841B950B97FF03C0919581959109D801C8
:1041B00053962D913C915497281739070CF06CC0F9
:1041C00012968C911297882309F466C0F8014587EE
:1041D00056876787708B0580F681E02DED30F105FD
:1041E00008F04CC0EB50FF4D97C70221022102217D
:1041F0003E214E213E213E214E2102213E213E21E3
:104200004E21022155968D919C910E94750281EC60
:1042100095ED0E94210FF8014184528463847484D7
:104220004AE0C301B20177FE0DC06DE283E199E37C
:104230000E94290266277727CB0164197509860930
:1042400097094AE00E942E0F86EB95ED0E94210F00
:10425000F80181859285A385B4858093F938909380
:10426000FA38A093FB38B093FC3881899289809307
:10427000FD389093FE38C8010E94590BD801599619
:10428000ED91FC915A97309739F019966D917D9187
:104290008D919C911C970995B3946ACFED91FC91F7
:1042A0000680F781E02DC80109957C01F801858918
:1042B00096890E94750281EC95ED0E94210FC7013D
:1042C0000E946B0FF70101900020E9F73197D601AA
:1042D0002A2D1D922A95E9F7EE19E13108F0E0E167
:1042E0004E2F50E0B70189EF98E30E94F629C3CF23
:1042F0008BE00E943E08082E000C990B2091073895
:1043000028171906A1F08BE00E943E088093073819
:1043100040E05FEF60E070E0811103C040E050E0FA
:10432000BA0181E090E00E9436010E94D1028AE049
:104330000E943E08082E000C990B20910638281781
:10434000190609F43ACE8AE00E943E0880930638A6
:1043500040E05FEF60E070E0811103C040E050E0BA
:10436000BA0182E090E00E9436010E94D10225CE7F
:1043700080910F3A9091103A009709F0A1D060E037
:1043800080910D3A0C949E0B0F931F93CF93DF9364
:104390008230910510F482E090E0E091393AF0919A
:1043A0003A3A30E020E0B0E0A0E0309799F42115EF
:1043B000310509F44AC0281B390B24303105D8F5E2
:1043C0008A819B816115710589F1FB018283938349
:1043D000FE0111C0408151810281138148175907A4
:1043E000E0F04817590799F4109761F012960C9372
:1043F000129713961C933296CF01DF91CF911F91A4
:104400000F9108950093393A10933A3AF4CF211559
:10441000310551F04217530738F0A901DB019A0129
:10442000BD01DF01F801C1CFEF01F9CF8093393A27
:1044300090933A3ACDCFFE01E20FF31F819391930F
:104440002250310928833983D7CF2091373A3091D0
:10445000383A232B41F420911338309114382093AB
:10446000373A3093383A209111383091123821156B
:10447000310541F42DB73EB74091153850911638AB
:10448000241B350BE091373AF091383AE217F307E5
:10449000A0F42E1B3F0B2817390778F0AC014E5FB4
:1044A0005F4F2417350748F04E0F5F1F4093373A90
:1044B0005093383A819391939FCFF0E0E0E09CCF06
:1044C000CF93DF930097E9F0FC01329712821382B9
:1044D000A091393AB0913A3AED0130E020E01097DE
:1044E000A1F420813181820F931F2091373A3091BE
:1044F000383A2817390709F061C0E093373AF0934A
:10450000383ADF91CF910895EA01CE17DF07E8F539
:104510004A815B819E0141155105B1F7E901EA83AA
:10452000FB8349915991C40FD51FEC17FD0761F426
:10453000808191810296840F951FE9018883998378
:10454000828193818A839B83F0E0E0E012968D91D3
:104550009C9113970097B9F52D913C911197CD013E
:104560000296820F931F2091373A3091383A2817DC
:10457000390739F6309751F51092393A10923A3A94
:10458000A093373AB093383ABCCFC283D3834081EB
:104590005181840F951FC817D90761F44E5F5F4F93
:1045A00088819981480F591F408351838A819B815B
:1045B000828393832115310509F0B0CFE093393A16
:1045C000F0933A3A9ECFFD01DC01C0CF12821382F4
:1045D000D7CFFB01DC0105900D920020E1F7089593
:1045E000FC0105900020E9F7809590958E0F9F1FA4
:1045F0000895FB01DC014150504048F005900D92B8
:104600000020C9F701C01D9241505040E0F70895C5
:10461000BB272A3051F4992342F4BDE2909580954E
:10462000709561957F4F8F4F9F4F01C0BB27FA0157
:10463000A62F6217710581059105330B30FB66F0DB
:10464000AA27660F771F881F991FAA1FA21710F0AD
:10465000A21B63953850A9F7A05DAA3308F0A95DA5
:10466000A19336F7B111B1931082CA01E1C1ABE059
:10467000B0E0ECE3F3E29DC37C013B018A01FC0165
:1046800016821782838181FFBAC1CE0101965C0137
:10469000F7019381F30193FD859193FF81913F0190
:1046A000882309F449C1853239F493FD859193FF3C
:1046B00081913F01853221F4B70190E0C9D1E8CF63
:1046C000912C212C312CFFE1F31538F08B3211F1B4
:1046D00090F4803209F1833229F137FC3CC020ED9F
:1046E000280F2A3050F536FE20C08AE0989E200D13
:1046F0001124922E06C08D3291F0803371F76894A8
:1047000030F8F30193FD859193FF81913F01811171
:10471000DACF21C0689431F8689432F8F2CF689407
:1047200033F8EFCF689434F8ECCFEAE02E9E200DFA
:104730001124222E689435F8E4CF8E3229F436FC09
:10474000FBC0689436F8DDCF8C3619F4689437F8DE
:10475000D8CF8836B1F2982F9F7D95549330D8F0FA
:10476000833691F18337B1F1833509F05EC02801BA
:10477000F2E04F0E511CF801C080D180692D70E02D
:1047800036FC02C06FEF7FEFC6013CD14C0168944C
:1047900037F882010AC00C5F1F4FFFE3F9838824BA
:1047A0008394912C6501E89437F833FE2AC0522C8B
:1047B0008114910459F5552009F46ACFB70180E2BC
:1047C00090E046D15A94F7CFF801808189830E5F3B
:1047D0001F4FE5CF2801F2E04F0E511CF801C080B9
:1047E000D180692D70E036FC02C06FEF7FEFC6010B
:1047F00014D14C018201D7CFB70180E290E028D1DB
:104800002A942814190409F0B8F7D1CFF60137FC1F
:10481000859137FE81916F01B70190E019D1511058
:104820005A94F1E08F1A9108C3CF843619F0893673
:1048300009F073C0F80137FE67C060817181828121
:1048400093810C5F1F4FF32DFF763F2E97FF09C01A
:1048500090958095709561957F4F8F4F9F4F68948D
:1048600037F82AE030E0A50123D1C82ECA188C2CD5
:10487000432C36FE0CC0E89440F8C91440F434FED2
:1048800005C032FC03C0F32DFE7E4F2E892C44FE62
:1048900090C0FE01EC0DF11D8081803309F082C0D3
:1048A000242D297E422E842D8870582E43FC8FC0E3
:1048B00040FE89C09C2C821418F42C0C922C981861
:1048C00044FE8BC0B70180E390E0C2D042FE08C036
:1048D00088E790E041FE02C088E590E0B701B8D0DB
:1048E000C91408F486C0CA94D12C9FEFC91AD90AFA
:1048F000CA0CDB1CF60182916F01B70190E0A8D0D1
:10490000AC14BD04B9F757CF60817181072E000C3C
:10491000880B990B0E5F1F4F96CFD32CE894D4F8D9
:104920002AE030E0853731F1232D297FD22E8F36D2
:10493000F9F040F48835A1F0F701868197812B9634
:10494000E2E150C2803749F08837B1F7D4FE02C0A7
:104950006894D2F820E130E00DC06894D4F8F6CF26
:1049600034FE03C0822F8660D82E20E132E002C0E0
:1049700028E030E0F801D7FE0EC0608171818281AD
:1049800093810C5F1F4FA50193D0C82ECA183D2CF0
:10499000E89437F86CCF6081718190E080E00E5F21
:1049A0001F4FF1CF42FC02C083947DCF8394839448
:1049B0007ACF842D867809F476CFF6CFB70180E2DE
:1049C00090E046D083948214C8F3512C79CF522CB6
:1049D0005818821408F474CFF8CF842D867809F41F
:1049E0007FCF8BE241FE80E247FC8DE2B70190E091
:1049F00076CFB70180E390E02BD09A9471CF8FEF00
:104A00009FEF9DCFFC010590615070400110D8F7D9
:104A1000809590958E0F9F1F0895FC016150704006
:104A200001900110D8F7809590958E0F9F1F0895E3
:104A3000DC01FC01672F71917723E1F7329704C005
:104A40007C916D9370836291AE17BF07C8F3089590
:104A50000F931F93CF93DF93182F092FEB018B81B7
:104A600081FD09C01FEF0FEF812F902FDF91CF91B4
:104A70001F910F91089582FF14C02E813F818C8178
:104A80009D81281739073CF4E881F981CF0101960F
:104A90008883998310838E819F8101968E839F8363
:104AA000E3CFE885F985812F0995892BA1F3DACF2A
:104AB000FA01AA27283051F1203181F1E8946F934F
:104AC0006E7F6E5F7F4F8F4F9F4FAF4FB1E03ED0F5
:104AD000B4E03CD0670F781F891F9A1FA11D680F93
:104AE000791F8A1F911DA11D6A0F711D811D911DC6
:104AF000A11D20D009F468943F912AE0269F11243B
:104B00003019305D3193DEF6CF010895462F47709E
:104B1000405D4193B3E00FD0C9F7F6CF462F4F70F9
:104B2000405D4A3318F0495D31FD4052419302D057
:104B3000A9F7EACFB4E0A6959795879577956795FD
:104B4000BA95C9F700976105710508959B01AC01FD
:104B50000A2E06945795479537952795BA95C9F724
:104B6000620F731F841F951FA01D089540D008F485
:104B700081E00895E89409C097FB3EF490958095F4
:104B8000709561957F4F8F4F9F4F9923A9F0F92F13
:104B900096E9BB279395F695879577956795B79591
:104BA000F111F8CFFAF4BB0F11F460FF1BC06F5F77
:104BB0007F4F8F4F9F4F16C0882311F096E911C089
:104BC000772321F09EE8872F762F05C0662371F0AA
:104BD00096E8862F70E060E02AF09A95660F771FBE
:104BE000881FDAF7880F9695879597F90895990F9A
:104BF0000008550FAA0BE0E8FEEF16161706E807A7
:104C0000F907C0F012161306E407F50798F0621BC7
:104C1000730B840B950B39F40A2661F0232B242B9C
:104C2000252B21F408950A2609F4A140A6958FEFBB
:104C3000811D811D08950BD078C069D028F06ED0F9
:104C400018F0952309F05AC05FC01124A2C07ED08D
:104C5000A0F3959FD1F3950F50E0551F629FF0018F
:104C6000729FBB27F00DB11D639FAA27F00DB11DE8
:104C7000AA1F649F6627B00DA11D661F829F222771
:104C8000B00DA11D621F739FB00DA11D621F839FF8
:104C9000A00D611D221F749F3327A00D611D231FCE
:104CA000849F600D211D822F762F6A2F11249F571C
:104CB00050408AF0E1F088234AF0EE0FFF1FBB1F3F
:104CC000661F771F881F91505040A9F79E3F5105DE
:104CD00070F014C05EC05F3FECF3983EDCF3869545
:104CE00077956795B795F795E7959F5FC1F7FE2B89
:104CF000880F911D9695879597F9089597F99F6765
:104D000080E870E060E008959FEF80EC0895002453
:104D10000A941616170618060906089500240A9420
:104D200012161306140605060895092E0394000CA6
:104D300011F4882352F0BB0F40F4BF2B11F460FF35
:104D400004C06F5F7F4F8F4F9F4F089557FD90585E
:104D5000440F551F59F05F3F71F04795880F97FB3F
:104D6000991F61F09F3F79F08795089512161306F9
:104D70001406551FF2CF4695F1DF08C01616170628
:104D80001806991FF1CF869571056105089408955D
:104D9000E894BB2766277727CB0197F908953AD087
:104DA000A59F900DB49F900DA49F800D911D11247F
:104DB00008952F923F924F925F926F927F928F92BF
:104DC0009F92AF92BF92CF92DF92EF92FF920F939A
:104DD0001F93CF93DF93CDB7DEB7CA1BDB0BCDBFDD
:104DE000DEBF09942A88398848885F846E847D8470
:104DF0008C849B84AA84B984C884DF80EE80FD8083
:104E00000C811B81AA81B981CE0FD11DCDBFDEBF20
:104E1000ED010895A29FB001B39FC001A39F700D43
:104E2000811D1124911DB29F700D811D1124911DB2
:104E300008955058BB27AA270ED077CF68DF30F0EF
:104E40006DDF20F031F49F3F11F41EF45DCF0EF4BE
:104E5000E095E7FB53CFE92F79DF80F3BA176207BC
:104E600073078407950718F071F49EF591CF0EF43F
:104E7000E0950B2EBA2FA02D0B01B90190010C016A
:104E8000CA01A0011124FF27591B99F0593F50F482
:104E9000503E68F11A16F040A22F232F342F4427DA
:104EA000585FF3CF469537952795A795F0405395D2
:104EB000C9F77EF41F16BA0B620B730B840BBAF0A2
:104EC0009150A1F0FF0FBB1F661F771F881FC2F70D
:104ED0000EC0BA0F621F731F841F48F48795779521
:104EE0006795B795F7959E3F08F0B3CF9395880FD8
:104EF00008F09927EE0F9795879508950CD015CF58
:104F00000DDF40F004DF30F021F45F3F19F0F6CE02
:104F100051113FCFF9CE1ADF98F39923C9F35523E6
:104F2000B1F3951B550BBB27AA276217730784079C
:104F300038F09F5F5F4F220F331F441FAA1FA9F352
:104F400033D00E2E3AF0E0E830D091505040E69544
:104F5000001CCAF729D0FE2F27D0660F771F881FA5
:104F6000BB1F261737074807AB07B0E809F0BB0B94
:104F7000802DBF01FF2793585F4F2AF09E3F5105B8
:104F800068F0BCCE06CF5F3FECF3983EDCF386952D
:104F900077956795B795F7959F5FC9F7880F911D2E
:104FA0009695879597F90895E1E0660F771F881F1A
:104FB000BB1F621773078407BA0720F0621B730BCD
:104FC000840BBA0BEE1F88F7E095089504D068941F
:104FD000B111DFCE0895C2DE88F09F5790F0B92F4F
:104FE0009927B751A0F0D1F0660F771F881F991F3E
:104FF0001AF0BA95C9F712C0B13081F0C9DEB1E03C
:105000000895C6CE672F782F8827B85F39F0B93F4B
:10501000CCF3869577956795B395D9F73EF490953F
:105020008095709561957F4F8F4F9F4F0895DFDD7D
:1050300008F48FEF0895991B79E004C0991F961723
:1050400008F0961B881F7A95C9F780950895AA1BCA
:10505000BB1B51E107C0AA1FBB1FA617B70710F063
:10506000A61BB70B881F991F5A95A9F78095909595
:10507000BC01CD01089597FB072E16F4009406D0CD
:1050800077FD08D0E4DF07FC05D03EF490958195CC
:105090009F4F0895709561957F4F0895A1E21A2E54
:1050A000AA1BBB1BFD010DC0AA1FBB1FEE1FFF1FCC
:1050B000A217B307E407F50720F0A21BB30BE40B1C
:1050C000F50B661F771F881F991F1A9469F7609563
:1050D0007095809590959B01AC01BD01CF0108951D
:1050E000052E97FB16F400940FD057FD05D0D6DFA0
:1050F00007FC02D046F408C05095409530952195A4
:105100003F4F4F4F5F4F08959095809570956195F3
:105110007F4F8F4F9F4F0895EE0FFF1F0590F49123
:10512000E02D0994689401C0E8948F929F92CF93E8
:10513000DF9305D0DF91CF919F908F9008958824C1
:105140009924F401E401B0E49F93AA279A158B04F3
:105150009C04ED05FE05CF05D007A10798F4AD2FFF
:10516000DC2FCF2FFE2FE92D982C892E982F872FFB
:10517000762F652F542F432F322F2227B85031F727
:10518000BF9127C01B2EBF91BB27220F331F441F87
:10519000551F661F771F881F991F881C991CEE1FBB
:1051A000FF1FCC1FDD1FAA1FBB1F8A149B04EC0529
:1051B000FD05CE05DF05A007B10748F08A189B085A
:1051C000EC09FD09CE09DF09A00BB10B21601A948F
:1051D000E1F62EF49401AF01BE01CD01000C08955B
:1051E000002E083090F0982F872F762F652F542FA0
:1051F000432F322F22270850F4CF220F331F441F92
:10520000551F661F771F881F991F0A95B2F7002D3B
:10521000089597FD1094002E083098F00850232F21
:10522000342F452F562F672F782F892F912DF4CFAC
:1052300015949795879577956795579547953795E1
:1052400027950A95AAF71124002D0895B0E0A0E053
:10525000EBE2F9E2B0CD8C01009741F4CB0194D898
:105260008C01C801CDB7DEB7E0E1BECDFC01E60F91
:10527000F71F9C0122503109E217F30708F49AC086
:10528000D901CD91DC911197C617D70790F0C530A1
:10529000D10538F3CE0104978617970710F3C61B84
:1052A000D70B2297C193D1936D937C93CF0108D9EB
:1052B000D8CF5B01AC1ABD0A4C018C0E9D1EA0918B
:1052C000393AB0913A3A512C412CF12CE12C1097FB
:1052D00031F58091373A9091383A8815990509F05F
:1052E0005CC04616570608F058C08091113890915E
:1052F0001238009741F48DB79EB740911538509100
:105300001638841B950BE817F90708F053C0E09393
:10531000373AF093383AF90160837183A2CF8D91C7
:105320009C91119712966C90129713967C901397FC
:10533000A815B90559F56C0142E0C40ED11CCA1478
:10534000DB0420F1AC014A195B09DA0112961597CA
:1053500080F06282738240835183D9016D937C9384
:10536000E114F10471F0D7011296ED93FC931397B9
:1053700078CF22968C0F9D1FF90180839183F301D2
:10538000EFCFE093393AF0933A3A6BCF481659068B
:1053900008F42C017D01D3019ACFCB010E94C421D6
:1053A0007C01009739F0AE01B80107D0C80188D858
:1053B000870157CF10E000E054CFFB01DC0102C0B1
:1053C00001900D9241505040D8F70895FB01DC0147
:1053D0008D91019080190110D9F3990B0895FB016B
:1053E000DC0101900D920020E1F70895FB01DC0142
:1053F0004150504048F001900D920020C9F701C083
:105400001D9241505040E0F70895AEE0B0E0EAE070
:10541000FAE2DDCC0D891E8986E08C8309831A832C
:105420008FEF9FE78D839E83AE01475E5F4F6F894D
:10543000788DCE0101961BD92F813885020F131F5D
:10544000F80110822E96E4E0DBCC10E0C4EBD0E053
:1054500003C0FE0161DE2196C53BD107D1F7F89468
:02546000FFCF7C
:10546200000006000100010000006400320001009B
:1054720000001700140001000A0058023C0001005D
:1054820000001700150001000000000017060A06C0
:10549200E6057716E005D505F207AE053205DC0E06
:1054A2000000000017061307E605AC16E005D50557
:1054B200AF052C162E13EA11101080000000001008
:1054C200101040400000000010000405060705040B
:1054D200030201000001020301020300070608099A
:1054E2000E0F10000000000062085908E60577164A
:1054F2008F0FA305AF05AE0532053205000000008F
:1055020017060A06E6057716E005D505AF05AE05CE
:10551200CE0F32050000000017060A06E605CB167C
:10552200E005D505AF05AE054D0D3205781E00A08C
:105532002800F03C00405100127A00E4A20024F45A
:105542000048E80190D00320A107000000002902D2
:105552009F01CC018F02FD01DB01EF010000000081
:105562001504F3041605E1030F04FD03E9031020FB
:10557200408020100804020101020408020408010C
:10558200000000000101010101010202020200000B
:10559200000000000000390C180CA309400943095F
:1055A200720B060AC00AA30A9D0A640A0C0C000CBC
:1055B200930790070D0A004F464600203D20002029
:1055C2003E200025752D253032642D25303264545D
:1055D200253032643A253032643A25303264005341
:1055E20074617274206174200053746F702061744E
:1055F200200073656E6420636F6E6600636F6E6673
:10560200206F6B00496E697469616C697A65204527
:105612004550524F4D00202F20004C6F52612045C3
:1056220072726F72004C6F5261204F4B00496E696B
:105632007420656C656D656E7473203A0052544334
:10564200206F6B00525443206572726F720054696E
:105652006D6572204F4E00536574757020646F6ED5
:025662006500E1
:105664002C3820381838FFFF630000006300000066
:085674000100003B3A80000038
:00000001FF
