:1000000060C0000092C0000090C000000C94B70ACD
:100010000C94B40A0C94B10A88C0000086C0000099
:1000200084C0000082C0000080C000007EC00000CC
:100030007CC000007AC0000078C000000C94800AE8
:1000400074C0000072C0000070C000006EC00000EC
:100050006CC000006AC0000068C0000066C00000FC
:1000600064C0000062C0000060C000005EC000000C
:100070005CC000005AC0000058C000004D4C453321
:10008000310047617465004F70656E006D730050FC
:10009000756C73652074696D6500436F6D6D616E7D
:1000A00064004F70656E656400436C6F7365640037
:1000B00052696E67001F1C1F1E1F1E1F1F1E1F1E62
:1000C000010B11241FBECFEFCDBFDFE3DEBF809158
:1000D000400080934000811105C098ED21E094BF5D
:1000E000209341008CBB18E3A0E0B8E3E6E8FBE214
:1000F00002C005900D92AC30B107D9F728E3ACE00F
:10010000B8E301C01D92AF3BB207E1F710E0C1E6D2
:10011000D0E004C02197FE010E946712C036D107CB
:10012000C9F70E94890B0C943E156ACF8F929F925B
:10013000AF92BF92CF92DF92EF92FF9220919F38C1
:100140003091A038232B09F440C04C01AA24BB24D1
:10015000C72ED82EE92EFF24BC2DA62F2091A6381D
:10016000482D222391F0A22FB0E0A89DF001A99D77
:10017000F00DB89DF00D11244F2F2C9D600111241E
:10018000BD2D269FC0011124A92FE091AC3880918C
:10019000A7389091A8382091A938E21721F0E80FEC
:1001A000F92FF11D1082E091A938E80FF92FF11D08
:1001B0004083E091AA38E80FF92FF11DB083209118
:1001C000AB38820F911DFC01A083FF90EF90DF9070
:1001D000CF90BF90AF909F908F9008959FB7F89465
:1001E00088E08093840A80918E0A81FFFCCF809101
:1001F0008D0AE091A20AF091A30A2091453830912E
:10020000463840914738509148389FBF80FF07C01B
:10021000E730F10520F42F5F3F4F4F4F5F4FAEEFB8
:10022000B1E00E946D126E0F7F1F811D911D660F40
:10023000771F881F991F08950F931F93CF93DF9304
:10024000CDB7DEB72797CDBFDEBF8091A1389091A3
:10025000A23889839A838091A7389091A838892BF6
:1002600009F48BC08091A53882310CF086C0B6DFCE
:100270000091AD381091AE382091AF383091B03840
:10028000AB01BC01401B510B620B730B8091A33877
:100290009091A438B0E0A0E0481759076A077B079F
:1002A00030F3F894A091A738B091A838FD013196A9
:1002B0008C918F831B82A091B138B091B2389C9100
:1002C0008091B338982B9E839C91809589238D8350
:1002D0008D818C838F8187FF02C08E818C835E81AC
:1002E0006D814F813C812B8189819A815C933C9304
:1002F000262F46FD252F6C9300005C932C93362F00
:1003000045FD352F6C9300005C933C93262F44FDF4
:10031000252F6C9300005C932C93362F43FD352FD3
:100320006C9300005C933C93262F42FD252F6C9329
:1003300081505C932C93362F41FD352F6C9391099E
:100340005C933C93262F40FD252F6C9341915C9349
:100350002C93362F47FD352F6C9341F64F833C830A
:100360002B8389839A83789439DF6093AD387093B7
:10037000AE388093AF389093B0382796CDBFDEBFAC
:10038000DF91CF911F910F910895CF92DF92EF925D
:10039000FF92CF93DF936B017C0120DFEB011EDF27
:1003A0006C1B7D0B683E7340A0F0C114D104E104C6
:1003B000F10439F4DF91CF91FF90EF90DF90CF906F
:1003C000089581E0C81AD108E108F108C851DC4F4E
:1003D000E6CFC114D104E104F10409F7EBCF2FB744
:1003E000F8946091493870914A3880914B389091D7
:1003F0004C382FBF089590E0FC01E656F54520816A
:100400002F3F69F18E589445FC018081E82FE295D9
:10041000EE0FE07EE20FF0E0E05FFB4F9081917F16
:10042000908390E0FC0134E0EE0FFF1F3A95E1F776
:10043000422F50E061E070E001C0660F2A95EAF7B4
:100440006383880F991FFC01E050F84C440F551F3F
:100450000190F081E02DE40FF51F108211820895C4
:100460000895462F50E070E060E0DC01ED91FC91D2
:100470000084F185E02D0994089590E080E00895CE
:10048000CF92DF92EF92FF92CF93DF93EC016A015C
:100490007B0169897A89072E000C880B990B0E94D1
:1004A0000211A70196010E94B2110E94CF10AB0168
:1004B000BC01E881F9810084F185E02DCE01DF9156
:1004C000CF91FF90EF90DF90CF900994462F50E0AE
:1004D00070E060E0DC01ED91FC910084F185E02D9D
:1004E0000994FC014187528763877487089584E8E3
:1004F0009BEA0895CF92DF92EF92FF92CF93DF9322
:10050000EC0169857A858B859C850E9402116B01BF
:100510007C0169897A89072E000C880B990B0E944F
:1005200002119B01AC01C701B6010E946710DF9167
:10053000CF91FF90EF90DF90CF90089521E0FC01E4
:1005400081859285A385B485892B8A2B8B2B09F411
:1005500020E0822F0895FC01618572858385948552
:100560000895FC01A081B0E0BC5EE0E0F0E10FB6D0
:1005700022812370E9F7F8946C936DE964BF63E01E
:1005800060830FBE08950F931F93CF93DF931F9245
:10059000CDB7DEB78B018983FB016081E82FF0E0E6
:1005A000FC5E8081681719F0CE010196DADFC80180
:1005B0000F90DF91CF911F910F9108958F929F928D
:1005C000AF92BF92CF92DF92EF92FF92CF93DF93E1
:1005D000DB019C918091563898132BC0FB018091D0
:1005E0005738882389F182818E3F71F58381877026
:1005F0008630A1F4848181111CC085818093563896
:1006000066E578E380E0DF91CF91FF90EF90DF9097
:10061000CF90BF90AF909F908F90B5CF8730A1F4CF
:1006200081818093553865E578E381E0ACDF1092F5
:100630005738DF91CF91FF90EF90DF90CF90BF9030
:10064000AF909F908F900895918180915538981325
:10065000F0CF8281853009F04CC084809580A680DF
:10066000B780809170389091713841E050E060E03F
:1006700070E0181419041A041B041CF040E050E048
:10068000BA01DC01ED91FC910084F185E02D099522
:100690001092723810927338109274381092753824
:1006A0008091533890915438DC01ED91FC91019088
:1006B000F081E02D09956B01181419041A041B042C
:1006C0000CF0B7CF672B09F4B4CF89DE0D2C000CEA
:1006D000EE08FF08C60ED71EE81EF91E6894C0F883
:1006E000C0927238D0927338E0927438F0927538B4
:1006F000A0CF873009F5C0915338D0915438208568
:10070000318550E040E064817581868197810E9447
:100710004B12BA01A901E881F9810084F185E02D2D
:10072000CE01DF91CF91FF90EF90DF90CF90BF90FF
:10073000AF909F908F900994883009F07ACF809184
:10074000533890915438DC01ED91FC910190F08187
:10075000E02D09956B01672B09F46BCF8091703800
:1007600090917138DC01ED91FC910084F185E02DD0
:1007700041E050E060E070E00995A7CFCF92DF92B2
:10078000EF92FF920F931F93CF93DF931F92CDB7FA
:10079000DEB7182FD62E072FE62EF72E88E0C82EAC
:1007A000C10E1983F70161917F01E12FF0E0FC5E3A
:1007B0008081681719F0CE010196D3DE1F5F1C11EE
:1007C000F0CF8D2D902F0F90DF91CF911F910F9132
:1007D000FF90EF90DF90CF900895CF92DF92EF924D
:1007E000FF920F931F93CF93DF93CDB7DEB7289778
:1007F000CDBFDEBF8C016A017B01DC0151966D919A
:100800007C91072E000C880B990B0E940211A70106
:1008100096010E94B2110E94CF10AB01BC01D80119
:10082000ED91FC910084F185E02DC8010995F80156
:10083000818D928D89839A83838D948D8B839C8304
:10084000818592858D839E83818992898F83988704
:10085000BE016F5F7F4F838191DF2896CDBFDEBFE2
:10086000DF91CF911F910F91FF90EF90DF90CF908C
:100870000895282F30E08231A8F4F901E05AF445B8
:1008800080818F3F79F02E583445D901EC91B0E248
:10089000EB9FF0011124FC5F9085982381E019F40F
:1008A00080E008958FEF0895FC01818DE2DF91E0F3
:1008B000811101C090E0892F0895FC01818DD9DF5D
:1008C000682F880F770B880B990B0895CF93DF93D0
:1008D000EC01EC8DFD8D309729F1099590E0B0E0A9
:1008E000A0E089879A87AB87BC878A8D9B8D8230F1
:1008F000910589F589859A85AB85BC854D855E8591
:100900006F857889481759076A077B0741F0892B5B
:100910008A2B8B2B21F41D861E861F86188ADF9159
:10092000CF910895898D2A8D3B8D2130310561F459
:10093000A0DF51E040E030E020E0811150E0852F61
:10094000942FA32FB22FCDCF94DF082E000C990B3C
:10095000AA0BBB0BC6CF039711F789859A85AB8588
:10096000BC854D855E856F857889481759076A076C
:100970007B07A9F281309105A105B10581F68D872C
:100980009E87AF87B88BCBCFCF93DF93823108F0B0
:1009900047C090E0EC01C05AD44528812F3F09F4AC
:1009A0003FC0AC014E585445DA01EC91B0E2EB9FE8
:1009B000F0011124FC5F611136C0268330812323AE
:1009C000A1F49C0126563545D9012C91309769F147
:1009D000283058F57096E20FF11D3FB7F89420814A
:1009E000611126C0277F20833FBF88579545FC01B2
:1009F00090819923A9F08881903409F19038E1F031
:100A0000903171F4DA019C919130A1F4853010F0AD
:100A1000880F82959091010A809589238093010A1D
:100A2000DF91CF9108952583C9CFF0E0E0E0D5CFE5
:100A30002860D9CF880FEECF1092A006F1CF20E426
:100A4000823009F420E89091920A922349F36FB71B
:100A5000F8949091800A9E7F9093800A4091920A28
:100A600030E02095309550E02423352398ED94BF55
:100A70002093920A90918E0A90FFFCCF9091800A69
:100A800091609093800A813039F4809150048F777F
:100A9000809350046FBFC4CF809151048F778093AF
:100AA0005104F8CF0F931F93CF93DF93EC01062FE0
:100AB000142F60E0898568DFEB85FC859F81888540
:100AC0002085222319F02FB72187F89421E022876F
:100AD00090932008809321080000009324088091BF
:100AE000230887FFFCCF809124080000109324087E
:100AF0008091230887FFFCCF10912408EB85FC85AB
:100B00008285882331F012868085882311F08185C3
:100B10008FBF61E0898538DF812FDF91CF911F91F1
:100B20000F91089540E861E8BDCF41E861E8BACF90
:100B300040E0B8CFCF92DF92EF92FF92CF93DF9356
:100B40006DE184E898E3F4DF90E034E095958795D3
:100B50003A95E1F78A3091050CF03FC0FC01EE0FA9
:100B6000FF1FE80FF91FE45FF445C080D180E280E9
:100B70000E2C000CFF086EE184E898E3D9DFD82F33
:100B800066E284E898E3D4DFC82FD295DF7021E0D5
:100B900030E040E050E004C0220F331F441F551FD7
:100BA000DA95D2F7C701B6010E944B1268EE73E0E6
:100BB00080E090E00E944B12213131054105510542
:100BC0008CF04C2F486066EA84E898E3DF91CF917F
:100BD000FF90EF90DF90CF9065CFCC24CA94DC2CAF
:100BE0007601C9CF4C2F477FEECFCF93DF93EC0137
:100BF00061E09EDF8370833059F062E1CE0198DFBF
:100C000083FF04C048E062E9CE014CDF80E001C010
:100C100081E0DF91CF910895CF92DF92EF92FF9222
:100C20000F931F93CF93DF938C016AE181DFC82F6D
:100C3000D0E0F80166857785808991890E9402114C
:100C40002AEE36E54AEF5DE40E94631087FD44C05A
:100C50008DE990E0C81BD90B69E1C80169DF87FD08
:100C60008D5F85958595682F880F770B880B990B7D
:100C70000E9402116B017C0120E030E0A9010E947A
:100C8000631087FF0DC0BE01DD0F880B990B0E941A
:100C90000211A70196010E94FF0F0E94CF10EB01E5
:100CA0009E01DD0F440B550B20583F4F4F4F5F4FB8
:100CB000A4E6B0E00E946D1226E730E040E050E08C
:100CC0000E944B12C901DF91CF911F910F91FF90AC
:100CD000EF90DF90CF90089584EA90E0BBCFCF9261
:100CE000DF92EF92FF920F931F93CF93DF937C01DC
:100CF000C62EC72FD42E63E11BDFD82F0C2D1C2F3F
:100D0000C0E0CD1751F0CD1541F060E0C70110DF14
:100D1000CF5FF80181938F01F4CF8C2F90E0DF91AA
:100D2000CF911F910F91FF90EF90DF90CF9008959A
:100D30001F93CF93DF93EC01009759F1469710F082
:100D4000C5E1D0E01C2F4C2F60E378E384E898E302
:100D5000C6DF30E02AE52197832F90E08C179D07AE
:100D60003CF4805D974CFC018081280F3F5FF4CFFD
:100D70008091443828130DC0E0915138F0915238D9
:100D8000309739F060E378E3812FDF91CF911F91A5
:100D90000994DF91CF911F9108950F931F93CF93E3
:100DA000DF93EC0162E1C4DE182F482F62E9CE0127
:100DB00079DE15FD23C016FF16C063E1CE01B8DE53
:100DC000082F10E060E1CE01B3DE482F6DE8CE01C0
:100DD00069DEEA81FB81309789F0C801DF91CF910C
:100DE0001F910F91099413FF09C0EC81FD81309789
:100DF00029F0DF91CF911F910F910994DF91CF914D
:100E00001F910F91089584E898E3C7CFCF93DF93A4
:100E1000EC0140E060EC46DE45E861E8CE0142DEF0
:100E200081E090E0DF91CF91089581E08093763862
:100E300084E898E3EBDFE0914F38F0915038309739
:100E400009F009940895AF92BF92DF92EF92FF925A
:100E50000F931F93CF93DF93EC015B01D42EE881B6
:100E6000F981008CF18DE02D099581110FC0E88189
:100E7000F9810084F185E02DCE01099540E06DE80F
:100E8000CE0110DE40E062EACE010CDE8501ED2CE1
:100E9000F12CC8018A199B098E159F0538F4F801B9
:100EA00041918F0160E8CE01FDDDF3CF4D2D62EA67
:100EB000CE01F8DD8C819D81892B21F040E460EC2E
:100EC000CE01F0DD43E861E8CE01ECDDC701DF9142
:100ED000CF911F910F91FF90EF90DF90BF90AF9057
:100EE0000895FC018AE5848BDF019F012C5E3F4F52
:100EF0009D918489890F848BA217B307C9F710923B
:100F0000763845E1BF0184E898E39DDF8091B438ED
:100F1000882351F080917638811106C062E070E03C
:100F200080E090E032DAF2CF0895DC01E8E5F8E302
:100F300080915538808380915638818312968C91A8
:100F40001297828315969C911597990F990F990F77
:100F500017968C91890F8383CF01C3CFCF93DF93F3
:100F6000CDB7DEB76597CDBFDEBF89836A838EEFCD
:100F70008B8328502C8380E1FA01DE0115960190C5
:100F80000D928A95E1F7CE010196ABDF6596CDBF54
:100F9000DEBFDF91CF910895CF93DF93CDB7DEB75A
:100FA0006097CDBFDEBFDC0115962D913C912C30B2
:100FB000310589F5FC019E01235F3F4F84E0D90193
:100FC0001D928A95E9F782818983818992898A872E
:100FD0009B87818D928D092E000CAA0BBB0B8A83F7
:100FE0009B83AC83BD83838D948D092E000CAA0B4B
:100FF000BB0B8E839F83A887B98781E090E08C87A5
:101000009D8723E030E0AE014F5F5F4F609156381F
:1010100080915538A3DF6096CDBFDEBFDF91CF91C1
:1010200008950F931F93CF93DF938C01EB016231EF
:101030007105C4F06531710514F0C4E1D0E0239767
:1010400047E86DECC8012EDD41E36BE8C8012ADDFD
:101050004C2F4250406869E8C801DF91CF911F9141
:101060000F9120CD6230710514F4C2E0D0E044E865
:101070006DECC80117DD4BE2E8CFCF92DF92EF9223
:10108000FF92CF93DF93FC01C184D284E384F48484
:10109000C416D506E606F70689F021E014161506F3
:1010A000160617060CF020E06A017B01EC01622FA6
:1010B000898D6ADCC986DA86EB86FC86DF91CF9162
:1010C000FF90EF90DF90CF9008958231F0F490E0A0
:1010D000FC01E05AF44520812F3FB9F0FC01EE58A5
:1010E000F445E08130E2E39FF0011124FC5F60FFF2
:1010F0000DC0218386569545DC018C91E80FF11DCA
:10110000808961FF05C08860808B08952283F2CFBB
:10111000877FFACF0F931F93CF93DF93EC01862F36
:101120004A834FEF5FEF4B835C834DE050E04D838C
:101130005E8301E010E00F8318871B8A1C8A098BED
:101140001A8B2D8B3E8B1F8A188E41EC5DEB60EF66
:101150007FEF49875A876B877C874FE352E46FE0C4
:1011600070E04D875E876F87788B2EE23BEA28839D
:101170003983898F0A8F1B8F1C8E1D8E62E0A5DF3D
:101180002A8D3B8D2230310518F51D821E821F826B
:101190001886898D21303105A1F46BDB51E040E0E8
:1011A00030E020E0811150E0852F942FA32FB22F43
:1011B00089879A87AB87BC87DF91CF911F910F9169
:1011C000089557DB082E000C990BAA0BBB0BF0CF30
:1011D00088E090E08D839E830F83188789859A85A8
:1011E000AB85BC858D879E87AF87B88BE5CFCF93C6
:1011F000DF93EC0160E08E8168DF8E81823188F5BB
:1012000090E0FC01E656F545E081EF3F51F18E5844
:101210009445DC018C9190E0DC01AA0FBB1FA0502B
:10122000B84C2D913C9121153105D9F04E2F50E04D
:10123000440F551F240F351F43E057E0D9014D934C
:101240005C932FB7F894E05F75E0880F991F7A954B
:10125000E1F7E80FF0E0FC5F8081887F82608083A7
:101260002FBFDF91CF910895FC0164837583672BB5
:1012700009F0BDCF8681823108F4BDC80895FC0114
:1012800062837383672B09F0B2CF8681823108F4C1
:10129000B2C80895CF93DF93EC01EB85FC85809174
:1012A00020088E7F80932008178260E080E10DDFA8
:1012B00060E08FE00ADF60E08EE007DF60E08985B4
:1012C00004DF8D858F3F21F060E0DF91CF91FDCE6F
:1012D000DF91CF9108958F929F92AF92BF92CF925C
:1012E000DF92EF92FF920F931F93CF93DF93EC0166
:1012F0006A017B0161E08985E8DE61E0898544DB84
:101300008D858F3F91F061E0E0DE60E08D853CDB14
:101310006AE070E080E090E038D861E08D8534DBF1
:101320006AE070E080E090E030D8EB85FC85878152
:10133000811106C01086128680E8818781E087834C
:10134000809101028B7F9681892B80930102868197
:10135000811191C061E08EE0B8DE61E080E1B5DE30
:101360008091210884608093210880912008816207
:101370008093200890918238809183389093200840
:101380008093210862E4CE01D3DB823109F07CC076
:10139000E881F9810680F781E02DCE010995CE869E
:1013A000DF86E88AF98A46015701BB0C8808982C29
:1013B00054019601A701682D782D882D982D03E101
:1013C0000E94D512A12CE8E4BE2EF8EECF2EDD242B
:1013D000D394E12CF12C00E010E00E947912F22E5F
:1013E000832E942EA52EB62EC72ED82EE92E00E1E0
:1013F0000E94F012422F66E8CE0154DB2F2D382DCB
:10140000492D5A2D6B2D7C2D8D2D9E2D08E00E948F
:10141000F012422F67E8CE0145DB4F2D68E8CE0180
:1014200041DB40E06EE8CE013DDB40E06FE8CE01FD
:1014300039DB6CE0CE017CDB482F43606CE8CE01E9
:1014400031DB44E066EACE012DDBE881F9810084DE
:10145000F185E02DCE01099581E090E0DF91CF91FB
:101460001F910F91FF90EF90DF90CF90BF90AF90C2
:101470009F908F900895843009F072CF61E08CE0E6
:1014800024DE61E08AE06BCF90E080E0E7CFEF926E
:10149000FF920F931F93CF937C01C0916F380C2F55
:1014A00010E0B8016F5F7F4F660F771F80916D3836
:1014B00090916E380E943F1480936D3890936E38EF
:1014C0000097D9F0000F111FFC01E00FF11FE0821F
:1014D000F182CF5FC0936F382C2F30E0215030481D
:1014E000220F331F820F931FFC0180819181CF91C6
:1014F0001F910F91FF90EF90089590E080E0F7CF5B
:101500008F9381E080938D0A8FB78F93EF93FF9332
:10151000E5E4F8E39F9368948FEF0FC0E89484812B
:1015200095818C5E9F4F84839583885E934010F0F5
:101530008FEF03C0848395838EEF9081981B9193E6
:1015400090819F4F919390819F4F919390819F4F56
:10155000919326F39F91FF91EF918F918FBF8F9180
:1015600018950F9304E006C00F9302E003C00F9399
:1015700000E000C00F920FB60F921F921124FF924D
:101580001F932F933F934F935F936F937F938F930B
:101590009F93AF93BF93CF93DF93EF93FF93A0E01D
:1015A000B8E3A00FB11DCD91DC91000F0D5FA02F0E
:1015B000B0E0FC90109761F01F2D169518F041F0E7
:1015C0002296FBCFE991F9913097B9F30995F5CFC0
:1015D000A02FB0E0FC92FF91EF91DF91CF91BF91EE
:1015E000AF919F918F917F916F915F914F913F91BB
:1015F0002F911F91FF901F900F900FBE0F900F9192
:10160000189584E08093833891E39093823820E2A8
:1016100038E0209377383093783810927E3826E47B
:101620003BEA209384383093853890938B388093AD
:101630008C3810928D3810928E3883E080939138D8
:1016400082E080938A3887E798E380938F3890937D
:1016500090381092923810929338109294381092D9
:1016600095381092BA381092B9381092B838109252
:10167000B538E5EBF0E081E08C3051F094918230A8
:1016800009F49F5F21E0280F3196992309F43FC0A8
:101690008093B63881E08093B7381092B43822E353
:1016A00030E02093A3383093A4381092A63826E96E
:1016B00038E32093A7383093A8381092AD381092B1
:1016C000AE381092AF381092B0388093AC38809317
:1016D000A9381092AA3882E08093AB3889E090E074
:1016E0008093A1389093A23883E090E080939F3854
:1016F0009093A0388CE08093A53884E494E08093A4
:10170000B1389093B23884E08093B3380895822F33
:10171000B3CFCF93DF93CDB7DEB7E097CDBFDEBFBA
:1017200088ED93E084BF90936100E0E0F6E081E50E
:1017300082838AE0858380E2838381E080831092C4
:1017400002028093030A9EEF9093260A9093270A41
:1017500099E09093000AE0E8FAE02DEF31E026A747
:1017600037A7118290E89283848781E180837894FF
:1017700061E08CE0AADC6091A6386B3029F1209101
:10178000A7383091A8386150C9F070E08FEF9AE027
:101790004CD6F9014091A1385091A238CF01821B5B
:1017A000930B8417950768F4DF014D91469FC001A4
:1017B000479F900D11249083FD01ECCF70E060E015
:1017C000E8CF8BE08093A63860E083E07EDC07E022
:1017D00011E08091000681112EC06FEF70E080E073
:1017E00090E00E9496000E941C010E94EF0161316E
:1017F00077428105910508F0C9C26CE271E080E092
:1018000090E00E94C50160E070E0CB010E9496006C
:101810000E941C010E94EF01613177428105910510
:1018200008F4B9C264E670E080E090E00E94C5016F
:1018300010935738CECF0093060610930806809178
:101840000B0680FFFCCF8091100690911106843624
:1018500091051CF20E94EF016131774281059105EB
:1018600008F49EC28FEF8093563860E07FEF80E0EF
:1018700090E00E9496000E941C01809156388F3F94
:1018800009F588E2809356381092553866E578E37A
:1018900080E00E94C30265E578E381E00E94C30214
:1018A00088E0E0E8FAEADE01119601900D928A954F
:1018B000E1F7BE016F5F7F4F82E00E94BE0381E0CF
:1018C0008093573880910114809355388EE190E0D1
:1018D000B1D68C0120EB30E041E061E01BDCC801B7
:1018E000D6DD8EE190E0A6D68C0129EA30E042E018
:1018F00065E010DCC801CBDD8EE190E09BD68C0169
:1019000022EA30E043E064E005DCC801C0DD8AE1A2
:1019100090E090D68C0185E0F80182838FEF9FEFF5
:10192000838394832DE0A22EB12CA582B682CC2491
:10193000C394D12CC782D086138A148AC18AD28AD2
:101940008AE990E0858B968B178A108E81EC9DEB4F
:10195000A0EFBFEF81879287A387B4878FE392E4DC
:10196000AFE0B0E085879687A787B08B80EB9AEAD7
:10197000808391838BE0818F61E0A7DBD80159964A
:101980008C910E943904082E000C990BAA0BBB0BFA
:10199000F80181879287A387B48742E0E42EF12C77
:1019A000E582F68217821086C80171DD8093703857
:1019B000909371388DE190E03DD6FC0188EC9AEA75
:1019C0008083918387E08283E382F482A582B6825A
:1019D000C782D086138A148AC18AD28A8FE890E09F
:1019E000858B968B8CE890E0878B908F809102148A
:1019F00090E0B0E0A0E0B095A095909581959F4FC4
:101A0000AF4FBF4F85879687A787B08B80EE9AEA46
:101A100080839183809102148983809103148A8347
:101A2000809104148B83809105148C83809106141B
:101A30008D83809107148E83809108148F83809109
:101A4000091488878D819E81092E000CAA0BBB0B7F
:101A500081879287A387B48789819A81818F928FAA
:101A60008B819C81838F948F8F819885818B928BC2
:101A70002CE030E025833683019711F0E782F08671
:101A8000CF0105DD809353389093543889E190E07D
:101A9000D1D5FC0188E082838FEF9FEF838394830D
:101AA000138A148A81E090E0818B928B87E890E022
:101AB000858B968B178A108E81EC9DEBA0EFBFEF84
:101AC00081879287A387B4878FE392E4AFE0B0E089
:101AD00085879687A787B08B88EF9AEA8083918362
:101AE00081E190E08583968383E090E0878390870F
:101AF000CF01CDDC8EED92E0809351389093523837
:101B000010924F381092503840E45EE06FEC79E16B
:101B100084E898E3E0DB13E0892B09F470C188E9DD
:101B200096E0809386389093873884E898E35FDB6B
:101B300085E197E0809388389093893884E898E32A
:101B400056DB6EE070E084E898E36BDA43EC61EB1F
:101B500084E898E30E9452054AE067EB84E898E342
:101B60000E9452056EE184E898E30E9498058F7008
:101B7000482F40696EE984E898E30E9452050E946C
:101B80009A056DE184E898E30E9498058F70482FCC
:101B900040676DE984E898E30E9452050E949A0527
:101BA0006DE184E898E30E949805817F482F4260A8
:101BB0006DE984E898E30E94520584E898E326D909
:101BC00081E08093B43880915738882309F434C178
:101BD0008FEF809355388E010D5D1F4F8EE0F82EEC
:101BE000D801EF2D1D92EA95E9F78EEF89A38DE0DC
:101BF0008AA383E08BA344E050E062E870E0CE016A
:101C00008496EDD130E020E0AE014F5D5F4F6091F2
:101C1000563880915538A2D9D8011D92FA94E9F727
:101C200045E050E06CE770E0C801D9D122E030E037
:101C3000AE014F5D5F4F60915638809155388ED917
:101C40001BA227E030E0AE014F5D5F4F6091563838
:101C50008091553883D9D12C5E01B3E1AB0EB11C14
:101C60009EE0C92E80916F38D81608F09CC08D2D4B
:101C700090E0880F991FE0916D38F0916E38E80F71
:101C8000F91F00811181F8018281882309F47CC049
:101C9000D501EC2D1D92EA95E9F7898BD8011596AF
:101CA0008C9115978A8B17968C9117978B8B5596DD
:101CB000ED90FC90C7018AD1AC0155274E305105FB
:101CC00010F04DE050E0B701CE01449688D130E0ED
:101CD00020E0AE014F5E5F4F6091563880915538DD
:101CE0003DD9F8016788708C6114710451F1C3010A
:101CF0006DD14C01892B29F1D80112968C918983E1
:101D00007401FF24A701BFE0EB16F10410F04EE0D0
:101D100050E0B301CE01039662D1EDE0E81538F052
:101D2000E3E0F0E0EC0FFD1FEE0DFF1D108221E05F
:101D300030E0AE014F5F5F4F60915638809155386B
:101D40000DD9D801ED91FC910288F389E02DC801ED
:101D50000995F5012C2D11922A95E9F7D8011296D3
:101D60008C911297898B15968C9115978A8B179663
:101D70008C918B8B27E030E0AE014F5E5F4F60911E
:101D8000563880915538EAD8D3946CCF64E670E029
:101D900080E090E036CD6CE271E080E090E046CDEE
:101DA0008091001460CDF3E0CF2ED12CE12CF12CEA
:101DB000812C912C54018A949394809157388823D4
:101DC000D9F10E94EF01A701960143D3CA01B901DD
:101DD000A50194013ED36F5F710977FF03C0719530
:101DE00061957109072E000C880B990B982F872F8E
:101DF000762F66270E9496000E941C01DECF60E0CD
:101E000070E08FEF90E00E9496000E941C0168EC49
:101E100070E080E090E00E94C50160E070E0CB01DE
:101E20000E9496000E941C0168EC70E080E090E047
:101E30000E94C501115019F760E070E0CB010E94CB
:101E400096000E941C014CE5E42E48E3F42E50E17C
:101E5000C52E0E94EF0100917238109173382091C5
:101E60007438309175380115110521053105D9F007
:101E70000617170728073907B0F410927238109226
:101E80007338109274381092753880917038909130
:101E90007138DC01ED91FC910084F185E02D40E08A
:101EA00050E0BA01099510E080916F381817A8F436
:101EB000812F90E0880F991FE0916D38F0916E3876
:101EC000E80FF91F80819181DC01ED91FC91008880
:101ED000F189E02D09951F5FE7CFD12C80916F38F4
:101EE000D81608F0B6CF8D2D90E0880F991FE0919D
:101EF0006D38F0916E38E80FF91F00811181F801FB
:101F0000418552856385748585859685841B950BEF
:101F100097FF03C0919581959109D80153962D9112
:101F20003C915497281739070CF032C012968C91C7
:101F30001297882369F1F801458756876787708B68
:101F40000580F681E02DED30F10510F5E755F04FF5
:101F5000BEC2B60FB60FB60FC80FCA0FC80FC80F54
:101F6000CA0FB60FC80FC80FCA0FB60F40935C3820
:101F700050935D3860935E3870935F3851968D91C1
:101F80009C918093603890936138C8010E949507B6
:101F9000D394A4CFED91FC910680F781E02DC80188
:101FA0000995FC0101900020E9F73197D7012C2D0C
:101FB0001D922A95E9F7E81BE13108F0E0E14E2F88
:101FC00050E0BC018CE598E319D5DFCFFC0105900A
:101FD0000020E9F7809590958E0F9F1F0895FB01D3
:101FE000DC014150504048F005900D920020C9F7A7
:101FF00001C01D9241505040E0F708955058BB2752
:10200000AA270ED075C166D130F06BD120F031F423
:102010009F3F11F41EF45BC10EF4E095E7FB51C144
:10202000E92F77D180F3BA17620773078407950702
:1020300018F071F49EF58FC10EF4E0950B2EBA2FB7
:10204000A02D0B01B90190010C01CA01A0011124BE
:10205000FF27591B99F0593F50F4503E68F11A166A
:10206000F040A22F232F342F4427585FF3CF4695FB
:1020700037952795A795F0405395C9F77EF41F161D
:10208000BA0B620B730B840BBAF09150A1F0FF0FE7
:10209000BB1F661F771F881FC2F70EC0BA0F621FD3
:1020A000731F841F48F4879577956795B795F795C3
:1020B0009E3F08F0B3CF9395880F08F09927EE0F55
:1020C000979587950895D9D008F481E008950CD0AC
:1020D0000FC107D140F0FED030F021F45F3F19F07E
:1020E000F0C0511139C1F3C014D198F39923C9F349
:1020F0005523B1F3951B550BBB27AA27621773070E
:10210000840738F09F5F5F4F220F331F441FAA1FC1
:10211000A9F333D00E2E3AF0E0E830D09150504081
:10212000E695001CCAF729D0FE2F27D0660F771F2F
:10213000881FBB1F261737074807AB07B0E809F011
:10214000BB0B802DBF01FF2793585F4F2AF09E3FA6
:10215000510568F0B6C000C15F3FECF3983EDCF378
:10216000869577956795B795F7959F5FC9F7880F1F
:10217000911D9695879597F90895E1E0660F771F71
:10218000881FBB1F621773078407BA0720F0621B02
:10219000730B840BBA0BEE1F88F7E095089504D0FB
:1021A0006894B111D9C00895BCD088F09F5790F0C1
:1021B000B92F9927B751A0F0D1F0660F771F881F6C
:1021C000991F1AF0BA95C9F712C0B13081F0C3D087
:1021D000B1E00895C0C0672F782F8827B85F39F025
:1021E000B93FCCF3869577956795B395D9F73EF4CB
:1021F00090958095709561957F4F8F4F9F4F089573
:10220000E89409C097FB3EF4909580957095619590
:102210007F4F8F4F9F4F9923A9F0F92F96E9BB2746
:102220009395F695879577956795B795F111F8CFC2
:10223000FAF4BB0F11F460FF1BC06F5F7F4F8F4F2D
:102240009F4F16C0882311F096E911C0772321F023
:102250009EE8872F762F05C0662371F096E8862FBB
:1022600070E060E02AF09A95660F771F881FDAF712
:10227000880F9695879597F90895990F0008550F3F
:10228000AA0BE0E8FEEF16161706E807F907C0F0FC
:1022900012161306E407F50798F0621B730B840B04
:1022A000950B39F40A2661F0232B242B252B21F4DE
:1022B00008950A2609F4A140A6958FEF811D811D7E
:1022C000089597F99F6780E870E060E008959FEFB8
:1022D00080EC089500240A941616170618060906BD
:1022E000089500240A94121613061406050608958C
:1022F000092E0394000C11F4882352F0BB0F40F414
:10230000BF2B11F460FF04C06F5F7F4F8F4F9F4F53
:10231000089557FD9058440F551F59F05F3F71F0D5
:102320004795880F97FB991F61F09F3F79F087953C
:102330000895121613061406551FF2CF4695F1DFC5
:1023400008C0161617061806991FF1CF8695710555
:10235000610508940895E894BB2766277727CB0189
:1023600097F908950BD0C4CFB5DF28F0BADF18F085
:10237000952309F0A6CFABCF1124EECFCADFA0F38F
:10238000959FD1F3950F50E0551F629FF001729F0A
:10239000BB27F00DB11D639FAA27F00DB11DAA1F29
:1023A000649F6627B00DA11D661F829F2227B00D76
:1023B000A11D621F739FB00DA11D621F839FA00D01
:1023C000611D221F749F3327A00D611D231F849F51
:1023D000600D211D822F762F6A2F11249F575040A8
:1023E0008AF0E1F088234AF0EE0FFF1FBB1F661F43
:1023F000771F881F91505040A9F79E3F510570F0FC
:1024000060CFAACF5F3FECF3983EDCF386957795DB
:102410006795B795F795E7959F5FC1F7FE2B880FF6
:10242000911D9695879597F90895AA1BBB1B51E1BD
:1024300007C0AA1FBB1FA617B70710F0A61BB70B34
:10244000881F991F5A95A9F780959095BC01CD01D9
:102450000895A1E21A2EAA1BBB1BFD010DC0AA1FE5
:10246000BB1FEE1FFF1FA217B307E407F50720F0FD
:10247000A21BB30BE40BF50B661F771F881F991F78
:102480001A9469F760957095809590959B01AC01C1
:10249000BD01CF010895052E97FB16F400940FD0CF
:1024A00057FD05D0D6DF07FC02D046F408C0509592
:1024B0004095309521953F4F4F4F5F4F0895909530
:1024C0008095709561957F4F8F4F9F4F0895EE0FC8
:1024D000FF1F0590F491E02D09949DD0A59F900DCC
:1024E000B49F900DA49F800D911D112408956894B0
:1024F00001C0E8948F929F92CF93DF9305D0DF9134
:10250000CF919F908F90089588249924F401E4013D
:10251000B0E49F93AA279A158B049C04ED05FE0551
:10252000CF05D007A10798F4AD2FDC2FCF2FFE2FBA
:10253000E92D982C892E982F872F762F652F542FD1
:10254000432F322F2227B85031F7BF9127C01B2EBF
:10255000BF91BB27220F331F441F551F661F771FD4
:10256000881F991F881C991CEE1FFF1FCC1FDD1FA1
:10257000AA1FBB1F8A149B04EC05FD05CE05DF05D1
:10258000A007B10748F08A189B08EC09FD09CE099D
:10259000DF09A00BB10B21601A94E1F62EF494012F
:1025A000AF01BE01CD01000C0895002E083090F05F
:1025B000982F872F762F652F542F432F322F2227C6
:1025C0000850F4CF220F331F441F551F661F771F7B
:1025D000881F991F0A95B2F7002D089597FD109452
:1025E000002E083098F00850232F342F452F562FF7
:1025F000672F782F892F912DF4CF15949795879574
:102600007795679557954795379527950A95AAF732
:102610001124002D0895A29FB001B39FC001A39F74
:10262000700D811D1124911DB29F700D811D11240B
:10263000911D08950F931F93CF93DF9382309105DF
:1026400010F482E090E0E091BD38F091BE3830E0C7
:1026500020E0B0E0A0E0309799F42115310509F4AD
:102660004AC0281B390B24303105D8F58A819B815B
:102670006115710589F1FB0182839383FE0111C00D
:10268000408151810281138148175907E0F04817B2
:10269000590799F4109761F012960C9312971396BC
:1026A0001C933296CF01DF91CF911F910F91089526
:1026B0000093BD381093BE38F4CF2115310551F089
:1026C0004217530738F0A901DB019A01BD01DF0170
:1026D000F801C1CFEF01F9CF8093BD389093BE3898
:1026E000CDCFFE01E20FF31F819391932250310968
:1026F00028833983D7CF2091BB383091BC38232B26
:1027000041F420910838309109382093BB38309338
:10271000BC3820910638309107382115310541F435
:102720002DB73EB740910A3850910B38241B350B1A
:10273000E091BB38F091BC38E217F307A0F42E1BF0
:102740003F0B2817390778F0AC014E5F5F4F241715
:10275000350748F04E0F5F1F4093BB385093BC388D
:10276000819391939FCFF0E0E0E09CCFCF93DF93F4
:102770000097E9F0FC01329712821382A091BD38D4
:10278000B091BE38ED0130E020E01097A1F4208137
:102790003181820F931F2091BB383091BC382817AC
:1027A000390709F061C0E093BB38F093BC38DF9182
:1027B000CF910895EA01CE17DF07E8F54A815B81E2
:1027C0009E0141155105B1F7E901EA83FB83499167
:1027D0005991C40FD51FEC17FD0761F480819181D9
:1027E0000296840F951FE9018883998382819381E2
:1027F0008A839B83F0E0E0E012968D919C91139781
:102800000097B9F52D913C911197CD010296820F59
:10281000931F2091BB383091BC382817390739F6FF
:10282000309751F51092BD381092BE38A093BB3846
:10283000B093BC38BCCFC283D38340815181840F15
:10284000951FC817D90761F44E5F5F4F8881998142
:10285000480F591F408351838A819B8182839383D0
:102860002115310509F0B0CFE093BD38F093BE38A3
:102870009ECFFD01DC01C0CF12821382D7CFB0E022
:10288000A0E0E4E4F4E1CBC08C01009741F4CB017B
:10289000D1DE8C01C801CDB7DEB7E0E1D9C0FC01C3
:1028A000E60FF71F9C0122503109E217F30708F4E5
:1028B00099C0D901CD91DC911197C617D70790F037
:1028C000C530D10538F3CE0104978617970710F36A
:1028D000C61BD70B2297C193D1936D937C93CF01E5
:1028E00045DFD8CF5B01AC1ABD0A4C018C0E9D1E92
:1028F000A091BD38B091BE38512C412CF12CE12C67
:10290000109731F58091BB389091BC3888159905A6
:1029100009F05CC04616570608F058C0809106388A
:1029200090910738009741F48DB79EB740910A38CF
:1029300050910B38841B950BE817F90708F052C02B
:10294000E093BB38F093BC38F90160837183A2CF68
:102950008D919C91119712966C90129713967C9082
:102960001397A815B90559F56C0142E0C40ED11CA6
:10297000CA14DB0420F1AC014A195B09DA01129692
:10298000159780F06282738240835183D9016D93E1
:102990007C93E114F10471F0D7011296ED93FC934E
:1029A000139778CF22968C0F9D1FF9018083918316
:1029B000F301EFCFE093BD38F093BE386BCF4816EC
:1029C000590608F42C017D01D3019ACFCB0132DEE8
:1029D0007C01009739F0AE01B80107D0C801C6DE0E
:1029E000870158CF10E000E055CFFB01DC0102C0A9
:1029F00001900D9241505040D8F70895FB01DC0141
:102A00004150504048F001900D920020C9F701C09C
:102A10001D9241505040E0F708952F923F924F92FF
:102A20005F926F927F928F929F92AF92BF92CF925E
:102A3000DF92EF92FF920F931F93CF93DF93CDB767
:102A4000DEB7CA1BDB0BCDBFDEBF09942A883988ED
:102A500048885F846E847D848C849B84AA84B98436
:102A6000C884DF80EE80FD800C811B81AA81B98142
:102A7000CE0FD11DCDBFDEBFED010895F894FFCF7D
:102A80000000D0072C010100101080000000001091
:102A90001010404000000000100004050607050467
:102AA0000302010000010203010203000000000014
:102AB0005D0454047A0277023D08310240023C0270
:102AC0003002300200000000AB029E027A02770260
:102AD0007102660240023C02300230020000000037
:102AE000AB029E027A02770271026602ED033C029B
:102AF0003002CC0700000000AB029E027A023D02C9
:102B00007102660240023C0230023002781E00A0D0
:102B10002800F03C00405100127A00E4A20024F4A6
:102B20000048E80190D00320A10700000000AB029C
:102B30009E027A0277027102660240023C0266043B
:102B40003002000000006B094A090C069205950549
:102B500011086F0623070607CD063F093409F5055E
:102B60001020408020100804020101020408020421
:102B7000080100000000010101010101020202023E
:062B8000000000003F0010
:0C2B8600203814380C380000BF388000E4
:00000001FF
