:100000005FC0000091C000008FC000000C94DA09AE
:100010000C94D7090C94D40987C0000085C0000057
:1000200083C0000081C000007FC000007DC00000D0
:100030007BC0000079C0000077C000000C94A309C9
:1000400073C0000071C000006FC000006DC00000F0
:100050006BC0000069C0000067C0000065C0000000
:1000600063C0000061C000005FC000005DC0000010
:100070005BC0000059C0000057C000004D4C453423
:10008000320047617261676500546F67676C650095
:10009000436C6F7365004F70656E004465746563F3
:1000A00074696F6E00436C6F736564004F70656EAA
:1000B0006564001F1C1F1E1F1E1F1F1E1F1E240AFB
:1000C00011241FBECFEFCDBFDFE3DEBF8091400024
:1000D00080934000811105C098ED21E094BF2093EA
:1000E00041008CBB28E3ACE0B8E301C01D92AF3BFC
:1000F000B207E1F718E3A0E0B8E3E8E3FBE202C0EF
:1001000005900D92AC30B107D9F710E0C0E6D0E011
:1001100004C02197FE010E949E12CF35D107C9F776
:100120000E94B00A0C9432156BCF8F929F92AF92BF
:10013000BF92CF92DF92EF92FF9220918B38309155
:100140008C38232B09F440C04C01AA24BB24C72EB1
:10015000D82EE92EFF24BC2DA62F20919238482DB1
:10016000222391F0A22FB0E0A89DF001A99DF00DEF
:10017000B89DF00D11244F2F2C9D60011124BD2D31
:10018000269FC0011124A92FE091983880919338BF
:100190009091943820919538E21721F0E80FF92FCB
:1001A000F11D1082E0919538E80FF92FF11D408381
:1001B000E0919638E80FF92FF11DB0832091973820
:1001C000820F911DFC01A083FF90EF90DF90CF90F4
:1001D000BF90AF909F908F9008959FB7F89488E05C
:1001E0008093840A80918E0A81FFFCCF80918D0AD2
:1001F000E091A20AF091A30A2091493830914A383F
:1002000040914B3850914C389FBF80FF07C0E7307A
:10021000F10520F42F5F3F4F4F4F5F4FAEEFB1E03E
:100220000E9404116E0F7F1F811D911D660F771FA5
:10023000881F991F08950F931F93CF93DF93CDB716
:10024000DEB72797CDBFDEBF80918D3890918E3875
:1002500089839A838091933890919438892B09F4FB
:100260008BC08091913882310CF086C0B6DF00914E
:10027000993810919A3820919B3830919C38AB0175
:10028000BC01401B510B620B730B80918F38909116
:100290009038B0E0A0E0481759076A077B0730F3B1
:1002A000F894A0919338B0919438FD0131968C91D7
:1002B0008F831B82A0919D38B0919E389C91809134
:1002C0009F38982B9E839C91809589238D838D8167
:1002D0008C838F8187FF02C08E818C835E816D81CC
:1002E0004F813C812B8189819A815C933C93262F9D
:1002F00046FD252F6C9300005C932C93362F45FD13
:10030000352F6C9300005C933C93262F44FD252FE2
:100310006C9300005C932C93362F43FD352F6C9328
:1003200000005C933C93262F42FD252F6C93815057
:100330005C932C93362F41FD352F6C9391095C9380
:100340003C93262F40FD252F6C9341915C932C9379
:10035000362F47FD352F6C9341F64F833C832B831B
:1003600089839A83789439DF6093993870939A38A7
:1003700080939B3890939C382796CDBFDEBFDF914A
:10038000CF911F910F910895CF92DF92EF92FF923C
:10039000CF93DF936B017C0120DFEB011EDF6C1B31
:1003A0007D0B683E7340A0F0C114D104E104F10458
:1003B00039F4DF91CF91FF90EF90DF90CF900895C7
:1003C00081E0C81AD108E108F108C851DC4FE6CF36
:1003D000C114D104E104F10409F7EBCF90E0FC0172
:1003E000E658F54520812F3F69F18C5F9445FC016B
:1003F0008081E82FE295EE0FE07EE20FF0E0E05F13
:10040000FB4F9081917F908390E0FC0134E0EE0FF0
:10041000FF1F3A95E1F7422F50E061E070E001C024
:10042000660F2A95EAF76383880F991FFC01E05055
:10043000F84C440F551F0190F081E02DE40FF51F9B
:10044000108211820895FB019081A82FB0E0BC5E5C
:100450008C91981769F0E0E0F0E10FB622812370EB
:10046000E9F7F8949C939DE994BF93E090830FBEC5
:10047000CB010895DB019C91809155389813AEC053
:10048000FB01809154388823E9F082818E3FD1F4BA
:1004900083818770863051F4848181119FC085816A
:1004A0008093553865E578E380E0CDCF873051F40F
:1004B00081818093533863E578E381E0C4DF109253
:1004C00054380895918180915338981387C0828160
:1004D0008530E1F484819581A681B78118161906CB
:1004E0001A061B060CF067C080916F389091703827
:1004F000DC01ED91FC910280F381E02D09958111E1
:100500006DC080917138909172381DC0863031F580
:1005100084819581A681B781181619061A061B06D3
:100520000CF057C080916B3890916C38DC01ED91E4
:10053000FC910280F381E02D099581114FC08091DB
:100540006D3890916E38DC01ED91FC910084F1855D
:10055000E02D41E050E060E070E009948730F1F573
:1005600080916B3890916C38DC01ED91FC910280A8
:10057000F381E02D0995882379F080916D38909171
:100580006E38DC01ED91FC910084F185E02D40E0B6
:1005900050E0BA010995B5CF8091713890917238C9
:1005A000DC01ED91FC910084F185E02D40E050E00C
:1005B000BA010995C4CF8091713890917238DC01ED
:1005C000ED91FC910084F185E02D40E050E0BA010E
:1005D000C4CF80916D3890916E38F1CF0895089511
:1005E000462F50E070E060E0DC01ED91FC9100846A
:1005F000F185E02D0994089590E080E00895CF9270
:10060000DF92EF92FF92CF93DF93EC016A017B01BF
:1006100069897A89072E000C880B990B0E94F10FCB
:10062000A70196010E9450100E941B12AB01BC0151
:10063000E881F9810084F185E02DCE01DF91CF9131
:10064000FF90EF90DF90CF900994462F50E070E03C
:1006500060E0DC01ED91FC910084F185E02D0994CE
:10066000FC0141875287638774870895CF92DF9298
:10067000EF92FF92CF93DF93EC0169857A858B85AA
:100680009C850E94F10F6B017C0169897A89072E94
:10069000000C880B990B0E94F10F9B01AC01C70164
:1006A000B6010E94B311DF91CF91FF90EF90DF90E0
:1006B000CF90089521E0FC0181859285A385B485C2
:1006C000892B8A2B8B2B09F420E0822F0895FC01C3
:1006D00061857285838594850895FC0165870895F9
:1006E000FC0166830895CF93DF93EC016091A238FB
:1006F00070E06F5F7F4F660F771F8091A0389091F9
:10070000A1380E945D148093A0389093A13800977F
:10071000D1F02091A238E22FF0E0EE0FFF1FE80F9A
:10072000F91FC083D1832F5F2093A23830E021507E
:100730003048220F331F820F931FFC01808191816B
:10074000DF91CF91089590E080E0FACF282F30E03C
:100750008231A8F4F901EE50F54580818F3F79F0A0
:100760002C5F3445D901EC91B0E2EB9FF0011124EC
:10077000FC5F9085982381E019F480E008958FEF65
:100780000895FC01838DE2DF91E0811101C090E0CA
:10079000892F0895FC01838DD9DF682F880F770B8F
:1007A000880B990B0895CF93DF93EC01EE8DFF8DAD
:1007B000309729F1099590E0B0E0A0E089879A8709
:1007C000AB87BC878C8D9D8D8230910589F589859D
:1007D0009A85AB85BC854D855E856F857889481780
:1007E00059076A077B0741F0892B8A2B8B2B21F451
:1007F0001D861E861F86188ADF91CF9108958B8DE6
:100800002C8D3D8D2130310561F4A0DF51E040E0B9
:1008100030E020E0811150E0852F942FA32FB22FDC
:10082000CDCF94DF082E000C990BAA0BBB0BC6CFC3
:10083000039711F789859A85AB85BC854D855E85C3
:100840006F857889481759076A077B07A9F28130B5
:100850009105A105B10581F68D879E87AF87B88B7D
:10086000CBCFCF93DF93823108F047C090E0EC010B
:10087000CE50D54528812F3F09F43FC0AC014C5FD5
:100880005445DA01EC91B0E2EB9FF0011124FC5FDA
:10089000611136C0268330812323A1F49C012658A0
:1008A0003545D9012C91309769F1283058F570966B
:1008B000E20FF11D3FB7F8942081611126C0277F18
:1008C00020833FBF88599545FC0190819923A9F069
:1008D0008881903409F19038E1F0903171F4DA01B7
:1008E0009C919130A1F4853010F0880F8295909101
:1008F000010A809589238093010ADF91CF910895A1
:100900002583C9CFF0E0E0E0D5CF2860D9CF880FAC
:10091000EECF1092A006F1CF20E4823009F420E857
:100920009091920A922349F36FB7F8949091800ABC
:100930009E7F9093800A4091920A30E020953095F6
:1009400050E02423352398ED94BF2093920A909190
:100950008E0A90FFFCCF9091800A91609093800A5C
:10096000813039F4809150048F77809350046FBFA9
:10097000C4CF809151048F7780935104F8CFCF92E8
:10098000DF92EF92FF92CF93DF93FC01C184D28478
:10099000E384F484C416D506E606F70689F021E060
:1009A00014161506160617060CF020E06A017B01E6
:1009B000EC01622F8B8D55DFC986DA86EB86FC86CB
:1009C000DF91CF91FF90EF90DF90CF9008950F933C
:1009D0001F93CF93DF93EC01062F142F60E08985DE
:1009E00040DFEB85FC859F8188852085222319F0D7
:1009F0002FB72187F89421E02287909320088093D5
:100A000021080000009324088091230887FFFCCF71
:100A1000809124080000109324088091230887FF08
:100A2000FCCF10912408EB85FC858285882331F06A
:100A300012868085882311F081858FBF61E08985CA
:100A400010DF812FDF91CF911F910F91089540E822
:100A500061E8BDCF41E861E8BACF40E0B8CFCF92BE
:100A6000DF92EF92FF92CF93DF936DE189EA98E3F3
:100A7000F4DF90E034E0959587953A95E1F78A3078
:100A800091050CF03FC0FC01EE0FFF1FE80FF91FAE
:100A9000EC52F545C080D180E2800E2C000CFF089E
:100AA0006EE189EA98E3D9DFD82F66E289EA98E314
:100AB000D4DFC82FD295DF7021E030E040E050E075
:100AC00004C0220F331F441F551FDA95D2F7C70108
:100AD000B6010E94821268EE73E080E090E00E940E
:100AE000821221313105410551058CF04C2F4860AF
:100AF00066EA89EA98E3DF91CF91FF90EF90DF906B
:100B0000CF9065CFCC24CA94DC2C7601C9CF4C2F72
:100B1000477FEECFCF92DF92EF92FF920F931F931A
:100B2000CF93DF938C016AE198DFC82FD0E0F80102
:100B300066857785808991890E94F10F2AEE36E5D6
:100B40004AEF5DE40E94EB0F87FD44C08DE990E021
:100B5000C81BD90B69E1C80180DF87FD8D5F8595D2
:100B60008595682F880F770B880B990B0E94F10FE2
:100B70006B017C0120E030E0A9010E94EB0F87FFB0
:100B80000DC0BE01DD0F880B990B0E94F10FA7016C
:100B900096010E944F110E941B12EB019E01DD0F76
:100BA000440B550B20583F4F4F4F5F4FA4E6B0E02A
:100BB0000E94041126E730E040E050E00E948212DB
:100BC000C901DF91CF911F910F91FF90EF90DF90BE
:100BD000CF90089584EA90E0BBCFCF92DF92EF925E
:100BE000FF920F931F93CF93DF937C01C62EC72FE5
:100BF000D42E63E132DFD82F0C2D1C2FC0E0CD178F
:100C000051F0CD1541F060E0C70127DFCF5FF8015B
:100C100081938F01F4CF8C2F90E0DF91CF911F91C2
:100C20000F91FF90EF90DF90CF9008951F93CF9397
:100C3000DF93EC01009759F1469710F0C5E1D0E041
:100C40001C2F4C2F60E378E389EA98E3C6DF30E09D
:100C50002AE52197832F90E08C179D073CF4805D57
:100C6000974CFC018081280F3F5FF4CF809144387E
:100C700028130DC0E0914738F0914838309739F08B
:100C800060E378E3812FDF91CF911F910994DF9189
:100C9000CF911F9108950F931F93CF93DF93EC0192
:100CA00062E1DBDE182F482F62E9CE0190DE15FDF0
:100CB00023C016FF16C063E1CE01CFDE082F10E07F
:100CC00060E1CE01CADE482F6DE8CE0180DEEA8108
:100CD000FB81309789F0C801DF91CF911F910F916F
:100CE000099413FF09C0EC81FD81309729F0DF9151
:100CF000CF911F910F910994DF91CF911F910F9187
:100D0000089589EA98E3C7CF43E861E860DE81E0AF
:100D100090E00895CF93DF93EC0140E060EC57DE64
:100D200045E861E8CE0153DE81E090E0DF91CF91AC
:100D3000089581E08093743889EA98E3EBDFE091CD
:100D40004538F0914638309709F009940895AF92EC
:100D5000BF92DF92EF92FF920F931F93CF93DF9397
:100D6000EC015B01D42E61E078DE83708330C1F04A
:100D700062E1CE0172DE83FF04C048E062E9CE0189
:100D800026DEE881F9810084F185E02DCE01099508
:100D900040E06DE8CE011BDE40E062EACE0117DEE6
:100DA0008501ED2CF12CC8018A199B098E159F0530
:100DB00038F4F80141918F0160E8CE0108DEF3CFED
:100DC0004D2D62EACE0103DE8C819D81892B21F0BD
:100DD00040E460ECCE01FBDDE881F9810288F38913
:100DE000E02DCE010995C701DF91CF911F910F91A1
:100DF000FF90EF90DF90BF90AF900895FC018AE5DF
:100E0000848BDF019F012C5E3F4F9D918489890F68
:100E1000848BA217B307C9F71092743845E1BF015C
:100E200089EA98E394DF80917338882351F08091A8
:100E30007438811106C062E070E080E090E0A4DACE
:100E4000F2CF0895CF93DF93CDB7DEB76597CDBFCF
:100E5000DEBF89836A838EEF8B8328502C8380E1E9
:100E6000FA01DE01159601900D928A95E1F7CE0107
:100E70000196C4DF6596CDBFDEBFDF91CF910895A7
:100E8000DC01E6E5F8E380915338808380915538A2
:100E9000818312968C911297828315969C91159757
:100EA000990F990F990F17968C91890F8383CF0112
:100EB000A5CF0F931F93CF93DF938C01EB0162318A
:100EC0007105C4F06531710514F0C4E1D0E02397D9
:100ED00047E86DECC8017BDD41E36BE8C80177DDD5
:100EE0004C2F4250406869E8C801DF91CF911F91B3
:100EF0000F916DCD6230710514F4C2E0D0E044E88A
:100F00006DECC80164DD4BE2E8CF8231F0F490E093
:100F1000FC01EE50F54520812F3FB9F0FC01EC5F5C
:100F2000F445E08130E2E39FF0011124FC5F60FFB3
:100F30000DC0218386589545DC018C91E80FF11D89
:100F4000808961FF05C08860808B08952283F2CF7D
:100F5000877FFACFEF92FF920F931F93CF93DF9388
:100F6000EC01862F4A834FEF5FEF4B835C834DE0AC
:100F700050E04D835E83EE24E394F12CEF82F886FB
:100F80001B8A1C8AE98AFA8A2D8B3E8B1F8A188E4F
:100F900041EC5DEB60EF7FEF49875A876B877C8779
:100FA0004EE352E46FE070E04D875E876F87788B89
:100FB000198E1A8E20EC3AEA288339838B8F0C8F96
:100FC0001D8F1E8E1F8E62E0A0DF2C8D3D8D223086
:100FD000310528F51D821E821F8218868B8D2130D7
:100FE0003105B1F4B3DB51E040E030E020E08111A5
:100FF00050E0852F942FA32FB22F89879A87AB8734
:10100000BC87DF91CF911F910F91FF90EF900895D2
:101010009DDB082E000C990BAA0BBB0BEECF88E0D2
:1010200090E08D839E83EF82F88689859A85AB85D3
:10103000BC858D879E87AF87B88BE3CFCF93DF9337
:10104000EC0160E08E8161DF8E81823188F590E075
:10105000FC01E658F545E081EF3F51F18C5F944586
:10106000DC018C9190E0DC01AA0FBB1FA050B84CB2
:101070002D913C9121153105D9F04E2F50E0440FB0
:10108000551F240F351F41E856E0D9014D935C935D
:101090002FB7F894E05F75E0880F991F7A95E1F714
:1010A000E80FF0E0FC5F8081887F826080832FBF43
:1010B000DF91CF910895FC0164837583672B09F05C
:1010C000BDCF8681823108F489C90895FC0162830D
:1010D0007383672B09F0B2CF8681823108F47EC911
:1010E0000895CF93DF93EC01EB85FC858091200878
:1010F0008E7F80932008178260E080E106DF60E049
:101100008FE003DF60E08EE000DF60E08985FDDED8
:101110008D858F3F21F060E0DF91CF91F6CEDF919A
:10112000CF9108958F929F92AF92BF92CF92DF920C
:10113000EF92FF920F931F93CF93DF93EC016A011D
:101140007B0161E08985E1DE61E089858ADB8D854F
:101150008F3F91F061E0D9DE60E08D8582DB6AE04F
:1011600070E080E090E010D961E08D857ADB6AE084
:1011700070E080E090E008D9EB85FC8587818111E3
:1011800006C01086128680E8818781E0878380917F
:1011900001028B7F9681892B8093010286818111C8
:1011A00091C061E08EE0B1DE61E080E1AEDE809171
:1011B00021088460809321088091200881628093B7
:1011C00020089091803880918138909320088093F6
:1011D000210862E4CE0141DC823109F07CC0E88163
:1011E000F9810680F781E02DCE010995CE86DF8654
:1011F000E88AF98A46015701BB0C8808982C5401EB
:101200009601A701682D782D882D982D03E10E9465
:101210000213A12CE8E4BE2EF8EECF2EDD24D394E9
:10122000E12CF12C00E010E00E94A612F22E832E99
:10123000942EA52EB62EC72ED82EE92E00E10E94A0
:101240001D13422F66E8CE01C2DB2F2D382D492D0C
:101250005A2D6B2D7C2D8D2D9E2D08E00E941D1387
:10126000422F67E8CE01B3DB4F2D68E8CE01AFDB3C
:1012700040E06EE8CE01ABDB40E06FE8CE01A7DBDB
:101280006CE0CE01EADB482F43606CE8CE019FDBC7
:1012900044E066EACE019BDBE881F9810084F185B8
:1012A000E02DCE01099581E090E0DF91CF911F9173
:1012B0000F91FF90EF90DF90CF90BF90AF909F90F5
:1012C0008F900895843009F072CF61E08CE01DDECC
:1012D00061E08AE06BCF90E080E0E7CFEF92FF9291
:1012E0000F931F93CF93DF93CDB7DEB7A297CDBFF8
:1012F000DEBFFC0161857285838594852AE0AE019D
:101300004F5F5F4F7A0128D6F70101900020E9F77F
:10131000BF016E197F0990E080E00E945D148C018E
:10132000009719F0B7010E941C15C8010E94D41340
:10133000C801A296CDBFDEBFDF91CF911F910F9163
:10134000FF90EF9008958F9381E080938D0A8FB77F
:101350008F93EF93FF93E9E4F8E39F9368948FEF03
:101360000FC0E894848195818C5E9F4F8483958320
:10137000885E934010F08FEF03C0848395838EEFD7
:101380009081981B919390819F4F919390819F4F53
:10139000919390819F4F919326F39F91FF91EF91AD
:1013A0008F918FBF8F9118950F9304E006C00F9314
:1013B00002E003C00F9300E000C00F920FB60F923F
:1013C0001F921124FF921F932F933F934F935F938C
:1013D0006F937F938F939F93AF93BF93CF93DF933D
:1013E000EF93FF93A0E0B8E3A00FB11DCD91DC9186
:1013F000000F0D5FA02FB0E0FC90109761F01F2D43
:10140000169518F041F02296FBCFE991F9913097AB
:10141000B9F30995F5CFA02FB0E0FC92FF91EF91C1
:10142000DF91CF91BF91AF919F918F917F916F91FC
:101430005F914F913F912F911F91FF901F900F90BF
:101440000FBE0F900F91189584E08093813891E33F
:101450009093803820E238E02093753830937638C6
:1014600010927C382AE13BEA2093A9383093AA38BD
:101470009093B0388093B1381092B2381092B3384C
:1014800083E08093B63882E08093AF3885E798E3B5
:101490008093B4389093B5381092B7381092B8381A
:1014A0001092B9381092BA381092A8381092A73812
:1014B0001092A6381092A338E3EBF0E081E08C3074
:1014C00051F09491823009F49F5F21E0280F31960A
:1014D000992309F443C08093A43881E08093A53810
:1014E0001092A0381092A1381092A23822E330E076
:1014F00020938F38309390381092923822E838E356
:1015000020939338309394381092993810929A38E7
:1015100010929B3810929C3880939838809395381D
:101520001092963882E08093973889E090E080931B
:101530008D3890938E3883E090E080938B38909331
:101540008C388CE08093913884E494E080939D38CB
:1015500090939E3884E080939F380895822FAFCF78
:10156000CF93DF93CDB7DEB7E097CDBFDEBF88ED79
:1015700093E084BF90936100E0E0F6E081E5828330
:101580008AE0858380E2838381E080831092020277
:101590008093030A9EEF9093260A9093270A99E07E
:1015A0009093000AE0E8FAE02DEF31E026A737A794
:1015B000118290E89283848781E18083789461E04E
:1015C0008CE0A3DC609192386B3029F12091933844
:1015D000309194386150C9F070E08FEF9AE05CD799
:1015E000F90140918D3850918E38CF01821B930BB9
:1015F0008417950768F4DF014D91469FC001479F0E
:10160000900D11249083FD01ECCF70E060E0E8CFF5
:101610008BE080939238809100148093553860E07D
:1016200083E073DC07E011E080910006811140C087
:101630006FEF70E080E090E00E9495000E941B0137
:101640002FB7F89480914D3890914E38A0914F3833
:10165000B09150382FBF81319742A105B10508F0F4
:1016600048C26CE271E080E090E00E94C40160E05A
:1016700070E0CB010E9495000E941B012FB7F894E7
:1016800080914D3890914E38A0914F38B09150389C
:101690002FBF81319742A105B10508F42FC264E63E
:1016A00070E080E090E00E94C40110935438BCCFF9
:1016B000009306061093080680910B0680FFFCCF6E
:1016C0008091100690911106843691050CF4B0CFEC
:1016D0002FB7F89480914D3890914E38A0914F38A3
:1016E000B09150382FBF81319742A105B10518F054
:1016F0008FEF8093553860E07FEF80E090E00E94AC
:1017000095000E941B01809155388F3F91F482E330
:10171000809355381092533865E578E380E00E9455
:10172000230263E578E381E00E94230281E0809355
:101730005438809101148093533880E290E098D718
:101740007C0101E010E02CEA30E041E061E002DCE5
:10175000C7010E94730380936F389093703880E2C2
:1017600090E086D77C0125EA30E042E065E0F2DBDC
:10177000C7010E94730380936B3890936C3880E2AA
:1017800090E076D77C0110E000E02BE930E043E008
:1017900064E0E0DBC7010E9473038CE190E068D74E
:1017A0008C0185E0D80112968C93129744244A94B8
:1017B000542C13964D925C9214979DE0292E312C57
:1017C00015962D923C92169766246394712C179669
:1017D0006D927C92189753961D921C925497519635
:1017E0006D927C92529786E990E055968D939C93EA
:1017F000569757961D921C92589731EC832E3DEBCD
:10180000932E30EFA32EBB24BA94F80181869286E2
:10181000A386B4864EE3C42E42E4D42E4FE0E42ED9
:10182000F12C1D96CD92DD92ED92FC925097599637
:101830001D921C925A97E0E9FAEAED93FC931197F6
:101840008BE05B968C9361E060DBD8015B968C91BA
:101850000E94A603082E000C990BAA0BBB0BF801E3
:1018600081879287A387B48782E090E085839683FF
:1018700017821086C8010E94730380937138909379
:1018800072388CE190E0F4D68C0186E0D801129693
:101890008C93129713964D925C92149715962D92F5
:1018A0003C92169717966D927C92189753961D92BC
:1018B0001C92549751966D927C92529780E990E0D9
:1018C00055968D939C93569757961D921C925897B8
:1018D000F80181869286A386B4861D96CD92DD920C
:1018E000ED92FC92509759961D921C925A97E0E9FE
:1018F000FAEAED93FC9311978AE05B968C9361E092
:1019000004DBD8015B968C910E94A603082E000C84
:10191000990BAA0BBB0BF80181879287A387B48729
:1019200082E090E08583968317821086C8010E942A
:10193000730380936D3890936E388BE190E098D666
:10194000FC0187E0828343825482138A148A618A6D
:10195000728A89E890E0858B968B178A108E818633
:101960009286A386B486C586D686E786F08A118ECF
:10197000128E88EA9AEA8083918381E190E08583E0
:10198000968383E090E087839087CF010E94730362
:1019900081E0809373388AE392E080934738909394
:1019A0004838109245381092463840E45EE06FECBB
:1019B00079E189EA98E3B6DB892B09F4A4C086E1D2
:1019C00096E08093AB389093AC3889EA98E336DBA5
:1019D00089E996E08093AD389093AE3889EA98E330
:1019E0002DDB6EE070E089EA98E363DA43EC61EBAB
:1019F00089EA98E30E94E7044AE067EB89EA98E302
:101A00000E94E7046EE189EA98E327D88F70482F97
:101A100040696EE989EA98E30E94E70420D86DE105
:101A200089EA98E31AD88F70482F40676DE989EAF0
:101A300098E30E94E70413D86DE189EA98E30DD892
:101A4000817F482F42606DE989EA98E30E94E704AC
:101A500089EA98E35FD98091543881117BC064E6AC
:101A600070E080E090E00E94C40160E070E0CB0193
:101A70000E9495000E941B018091713890917238EC
:101A8000DC01ED91FC910084F185E02D40E050E017
:101A9000BA01099580916D3890916E38DC01ED9115
:101AA000FC910084F185E02D40E050E0BA010995F9
:101AB000AAE5EA2EA8E3FA2EB0E1CB2E10E0809141
:101AC000A238181708F058C1812F90E0880F991F8D
:101AD000E091A038F091A138E80FF91F8081918141
:101AE000DC01ED91FC910088F189E02D09951F5FE3
:101AF000E6CF64E670E080E090E0B7CD6CE271E0A4
:101B000080E090E0D0CD60E070E08FEF90E00E9448
:101B100095000E941B0113E064E670E080E090E015
:101B20000E94C40160E070E0CB010E9495000E9419
:101B30001B0164E670E080E090E00E94C40160E078
:101B400070E08FEF90E00E9495000E941B01115001
:101B500019F785CF8FEF809353388E010D5D1F4F9E
:101B6000EEE0FE2EF8012F2D11922A95E9F78EEF67
:101B700089A38DE08AA383E08BA346E050E062E86E
:101B800070E0CE018496D9D130E020E0AE014F5D07
:101B90005F4F609155388091533854D9D8011D92C8
:101BA000FA94E9F745E050E06CE770E0C801C5D170
:101BB00022E030E0AE014F5D5F4F6091553880917B
:101BC000533840D91BA227E030E0AE014F5D5F4F94
:101BD000609155388091533835D9D12C4E01B3E1FD
:101BE0008B0E911CFEE0CF2E8091A238D81608F003
:101BF0008DC08D2D90E0880F991FE091A038F09155
:101C0000A138E80FF91F00811181F8018281882332
:101C100009F47AC0D401EC2D1D92EA95E9F7898B7D
:101C2000D80115968C9115978A8B17968C911797DA
:101C30008B8B5596ED90FC90C70176D18D30910538
:101C400010F08DE090E0AC01B701CE01449675D163
:101C500030E020E0AE014F5E5F4F609155388091DB
:101C60005338F0D8F801A788B08CA114B10449F119
:101C7000C5015AD17C01892B21F1D80112968C9192
:101C80008983A701BEE0EB16F10410F04EE050E0AE
:101C9000B501CE01039651D1EEE0EE16F10438F411
:101CA000E3E0F0E0EC0FFD1FEE0DFF1D108221E0E0
:101CB00030E0AE014F5F5F4F6091553880915338EF
:101CC000C1D8D801ED91FC910288F389E02DC801BB
:101CD0000995F4012C2D11922A95E9F7D801129655
:101CE0008C911297898B15968C9115978A8B1796E4
:101CF0008C918B8B27E030E0AE014F5E5F4F60919F
:101D00005538809153389ED8D3946ECF53E0C52E6A
:101D1000D12CE12CF12C812C912C54018A94939498
:101D200080915438882309F49ACE2FB7F8946091A3
:101D30004D3870914E3880914F38909150382FBF68
:101D4000A7019601BDD3CA01B901A5019401B8D379
:101D50006F5F710977FF03C0719561957109072E57
:101D6000000C880B990B982F872F762F66270E94DF
:101D700095000E941B01D4CF8091713890917238E8
:101D8000DC01ED91FC910280F381E02D099588231F
:101D9000D9F080916F3890917038DC01ED91FC9111
:101DA0000280F381E02D0995882371F080917138CC
:101DB00090917238DC01ED91FC910084F185E02D69
:101DC00040E050E0BA01099580916D3890916E38ED
:101DD000DC01ED91FC910280F381E02D09958823CF
:101DE000D9F080916B3890916C38DC01ED91FC91C9
:101DF0000280F381E02D0995882371F080916D3880
:101E000090916E38DC01ED91FC910084F185E02D1C
:101E100040E050E0BA010995D12C8091A238D81643
:101E200008F04CCE8D2D90E0880F991FE091A038DE
:101E3000F091A138E80FF91F00811181F801418567
:101E400052856385748585859685841B950B97FFE0
:101E500003C0919581959109D80153962D913C919C
:101E60005497281739070CF041C012968C9112979D
:101E7000882309F43BC0F801458756876787708B34
:101E80000580F681E02DED30F10510F5E75BF04FB0
:101E900055C3560F560F560F680F780F680F680F0F
:101EA000780F560F680F680F780F560F40935A3807
:101EB00050935B3860935C3870935D3851968D9188
:101EC0009C9180935E3890935F38C8010E944007D0
:101ED000D8015996ED91FC915A97309739F019969F
:101EE0006D917D918D919C911C970995D39495CF7F
:101EF000ED91FC910680F781E02DC8010995FC0168
:101F000001900020E9F73197D7012C2D1D922A95D9
:101F1000E9F7E81BE13108F0E0E14E2F50E0BC01A9
:101F20008AE598E390D5D1CFFC0105900020E9F730
:101F3000809590958E0F9F1F0895FB01DC01415005
:101F4000504048F005900D920020C9F701C01D9245
:101F500041505040E0F70895BB272A3051F49923AF
:101F600042F4BDE290958095709561957F4F8F4FBB
:101F70009F4F01C0BB27FA01A62F6217710581058B
:101F80009105330B30FB66F0AA27660F771F881F79
:101F9000991FAA1FA21710F0A21B63953850A9F72A
:101FA000A05DAA3308F0A95DA19336F7B111B193F2
:101FB0001082CA0100C0DC01FC01672F71917723F8
:101FC000E1F7329704C07C916D9370836291AE17F4
:101FD000BF07C8F3089540D008F481E00895E8945D
:101FE00009C097FB3EF490958095709561957F4F61
:101FF0008F4F9F4F9923A9F0F92F96E9BB2793950F
:10200000F695879577956795B795F111F8CFFAF41E
:10201000BB0F11F460FF1BC06F5F7F4F8F4F9F4F4F
:1020200016C0882311F096E911C0772321F09EE8AD
:10203000872F762F05C0662371F096E8862F70E013
:1020400060E02AF09A95660F771F881FDAF7880FED
:102050009695879597F90895990F0008550FAA0B43
:10206000E0E8FEEF16161706E807F907C0F01216AB
:102070001306E407F50798F0621B730B840B950BAE
:1020800039F40A2661F0232B242B252B21F4089503
:102090000A2609F4A140A6958FEF811D811D0895A0
:1020A0000BD078C069D028F06ED018F0952309F0D5
:1020B0005AC05FC01124A2C07ED0A0F3959FD1F377
:1020C000950F50E0551F629FF001729FBB27F00DE6
:1020D000B11D639FAA27F00DB11DAA1F649F66273B
:1020E000B00DA11D661F829F2227B00DA11D621F8A
:1020F000739FB00DA11D621F839FA00D611D221F44
:10210000749F3327A00D611D231F849F600D211D27
:10211000822F762F6A2F11249F5750408AF0E1F0CA
:1021200088234AF0EE0FFF1FBB1F661F771F881F13
:1021300091505040A9F79E3F510570F014C05EC009
:102140005F3FECF3983EDCF3869577956795B795FE
:10215000F795E7959F5FC1F7FE2B880F911D969528
:10216000879597F9089597F99F6780E870E060E098
:1021700008959FEF80EC089500240A941616170620
:1021800018060906089500240A9412161306140668
:1021900005060895092E0394000C11F4882352F0CB
:1021A000BB0F40F4BF2B11F460FF04C06F5F7F4F83
:1021B0008F4F9F4F089557FD9058440F551F59F06A
:1021C0005F3F71F04795880F97FB991F61F09F3F24
:1021D00079F087950895121613061406551FF2CF4D
:1021E0004695F1DF08C0161617061806991FF1CF9D
:1021F00086957105610508940895E894BB276627C4
:102200007727CB0197F908953AD0A59F900DB49FF9
:10221000900DA49F800D911D112408952F923F923F
:102220004F925F926F927F928F929F92AF92BF92E6
:10223000CF92DF92EF92FF920F931F93CF93DF9392
:10224000CDB7DEB7CA1BDB0BCDBFDEBF09942A8832
:10225000398848885F846E847D848C849B84AA84BA
:10226000B984C884DF80EE80FD800C811B81AA8147
:10227000B981CE0FD11DCDBFDEBFED010895A29F64
:10228000B001B39FC001A39F700D811D1124911D4A
:10229000B29F700D811D1124911D08955058BB27C8
:1022A000AA270ED077CF68DF30F06DDF20F031F451
:1022B0009F3F11F41EF45DCF0EF4E095E7FB53CF82
:1022C000E92F79DF80F3BA17620773078407950750
:1022D00018F071F49EF591CF0EF4E0950B2EBA2F05
:1022E000A02D0B01B90190010C01CA01A00111241C
:1022F000FF27591B99F0593F50F4503E68F11A16C8
:10230000F040A22F232F342F4427585FF3CF469558
:1023100037952795A795F0405395C9F77EF41F167A
:10232000BA0B620B730B840BBAF09150A1F0FF0F44
:10233000BB1F661F771F881FC2F70EC0BA0F621F30
:10234000731F841F48F4879577956795B795F79520
:102350009E3F08F0B3CF9395880F08F09927EE0FB2
:102360009795879508950CD015CF0DDF40F004DFC9
:1023700030F021F45F3F19F0F6CE51113FCFF9CE86
:102380001ADF98F39923C9F35523B1F3951B550B25
:10239000BB27AA2762177307840738F09F5F5F4F38
:1023A000220F331F441FAA1FA9F333D00E2E3AF079
:1023B000E0E830D091505040E695001CCAF729D093
:1023C000FE2F27D0660F771F881FBB1F26173707E2
:1023D0004807AB07B0E809F0BB0B802DBF01FF2712
:1023E00093585F4F2AF09E3F510568F0BCCE06CF50
:1023F0005F3FECF3983EDCF3869577956795B7954C
:10240000F7959F5FC9F7880F911D9695879597F966
:102410000895E1E0660F771F881FBB1F62177307DF
:102420008407BA0720F0621B730B840BBA0BEE1FF4
:1024300088F7E095089504D06894B111DFCE08952F
:10244000C2DE88F09F5790F0B92F9927B751A0F0BE
:10245000D1F0660F771F881F991F1AF0BA95C9F738
:1024600012C0B13081F0C9DEB1E00895C6CE672F49
:10247000782F8827B85F39F0B93FCCF386957795E8
:102480006795B395D9F73EF49095809570956195D1
:102490007F4F8F4F9F4F0895AA1BBB1B51E107C071
:1024A000AA1FBB1FA617B70710F0A61BB70B881FE4
:1024B000991F5A95A9F780959095BC01CD01089573
:1024C000A1E21A2EAA1BBB1BFD010DC0AA1FBB1F38
:1024D000EE1FFF1FA217B307E407F50720F0A21BAA
:1024E000B30BE40BF50B661F771F881F991F1A9417
:1024F00069F760957095809590959B01AC01BD0141
:10250000CF010895052E97FB16F400940FD057FDC8
:1025100005D0D6DF07FC02D046F408C050954095A0
:10252000309521953F4F4F4F5F4F0895909580957F
:10253000709561957F4F8F4F9F4F0895EE0FFF1F4E
:102540000590F491E02D0994689401C0E8948F926D
:102550009F92CF93DF9305D0DF91CF919F908F9083
:10256000089588249924F401E401B0E49F93AA27F4
:102570009A158B049C04ED05FE05CF05D007A10735
:1025800098F4AD2FDC2FCF2FFE2FE92D982C892E1C
:10259000982F872F762F652F542F432F322F2227E6
:1025A000B85031F7BF9127C01B2EBF91BB27220F18
:1025B000331F441F551F661F771F881F991F881CD4
:1025C000991CEE1FFF1FCC1FDD1FAA1FBB1F8A1403
:1025D0009B04EC05FD05CE05DF05A007B10748F01B
:1025E0008A189B08EC09FD09CE09DF09A00BB10B85
:1025F00021601A94E1F62EF49401AF01BE01CD01E1
:10260000000C0895002E083090F0982F872F762F19
:10261000652F542F432F322F22270850F4CF220F3B
:10262000331F441F551F661F771F881F991F0A9568
:10263000B2F7002D089597FD1094002E083098F001
:102640000850232F342F452F562F672F782F892F8F
:10265000912DF4CF15949795879577956795579514
:102660004795379527950A95AAF71124002D0895C7
:102670000F931F93CF93DF938230910510F482E084
:1026800090E0E091BD38F091BE3830E020E0B0E05D
:10269000A0E0309799F42115310509F44AC0281BB0
:1026A000390B24303105D8F58A819B81611571057C
:1026B00089F1FB0182839383FE0111C04081518126
:1026C0000281138148175907E0F04817590799F418
:1026D000109761F012960C93129713961C933296F2
:1026E000CF01DF91CF911F910F9108950093BD38D5
:1026F0001093BE38F4CF2115310551F0421753071E
:1027000038F0A901DB019A01BD01DF01F801C1CF59
:10271000EF01F9CF8093BD389093BE38CDCFFE0145
:10272000E20FF31F8193919322503109288339835B
:10273000D7CF2091BB383091BC38232B41F4209166
:102740000838309109382093BB383093BC38209139
:102750000638309107382115310541F42DB73EB7C1
:1027600040910A3850910B38241B350BE091BB384F
:10277000F091BC38E217F307A0F42E1B3F0B28178B
:10278000390778F0AC014E5F5F4F2417350748F0EA
:102790004E0F5F1F4093BB385093BC388193919389
:1027A0009FCFF0E0E0E09CCFCF93DF930097E9F07C
:1027B000FC01329712821382A091BD38B091BE38CD
:1027C000ED0130E020E01097A1F420813181820FEB
:1027D000931F2091BB383091BC382817390709F076
:1027E00061C0E093BB38F093BC38DF91CF9108957E
:1027F000EA01CE17DF07E8F54A815B819E014115AA
:102800005105B1F7E901EA83FB8349915991C40F5E
:10281000D51FEC17FD0761F4808191810296840F2A
:10282000951FE90188839983828193818A839B83A1
:10283000F0E0E0E012968D919C9113970097B9F526
:102840002D913C911197CD010296820F931F2091FB
:10285000BB383091BC382817390739F6309751F515
:102860001092BD381092BE38A093BB38B093BC38DC
:10287000BCCFC283D38340815181840F951FC81779
:10288000D90761F44E5F5F4F88819981480F591FC6
:10289000408351838A819B818283938321153105F3
:1028A00009F0B0CFE093BD38F093BE389ECFFD0164
:1028B000DC01C0CF12821382D7CFB0E0A0E0E2E605
:1028C000F4E1AECC8C01009741F4CB01D1DE8C0158
:1028D000C801CDB7DEB7E0E1BCCCFC01E60FF71FC5
:1028E0009C0122503109E217F30708F499C0D9017D
:1028F000CD91DC911197C617D70790F0C530D1055F
:1029000038F3CE0104978617970710F3C61BD70B31
:102910002297C193D1936D937C93CF0145DFD8CF9C
:102920005B01AC1ABD0A4C018C0E9D1EA091BD38F6
:10293000B091BE38512C412CF12CE12C109731F57F
:102940008091BB389091BC388815990509F05CC01E
:102950004616570608F058C08091063890910738FF
:10296000009741F48DB79EB740910A3850910B38CB
:10297000841B950BE817F90708F052C0E093BB38A9
:10298000F093BC38F90160837183A2CF8D919C9143
:10299000119712966C90129713967C901397A81526
:1029A000B90559F56C0142E0C40ED11CCA14DB0410
:1029B00020F1AC014A195B09DA011296159780F0F3
:1029C0006282738240835183D9016D937C93E114B9
:1029D000F10471F0D7011296ED93FC93139778CF21
:1029E00022968C0F9D1FF90180839183F301EFCF15
:1029F000E093BD38F093BE386BCF4816590608F403
:102A00002C017D01D3019ACFCB0132DE7C010097EE
:102A100039F0AE01B80107D0C801C6DE870158CF32
:102A200010E000E055CFFB01DC0102C001900D92E7
:102A300041505040D8F70895FB01DC0101900D9200
:102A40000020E1F70895FB01DC014150504048F0BF
:102A500001900D920020C9F701C01D9241505040D5
:082A6000E0F70895F894FFCFA0
:102A6800101080000000001010104040000000000E
:102A78001000040506070504030201000001020313
:102A88000102030000000000CA03C10336036E09F7
:102A9800BF04F002FF02FB02EF02EF020000000099
:102AA80067035A033603FC0230032503FF02FB02C7
:102AB800EF02EF020000000067035A0336036E09B5
:102AC80030032503FF02FB02D303EF02781E00A0A8
:102AD8002800F03C00405100127A00E4A20024F4DF
:102AE8000048E80190D00320A10710204080201062
:102AF80008040201010204080204080100000000A1
:102B080001010101010102020202000000000000AF
:102B18000000920871088A0527052A055907ED055E
:102B2800A7068A0684064B0666085B0870036D03D1
:0C2B3800203814380C380000BF38800032
:00000001FF
