:100000005BC000008DC000008BC000000C94E60BAC
:100010000C94E30B0C94E00B83C000000C94300CA8
:100020007FC000007DC000007BC0000079C00000E0
:1000300077C0000075C0000073C000000C94AF0BC7
:100040006FC000006DC000006BC0000069C0000000
:1000500067C0000065C0000063C0000061C0000010
:100060005FC000005DC000005BC0000059C0000020
:1000700057C0000055C0000053C000004D4C45342F
:10008000320048656E486F75736500446F6F72008B
:1000900073004D6F76652074696D6500436C6F73F6
:1000A0006564004F70656E6564001F1C1F1E1F1E77
:1000B0001F1F1E1F1E00410C11241FBECFEFCDBFFE
:1000C000DFE3DEBF8091400080934000811105C0D6
:1000D00098ED21E094BF209341008CBB18E3A0E091
:1000E000B8E3E7EDF0E302C005900D92AC30B10744
:1000F000D9F728E3ACE0B8E301C01D92A03CB207F9
:10010000E1F710E0CCE5D0E004C02197FE010E94A9
:10011000FA14CB35D107C9F70E94930C0C94DA1767
:100120006FCF8F929F92AF92BF92CF92DF92EF925A
:10013000FF922091A7383091A838232B09F440C0B2
:100140004C01AA24BB24C72ED82EE92EFF24BC2D97
:10015000A62F2091AE38482D222391F0A22FB0E097
:10016000A89DF001A99DF00DB89DF00D11244F2F11
:100170002C9D60011124BD2D269FC0011124A92FA3
:10018000E091B4388091AF389091B0382091B13877
:10019000E21721F0E80FF92FF11D1082E091B1383C
:1001A000E80FF92FF11D4083E091B238E80FF92FE5
:1001B000F11DB0832091B338820F911DFC01A08303
:1001C000FF90EF90DF90CF90BF90AF909F908F9077
:1001D00008959FB7F89488E08093840A80918E0AEE
:1001E00081FFFCCF80918D0AE091A20AF091A30AD1
:1001F00020914538309146384091473850914838E1
:100200009FBF80FF07C0E730F10520F42F5F3F4F0D
:100210004F4F5F4FAEEFB1E00E940F156E0F7F1F83
:10022000811D911D660F771F881F991F08950F93D9
:100230001F93CF93DF93CDB7DEB72797CDBFDEBF38
:100240008091A9389091AA3889839A838091AF3898
:100250009091B038892B09F48BC08091AD388231F0
:100260000CF086C0B6DF0091B5381091B6382091F9
:10027000B7383091B838AB01BC01401B510B620B51
:10028000730B8091AB389091AC38B0E0A0E0481788
:1002900059076A077B0730F3F894A091AF38B09103
:1002A000B038FD0131968C918F831B82A091B938B3
:1002B000B091BA389C918091BB38982B9E839C91C9
:1002C000809589238D838D818C838F8187FF02C0E8
:1002D0008E818C835E816D814F813C812B818981F0
:1002E0009A815C933C93262F46FD252F6C9300004A
:1002F0005C932C93362F45FD352F6C9300005C9357
:100300003C93262F44FD252F6C9300005C932C9387
:10031000362F43FD352F6C9300005C933C93262FC2
:1003200042FD252F6C9381505C932C93362F41FD19
:10033000352F6C9391095C933C93262F40FD252F1C
:100340006C9341915C932C93362F47FD352F6C9322
:1003500041F64F833C832B8389839A83789439DFDA
:100360006093B5387093B6388093B7389093B838A7
:100370002796CDBFDEBFDF91CF911F910F910895DA
:10038000CF92DF92EF92FF92CF93DF936B017C01CC
:1003900020DFEB011EDF6C1B7D0B683E7340A0F07D
:1003A000C114D104E104F10439F4DF91CF91FF903D
:1003B000EF90DF90CF90089581E0C81AD108E1084E
:1003C000F108C851DC4FE6CFC114D104E104F104B7
:1003D00009F7EBCF2FB7F8946091493870914A38FC
:1003E00080914B3890914C382FBF089590E0FC01DC
:1003F000EE52F04520812F3F69F18E569F44FC015B
:100400008081E82FE295EE0FE07EE20FF0E0E05F02
:10041000FB4F9081917F908390E0FC0134E0EE0FE0
:10042000FF1F3A95E1F7422F50E061E070E001C014
:10043000660F2A95EAF76383880F991FFC01E05045
:10044000F84C440F551F0190F081E02DE40FF51F8B
:10045000108211820895FC01818592858330910577
:10046000B1F03CF4009769F0029771F084EA90EBE8
:1004700008958430910571F00597C1F78FEB90EBEB
:10048000089586EA90EB08958BEA90EB089580EB4F
:1004900090EB089588EB90EB089508950895CF921E
:1004A000DF92EF92FF92CF93DF93EC016A017B0121
:1004B00069897A89072E000C880B990B0E94951385
:1004C000A70196010E9445140E946213AB01BC0172
:1004D000E881F9810084F185E02DCE01DF91CF9193
:1004E000FF90EF90DF90CF900994462F50E070E09E
:1004F00060E0DC01ED91FC910084F185E02D099430
:10050000FC014187528763877487089584EA90EBE2
:100510000895CF92DF92EF92FF92CF93DF93EC0199
:1005200069857A858B859C850E9495136B017C017A
:1005300069897A89072E000C880B990B0E94951304
:100540009B01AC01C701B6010E94FA12DF91CF9165
:10055000FF90EF90DF90CF90089521E0FC0181851E
:100560009285A385B485892B8A2B8B2B09F420E0F7
:10057000822F0895FC016185728583859485089595
:100580008F929F92AF92BF92CF92DF92EF92FF92A3
:10059000CF93DF93EC016A017B0180E8C81A83E402
:1005A000D80A8DE6E80A88E3F80A8CE3882E912CB5
:1005B000A12CB12CC701B601A50194010E94BC1465
:1005C0006D83CA01B901A50194010E94BC146C831A
:1005D000C701B60120E13EE040E050E00E94BC14BB
:1005E000CA01B90128E130E040E050E00E94BC14AB
:1005F0006B83C701B60120E831E541E050E00E947D
:10060000BC14188263E97EEF8881982F937041E0D3
:1006100050E011F050E040E0FA01E359FE4F2E1790
:100620003F0740F0FB01E41BF50B2E0F3F1F8F5FD0
:100630008883EACF81E0898389818C30A0F4482FB8
:100640004150550BFA01E655FF4FE491911103C05B
:10065000823009F4EF5FF0E02E173F0720F02E1BE9
:100660003F0B8F5FE8CF2F5F2A83DF91CF91FF9001
:10067000EF90DF90CF90BF90AF909F908F900895B4
:10068000FC01A081B0E0BC5EE0E0F0E10FB62281A9
:100690002370E9F7F8946C936DE964BF63E06083BD
:1006A0000FBE08950F931F93CF93DF931F92CDB783
:1006B000DEB78B018983FB016081E82FF0E0FC5EEF
:1006C0008081681719F0CE010196DADFC8010F901A
:1006D000DF91CF911F910F910895CF92DF92EF920A
:1006E000FF920F931F93CF93DF931F92CDB7DEB787
:1006F000182FD62E072FE62EF72E88E0C82EC10E13
:100700001983F70161917F01E12FF0E0FC5E8081A8
:10071000681719F0CE010196B3DF1F5F1C11F0CFEF
:100720008D2D902F0F90DF91CF911F910F91FF9002
:10073000EF90DF90CF900895CF92DF92EF92FF92EB
:100740000F931F93CF93DF93CDB7DEB72897CDBF1D
:10075000DEBF8C016A017B01DC0151966D917C91B9
:10076000072E000C880B990B0E949513A701960188
:100770000E9445140E946213AB01BC01D801ED91A7
:10078000FC910084F185E02DC8010995F801818D67
:10079000928D89839A83838D948D8B839C838185AD
:1007A00092858D839E83818992898F839887BE01EC
:1007B0006F5F7F4F838191DF2896CDBFDEBFDF91D2
:1007C000CF911F910F91FF90EF90DF90CF90089500
:1007D0000F931F93CF93DF93CDB7DEB76597CDBF50
:1007E000DEBFDB019C9180915D38981338C08B018E
:1007F00080915C38882391F0FB0182818E3F71F4F7
:1008000083818770863099F58481811107C0858145
:1008100080935D386DE578E380E044DFF8019181F5
:1008200080915B3898131BC08281853069F5B801CF
:100830006C5F7F4F40E150E0CE0101960E949A1715
:10084000198A8091533890915438DC01ED91FC91D4
:100850000684F785E02DBE016F5F7F4F0995659691
:10086000CDBFDEBFDF91CF911F910F9108958730EB
:10087000A9F611968C9180935B386BE578E381E063
:1008800011DF10925C38CACF873049F78091553814
:10089000909156384481558166817781DC01ED91D4
:1008A000FC910084F185E02D099500915338109159
:1008B00054388091553890915638DC01ED91FC9177
:1008C0000190F081E02D0995F80161A372A3678F73
:1008D00070A3C5CF282F30E08231A8F4F901E05889
:1008E000FF4480818F3F79F02E563F44D901EC912F
:1008F000B0E2EB9FF0011124FC5F9085982381E02A
:1009000019F480E008958FEF0895CF93DF93EC0101
:10091000EC8DFD8D309729F1099590E0B0E0A0E0D5
:1009200089879A87AB87BC878A8D9B8D823091059A
:1009300089F589859A85AB85BC854D855E856F85F2
:100940007889481759076A077B0741F0892B8A2B5A
:100950008B2B21F41D861E861F86188ADF91CF916E
:100960000895898D2A8D3B8D2130310561F4B2DFE8
:1009700051E040E030E020E0811150E0852F942FDD
:10098000A32FB22FCDCFA6DF082E000C990BAA0BF8
:10099000BB0BC6CF039711F789859A85AB85BC85BC
:1009A0004D855E856F857889481759076A077B07EB
:1009B000A9F281309105A105B10581F68D879E8749
:1009C000AF87B88BCBCFCF93DF93823108F047C08E
:1009D00090E0EC01C058DF4428812F3F09F43FC06C
:1009E000AC014E565F44DA01EC91B0E2EB9FF001AE
:1009F0001124FC5F611136C0268330812323A1F4CA
:100A00009C012E523045D9012C91309769F1283044
:100A100058F57096E20FF11D3FB7F89420816111EF
:100A200026C0277F20833FBF80549045FC019081E2
:100A30009923A9F08881903409F19038E1F0903140
:100A400071F4DA019C919130A1F4853010F0880F97
:100A500082959091010A809589238093010ADF9104
:100A6000CF9108952583C9CFF0E0E0E0D5CF28608D
:100A7000D9CF880FEECF1092A006F1CF20E48230BC
:100A800009F420E89091920A922349F36FB7F89401
:100A90009091800A9E7F9093800A4091920A30E064
:100AA0002095309550E02423352398ED94BF209372
:100AB000920A90918E0A90FFFCCF9091800A9160EB
:100AC0009093800A813039F4809150048F7780931D
:100AD00050046FBFC4CF809151048F77809351042D
:100AE000F8CF0F931F93CF93DF93EC01062F142FB2
:100AF00060E0898568DFEB85FC859F81888520859E
:100B0000222319F02FB72187F89421E022879093B0
:100B10002008809321080000009324088091230876
:100B200087FFFCCF80912408000010932408809157
:100B3000230887FFFCCF10912408EB85FC85828574
:100B4000882331F012868085882311F081858FBF3C
:100B500061E0898538DF812FDF91CF911F910F915F
:100B6000089540E861E8BDCF41E861E8BACF40E0D0
:100B7000B8CFCF92DF92EF92FF92CF93DF936DE1E8
:100B800085E898E3F4DF90E034E0959587953A9511
:100B9000E1F78A3091050CF03FC0FC01EE0FFF1F1A
:100BA000E80FF91FEC5BFF44C080D180E2800E2C7F
:100BB000000CFF086EE185E898E3D9DFD82F66E2E4
:100BC00085E898E3D4DFC82FD295DF7021E030E0CC
:100BD00040E050E004C0220F331F441F551FDA9538
:100BE000D2F7C701B6010E94DE1468EE73E080E020
:100BF00090E00E94DE1421313105410551058CF051
:100C00004C2F486066EA85E898E3DF91CF91FF902A
:100C1000EF90DF90CF9065CFCC24CA94DC2C760186
:100C2000C9CF4C2F477FEECFCF93DF93EC0161E02C
:100C30009EDF8370833059F062E1CE0198DF83FF3D
:100C400004C048E062E9CE014CDF80E001C081E0F1
:100C5000DF91CF910895CF92DF92EF92FF920F93A1
:100C60001F93CF93DF938C016AE181DFC82FD0E01F
:100C7000F80166857785808991890E9495132AEE0F
:100C800036E54AEF5DE40E94F61287FD44C08DE927
:100C900090E0C81BD90B69E1C80169DF87FD8D5F52
:100CA00085958595682F880F770B880B990B0E9487
:100CB00095136B017C0120E030E0A9010E94F6123F
:100CC00087FF0DC0BE01DD0F880B990B0E949513A5
:100CD000A70196010E9492120E946213EB019E01ED
:100CE000DD0F440B550B20583F4F4F4F5F4FA4E68D
:100CF000B0E00E940F1526E730E040E050E00E948F
:100D0000DE14C901DF91CF911F910F91FF90EF90F9
:100D1000DF90CF90089584EA90E0BBCFCF92DF922E
:100D2000EF92FF920F931F93CF93DF937C01C62E18
:100D3000C72FD42E63E11BDFD82F0C2D1C2FC0E052
:100D4000CD1751F0CD1541F060E0C70110DFCF5F46
:100D5000F80181938F01F4CF8C2F90E0DF91CF9138
:100D60001F910F91FF90EF90DF90CF9008951F9308
:100D7000CF93DF93EC01009759F1469710F0C5E14E
:100D8000D0E01C2F4C2F60E378E385E898E3C6DFC2
:100D900030E02AE52197832F90E08C179D073CF4E3
:100DA000805D974CFC018081280F3F5FF4CF8091DC
:100DB000443828130DC0E0915138F09152383097E3
:100DC00039F060E378E3812FDF91CF911F9109948F
:100DD000DF91CF911F9108950F931F93CF93DF93CE
:100DE000EC0162E1C4DE182F482F62E9CE0179DE02
:100DF00015FD23C016FF16C063E1CE01B8DE082F33
:100E000010E060E1CE01B3DE482F6DE8CE0169DE6F
:100E1000EA81FB81309789F0C801DF91CF911F9162
:100E20000F91099413FF09C0EC81FD81309729F0DF
:100E3000DF91CF911F910F910994DF91CF911F9175
:100E40000F91089585E898E3C7CFCF93DF93EC0126
:100E500040E060EC46DE45E861E8CE0142DE81E03C
:100E600090E0DF91CF91089581E08093773885E815
:100E700098E3EBDFE0914F38F0915038309709F06C
:100E800009940895AF92BF92DF92EF92FF920F9371
:100E90001F93CF93DF93EC015B01D42EE881F9819E
:100EA000008CF18DE02D099581110FC0E881F98149
:100EB0000084F185E02DCE01099540E06DE8CE017A
:100EC00010DE40E062EACE010CDE8501ED2CF12C53
:100ED000C8018A199B098E159F0538F4F8014191C4
:100EE0008F0160E8CE01FDDDF3CF4D2D62EACE012A
:100EF000F8DD8C819D81892B21F040E460ECCE01EE
:100F0000F0DD43E861E8CE01ECDDC701DF91CF9170
:100F10001F910F91FF90EF90DF90BF90AF900895D9
:100F2000FC018AE5848BDF019F012C5E3F4F9D9180
:100F30008489890F848BA217B307C9F71092773879
:100F400045E1BF0185E898E39DDF809197388823CC
:100F500051F080917738811106C062E070E080E046
:100F600090E00EDAF2CF0895DC01EEE5F8E380912F
:100F70005B38808380915D38818312968C911297C3
:100F8000828315969C911597990F990F990F179633
:100F90008C91890F8383CF01C3CFCF93DF93CDB7DC
:100FA000DEB76597CDBFDEBF89836A838EEF8B8303
:100FB00028502C8380E1FA01DE01159601900D92F4
:100FC0008A95E1F7CE010196ABDF6596CDBFDEBF16
:100FD000DF91CF910895CF93DF93CDB7DEB76097C0
:100FE000CDBFDEBFDC0115962D913C912C30310533
:100FF00089F5FC019E01235F3F4F84E0D9011D92DA
:101000008A95E9F782818983818992898A879B877A
:10101000818D928D092E000CAA0BBB0B8A839B83BA
:10102000AC83BD83838D948D092E000CAA0BBB0B62
:101030008E839F83A887B98781E090E08C879D8706
:1010400023E030E0AE014F5F5F4F60915D388091EB
:101050005B38A3DF6096CDBFDEBFDF91CF910895EF
:101060000F931F93CF93DF938C01EB0162317105D6
:10107000C4F06531710514F0C4E1D0E0239747E86E
:101080006DECC8012EDD41E36BE8C8012ADD4C2F71
:101090004250406869E8C801DF91CF911F910F91DC
:1010A00020CD6230710514F4C2E0D0E044E86DEC6C
:1010B000C80117DD4BE2E8CF0F931F93CF93DF9367
:1010C000EC018B8D9C8D0097E1F0DC01ED91FC91A2
:1010D0000280F381E02D0995882399F0898DFADB50
:1010E000882379F060E0898D6EDC82E090E0A0E0FA
:1010F000B0E089879A87AB87BC871BA21CA21DA280
:101100001EA28D8D9E8D0097E1F0DC01ED91FC918A
:101110000280F381E02D0995882399F08A8DDADB2E
:10112000882379F060E08A8D4EDC84E090E0A0E0D6
:10113000B0E089879A87AB87BC871BA21CA21DA23F
:101140001EA2898DC7DB8823C9F044D90BA11CA13D
:101150002DA13EA1061717072807390778F460E08C
:10116000898D31DC82E090E0A0E0B0E089879A8749
:10117000AB87BC871BA21CA21DA21EA28A8DAADB64
:101180008823C9F027D90BA11CA12DA13EA10617C8
:1011900017072807390778F460E08A8D14DC84E0AB
:1011A00090E0A0E0B0E089879A87AB87BC871BA25C
:1011B0001CA21DA21EA2DF91CF911F910F91089535
:1011C000CF92DF92EF92FF92CF93DF93EC016A010F
:1011D0007B0183E0C816D104E104F10409F063C087
:1011E00089859A85AB85BC850297A105B10509F46F
:1011F00053C08B8D9C8D009761F1DC01ED91FC91CA
:101200000280F381E02D099581111FC060E08A8D75
:10121000DADB61E0898DD7DBC986DA86EB86FC866E
:10122000D9D8EF8DF8A148EE53E0E49F9001E59FF7
:10123000300DF49F300D1124620F731F811D911D1D
:1012400061606BA37CA38DA39EA38B8D9C8D892B4A
:1012500019F560E08A8DB7DB61E0898DB4DB83E04E
:1012600090E0A0E0B0E089879A87AB87BC87B2D8CE
:10127000EF8DF8A148EE53E0E49F9001E59F300D1B
:10128000F49F300D1124620F731F811D911D616049
:101290006BA37CA38DA39EA3DF91CF91FF90EF90D2
:1012A000DF90CF900895B5E0CB16D104E104F104AE
:1012B00009F04BC089859A85AB85BC850497A1054B
:1012C000B10551F38D8D9E8D009769F1DC01ED9193
:1012D000FC910280F381E02D099581111FC060E02F
:1012E000898D71DB61E08A8D6EDBC986DA86EB86DB
:1012F000FC8670D8E9A1FAA148EE53E0E49F900182
:10130000E59F300DF49F300D1124620F731F811D76
:10131000911D61606BA37CA38DA39EA38D8D9E8D7B
:10132000892B09F0B9CF60E0898D4DDB61E08A8DB2
:101330004ADB85E090E0A0E0B0E089879A87AB8740
:10134000BC8748D8E9A1FAA195CFCD28CE28CF28CF
:1013500009F0A2CF60E0898D36DB60E08A8D33DB57
:1013600019861A861B861C861BA21CA21DA21EA201
:1013700093CF8231F0F490E0FC01E058FF442081EB
:101380002F3FB9F0FC01EE56FF44E08130E2E39FCD
:10139000F0011124FC5F60FF0DC021838E52904547
:1013A000DC018C91E80FF11D808961FF05C0886028
:1013B000808B08952283F2CF877FFACFCF93DF937C
:1013C000EC0160E08E81D5DF8E81823188F590E07E
:1013D000FC01EE52F045E081EF3F51F18E569F4403
:1013E000DC018C9190E0DC01AA0FBB1FA050B84C2F
:1013F0002D913C9121153105D9F04E2F50E0440F2D
:10140000551F240F351F42E257E0D9014D935C93DD
:101410002FB7F894E05F75E0880F991F7A95E1F790
:10142000E80FF0E0FC5F8081887F826080832FBFBF
:10143000DF91CF910895FC0164837583672B09F0D8
:10144000BDCF8681823110F40C94F6010895FC0121
:1014500062837383672B09F0B1CF8681823110F4E8
:101460000C94F6010895CF93DF93EC01EB85FC8596
:10147000809120088E7F80932008178260E080E1B1
:1014800078DF60E08FE075DF60E08EE072DF60E0C3
:1014900089856FDF8D858F3F21F060E0DF91CF91EF
:1014A00068CFDF91CF9108958F929F92AF92BF92B4
:1014B000CF92DF92EF92FF920F931F93CF93DF9320
:1014C000EC016A017B0161E0898553DF61E0898578
:1014D0007ADA8D858F3FA1F061E04BDF60E08D858A
:1014E00072DA6AE070E080E090E00E94C00161E0A2
:1014F0008D8569DA6AE070E080E090E00E94C001CA
:10150000EB85FC858781811106C01086128680E8F4
:10151000818781E08783809101028B7F9681892B6F
:10152000809301028681811191C061E08EE021DF0C
:1015300061E080E11EDF80912108846080932108B2
:101540008091200881628093200890918338809157
:101550008438909320088093210862E4CE0107DB51
:10156000823109F07CC0E881F9810680F781E02DA5
:10157000CE010995CE86DF86E88AF98A46015701B1
:10158000BB0C8808982C54019601A701682D782D72
:10159000882D982D03E10E947715A12CE8E4BE2E3A
:1015A000F8EECF2EDD24D394E12CF12C00E010E0F6
:1015B0000E941B15F22E832E942EA52EB62EC72E1A
:1015C000D82EE92E00E10E949215422F66E8CE0146
:1015D00088DA2F2D382D492D5A2D6B2D7C2D8D2DF0
:1015E0009E2D08E00E949215422F67E8CE0179DA1D
:1015F0004F2D68E8CE0175DA40E06EE8CE0171DA71
:1016000040E06FE8CE016DDA6CE0CE01B0DA482F31
:1016100043606CE8CE0165DA44E066EACE0161DA47
:10162000E881F9810084F185E02DCE01099581E002
:1016300090E0DF91CF911F910F91FF90EF90DF909D
:10164000CF90BF90AF909F908F900895843009F015
:1016500072CF61E08CE08DDE61E08AE06BCF90E0DC
:1016600080E0E7CF0F931F93CF93DF93EC018B01C3
:1016700067EC70EBC8010E949117892B59F4E8813F
:10168000F9810084F185E02D43E050E060E070E0F6
:10169000CE0109956CEC70EBC8010E949117892B63
:1016A00059F4E881F9810084F185E02D45E050E0AE
:1016B00060E070E0CE01099562ED70EBC8010E9418
:1016C0009117892B71F4E881F9810084F185E02D6F
:1016D00040E050E0BA01CE01DF91CF911F910F9110
:1016E0000994DF91CF911F910F910895EF92FF928E
:1016F0000F931F93CF937C01C09175380C2F10E08E
:10170000B8016F5F7F4F660F771F8091733890919C
:1017100074380E94D216809373389093743800976F
:10172000D9F0000F111FFC01E00FF11FE082F182E0
:10173000CF5FC09375382C2F30E021503048220FF6
:10174000331F820F931FFC0180819181CF911F91E4
:101750000F91FF90EF90089590E080E0F7CF8F9386
:1017600081E080938D0A8FB78F93EF93FF93E5E429
:10177000F8E39F9368948FEF0FC0E894848195817C
:101780008C5E9F4F84839583885E934010F08FEF2B
:1017900003C0848395838EEF9081981B91939081F1
:1017A0009F4F919390819F4F919390819F4F9193E1
:1017B00026F39F91FF91EF918F918FBF8F91189595
:1017C0000F9304E006C00F9302E003C00F9300E004
:1017D00000C00F920FB60F921F921124FF921F9319
:1017E0002F933F934F935F936F937F938F939F9329
:1017F000AF93BF93CF93DF93EF93FF93A0E0B8E352
:10180000A00FB11DCD91DC91000F0D5FA02FB0E0B6
:10181000FC90109761F01F2D169518F041F022965C
:10182000FBCFE991F9913097B9F30995F5CFA02F46
:10183000B0E0FC92FF91EF91DF91CF91BF91AF911A
:101840009F918F917F916F915F914F913F912F91D8
:101850001F91FF901F900F900FBE0F900F91189542
:101860001F920F920FB60F9211248F9381E08093F5
:101870007638809353018F910F900FBE0F901F9079
:101880001895E3E8F8E384E0818391E39083A8E787
:10189000B8E320E238E02D933C93119717961C9201
:1018A0001797E5E8F8E326E630EB2083318397834A
:1018B00080871186128693E0958792E09683A387AE
:1018C000B48716861786108A118AE7EAF8E322E3BE
:1018D00030E02483358317822EE938E3208731876F
:1018E00016861786108A118A21E02587228713869B
:1018F000948729E030E02283338323E030E02083A3
:1019000031839CE0968324E434E0228B338B848BF8
:1019100040E853E46DE678E388E998E30E94C0026A
:10192000109297380895CF93DF93CDB7DEB7E09745
:10193000CDBFDEBF88ED93E084BF90936100E0E00F
:10194000F6E081E582838AE0858380E2838381E01B
:101950008083109202028093030A9EEF9093260ADE
:101960009093270A99E09093000AE0E8FAE02DEFBF
:1019700031E026A737A7118290E89283848781E11E
:101980008083789461E08CE0F4DC6091AE386B3059
:1019900029F12091AF383091B0386150C9F070E032
:1019A0008FEF9AE0D5D7F9014091A9385091AA3824
:1019B000CF01821B930B8417950768F4DF014D91CB
:1019C000469FC001479F900D11249083FD01ECCFED
:1019D00070E060E0E8CF8BE08093AE388091001437
:1019E00080935D3860E083E0C4DC07E011E0809123
:1019F000000681112EC06FEF70E080E090E00E9441
:101A000091000E9417010E94EA016131774281052D
:101A1000910508F001C36CE271E080E090E00E9463
:101A2000C00160E070E0CB010E9491000E941701AC
:101A30000E94EA01613177428105910508F4F1C203
:101A400064E670E080E090E00E94C00110935C3892
:101A5000CECF009306061093080680910B0680FFF8
:101A6000FCCF8091100690911106843691051CF2EE
:101A70000E94EA01613177428105910518F08FEFEC
:101A800080935D3860E07FEF80E090E00E949100FD
:101A90000E94170180915D388F3F09F583E38093A1
:101AA0005D3810925B386DE578E380E00E94520368
:101AB0006BE578E381E00E94520388E0E8EBFFEAFF
:101AC000DE01119601900D928A95E1F7BE016F5FDC
:101AD0007F4F82E00E946D0381E080935C388091AB
:101AE000011480935B388EE190E00E94AD158C016B
:101AF00081E0F80182832FEF3FEF238334832DE0D1
:101B000030E025833683EE24E394F12CE782F086DF
:101B1000138A148AE18AF28A23EA30E0258B368B15
:101B2000178A108E41EC5DEB60EF7FEF41875287A3
:101B3000638774874FE352E46FE070E04587568710
:101B40006787708B28EE3FEA20833183818FE28E96
:101B5000F38E148E158E62E00CDCD8015A962D910E
:101B60003C915B972230310508F068C215961D92B2
:101B70001C92169717961D921C92189759968C9145
:101B80002130310509F052C20E946A0451E040E060
:101B900030E020E0811150E0852F942FA32FB22F49
:101BA000F80181879287A387B487C8019FDD80935E
:101BB000593890935A388EE190E0CFD78C0182E06B
:101BC000D80112968C9312978FEF9FEF13968D93F7
:101BD0009C9314978DE090E015968D939C931697A7
:101BE000EE24E394F12C1796ED92FC9218975396FD
:101BF0001D921C9254975196ED92FC9252978CE94B
:101C000090E055968D939C93569757961D921C92F3
:101C1000589781EC9DEBA0EFBFEFF8018187928789
:101C2000A387B4878FE392E4AFE0B0E0858796871F
:101C3000A787B08B88EE9FEA8083918385E0818FB0
:101C4000E28EF38E148E158E62E093DBD8015A96E5
:101C50002D913C915B972230310508F00DC215960D
:101C60001D921C92169717961D921C9218975996C2
:101C70008C912130310509F0F7C10E946A0451E0CE
:101C800040E030E020E0811150E0852F942FA32F19
:101C9000B22FF80181879287A387B487C80126DD18
:101CA00080935738909358388DE190E056D7FC01D7
:101CB00080E090EB8083918387E0828322E030E0B4
:101CC000238334838DE090E08583968381E090E0E8
:101CD00087839087138A148A818B928B82E990E0A4
:101CE000858B968B80E990E0878B908F8091021492
:101CF00090E0B0E0A0E0B095A095909581959F4FC1
:101D0000AF4FBF4F85879687A787B08B88E190EB51
:101D100080839183809102148983809103148A8344
:101D2000809104148B83809105148C838091061418
:101D30008D83809107148E83809108148F83809106
:101D4000091488878D819E81092E000CAA0BBB0B7C
:101D500081879287A387B48789819A81818F928FA7
:101D60008B819C81838F948F8F819885818B928BBF
:101D70004CE050E045835683019711F0278330876C
:101D8000CF01B4DC809355389093563887E290E0C9
:101D9000E4D68C0185E0D80112968C9312978FEFD0
:101DA0009FEF13968D939C9314978DE090E015967A
:101DB0008D939C93169781E090E017968D939C935A
:101DC000189753961D921C92549751968D939C93FD
:101DD00052978BE890E055968D939C935697579623
:101DE0001D921C92589781EC9DEBA0EFBFEFF8017C
:101DF00081879287A387B4878FE392E4AFE0B0E056
:101E000085879687A787B08B80E390EB808391834B
:101E10008BE0818F8AE0828F61E08BE0AADA61E05B
:101E2000D8015A968C91A5DAF801138E148E158E6E
:101E3000168E8AE090E081A392A3878F90A313A2CD
:101E400014A215A216A2118612861386148684E0A7
:101E500090E08583968383E090E087839087C80134
:101E600045DC8C01809353389093543880915538D9
:101E700090915638DC01ED91FC910190F081E02DBC
:101E80000995F80161A372A3678F70A3E09153389D
:101E9000F0915438809157389091583820915938A2
:101EA00030915A38238F348F858F968F88EE93E048
:101EB000809351389093523810924F381092503886
:101EC00040E45EE06FEC79E185E898E3EDDA892B98
:101ED00009F4E8C087EB96E08093873890938838C0
:101EE00085E898E36BDA84E397E0809389389093F0
:101EF0008A3885E898E362DA6EE070E085E898E376
:101F0000AFD843EC61EB85E898E30E9471054AE0A5
:101F100067EB85E898E30E9471056EE185E898E338
:101F20000E94B7058F70482F40696EE985E898E3F5
:101F30000E9471050E94B9056DE185E898E30E9451
:101F4000B7058F70482F40676DE985E898E30E94D8
:101F500071050E94B9056DE185E898E30E94B70517
:101F6000817F482F42606DE985E898E30E94710502
:101F700085E898E30E94250781E080939738809157
:101F80005C388111B6C08091A1008D7F8093A10043
:101F9000809102068F7C806580930206F894809180
:101FA00041018111FCCF81E08093400110924701F3
:101FB0008093520181E780935001789460E070E053
:101FC000CB010E9491000E9417015DE6C52EDD2421
:101FD000D39462E6E62E68E3F62E70E1B72E809188
:101FE0007638882309F4F2C11092763840919938F6
:101FF00030919838632F70E020919A38822F90E0CA
:10200000EAEAF0E021E0241708F080C15491850F3E
:10201000911D2F5F3196F7CF64E670E080E090E08D
:10202000FECC6CE271E080E090E00ECD0E946A048C
:10203000082E000C990BAA0BBB0BB2CD88E090E0E8
:1020400015968D939C9316971796ED92FC92189780
:1020500019968D919D910D90BC91A02DF8018587C9
:102060009687A787B08BA1CD0E946A04082E000C2A
:10207000990BAA0BBB0B0DCE88E090E015968D93C3
:102080009C9316971796ED92FC92189719968D913E
:102090009D910D90BC91A02DF80185879687A7870B
:1020A000B08BFCCD60E070E08FEF90E00E9491007B
:1020B0000E94170113E064E670E080E090E00E9467
:1020C000C00160E070E0CB010E9491000E94170106
:1020D00064E670E080E090E00E94C00160E070E0A3
:1020E0008FEF90E00E9491000E941701115019F7A4
:1020F0004ACF8FEF80935B388E010D5D1F4FBEE09E
:10210000FB2ED801EF2D1D92EA95E9F78EEF89A3FA
:102110008DE08AA383E08BA348E050E062E870E0A2
:10212000CE018496EFD130E020E0AE014F5D5F4FED
:1021300060915D3880915B380E94CD07D8011D9277
:10214000FA94E9F745E050E06CE770E0C801DAD1B5
:1021500022E030E0AE014F5D5F4F60915D388091CD
:102160005B380E94CD071BA227E030E0AE014F5D37
:102170005F4F60915D3880915B380E94CD07D12C14
:102180005E01B3E1AB0EB11C1EE0C12E809175382B
:10219000D81608F092C08D2D90E0880F991FE0911D
:1021A0007338F0917438E80FF91F00811181F8013C
:1021B0008281882309F47FC0D501EC2D1D92EA9518
:1021C000E9F7898BD80115968C9115978A8B17960C
:1021D0008C9117978B8B5596ED90FC90C70189D108
:1021E000AC0155274E30510510F04DE050E0B701DD
:1021F000CE01449687D130E020E0AE014F5E5F4FC4
:1022000060915D3880915B380E94CD07F801678846
:10221000708C6114710459F1C3016BD14C01892B8D
:1022200031F1D80112968C9189837401FF24A701A2
:10223000BFE0EB16F10410F04EE050E0B301CE0128
:10224000039660D1EDE0E81538F0E3E0F0E0EC0F44
:10225000FD1FEE0DFF1D108221E030E0AE014F5F4B
:102260005F4F60915D3880915B380E94CD07D80147
:10227000ED91FC910288F389E02DC8010995F501E3
:102280006C2C11926A94E9F7D80112968C911297EE
:10229000898B15968C9115978A8B17968C918B8BC1
:1022A00027E030E0AE014F5E5F4F60915D38809176
:1022B0005B380E94CD07D39469CFE3E0CE2ED12CBA
:1022C000E12CF12C812C912C54018A9493948091CF
:1022D0005C38882309F457CE0E94EA01A7019601D1
:1022E0004BD3CA01B901A501940146D36F5F7109AF
:1022F00077FF03C0719561957109072E000C880B5B
:10230000990B0E9491000E941701E1CF433018F011
:10231000337009F401969B012D5F3F4F3695279549
:10232000369527956C9DA0016D9D500D7C9D500D9F
:10233000112441505109240F351F280F391FA8E1DE
:10234000B0E05ED320919B383B014C01620E711CC2
:10235000811C911CA4019301ACE3B0E060D32091F7
:102360009C383B014C01620E711C811C911CA40124
:10237000930155D32B013C0190919D38892F90E01A
:10238000B0E0A0E08F579C4BA249B74C480E591EB5
:102390006A1E7B1EB301A201CE0101960E94C002FB
:1023A00086E0FE013196A8E9B8E301900D928A9586
:1023B000E1F760E07FEF80E090E040FC03C060E088
:1023C00070E0CB010E9491000E94170110E0809103
:1023D00075381817A8F4812F90E0880F991FE091A5
:1023E0007338F0917438E80FF91F80819181DC0116
:1023F000ED91FC910088F189E02D09951F5FE7CFF1
:10240000A12C80917538A81608F0E9CD8A2D90E0AE
:10241000880F991FE0917338F0917438E80FF91F15
:1024200000811181F8014185528563857485858518
:102430009685841B950B97FF03C091958195910913
:10244000D80153962D913C915497281739070CF0D9
:1024500032C012968C911297882369F1F801458752
:1024600056876787708B0580F681E02DED30F1058A
:1024700010F5E45CFD4EBEC24912491249125B12CE
:102480005D125B125B125D1249125B125B125D12F0
:102490004912409362385093633860936438709364
:1024A000653851968D919C918093663890936738EA
:1024B000C8010E94B407A394A4CFED91FC910680BB
:1024C000F781E02DC8010995FC0101900020E9F792
:1024D0003197D7016B2C1D926A94E9F7E81BE13123
:1024E00008F0E0E14E2F50E0BC0182E698E322D5EF
:1024F000DFCFFC0105900020E9F7809590958E0FC5
:102500009F1F0895FB01DC014150504048F00590A9
:102510000D920020C9F701C01D9241505040E0F7D4
:1025200008955058BB27AA270ED075C166D130F048
:102530006BD120F031F49F3F11F41EF45BC10EF417
:10254000E095E7FB51C1E92F77D180F3BA17620715
:1025500073078407950718F071F49EF58FC10EF488
:10256000E0950B2EBA2FA02D0B01B90190010C01A3
:10257000CA01A0011124FF27591B99F0593F50F4BB
:10258000503E68F11A16F040A22F232F342F442713
:10259000585FF3CF469537952795A795F04053950B
:1025A000C9F77EF41F16BA0B620B730B840BBAF0DB
:1025B0009150A1F0FF0FBB1F661F771F881FC2F746
:1025C0000EC0BA0F621F731F841F48F4879577955A
:1025D0006795B795F7959E3F08F0B3CF9395880F11
:1025E00008F09927EE0F979587950895D9D008F4AC
:1025F00081E008950CD00FC107D140F0FED030F03B
:1026000021F45F3F19F0F0C0511139C1F3C014D16A
:1026100098F39923C9F35523B1F3951B550BBB27A9
:10262000AA2762177307840738F09F5F5F4F220F56
:10263000331F441FAA1FA9F333D00E2E3AF0E0E84F
:1026400030D091505040E695001CCAF729D0FE2F9B
:1026500027D0660F771F881FBB1F2617370748072D
:10266000AB07B0E809F0BB0B802DBF01FF279358E3
:102670005F4F2AF09E3F510568F0B6C000C15F3F32
:10268000ECF3983EDCF3869577956795B795F795CB
:102690009F5FC9F7880F911D9695879597F90895C3
:1026A000E1E0660F771F881FBB1F6217730784075F
:1026B000BA0720F0621B730B840BBA0BEE1F88F76E
:1026C000E095089504D06894B111D9C00895BCD0A4
:1026D00088F09F5790F0B92F9927B751A0F0D1F00B
:1026E000660F771F881F991F1AF0BA95C9F712C095
:1026F000B13081F0C3D0B1E00895C0C0672F782F0A
:102700008827B85F39F0B93FCCF386957795679500
:10271000B395D9F73EF490958095709561957F4F6C
:102720008F4F9F4F0895E89409C097FB3EF4909512
:102730008095709561957F4F8F4F9F4F9923A9F09A
:10274000F92F96E9BB279395F69587957795679529
:10275000B795F111F8CFFAF4BB0F11F460FF1BC06D
:102760006F5F7F4F8F4F9F4F16C0882311F096E900
:1027700011C0772321F09EE8872F762F05C06623AE
:1027800071F096E8862F70E060E02AF09A95660F67
:10279000771F881FDAF7880F9695879597F9089520
:1027A000990F0008550FAA0BE0E8FEEF1616170662
:1027B000E807F907C0F012161306E407F50798F0CA
:1027C000621B730B840B950B39F40A2661F0232BE3
:1027D000242B252B21F408950A2609F4A140A6955F
:1027E0008FEF811D811D089597F99F6780E870E044
:1027F00060E008959FEF80EC089500240A94161677
:10280000170618060906089500240A9412161306DE
:10281000140605060895092E0394000C11F488236C
:1028200052F0BB0F40F4BF2B11F460FF04C06F5F88
:102830007F4F8F4F9F4F089557FD9058440F551F5E
:1028400059F05F3F71F04795880F97FB991F61F032
:102850009F3F79F087950895121613061406551FA9
:10286000F2CF4695F1DF08C0161617061806991F15
:10287000F1CF86957105610508940895E894BB270A
:1028800066277727CB0197F908950BD0C4CFB5DF22
:1028900028F0BADF18F0952309F0A6CFABCF1124AA
:1028A000EECFCADFA0F3959FD1F3950F50E0551FEF
:1028B000629FF001729FBB27F00DB11D639FAA2795
:1028C000F00DB11DAA1F649F6627B00DA11D661FE4
:1028D000829F2227B00DA11D621F739FB00DA11D05
:1028E000621F839FA00D611D221F749F3327A00DBF
:1028F000611D231F849F600D211D822F762F6A2F5B
:1029000011249F5750408AF0E1F088234AF0EE0FDF
:10291000FF1FBB1F661F771F881F91505040A9F7EC
:102920009E3F510570F060CFAACF5F3FECF3983E19
:10293000DCF3869577956795B795F795E7959F5F53
:10294000C1F7FE2B880F911D9695879597F90895ED
:10295000AA1BBB1B51E107C0AA1FBB1FA617B707C5
:1029600010F0A61BB70B881F991F5A95A9F78095E1
:102970009095BC01CD010895A1E21A2EAA1BBB1BA4
:10298000FD010DC0AA1FBB1FEE1FFF1FA217B3073B
:10299000E407F50720F0A21BB30BE40BF50B661F51
:1029A000771F881F991F1A9469F760957095809515
:1029B00090959B01AC01BD01CF010895052E97FBB9
:1029C00016F400940FD057FD05D0D6DF07FC02D0D7
:1029D00046F408C050954095309521953F4F4F4F94
:1029E0005F4F089590958095709561957F4F8F4FBB
:1029F0009F4F0895EE0FFF1F0590F491E02D09946D
:102A0000A29FB001B39FC001A39F700D811D11242F
:102A1000911DB29F700D811D1124911D0895F0DF4D
:102A2000A59F900DB49F900DA49F800D911D112422
:102A30000895689401C0E8948F929F92CF93DF939A
:102A400005D0DF91CF919F908F900895882499248D
:102A5000F401E401B0E49F93AA279A158B049C0427
:102A6000ED05FE05CF05D007A10798F4AD2FDC2FAB
:102A7000CF2FFE2FE92D982C892E982F872F762F78
:102A8000652F542F432F322F2227B85031F7BF9193
:102A900027C01B2EBF91BB27220F331F441F551F7A
:102AA000661F771F881F991F881C991CEE1FFF1F28
:102AB000CC1FDD1FAA1FBB1F8A149B04EC05FD055C
:102AC000CE05DF05A007B10748F08A189B08EC097E
:102AD000FD09CE09DF09A00BB10B21601A94E1F6C4
:102AE0002EF49401AF01BE01CD01000C0895002E1B
:102AF000083090F0982F872F762F652F542F432F73
:102B0000322F22270850F4CF220F331F441F551FA6
:102B1000661F771F881F991F0A95B2F7002D089529
:102B200097FD1094002E083098F00850232F342F72
:102B3000452F562F672F782F892F912DF4CF15947D
:102B400097958795779567955795479537952795E5
:102B50000A95AAF71124002D08950F931F93CF9380
:102B6000DF938230910510F482E090E0E091BE386E
:102B7000F091BF3830E020E0B0E0A0E0309799F469
:102B80002115310509F44AC0281B390B24303105C1
:102B9000D8F58A819B816115710589F1FB018283DA
:102BA0009383FE0111C04081518102811381481736
:102BB0005907E0F04817590799F4109761F01296F9
:102BC0000C93129713961C933296CF01DF91CF91FD
:102BD0001F910F9108950093BE381093BF38F4CF22
:102BE0002115310551F04217530738F0A901DB01D7
:102BF0009A01BD01DF01F801C1CFEF01F9CF809348
:102C0000BE389093BF38CDCFFE01E20FF31F819302
:102C100091932250310928833983D7CF2091BC3832
:102C20003091BD38232B41F4209108383091093878
:102C30002093BC383093BD38209106383091073846
:102C40002115310541F42DB73EB740910A38509116
:102C50000B38241B350BE091BC38F091BD38E217DE
:102C6000F307A0F42E1B3F0B2817390778F0AC01AF
:102C70004E5F5F4F2417350748F04E0F5F1F40939C
:102C8000BC385093BD38819391939FCFF0E0E0E042
:102C90009CCFCF93DF930097E9F0FC01329712822B
:102CA0001382A091BE38B091BF38ED0130E020E032
:102CB0001097A1F420813181820F931F2091BC389D
:102CC0003091BD382817390709F061C0E093BC384E
:102CD000F093BD38DF91CF910895EA01CE17DF0759
:102CE000E8F54A815B819E0141155105B1F7E90183
:102CF000EA83FB8349915991C40FD51FEC17FD0757
:102D000061F4808191810296840F951FE901888387
:102D10009983828193818A839B83F0E0E0E012961D
:102D20008D919C9113970097B9F52D913C91119736
:102D3000CD010296820F931F2091BC383091BD388F
:102D40002817390739F6309751F51092BE3810928E
:102D5000BF38A093BC38B093BD38BCCFC283D383F7
:102D600040815181840F951FC817D90761F44E5FC8
:102D70005F4F88819981480F591F408351838A8111
:102D80009B81828393832115310509F0B0CFE093B5
:102D9000BE38F093BF389ECFFD01DC01C0CF128258
:102DA0001382D7CFB0E0A0E0E7EDF6E1D4C08C010C
:102DB000009741F4CB01D1DE8C01C801CDB7DEB75D
:102DC000E0E1E2C0FC01E60FF71F9C01225031094F
:102DD000E217F30708F499C0D901CD91DC9111975E
:102DE000C617D70790F0C530D10538F3CE01049748
:102DF0008617970710F3C61BD70B2297C193D19361
:102E00006D937C93CF0145DFD8CF5B01AC1ABD0A2F
:102E10004C018C0E9D1EA091BE38B091BF38512C34
:102E2000412CF12CE12C109731F58091BC38909118
:102E3000BD388815990509F05CC04616570608F09C
:102E400058C08091063890910738009741F48DB7AB
:102E50009EB740910A3850910B38841B950BE817A8
:102E6000F90708F052C0E093BC38F093BD38F9017F
:102E700060837183A2CF8D919C91119712966C9073
:102E8000129713967C901397A815B90559F56C0104
:102E900042E0C40ED11CCA14DB0420F1AC014A1973
:102EA0005B09DA011296159780F062827382408383
:102EB0005183D9016D937C93E114F10471F0D70132
:102EC0001296ED93FC93139778CF22968C0F9D1F4B
:102ED000F90180839183F301EFCFE093BE38F09343
:102EE000BF386BCF4816590608F42C017D01D30179
:102EF0009ACFCB0132DE7C01009739F0AE01B801E8
:102F000007D0C801C6DE870158CF10E000E055CFDA
:102F1000FB01DC0102C001900D9241505040D8F7F6
:102F20000895FB01DC018D91019080190110D9F306
:102F3000990B0895FB01DC014150504048F001908D
:102F40000D920020C9F701C01D9241505040E0F79A
:102F500008952F923F924F925F926F927F928F923D
:102F60009F92AF92BF92CF92DF92EF92FF920F9318
:102F70001F93CF93DF93CDB7DEB7CA1BDB0BCDBF5B
:102F8000DEBF09942A88398848885F846E847D84EE
:102F90008C849B84AA84B984C884DF80EE80FD8001
:102FA0000C811B81AA81B981CE0FD11DCDBFDEBF9F
:082FB000ED010895F894FFCF34
:102FB80001003C000A000100101080000000001011
:102FC800101040400000000010000405060705042A
:102FD80003020100000102030102030000000000D7
:102FE800BA02AD0289028602800275024F024E02C1
:102FF80085044D0200000000BA02AD028902860273
:10300800800275024F024E024D024D020000000080
:10301800BA02AD0289028602800275029C034E0242
:103028004D02EB0700000000BA02AD0289022B0234
:10303800E00875024F02320B5C084D02781E00A0B2
:103048002800F03C00405100127A00E4A20024F469
:103058000048E80190D00320A10700000000540AAE
:10306800330A2B06B105B40530088E06420725073A
:10307800EC06270A1B0A14061020408020100804BA
:103088000201010204080204080100000000010115
:103098000101010102020202000000003F007374F6
:1030A8006F70006F70656E006F70656E696E670097
:1030B800636C6F73656400636C6F73696E67004F50
:0F30C80050454E00434C4F53450053544F50005A
:0C30D700203814380C380000C03880008D
:00000001FF
