:100000005BC000008DC000008BC000000C94100C81
:100010000C940D0C0C940A0C83C000000C945A0C28
:100020007FC000007DC000007BC0000079C00000E0
:1000300077C0000075C0000073C000000C94D90B9D
:100040006FC000006DC000006BC0000069C0000000
:1000500067C0000065C0000063C0000061C0000010
:100060005FC000005DC000005BC0000059C0000020
:1000700057C0000055C0000053C000004D4C45342F
:10008000320048656E486F75736500446F6F72008B
:1000900073004D6F76652074696D6500436C6F73F6
:1000A0006564004F70656E6564001F1C1F1E1F1E77
:1000B0001F1F1E1F1E006B0C11241FBECFEFCDBFD4
:1000C000DFE3DEBF8091400080934000811105C0D6
:1000D00098ED21E094BF209341008CBB28E3ACE075
:1000E000B8E301C01D92A03CB207E1F718E3A0E01D
:1000F000B8E3EFEEF1E302C005900D92AC30B1072A
:10010000D9F710E0CCE5D0E004C02197FE010E94B1
:10011000C715CB35D107C9F70E94C40C0C946418DD
:100120006FCF8F929F92AF92BF92CF92DF92EF925A
:10013000FF9220918C3830918D38232B09F440C0E8
:100140004C01AA24BB24C72ED82EE92EFF24BC2D97
:10015000A62F20919338482D222391F0A22FB0E0B2
:10016000A89DF001A99DF00DB89DF00D11244F2F11
:100170002C9D60011124BD2D269FC0011124A92FA3
:10018000E0919938809194389091953820919638E3
:10019000E21721F0E80FF92FF11D1082E091963857
:1001A000E80FF92FF11D4083E0919738E80FF92F00
:1001B000F11DB08320919838820F911DFC01A0831E
:1001C000FF90EF90DF90CF90BF90AF909F908F9077
:1001D00008959FB7F89488E08093840A80918E0AEE
:1001E00081FFFCCF80918D0AE091A20AF091A30AD1
:1001F00020914538309146384091473850914838E1
:100200009FBF80FF07C0E730F10520F42F5F3F4F0D
:100210004F4F5F4FAEEFB1E00E942D146E0F7F1F66
:10022000811D911D660F771F881F991F08950F93D9
:100230001F93CF93DF93CDB7DEB72797CDBFDEBF38
:1002400080918E3890918F3889839A8380919438E9
:1002500090919538892B09F48BC080919238823126
:100260000CF086C0B6DF00919A3810919B3820912F
:100270009C3830919D38AB01BC01401B510B620B87
:10028000730B8091903890919138B0E0A0E04817BE
:1002900059076A077B0730F3F894A0919438B0911E
:1002A0009538FD0131968C918F831B82A0919E38E9
:1002B000B0919F389C918091A038982B9E839C91FF
:1002C000809589238D838D818C838F8187FF02C0E8
:1002D0008E818C835E816D814F813C812B818981F0
:1002E0009A815C933C93262F46FD252F6C9300004A
:1002F0005C932C93362F45FD352F6C9300005C9357
:100300003C93262F44FD252F6C9300005C932C9387
:10031000362F43FD352F6C9300005C933C93262FC2
:1003200042FD252F6C9381505C932C93362F41FD19
:10033000352F6C9391095C933C93262F40FD252F1C
:100340006C9341915C932C93362F47FD352F6C9322
:1003500041F64F833C832B8389839A83789439DFDA
:1003600060939A3870939B3880939C3890939D3813
:100370002796CDBFDEBFDF91CF911F910F910895DA
:10038000CF92DF92EF92FF92CF93DF936B017C01CC
:1003900020DFEB011EDF6C1B7D0B683E7340A0F07D
:1003A000C114D104E104F10439F4DF91CF91FF903D
:1003B000EF90DF90CF90089581E0C81AD108E1084E
:1003C000F108C851DC4FE6CFC114D104E104F104B7
:1003D00009F7EBCF2FB7F8946091493870914A38FC
:1003E00080914B3890914C382FBF089590E0FC01DC
:1003F000EA51FF4420812F3F69F188579E44FC0158
:100400008081E82FE295EE0FE07EE20FF0E0E05F02
:10041000FB4F9081917F908390E0FC0134E0EE0FE0
:10042000FF1F3A95E1F7422F50E061E070E001C014
:10043000660F2A95EAF76383880F991FFC01E05045
:10044000F84C440F551F0190F081E02DE40FF51F8B
:10045000108211820895FC01818592858330910577
:10046000B1F03CF4009769F0029771F08CEB91EBDE
:1004700008958430910571F00597C1F787ED91EBF0
:1004800008958EEB91EB089583EC91EB089588EC41
:1004900091EB089580ED91EB089508950895CF9222
:1004A000DF92EF92FF92CF93DF93EC016A017B0121
:1004B00069897A89072E000C880B990B0E941A1300
:1004C000A70196010E9479130E944415AB01BC015B
:1004D000E881F9810084F185E02DCE01DF91CF9193
:1004E000FF90EF90DF90CF900994462F50E070E09E
:1004F00060E0DC01ED91FC910084F185E02D099430
:10050000FC0141875287638774870895CF92DF92F9
:10051000EF92FF92CF93DF93EC0169857A858B850B
:100520009C850E941A136B017C0169897A89072EC8
:10053000000C880B990B0E941A139B01AC01C70198
:10054000B6010E94DC14DF91CF91FF90EF90DF9015
:10055000CF90089521E0FC0181859285A385B48523
:10056000892B8A2B8B2B09F420E0822F0895FC0124
:10057000618572858385948508958F929F92AF924D
:10058000BF92CF92DF92EF92FF92CF93DF93EC0175
:100590006A017B0180E8C81A83E4D80A8DE6E80A7C
:1005A00088E3F80A8CE3882E912CA12CB12CC7018A
:1005B000B601A50194010E9489156D83CA01B90194
:1005C000A50194010E9489156C83C701B60120E141
:1005D0003EE040E050E00E948915CA01B90128E1DF
:1005E00030E040E050E00E9489156B83C701B601FE
:1005F00020E831E541E050E00E948915188263E966
:100600007EEF8881982F937041E050E011F050E028
:1006100040E0FA01E359FE4F2E173F0740F0FB017F
:10062000E41BF50B2E0F3F1F8F5F8883EACF81E01D
:10063000898389818C30A0F4482F4150550BFA01F1
:10064000E655FF4FE491911103C0823009F4EF5F4A
:10065000F0E02E173F0720F02E1B3F0B8F5FE8CFF7
:100660002F5F2A83DF91CF91FF90EF90DF90CF90A3
:10067000BF90AF909F908F900895FC01658708957B
:10068000FC0166830895FC01A081B0E0BC5EE0E05F
:10069000F0E10FB622812370E9F7F8946C936DE9CD
:1006A00064BF63E060830FBE08950F931F93CF93E1
:1006B000DF931F92CDB7DEB78B018983FB01608189
:1006C000E82FF0E0FC5E8081681719F0CE010196FA
:1006D000DADFC8010F90DF91CF911F910F9108953C
:1006E000CF92DF92EF92FF920F931F93CF93DF93FE
:1006F0001F92CDB7DEB7182FD62E072FE62EF72E76
:1007000088E0C82EC10E1983F70161917F01E12FA6
:10071000F0E0FC5E8081681719F0CE010196B3DF2E
:100720001F5F1C11F0CF8D2D902F0F90DF91CF9177
:100730001F910F91FF90EF90DF90CF900895CF928F
:10074000DF92EF92FF920F931F93CF93DF93CDB77A
:10075000DEB72897CDBFDEBF8C016A017B01DC01CB
:1007600051966D917C91072E000C880B990B0E947D
:100770001A13A70196010E9479130E944415AB0138
:10078000BC01D801ED91FC910084F185E02DC801F8
:100790000995F801838D948D89839A83858D968D33
:1007A0008B839C83818592858D839E8381899289A9
:1007B0008F839887BE016F5F7F4F838191DF28967B
:1007C000CDBFDEBFDF91CF911F910F91FF90EF90D2
:1007D000DF90CF900895CF93DF93EC016091A33821
:1007E00070E06F5F7F4F660F771F8091A138909107
:1007F000A2380E9486178093A1389093A238009760
:10080000D1F02091A338E22FF0E0EE0FFF1FE80FA8
:10081000F91FC083D1832F5F2093A33830E021508C
:100820003048220F331F820F931FFC01808191817A
:10083000DF91CF91089590E080E0FACF0F931F935E
:10084000CF93DF93CDB7DEB76597CDBFDEBFDB01BA
:100850009C9180915D38981338C08B0180915C38F1
:10086000882391F0FB0182818E3F71F48381877030
:10087000863099F58481811107C0858180935D3828
:100880006DE578E380E011DFF801918180915B38BC
:1008900098131BC08281853069F5B8016C5F7F4F6A
:1008A00040E150E0CE0101960E945518198A8091CE
:1008B000533890915438DC01ED91FC910684F78512
:1008C000E02DBE016F5F7F4F09956596CDBFDEBFFE
:1008D000DF91CF911F910F9108958730A9F611965E
:1008E0008C9180935B386BE578E381E0DEDE1092DB
:1008F0005C38CACF873049F7809155389091563887
:100900004481558166817781DC01ED91FC91008401
:10091000F185E02D0995009153381091543880915C
:10092000553890915638DC01ED91FC910190F081A1
:10093000E02D0995F80163A374A361A372A3C5CF49
:10094000282F30E08231A8F4F901EA58FE44808172
:100950008F3F79F028573E44D901EC91B0E2EB9FEC
:10096000F0011124FC5F9085982381E019F480E068
:1009700008958FEF0895CF93DF93EC01EE8DFF8DF7
:10098000309729F1099590E0B0E0A0E089879A8737
:10099000AB87BC878C8D9D8D8230910589F58985CB
:1009A0009A85AB85BC854D855E856F8578894817AE
:1009B00059076A077B0741F0892B8A2B8B2B21F47F
:1009C0001D861E861F86188ADF91CF9108958B8D14
:1009D0002C8D3D8D2130310561F4B2DF51E040E0D6
:1009E00030E020E0811150E0852F942FA32FB22F0B
:1009F000CDCFA6DF082E000C990BAA0BBB0BC6CFE0
:100A0000039711F789859A85AB85BC854D855E85F1
:100A10006F857889481759076A077B07A9F28130E3
:100A20009105A105B10581F68D879E87AF87B88BAB
:100A3000CBCFCF93DF93823108F047C090E0EC0139
:100A4000CA58DE4428812F3F09F43FC0AC01485703
:100A50005E44DA01EC91B0E2EB9FF0011124FC5FFF
:100A6000611136C0268330812323A1F49C012A51D1
:100A70003F44D9012C91309769F1283058F5709690
:100A8000E20FF11D3FB7F8942081611126C0277F46
:100A900020833FBF8C529F44FC0190819923A9F091
:100AA0008881903409F19038E1F0903171F4DA01E5
:100AB0009C919130A1F4853010F0880F829590912F
:100AC000010A809589238093010ADF91CF910895CF
:100AD0002583C9CFF0E0E0E0D5CF2860D9CF880FDB
:100AE000EECF1092A006F1CF20E4823009F420E886
:100AF0009091920A922349F36FB7F8949091800AEB
:100B00009E7F9093800A4091920A30E02095309524
:100B100050E02423352398ED94BF2093920A9091BE
:100B20008E0A90FFFCCF9091800A91609093800A8A
:100B3000813039F4809150048F77809350046FBFD7
:100B4000C4CF809151048F7780935104F8CF0F93D5
:100B50001F93CF93DF93EC018D8D9E8D0097E1F075
:100B6000DC01ED91FC910280F381E02D0995882351
:100B700099F08B8DE5DE882379F060E08B8D59DF6D
:100B800082E090E0A0E0B0E089879A87AB87BC87DD
:100B90001DA21EA21FA218A68F8D98A10097E1F09A
:100BA000DC01ED91FC910280F381E02D0995882311
:100BB00099F08C8DC5DE882379F060E08C8D39DF6B
:100BC00084E090E0A0E0B0E089879A87AB87BC879B
:100BD0001DA21EA21FA218A68B8DB2DE8823C9F00B
:100BE000F9DB0DA11EA12FA138A5061717072807AD
:100BF000390778F460E08B8D1CDF82E090E0A0E0A4
:100C0000B0E089879A87AB87BC871DA21EA21FA26E
:100C100018A68C8D95DE8823C9F0DCDB0DA11EA102
:100C20002FA138A5061717072807390778F460E0C1
:100C30008C8DFFDE84E090E0A0E0B0E089879A87A9
:100C4000AB87BC871DA21EA21FA218A6DF91CF9161
:100C50001F910F910895CF92DF92EF92FF92CF9361
:100C6000DF93EC016A017B0183E0C816D104E10443
:100C7000F10409F063C089859A85AB85BC8502972C
:100C8000A105B10509F453C08D8D9E8D009761F1CA
:100C9000DC01ED91FC910280F381E02D0995811139
:100CA0001FC060E08C8DC5DE61E08B8DC2DEC98621
:100CB000DA86EB86FC868EDBE9A1FAA148EE53E0EA
:100CC000E49F9001E59F300DF49F300D1124620FD9
:100CD000731F811D911D61606DA37EA38FA398A7D3
:100CE0008D8D9E8D892B19F560E08C8DA2DE61E0E3
:100CF0008B8D9FDE83E090E0A0E0B0E089879A874B
:100D0000AB87BC8767DBE9A1FAA148EE53E0E49F1B
:100D10009001E59F300DF49F300D1124620F731F79
:100D2000811D911D61606DA37EA38FA398A7DF91A4
:100D3000CF91FF90EF90DF90CF900895B5E0CB1664
:100D4000D104E104F10409F04BC089859A85AB8593
:100D5000BC850497A105B10551F38F8D98A100972B
:100D600069F1DC01ED91FC910280F381E02D0995A0
:100D700081111FC060E08B8D5CDE61E08C8D59DEDF
:100D8000C986DA86EB86FC8625DBEBA1FCA148EE62
:100D900053E0E49F9001E59F300DF49F300D112446
:100DA000620F731F811D911D61606DA37EA38FA3D0
:100DB00098A78F8D98A1892B09F0B9CF60E08B8D12
:100DC00038DE61E08C8D35DE85E090E0A0E0B0E0BB
:100DD00089879A87AB87BC87FDDAEBA1FCA195CF09
:100DE000CD28CE28CF2809F0A2CF60E08B8D21DE60
:100DF00060E08C8D1EDE19861A861B861C861DA25D
:100E00001EA21FA218A693CF0F931F93CF93DF9319
:100E1000EC01062F142F60E089850BDEEB85FC8545
:100E20009F8188852085222319F02FB72187F89488
:100E300021E02287909320088093210800000093EE
:100E400024088091230887FFFCCF809124080000AC
:100E5000109324088091230887FFFCCF1091240869
:100E6000EB85FC858285882331F012868085882376
:100E700011F081858FBF61E08985DBDD812FDF91F6
:100E8000CF911F910F91089540E861E8BDCF41E8EF
:100E900061E8BACF40E0B8CFCF92DF92EF92FF92F5
:100EA000CF93DF936DE18AEA98E3F4DF90E034E0DA
:100EB000959587953A95E1F78A3091050CF03FC0FA
:100EC000FC01EE0FFF1FE80FF91FE85AFE44C08037
:100ED000D180E2800E2C000CFF086EE18AEA98E3D4
:100EE000D9DFD82F66E28AEA98E3D4DFC82FD295FB
:100EF000DF7021E030E040E050E004C0220F331FFB
:100F0000441F551FDA95D2F7C701B6010E94AB15F1
:100F100068EE73E080E090E00E94AB15213131056E
:100F2000410551058CF04C2F486066EA8AEA98E347
:100F3000DF91CF91FF90EF90DF90CF9065CFCC24E1
:100F4000CA94DC2C7601C9CF4C2F477FEECFCF92CD
:100F5000DF92EF92FF920F931F93CF93DF938C0159
:100F60006AE198DFC82FD0E0F8016685778580892F
:100F700091890E941A132AEE36E54AEF5DE40E9439
:100F8000141387FD44C08DE990E0C81BD90B69E1BB
:100F9000C80180DF87FD8D5F85958595682F880F57
:100FA000770B880B990B0E941A136B017C0120E0D0
:100FB00030E0A9010E94141387FF0DC0BE01DD0FB0
:100FC000880B990B0E941A13A70196010E947814AE
:100FD0000E944415EB019E01DD0F440B550B205878
:100FE0003F4F4F4F5F4FA4E6B0E00E942D1426E71D
:100FF00030E040E050E00E94AB15C901DF91CF9195
:101000001F910F91FF90EF90DF90CF90089584EAA9
:1010100090E0BBCFCF92DF92EF92FF920F931F939E
:10102000CF93DF937C01C62EC72FD42E63E132DF2E
:10103000D82F0C2D1C2FC0E0CD1751F0CD1541F04D
:1010400060E0C70127DFCF5FF80181938F01F4CF04
:101050008C2F90E0DF91CF911F910F91FF90EF9037
:10106000DF90CF9008951F93CF93DF93EC0100970B
:1010700059F1469710F0C5E1D0E01C2F4C2F60E3EA
:1010800078E38AEA98E3C6DF30E02AE52197832FE8
:1010900090E08C179D073CF4805D974CFC018081AB
:1010A000280F3F5FF4CF8091443828130DC0E091A2
:1010B0005138F0915238309739F060E378E3812F5E
:1010C000DF91CF911F910994DF91CF911F910895E6
:1010D0000F931F93CF93DF93EC0162E1DBDE182FB8
:1010E000482F62E9CE0190DE15FD23C016FF16C021
:1010F00063E1CE01CFDE082F10E060E1CE01CADE51
:10110000482F6DE8CE0180DEEA81FB81309789F0BF
:10111000C801DF91CF911F910F91099413FF09C06E
:10112000EC81FD81309729F0DF91CF911F910F91D4
:101130000994DF91CF911F910F9108958AEA98E366
:10114000C7CF43E861E860DE81E090E00895CF9387
:10115000DF93EC0140E060EC57DE45E861E8CE014A
:1011600053DE81E090E0DF91CF91089581E080939C
:1011700075388AEA98E3EBDFE0914F38F091503808
:10118000309709F009940895AF92BF92DF92EF92E1
:10119000FF920F931F93CF93DF93EC015B01D42E4B
:1011A00061E078DE83708330C1F062E1CE0172DEEF
:1011B00083FF04C048E062E9CE0126DEE881F981C0
:1011C0000084F185E02DCE01099540E06DE8CE0167
:1011D0001BDE40E062EACE0117DE8501ED2CF12C2A
:1011E000C8018A199B098E159F0538F4F8014191B1
:1011F0008F0160E8CE0108DEF3CF4D2D62EACE010B
:1012000003DE8C819D81892B21F040E460ECCE01CE
:10121000FBDDE881F9810288F389E02DCE01099593
:10122000C701DF91CF911F910F91FF90EF90DF9059
:10123000BF90AF900895FC018AE5848BDF019F0188
:101240002C5E3F4F9D918489890F848BA217B30731
:10125000C9F71092753845E1BF018AEA98E394DF37
:1012600080917438882351F080917538811106C0BF
:1012700062E070E080E090E083D8F2CF0895CF93F1
:10128000DF93CDB7DEB76597CDBFDEBF89836A83B5
:101290008EEF8B8328502C8380E1FA01DE011596B6
:1012A00001900D928A95E1F7CE010196C4DF659613
:1012B000CDBFDEBFDF91CF910895CF93DF93CDB740
:1012C000DEB76097CDBFDEBFDC0115962D913C9156
:1012D0002C30310589F5FC019E01235F3F4F84E0EE
:1012E000D9011D928A95E9F7828189838189928942
:1012F0008A879B87838D948D092E000CAA0BBB0BCC
:101300008A839B83AC83BD83858D968D092E000CCB
:10131000AA0BBB0B8E839F83A887B98781E090E0DF
:101320008C879D8723E030E0AE014F5F5F4F609177
:101330005D3880915B38A3DF6096CDBFDEBFDF9163
:10134000CF910895DC01EEE5F8E380915B3880836E
:1013500080915D38818312968C91129782831596C5
:101360009C911597990F990F990F17968C91890F4A
:101370008383CF0160CF0F931F93CF93DF938C01B3
:10138000EB0162317105C4F06531710514F0C4E1FF
:10139000D0E0239747E86DECC80136DD41E36BE808
:1013A000C80132DD4C2F4250406869E8C801DF9126
:1013B000CF911F910F9128CD6230710514F4C2E0D6
:1013C000D0E044E86DECC8011FDD4BE2E8CF82318C
:1013D000F0F490E0FC01EA58FE4420812F3FB9F080
:1013E000FC01E857FE44E08130E2E39FF001112464
:1013F000FC5F60FF0DC021838A519F44DC018C910A
:10140000E80FF11D808961FF05C08860808B089519
:101410002283F2CF877FFACFCF93DF93EC0160E096
:101420008E81D5DF8E81823188F590E0FC01EA5112
:10143000FF44E081EF3F51F188579E44DC018C91DD
:1014400090E0DC01AA0FBB1FA050B84C2D913C913D
:1014500021153105D9F04E2F50E0440F551F240FB0
:10146000351F4EE958E0D9014D935C932FB7F8949E
:10147000E05F75E0880F991F7A95E1F7E80FF0E0DB
:10148000FC5F8081887F826080832FBFDF91CF9156
:101490000895FC0164837583672B09F0BDCF8681B5
:1014A000823110F40C94F6010895FC016283738379
:1014B000672B09F0B1CF8681823110F40C94F601CC
:1014C0000895CF93DF93EC01EB85FC858091200894
:1014D0008E7F80932008178260E080E178DF60E0F3
:1014E0008FE075DF60E08EE072DF60E089856FDF9E
:1014F0008D858F3F21F060E0DF91CF9168CFDF9144
:10150000CF9108958F929F92AF92BF92CF92DF9228
:10151000EF92FF920F931F93CF93DF93EC016A0139
:101520007B0161E0898553DF61E0898582DA8D8501
:101530008F3FA1F061E04BDF60E08D857ADA6AE0F1
:1015400070E080E090E00E94C00161E08D8571DA7A
:101550006AE070E080E090E00E94C001EB85FC85CD
:101560008781811106C01086128680E8818781E01C
:101570008783809101028B7F9681892B8093010262
:101580008681811191C061E08EE021DF61E080E120
:101590001EDF8091210884608093210880912008BB
:1015A0008162809320089091813880918238909355
:1015B00020088093210862E4CE016CDC823109F0BE
:1015C0007CC0E881F9810680F781E02DCE01099584
:1015D000CE86DF86E88AF98A46015701BB0C880867
:1015E000982C54019601A701682D782D882D982DEF
:1015F00003E10E942B16A12CE8E4BE2EF8EECF2EBC
:10160000DD24D394E12CF12C00E010E00E94CF15F2
:10161000F22E832E942EA52EB62EC72ED82EE92E6E
:1016200000E10E944616422F66E8CE01EDDB2F2D29
:10163000382D492D5A2D6B2D7C2D8D2D9E2D08E09A
:101640000E944616422F67E8CE01DEDB4F2D68E888
:10165000CE01DADB40E06EE8CE01D6DB40E06FE899
:10166000CE01D2DB6CE0CE0115DC482F43606CE884
:10167000CE01CADB44E066EACE01C6DBE881F9812F
:101680000084F185E02DCE01099581E090E0DF91A5
:10169000CF911F910F91FF90EF90DF90CF90BF906F
:1016A000AF909F908F900895843009F072CF61E0E1
:1016B0008CE08DDE61E08AE06BCF90E080E0E7CFE8
:1016C0000F931F93CF93DF93EC018B016FED71EBC1
:1016D000C8010E944518892B59F4E881F9810084DA
:1016E000F185E02D43E050E060E070E0CE01099527
:1016F00064EE71EBC8010E944518892B59F4E8810A
:10170000F9810084F185E02D45E050E060E070E073
:10171000CE0109956AEE71EBC8010E944518892B2C
:1017200071F4E881F9810084F185E02D40E050E01A
:10173000BA01CE01DF91CF911F910F910994DF91F2
:10174000CF911F910F910895EF92FF920F931F93E6
:10175000CF93DF93CDB7DEB7A297CDBFDEBFFC013D
:1017600061857285838594852AE0AE014F5F5F4F66
:101770007A011BD7F70101900020E9F7BF016E192C
:101780007F0990E080E00E9486178C01009719F095
:10179000B7010E944E18C8010E94FD16C801A2960A
:1017A000CDBFDEBFDF91CF911F910F91FF90EF90E2
:1017B00008958F9381E080938D0A8FB78F93EF9375
:1017C000FF93E5E4F8E39F9368948FEF0FC0E894EC
:1017D000848195818C5E9F4F84839583885E93403E
:1017E00010F08FEF03C0848395838EEF9081981B58
:1017F000919390819F4F919390819F4F919390816E
:101800009F4F919326F39F91FF91EF918F918FBFFF
:101810008F9118950F9304E006C00F9302E003C068
:101820000F9300E000C00F920FB60F921F92112489
:10183000FF921F932F933F934F935F936F937F93E9
:101840008F939F93AF93BF93CF93DF93EF93FF93C8
:10185000A0E0B8E3A00FB11DCD91DC91000F0D5FAA
:10186000A02FB0E0FC90109761F01F2D169518F096
:1018700041F02296FBCFE991F9913097B9F30995A0
:10188000F5CFA02FB0E0FC92FF91EF91DF91CF91C7
:10189000BF91AF919F918F917F916F915F914F9188
:1018A0003F912F911F91FF901F900F900FBE0F90AF
:1018B0000F9118951F920F920FB60F9211248F93CC
:1018C00081E080937338809353018F910F900FBE06
:1018D0000F901F901895CF93DF93E1E8F8E3C4E0F1
:1018E000C18381E38083A6E7B8E320E238E02D934B
:1018F0003C93119717961C921797EAEAF8E32EE9A2
:1019000031EB208331838783C0871186128683E081
:101910008587D2E0D683A387B48716861786108A78
:10192000118A40E853E46DE678E384EA98E30E9484
:10193000BD02E1EAF8E3108211821282ECE8F8E3DA
:1019400082E390E084839583178283E898E380871D
:10195000918716861786108A118A81E0858782878B
:101960001386D48789E090E08283938383E090E0BC
:10197000808391838CE0868384E494E0828B938BD4
:10198000C48BDF91CF910895CF93DF93CDB7DEB7AE
:10199000E097CDBFDEBF88ED93E084BF90936100F8
:1019A000E0E0F6E081E582838AE0858380E283835C
:1019B00081E08083109202028093030A9EEF90934D
:1019C000260A9093270A99E09093000AE0E8FAE04B
:1019D0002DEF31E026A737A7118290E89283848704
:1019E00081E18083789461E08CE0F1DC6091933850
:1019F0006B3031F120919438309195386150D1F0AD
:101A000070E08FEF9AE00E947515F90140918E38D1
:101A100050918F38CF01821B930B8417950768F480
:101A2000DF014D91469FC001479F900D1124908387
:101A3000FD01ECCF70E060E0E8CF8BE0809393385D
:101A40008091001480935D3860E083E0C0DC07E0A3
:101A500011E08091000681112EC06FEF70E080E0F0
:101A600090E00E9491000E9417010E94EA016131FA
:101A700077428105910508F00AC36CE271E080E0CD
:101A800090E00E94C00160E070E0CB010E949100F4
:101A90000E9417010E94EA01613177428105910598
:101AA00008F4FAC264E670E080E090E00E94C001B1
:101AB00010935C38CECF00930606109308068091F1
:101AC0000B0680FFFCCF80911006909111068436A2
:101AD00091051CF20E94EA0161317742810591056E
:101AE00018F08FEF80935D3860E07FEF80E090E04A
:101AF0000E9491000E94170180915D388F3F09F587
:101B000083E380935D3810925B386DE578E380E085
:101B10000E9455036BE578E381E00E94550388E05D
:101B2000ECECF0EBDE01119601900D928A95E1F755
:101B3000BE016F5F7F4F82E00E94700381E080935F
:101B40005C388091011480935B3880E290E00E94C1
:101B500061168C0181E0F80182832FEF3FEF238330
:101B600034832DE030E025833683EE24E394F12C9A
:101B7000E782F086138A148AE18AF28A23EA30E047
:101B8000258B368B178A108E41EC5DEB60EF7FEF73
:101B900041875287638774874EE352E46FE070E0B9
:101BA000458756876787708B118E128E2CEF30EB2E
:101BB00020833183838FE48EF58E168E178E62E03C
:101BC00006DCD8015C962D913C915D972230310561
:101BD00008F06FC215961D921C92169717961D92CB
:101BE0001C9218975B968C912130310509F059C2EF
:101BF0000E94A00451E040E030E020E0811150E07C
:101C0000852F942FA32FB22FF80181879287A38766
:101C1000B487C8010E94EB038093593890935A38D7
:101C200080E290E00E9461168C0182E0D801129659
:101C30008C9312978FEF9FEF13968D939C9314972D
:101C40008DE090E015968D939C931697EE24E39487
:101C5000F12C1796ED92FC92189753961D921C92B8
:101C600054975196ED92FC9252978CE990E05596DC
:101C70008D939C93569757961D921C92589781EC82
:101C80009DEBA0EFBFEFF80181879287A387B48710
:101C90008EE392E4AFE0B0E085879687A787B08BAC
:101CA000118E128E8CEF90EB8083918385E0838F71
:101CB000E48EF58E168E178E62E089DBD8015C9675
:101CC0002D913C915D972230310508F010C2159698
:101CD0001D921C92169717961D921C9218975B9650
:101CE0008C912130310509F0FAC10E94A00451E025
:101CF00040E030E020E0811150E0852F942FA32FA9
:101D0000B22FF80181879287A387B487C8010E9408
:101D1000EB0380935738909358388FE190E0D1D7F8
:101D2000FC0184E191EB8083918387E0828322E050
:101D300030E0238334838DE090E08583968381E0D7
:101D400090E087839087138A148A818B928B82E933
:101D500090E0858B968B80E990E0878B908F8091C7
:101D6000021490E0B0E0A0E080959095A095B09529
:101D700085879687A787B08B118E128E8CE291EBA8
:101D800080839183809102148983809103148A83D4
:101D9000809104148B83809105148C8380910614A8
:101DA0008D83809107148E83809108148F83809196
:101DB000091488878D819E81092E000CAA0BBB0B0C
:101DC00081879287A387B48789819A81838F948F33
:101DD0008B819C81858F968F8F819885818B928B4B
:101DE0004CE050E045835683019711F027833087FC
:101DF000CF010E94EB03809355389093563889E2C7
:101E000090E05FD78C0185E0D80112968C931297F1
:101E10008FEF9FEF13968D939C9314978DE090E036
:101E200015968D939C93169781E090E017968D936D
:101E30009C93189753961D921C92549751968D938C
:101E40009C9352978BE890E055968D939C93569770
:101E500057961D921C92589781EC9DEBA0EFBFEF17
:101E6000F80181879287A387B4878EE392E4AFE07D
:101E7000B0E085879687A787B08B118E128E84E499
:101E800091EB808391838BE0838F8AE0848F61E084
:101E90008BE09DDA61E0D8015C968C9198DAF801CC
:101EA000158E168E178E10A28AE090E083A394A35D
:101EB00081A392A315A216A217A210A611861286BC
:101EC0001386148684E090E08583968383E090E017
:101ED00087839087C8010E94EB038C01809353385D
:101EE000909354388091553890915638DC01ED919B
:101EF000FC910190F081E02D0995F80163A374A392
:101F000061A372A3E0915338F0915438809157380F
:101F1000909158382091593830915A38258F368F02
:101F2000878F90A381E0809374388EE194E0809352
:101F300051389093523810924F381092503840E4F4
:101F40005EE06FEC79E18AEA98E3DCDA892B09F448
:101F5000E4C083E398E08093AC389093AD388AEA8C
:101F600098E35ADA86EB98E08093AE389093AF38D6
:101F70008AEA98E351DA6EE070E08AEA98E3FBD9E6
:101F800043EC61EB8AEA98E30E9404074AE067EBBE
:101F90008AEA98E30E9404076EE18AEA98E30E94C5
:101FA0004A078F70482F40696EE98AEA98E30E94D9
:101FB00004070E944C076DE18AEA98E30E944A07F1
:101FC0008F70482F40676DE98AEA98E30E94040702
:101FD0000E944C076DE18AEA98E30E944A07817FDC
:101FE000482F42606DE98AEA98E30E9404078AEA72
:101FF00098E3ADD880915C388111B6C08091A10082
:102000008D7F8093A100809102068F7C80658093F4
:102010000206F894809141018111FCCF81E0809308
:102020004001109247018093520181E78093500153
:10203000789460E070E0CB010E9491000E9417014B
:102040005DE6C52EDD24D39462E6E62E68E3F62E27
:1020500070E1B72E80917338882309F4ECC1109297
:1020600073384091A5383091A438632F70E02091E7
:10207000A638822F90E0EAEAF0E021E0241708F089
:102080007AC15491850F911D2F5F3196F7CF64E689
:1020900070E080E090E0F5CC6CE271E080E090E0F0
:1020A00005CD0E94A004082E000C990BAA0BBB0BB7
:1020B000ABCD88E090E015968D939C93169717967C
:1020C000ED92FC92189719968D919D910D90BC916F
:1020D000A02DF80185879687A787B08B9ACD0E949F
:1020E000A004082E000C990BAA0BBB0B0ACE88E0AB
:1020F00090E015968D939C9316971796ED92FC920F
:10210000189719968D919D910D90BC91A02DF80175
:1021100085879687A787B08BF9CD60E070E08FEF59
:1021200090E00E9491000E94170113E064E670E0C5
:1021300080E090E00E94C00160E070E0CB010E946E
:1021400091000E94170164E670E080E090E00E9438
:10215000C00160E070E08FEF90E00E9491000E946B
:102160001701115019F74ACF8FEF80935B388E011A
:102170000D5D1F4FBEE0FB2ED801EF2D1D92EA959D
:10218000E9F78EEF89A38DE08AA383E08BA348E073
:1021900050E062E870E0CE018496F8D130E020E0B3
:1021A000AE014F5D5F4F60915D3880915B3867D8BD
:1021B000D8011D92FA94E9F745E050E06CE770E031
:1021C000C801E4D122E030E0AE014F5D5F4F609185
:1021D0005D3880915B3853D81BA227E030E0AE0118
:1021E0004F5D5F4F60915D3880915B3848D8D12C4E
:1021F0004E01B3E18B0E911C1EE0C12E8091A338DD
:10220000D81608F08FC08D2D90E0880F991FE091AF
:10221000A138F091A238E80FF91F00811181F8016F
:102220008281882309F47CC0D401EC2D1D92EA95AB
:10223000E9F7898BD80115968C9115978A8B17969B
:102240008C9117978B8B5596ED90FC90C70195D18B
:102250008D30910510F08DE090E0AC01B701CE011A
:10226000449694D130E020E0AE014F5E5F4F609124
:102270005D3880915B3803D8F801A788B08CA11431
:10228000B10451F1C50179D17C01892B29F1D80123
:1022900012968C918983A701BEE0EB16F10410F031
:1022A0004EE050E0B501CE01039670D1EEE0EE169F
:1022B000F10438F4E3E0F0E0EC0FFD1FEE0DFF1D3C
:1022C000108221E030E0AE014F5F5F4F60915D38DA
:1022D00080915B380E943F09D801ED91FC91028802
:1022E000F389E02DC8010995F4016C2C11926A94D0
:1022F000E9F7D80112968C911297898B15968C91DB
:1023000015978A8B17968C918B8B27E030E0AE0166
:102310004F5E5F4F60915D3880915B380E943F094E
:10232000D3946CCFE3E0CE2ED12CE12CF12C812C78
:10233000912C54018A94939480915C38882309F4F9
:102340005DCE0E94EA01A7019601E3D3CA01B9015B
:10235000A5019401DED36F5F710977FF03C071950A
:1023600061957109072E000C880B990B0E94910052
:102370000E941701E1CF433018F0337009F4019641
:102380009B012D5F3F4F36952795369527956C9D80
:10239000A0016D9D500D7C9D500D1124415051099F
:1023A000240F351F280F391FA8E1B0E091D22091EA
:1023B000A7383B014C01620E711C811C911CA401C9
:1023C0009301ACE3B0E049D22091A8383B014C0125
:1023D000620E711C811C911CA40193013ED22B0141
:1023E0003C019091A938892F90E0B0E0A0E08F5790
:1023F0009C4BA249B74C480E591E6A1E7B1EB30166
:10240000A201CE0101960E94BD0286E0FE01319636
:10241000A4EAB8E301900D928A95E1F760E07FEFBE
:1024200080E090E040FC03C060E070E0CB010E94DF
:1024300091000E94170110E08091A3381817A8F4AA
:10244000812F90E0880F991FE091A138F091A23878
:10245000E80FF91F80819181DC01ED91FC910088EA
:10246000F189E02D09951F5FE7CFA12C8091A3385A
:10247000A81608F0EFCD8A2D90E0880F991FE09103
:10248000A138F091A238E80FF91F00811181F801FD
:10249000418552856385748585859685841B950B5A
:1024A00097FF03C0919581959109D80153962D917D
:1024B0003C915497281739070CF041C012968C9123
:1024C0001297882309F43BC0F80145875687678730
:1024D000708B0580F681E02DED30F10510F5EE589A
:1024E000FD4E55C37F127F127F129112A1129112DD
:1024F0009112A1127F1291129112A1127F12409398
:10250000623850936338609364387093653851969D
:102510008D919C918093663890936738C8010E9492
:10252000A209D8015996ED91FC915A97309739F04C
:1025300019966D917D918D919C911C970995A3940D
:1025400095CFED91FC910680F781E02DC8010995AA
:10255000FC0101900020E9F73197D7016B2C1D9207
:102560006A94E9F7E81BE13108F0E0E14E2F50E012
:10257000BC0182E698E399D5D1CFFC0105900020FB
:10258000E9F7809590958E0F9F1F0895FB01DC0160
:102590004150504048F005900D920020C9F701C00D
:1025A0001D9241505040E0F70895BB272A3051F466
:1025B000992342F4BDE290958095709561957F4F87
:1025C0008F4F9F4F01C0BB27FA01A62F62177105DD
:1025D00081059105330B30FB66F0AA27660F771F44
:1025E000881F991FAA1FA21710F0A21B63953850CD
:1025F000A9F7A05DAA3308F0A95DA19336F7B11140
:10260000B1931082CA0100C0DC01FC01672F7191F7
:102610007723E1F7329704C07C916D9370836291C8
:10262000AE17BF07C8F3089540D008F481E00895BD
:10263000E89409C097FB3EF490958095709561955C
:102640007F4F8F4F9F4F9923A9F0F92F96E9BB2712
:102650009395F695879577956795B795F111F8CF8E
:10266000FAF4BB0F11F460FF1BC06F5F7F4F8F4FF9
:102670009F4F16C0882311F096E911C0772321F0EF
:102680009EE8872F762F05C0662371F096E8862F87
:1026900070E060E02AF09A95660F771F881FDAF7DE
:1026A000880F9695879597F90895990F0008550F0B
:1026B000AA0BE0E8FEEF16161706E807F907C0F0C8
:1026C00012161306E407F50798F0621B730B840BD0
:1026D000950B39F40A2661F0232B242B252B21F4AA
:1026E00008950A2609F4A140A6958FEF811D811D4A
:1026F00008950BD078C069D028F06ED018F09523DB
:1027000009F05AC05FC01124A2C07ED0A0F3959FEB
:10271000D1F3950F50E0551F629FF001729FBB27C8
:10272000F00DB11D639FAA27F00DB11DAA1F649F74
:102730006627B00DA11D661F829F2227B00DA11D27
:10274000621F739FB00DA11D621F839FA00D611DAD
:10275000221F749F3327A00D611D231F849F600DCE
:10276000211D822F762F6A2F11249F5750408AF007
:10277000E1F088234AF0EE0FFF1FBB1F661F771F93
:10278000881F91505040A9F79E3F510570F014C02A
:102790005EC05F3FECF3983EDCF3869577956795D6
:1027A000B795F795E7959F5FC1F7FE2B880F911DB1
:1027B0009695879597F9089597F99F6780E870E057
:1027C00060E008959FEF80EC089500240A941616A7
:1027D000170618060906089500240A94121613060F
:1027E000140605060895092E0394000C11F488239D
:1027F00052F0BB0F40F4BF2B11F460FF04C06F5FB9
:102800007F4F8F4F9F4F089557FD9058440F551F8E
:1028100059F05F3F71F04795880F97FB991F61F062
:102820009F3F79F087950895121613061406551FD9
:10283000F2CF4695F1DF08C0161617061806991F45
:10284000F1CF86957105610508940895E894BB273A
:1028500066277727CB0197F908953AD0A59F900D69
:10286000B49F900DA49F800D911D112408952F9267
:102870003F924F925F926F927F928F929F92AF9210
:10288000BF92CF92DF92EF92FF920F931F93CF935D
:10289000DF93CDB7DEB7CA1BDB0BCDBFDEBF09941C
:1028A0002A88398848885F846E847D848C849B84E0
:1028B000AA84B984C884DF80EE80FD800C811B81EE
:1028C000AA81B981CE0FD11DCDBFDEBFED01089524
:1028D000A29FB001B39FC001A39F700D811D112461
:1028E000911DB29F700D811D1124911D08955058A6
:1028F000BB27AA270ED077CF68DF30F06DDF20F03E
:1029000031F49F3F11F41EF45DCF0EF4E095E7FB28
:1029100053CFE92F79DF80F3BA1762077307840773
:10292000950718F071F49EF591CF0EF4E0950B2EFB
:10293000BA2FA02D0B01B90190010C01CA01A00111
:102940001124FF27591B99F0593F50F4503E68F16C
:102950001A16F040A22F232F342F4427585FF3CFAD
:10296000469537952795A795F0405395C9F77EF47E
:102970001F16BA0B620B730B840BBAF09150A1F0C7
:10298000FF0FBB1F661F771F881FC2F70EC0BA0F4D
:10299000621F731F841F48F4879577956795B795D5
:1029A000F7959E3F08F0B3CF9395880F08F09927CD
:1029B000EE0F9795879508950CD015CF0DDF40F059
:1029C00004DF30F021F45F3F19F0F6CE51113FCF14
:1029D000F9CE1ADF98F39923C9F35523B1F3951B68
:1029E000550BBB27AA2762177307840738F09F5F30
:1029F0005F4F220F331F441FAA1FA9F333D00E2E9F
:102A00003AF0E0E830D091505040E695001CCAF70B
:102A100029D0FE2F27D0660F771F881FBB1F2617D0
:102A200037074807AB07B0E809F0BB0B802DBF01A3
:102A3000FF2793585F4F2AF09E3F510568F0BCCEA8
:102A400006CF5F3FECF3983EDCF38695779567956C
:102A5000B795F7959F5FC9F7880F911D9695879554
:102A600097F90895E1E0660F771F881FBB1F621773
:102A700073078407BA0720F0621B730B840BBA0B31
:102A8000EE1F88F7E095089504D06894B111DFCE69
:102A90000895C2DE88F09F5790F0B92F9927B7515B
:102AA000A0F0D1F0660F771F881F991F1AF0BA9512
:102AB000C9F712C0B13081F0C9DEB1E00895C6CEC9
:102AC000672F782F8827B85F39F0B93FCCF3869508
:102AD00077956795B395D9F73EF490958095709565
:102AE00061957F4F8F4F9F4F0895AA1BBB1B51E1EC
:102AF00007C0AA1FBB1FA617B70710F0A61BB70B6E
:102B0000881F991F5A95A9F780959095BC01CD0112
:102B10000895A1E21A2EAA1BBB1BFD010DC0AA1F1E
:102B2000BB1FEE1FFF1FA217B307E407F50720F036
:102B3000A21BB30BE40BF50B661F771F881F991FB1
:102B40001A9469F760957095809590959B01AC01FA
:102B5000BD01CF010895052E97FB16F400940FD008
:102B600057FD05D0D6DF07FC02D046F408C05095CB
:102B70004095309521953F4F4F4F5F4F0895909569
:102B80008095709561957F4F8F4F9F4F0895EE0F01
:102B9000FF1F0590F491E02D0994689401C0E8941A
:102BA0008F929F92CF93DF9305D0DF91CF919F902B
:102BB0008F90089588249924F401E401B0E49F9350
:102BC000AA279A158B049C04ED05FE05CF05D007B6
:102BD000A10798F4AD2FDC2FCF2FFE2FE92D982CD5
:102BE000892E982F872F762F652F542F432F322F22
:102BF0002227B85031F7BF9127C01B2EBF91BB27AA
:102C0000220F331F441F551F661F771F881F991FF0
:102C1000881C991CEE1FFF1FCC1FDD1FAA1FBB1FA6
:102C20008A149B04EC05FD05CE05DF05A007B1075E
:102C300048F08A189B08EC09FD09CE09DF09A00BB2
:102C4000B10B21601A94E1F62EF49401AF01BE019C
:102C5000CD01000C0895002E083090F0982F872F9A
:102C6000762F652F542F432F322F22270850F4CF71
:102C7000220F331F441F551F661F771F881F991F80
:102C80000A95B2F7002D089597FD1094002E083094
:102C900098F00850232F342F452F562F672F782F69
:102CA000892F912DF4CF15949795879577956795F2
:102CB00057954795379527950A95AAF71124002D22
:102CC00008950F931F93CF93DF938230910510F4F3
:102CD00082E090E0E091BE38F091BF3830E020E033
:102CE000B0E0A0E0309799F42115310509F44AC00D
:102CF000281B390B24303105D8F58A819B81611559
:102D0000710589F1FB0182839383FE0111C040812B
:102D100051810281138148175907E0F0481759077C
:102D200099F4109761F012960C93129713961C93D6
:102D30003296CF01DF91CF911F910F9108950093AB
:102D4000BE381093BF38F4CF2115310551F042172A
:102D5000530738F0A901DB019A01BD01DF01F80139
:102D6000C1CFEF01F9CF8093BE389093BF38CDCF5C
:102D7000FE01E20FF31F81939193225031092883C2
:102D80003983D7CF2091BC383091BD38232B41F403
:102D900020910838309109382093BC383093BD38E1
:102DA00020910638309107382115310541F42DB7AF
:102DB0003EB740910A3850910B38241B350BE091F7
:102DC000BC38F091BD38E217F307A0F42E1B3F0B7F
:102DD0002817390778F0AC014E5F5F4F241735078D
:102DE00048F04E0F5F1F4093BC385093BD3881931D
:102DF00091939FCFF0E0E0E09CCFCF93DF930097DB
:102E0000E9F0FC01329712821382A091BE38B09192
:102E1000BF38ED0130E020E01097A1F4208131812E
:102E2000820F931F2091BC383091BD382817390785
:102E300009F061C0E093BC38F093BD38DF91CF91C9
:102E40000895EA01CE17DF07E8F54A815B819E010C
:102E500041155105B1F7E901EA83FB834991599185
:102E6000C40FD51FEC17FD0761F480819181029694
:102E7000840F951FE90188839983828193818A83D6
:102E80009B83F0E0E0E012968D919C911397009760
:102E9000B9F52D913C911197CD010296820F931FA8
:102EA0002091BC383091BD382817390739F6309752
:102EB00051F51092BE381092BF38A093BC38B09331
:102EC000BD38BCCFC283D38340815181840F951F0D
:102ED000C817D90761F44E5F5F4F88819981480F09
:102EE000591F408351838A819B818283938321155B
:102EF000310509F0B0CFE093BE38F093BF389ECFD4
:102F0000FD01DC01C0CF12821382D7CFB0E0A0E078
:102F1000EBE8F7E1AECC8C01009741F4CB01D1DEB8
:102F20008C01C801CDB7DEB7E0E1BCCCFC01E60FF7
:102F3000F71F9C0122503109E217F30708F499C0EA
:102F4000D901CD91DC911197C617D70790F0C53004
:102F5000D10538F3CE0104978617970710F3C61BE7
:102F6000D70B2297C193D1936D937C93CF0145DF0B
:102F7000D8CF5B01AC1ABD0A4C018C0E9D1EA091EE
:102F8000BE38B091BF38512C412CF12CE12C109758
:102F900031F58091BC389091BD388815990509F0BC
:102FA0005CC04616570608F058C0809106389091CC
:102FB0000738009741F48DB79EB740910A38509179
:102FC0000B38841B950BE817F90708F052C0E09303
:102FD000BC38F093BD38F90160837183A2CF8D9125
:102FE0009C91119712966C90129713967C90139760
:102FF000A815B90559F56C0142E0C40ED11CCA14DC
:10300000DB0420F1AC014A195B09DA01129615972D
:1030100080F06282738240835183D9016D937C93E7
:10302000E114F10471F0D7011296ED93FC9313971C
:1030300078CF22968C0F9D1FF90180839183F30135
:10304000EFCFE093BE38F093BF386BCF48165906E8
:1030500008F42C017D01D3019ACFCB0132DE7C0133
:10306000009739F0AE01B80107D0C801C6DE87016C
:1030700058CF10E000E055CFFB01DC0102C0019009
:103080000D9241505040D8F70895FB01DC018D911D
:10309000019080190110D9F3990B0895FB01DC010F
:1030A00001900D920020E1F70895FB01DC014150F1
:1030B000504048F001900D920020C9F701C01D92C8
:0C30C00041505040E0F70895F894FFCF15
:1030CC0001003C000A0001001010800000000010FC
:1030DC001010404000000000100004050607050415
:1030EC0003020100000102030102030000000000C2
:1030FC00B702AA028602A40B800275024F024E028E
:10310C00BB044D0200000000B702AA028602A40B09
:10311C00800275024F024E024D024D02000000006B
:10312C00B702AA028602A40B800275029F034E020C
:10313C004D025D0900000000B702AA0286022B02B4
:10314C002B0675024F02600BA7054D02781E00A0DE
:10315C002800F03C00405100127A00E4A20024F454
:10316C000048E80190D00320A107102040802010D7
:10317C000804020101020408020408010000000016
:10318C000101010101010202020200000000000025
:10319C000000820A610AA70744074707BB090A080F
:1031AC00C408A708A1086808550A490A40033D034A
:1031BC003F0073746F70006F70656E006F70656E9A
:1031CC00696E6700636C6F73656400636C6F736921
:1031DC006E67004F50454E00434C4F5345005354BF
:0331EC004F500041
:0C31EF00203814380C380000C038800074
:00000001FF
