:100000005FC0000091C000008FC000000C94AE09DA
:100010000C94AB090C94A80987C0000085C00000AF
:1000200083C0000081C000007FC000007DC00000D0
:100030007BC0000079C0000077C000000C947709F5
:1000400073C0000071C000006FC000006DC00000F0
:100050006BC0000069C0000067C0000065C0000000
:1000600063C0000061C000005FC000005DC0000010
:100070005BC0000059C0000057C000004D4C453423
:10008000320047617261676500546F67676C650095
:10009000436C6F7365004F70656E004465746563F3
:1000A00074696F6E00436C6F736564004F70656EAA
:1000B0006564001F1C1F1E1F1E1F1F1E1F1EF80928
:1000C00011241FBECFEFCDBFDFE3DEBF8091400024
:1000D00080934000811105C098ED21E094BF2093EA
:1000E00041008CBB18E3A0E0B8E3E0E1FAE202C013
:1000F00005900D92AC30B107D9F728E3ACE0B8E336
:1001000001C01D92AF3BB207E1F710E0C0E6D0E0BE
:1001100004C02197FE010E94C811CF35D107C9F74D
:100120000E947E0A0C949F146BCF8F929F92AF9285
:10013000BF92CF92DF92EF92FF922091A63830913A
:10014000A738232B09F440C04C01AA24BB24C72E96
:10015000D82EE92EFF24BC2DA62F2091AD38482D96
:10016000222391F0A22FB0E0A89DF001A99DF00DEF
:10017000B89DF00D11244F2F2C9D60011124BD2D31
:10018000269FC0011124A92FE091B3388091AE3889
:100190009091AF382091B038E21721F0E80FF92F95
:1001A000F11D1082E091B038E80FF92FF11D408366
:1001B000E091B138E80FF92FF11DB0832091B238EA
:1001C000820F911DFC01A083FF90EF90DF90CF90F4
:1001D000BF90AF909F908F9008959FB7F89488E05C
:1001E0008093840A80918E0A81FFFCCF80918D0AD2
:1001F000E091A20AF091A30A2091493830914A383F
:1002000040914B3850914C389FBF80FF07C0E7307A
:10021000F10520F42F5F3F4F4F4F5F4FAEEFB1E03E
:100220000E94CE116E0F7F1F811D911D660F771FDB
:10023000881F991F08950F931F93CF93DF93CDB716
:10024000DEB72797CDBFDEBF8091A8389091A9383F
:1002500089839A838091AE389091AF38892B09F4C5
:100260008BC08091AC3882310CF086C0B6DF009133
:10027000B4381091B5382091B6383091B738AB0109
:10028000BC01401B510B620B730B8091AA389091FB
:10029000AB38B0E0A0E0481759076A077B0730F396
:1002A000F894A091AE38B091AF38FD0131968C91A1
:1002B0008F831B82A091B838B091B9389C918091FE
:1002C000BA38982B9E839C91809589238D838D814C
:1002D0008C838F8187FF02C08E818C835E816D81CC
:1002E0004F813C812B8189819A815C933C93262F9D
:1002F00046FD252F6C9300005C932C93362F45FD13
:10030000352F6C9300005C933C93262F44FD252FE2
:100310006C9300005C932C93362F43FD352F6C9328
:1003200000005C933C93262F42FD252F6C93815057
:100330005C932C93362F41FD352F6C9391095C9380
:100340003C93262F40FD252F6C9341915C932C9379
:10035000362F47FD352F6C9341F64F833C832B831B
:1003600089839A83789439DF6093B4387093B53871
:100370008093B6389093B7382796CDBFDEBFDF9114
:10038000CF911F910F910895CF92DF92EF92FF923C
:10039000CF93DF936B017C0120DFEB011EDF6C1B31
:1003A0007D0B683E7340A0F0C114D104E104F10458
:1003B00039F4DF91CF91FF90EF90DF90CF900895C7
:1003C00081E0C81AD108E108F108C851DC4FE6CF36
:1003D000C114D104E104F10409F7EBCF90E0FC0172
:1003E000EC5AF64520812F3F69F184509645FC0177
:1003F0008081E82FE295EE0FE07EE20FF0E0E05F13
:10040000FB4F9081917F908390E0FC0134E0EE0FF0
:10041000FF1F3A95E1F7422F50E061E070E001C024
:10042000660F2A95EAF76383880F991FFC01E05055
:10043000F84C440F551F0190F081E02DE40FF51F9B
:10044000108211820895FB019081A82FB0E0BC5E5C
:100450008C91981769F0E0E0F0E10FB622812370EB
:10046000E9F7F8949C939DE994BF93E090830FBEC5
:10047000CB010895DB019C91809155389813AEC053
:10048000FB01809154388823E9F082818E3FD1F4BA
:1004900083818770863051F4848181119FC085816A
:1004A0008093553865E578E380E0CDCF873051F40F
:1004B00081818093533863E578E381E0C4DF109253
:1004C00054380895918180915338981387C0828160
:1004D0008530E1F484819581A681B78118161906CB
:1004E0001A061B060CF067C0809172389091733821
:1004F000DC01ED91FC910280F381E02D09958111E1
:100500006DC080917438909175381DC0863031F57A
:1005100084819581A681B781181619061A061B06D3
:100520000CF057C080916E3890916F38DC01ED91DE
:10053000FC910280F381E02D099581114FC08091DB
:10054000703890917138DC01ED91FC910084F18557
:10055000E02D41E050E060E070E009948730F1F573
:1005600080916E3890916F38DC01ED91FC910280A2
:10057000F381E02D0995882379F08091703890916E
:100580007138DC01ED91FC910084F185E02D40E0B3
:1005900050E0BA010995B5CF8091743890917538C3
:1005A000DC01ED91FC910084F185E02D40E050E00C
:1005B000BA010995C4CF8091743890917538DC01E7
:1005C000ED91FC910084F185E02D40E050E0BA010E
:1005D000C4CF8091703890917138F1CF089508950B
:1005E000462F50E070E060E0DC01ED91FC9100846A
:1005F000F185E02D0994089590E080E00895CF9270
:10060000DF92EF92FF92CF93DF93EC016A017B01BF
:1006100069897A89072E000C880B990B0E94631058
:10062000A70196010E9413110E943010AB01BC017A
:10063000E881F9810084F185E02DCE01DF91CF9131
:10064000FF90EF90DF90CF900994462F50E070E03C
:1006500060E0DC01ED91FC910084F185E02D0994CE
:10066000FC01418752876387748708958EE09AEA78
:100670000895CF92DF92EF92FF92CF93DF93EC0138
:1006800069857A858B859C850E9463106B017C014E
:1006900069897A89072E000C880B990B0E946310D8
:1006A0009B01AC01C701B6010E94C80FDF91CF9139
:1006B000FF90EF90DF90CF90089521E0FC018185BD
:1006C0009285A385B485892B8A2B8B2B09F420E096
:1006D000822F0895FC016185728583859485089534
:1006E000282F30E08231A8F4F901E651F6458081E7
:1006F0008F3F79F024503645D901EC91B0E2EB9F61
:10070000F0011124FC5F9085982381E019F480E0CA
:1007100008958FEF0895FC01818DE2DF91E0811152
:1007200001C090E0892F0895FC01818DD9DF682FE9
:10073000880F770B880B990B0895CF93DF93EC010B
:10074000EC8DFD8D309729F1099590E0B0E0A0E0A7
:1007500089879A87AB87BC878A8D9B8D823091056C
:1007600089F589859A85AB85BC854D855E856F85C4
:100770007889481759076A077B0741F0892B8A2B2C
:100780008B2B21F41D861E861F86188ADF91CF9140
:100790000895898D2A8D3B8D2130310561F4A0DFCC
:1007A00051E040E030E020E0811150E0852F942FAF
:1007B000A32FB22FCDCF94DF082E000C990BAA0BDC
:1007C000BB0BC6CF039711F789859A85AB85BC858E
:1007D0004D855E856F857889481759076A077B07BD
:1007E000A9F281309105A105B10581F68D879E871B
:1007F000AF87B88BCBCFCF93DF93823108F047C060
:1008000090E0EC01C651D64528812F3F09F43FC046
:10081000AC0144505645DA01EC91B0E2EB9FF00197
:100820001124FC5F611136C0268330812323A1F49B
:100830009C012C5A3645D9012C91309769F128300A
:1008400058F57096E20FF11D3FB7F89420816111C1
:1008500026C0277F20833FBF8E5B9645FC01908199
:100860009923A9F08881903409F19038E1F0903112
:1008700071F4DA019C919130A1F4853010F0880F69
:1008800082959091010A809589238093010ADF91D6
:10089000CF9108952583C9CFF0E0E0E0D5CF28605F
:1008A000D9CF880FEECF1092A006F1CF20E482308E
:1008B00009F420E89091920A922349F36FB7F894D3
:1008C0009091800A9E7F9093800A4091920A30E036
:1008D0002095309550E02423352398ED94BF209344
:1008E000920A90918E0A90FFFCCF9091800A9160BD
:1008F0009093800A813039F4809150048F778093EF
:1009000050046FBFC4CF809151048F7780935104FE
:10091000F8CF0F931F93CF93DF93EC01062F142F83
:1009200060E0898568DFEB85FC859F81888520856F
:10093000222319F02FB72187F89421E02287909382
:100940002008809321080000009324088091230848
:1009500087FFFCCF80912408000010932408809129
:10096000230887FFFCCF10912408EB85FC85828546
:10097000882331F012868085882311F081858FBF0E
:1009800061E0898538DF812FDF91CF911F910F9131
:10099000089540E861E8BDCF41E861E8BACF40E0A2
:1009A000B8CFCF92DF92EF92FF92CF93DF936DE1BA
:1009B00084E898E3F4DF90E034E0959587953A95E4
:1009C000E1F78A3091050CF03FC0FC01EE0FFF1FEC
:1009D000E80FF91FEA56F645C080D180E2800E2C60
:1009E000000CFF086EE184E898E3D9DFD82F66E2B7
:1009F00084E898E3D4DFC82FD295DF7021E030E09F
:100A000040E050E004C0220F331F441F551FDA9509
:100A1000D2F7C701B6010E94AC1168EE73E080E026
:100A200090E00E94AC1121313105410551058CF057
:100A30004C2F486066EA84E898E3DF91CF91FF90FD
:100A4000EF90DF90CF9065CFCC24CA94DC2C760158
:100A5000C9CF4C2F477FEECFCF93DF93EC0161E0FE
:100A60009EDF8370833059F062E1CE0198DF83FF0F
:100A700004C048E062E9CE014CDF80E001C081E0C3
:100A8000DF91CF910895CF92DF92EF92FF920F9373
:100A90001F93CF93DF938C016AE181DFC82FD0E0F1
:100AA000F80166857785808991890E9463102AEE16
:100AB00036E54AEF5DE40E94C40F87FD44C08DE92E
:100AC00090E0C81BD90B69E1C80169DF87FD8D5F24
:100AD00085958595682F880F770B880B990B0E9459
:100AE00063106B017C0120E030E0A9010E94C40F7B
:100AF00087FF0DC0BE01DD0F880B990B0E946310AC
:100B0000A70196010E94600F0E943010EB019E0128
:100B1000DD0F440B550B20583F4F4F4F5F4FA4E65E
:100B2000B0E00E94CE1126E730E040E050E00E94A5
:100B3000AC11C901DF91CF911F910F91FF90EF9000
:100B4000DF90CF90089584EA90E0BBCFCF92DF9200
:100B5000EF92FF920F931F93CF93DF937C01C62EEA
:100B6000C72FD42E63E11BDFD82F0C2D1C2FC0E024
:100B7000CD1751F0CD1541F060E0C70110DFCF5F18
:100B8000F80181938F01F4CF8C2F90E0DF91CF910A
:100B90001F910F91FF90EF90DF90CF9008951F93DA
:100BA000CF93DF93EC01009759F1469710F0C5E120
:100BB000D0E01C2F4C2F60E378E384E898E3C6DF95
:100BC00030E02AE52197832F90E08C179D073CF4B5
:100BD000805D974CFC018081280F3F5FF4CF8091AE
:100BE000443828130DC0E0914738F09148383097C9
:100BF00039F060E378E3812FDF91CF911F91099461
:100C0000DF91CF911F9108950F931F93CF93DF939F
:100C1000EC0162E1C4DE182F482F62E9CE0179DED3
:100C200015FD23C016FF16C063E1CE01B8DE082F04
:100C300010E060E1CE01B3DE482F6DE8CE0169DE41
:100C4000EA81FB81309789F0C801DF91CF911F9134
:100C50000F91099413FF09C0EC81FD81309729F0B1
:100C6000DF91CF911F910F910994DF91CF911F9147
:100C70000F91089584E898E3C7CFCF93DF93EC01F9
:100C800040E060EC46DE45E861E8CE0142DE81E00E
:100C900090E0DF91CF91089581E08093763884E8E9
:100CA00098E3EBDFE0914538F0914638309709F052
:100CB00009940895AF92BF92DF92EF92FF920F9343
:100CC0001F93CF93DF93EC015B01D42EE881F98170
:100CD000008CF18DE02D099581110FC0E881F9811B
:100CE0000084F185E02DCE01099540E06DE8CE014C
:100CF00010DE40E062EACE010CDE8501ED2CF12C25
:100D0000C8018A199B098E159F0538F4F801419195
:100D10008F0160E8CE01FDDDF3CF4D2D62EACE01FB
:100D2000F8DD8C819D81892B21F040E460ECCE01BF
:100D3000F0DD43E861E8CE01ECDDC701DF91CF9142
:100D40001F910F91FF90EF90DF90BF90AF900895AB
:100D5000FC018AE5848BDF019F012C5E3F4F9D9152
:100D60008489890F848BA217B307C9F7109276384C
:100D700045E1BF0184E898E39DDF809196388823A0
:100D800051F080917638811106C062E070E080E019
:100D900090E0FADAF2CF0895DC01E6E5F8E380911D
:100DA0005338808380915538818312968C911297A5
:100DB000828315969C911597990F990F990F179605
:100DC0008C91890F8383CF01C3CFCF93DF93CDB7AE
:100DD000DEB76597CDBFDEBF89836A838EEF8B83D5
:100DE00028502C8380E1FA01DE01159601900D92C6
:100DF0008A95E1F7CE010196ABDF6596CDBFDEBFE8
:100E0000DF91CF9108950F931F93CF93DF938C01C0
:100E1000EB0162317105C4F06531710514F0C4E174
:100E2000D0E0239747E86DECC80173DD41E36BE840
:100E3000C8016FDD4C2F4250406869E8C801DF915E
:100E4000CF911F910F9165CD6230710514F4C2E00E
:100E5000D0E044E86DECC8015CDD4BE2E8CFCF9216
:100E6000DF92EF92FF92CF93DF93FC01C184D28493
:100E7000E384F484C416D506E606F70689F021E07B
:100E800014161506160617060CF020E06A017B0101
:100E9000EC01622F898DAFDCC986DA86EB86FC8691
:100EA000DF91CF91FF90EF90DF90CF900895823146
:100EB000F0F490E0FC01E651F64520812F3FB9F0B7
:100EC000FC01E450F645E08130E2E39FF00111249B
:100ED000FC5F60FF0DC021838C5A9645DC018C912C
:100EE000E80FF11D808961FF05C08860808B08953F
:100EF0002283F2CF877FFACF0F931F93CF93DF9395
:100F0000EC01862F4A834FEF5FEF4B835C834DE00C
:100F100050E04D835E8341E050E04F8358871B8A49
:100F20001C8A498B5A8B2D8B3E8B1F8A188E41EC65
:100F30005DEB60EF7FEF49875A876B877C874FE3D4
:100F400052E46FE070E04D875E876F87788B28EB07
:100F500039EA28833983898F0A8F1B8F1C8E1D8E57
:100F600060E0012B09F062E0A2DF2A8D3B8D223088
:100F7000310518F51D821E821F821886898D213049
:100F80003105A1F4ADDB51E040E030E020E081111B
:100F900050E0852F942FA32FB22F89879A87AB8794
:100FA000BC87DF91CF911F910F91089599DB082E97
:100FB000000C990BAA0BBB0BF0CF88E090E08D835F
:100FC0009E8381E090E08F83988789859A85AB85A1
:100FD000BC858D879E87AF87B88BE3CFCF93DF9398
:100FE000EC0160E08E8163DF8E81823188F590E0D4
:100FF000FC01EC5AF645E081EF3F51F184509645F3
:10100000DC018C9190E0DC01AA0FBB1FA050B84C12
:101010002D913C9121153105D9F04E2F50E0440F10
:10102000551F240F351F4AE356E0D9014D935C93B9
:101030002FB7F894E05F75E0880F991F7A95E1F774
:10104000E80FF0E0FC5F8081887F826080832FBFA3
:10105000DF91CF910895FC0164837583672B09F0BC
:10106000BDCF8681823108F4B9C90895FC0162833D
:101070007383672B09F0B2CF8681823108F4AEC941
:101080000895CF93DF93EC01EB85FC8580912008D8
:101090008E7F80932008178260E080E108DF60E0A7
:1010A0008FE005DF60E08EE002DF60E08985FFDE33
:1010B0008D858F3F21F060E0DF91CF91F8CEDF91F9
:1010C000CF9108958F929F92AF92BF92CF92DF926D
:1010D000EF92FF920F931F93CF93DF93EC016A017E
:1010E0007B0161E08985E3DE61E0898584DB8D85B4
:1010F0008F3F91F061E0DBDE60E08D857CDB6AE0B4
:1011000070E080E090E040D961E08D8574DB6AE0BA
:1011100070E080E090E038D9EB85FC858781811113
:1011200006C01086128680E8818781E087838091DF
:1011300001028B7F9681892B809301028681811128
:1011400091C061E08EE0B3DE61E080E1B0DE8091CD
:101150002108846080932108809120088162809317
:101160002008909182388091833890932008809352
:10117000210862E4CE0113DC823109F07CC0E881F1
:10118000F9810680F781E02DCE010995CE86DF86B4
:10119000E88AF98A46015701BB0C8808982C54014B
:1011A0009601A701682D782D882D982D03E10E94C6
:1011B0003612A12CE8E4BE2EF8EECF2EDD24D39417
:1011C000E12CF12C00E010E00E94DA11F22E832EC7
:1011D000942EA52EB62EC72ED82EE92E00E10E9401
:1011E0005112422F66E8CE0194DB2F2D382D492D68
:1011F0005A2D6B2D7C2D8D2D9E2D08E00E945112B5
:10120000422F67E8CE0185DB4F2D68E8CE0181DBF8
:1012100040E06EE8CE017DDB40E06FE8CE0179DB97
:101220006CE0CE01BCDB482F43606CE8CE0171DB83
:1012300044E066EACE016DDBE881F9810084F18546
:10124000E02DCE01099581E090E0DF91CF911F91D3
:101250000F91FF90EF90DF90CF90BF90AF909F9055
:101260008F900895843009F072CF61E08CE01FDE2A
:1012700061E08AE06BCF90E080E0E7CFEF92FF92F1
:101280000F931F93CF937C01C0916D380C2F10E00A
:10129000B8016F5F7F4F660F771F80916B38909119
:1012A0006C380E94A01380936B3890936C38009731
:1012B000D9F0000F111FFC01E00FF11FE082F18255
:1012C000CF5FC0936D382C2F30E021503048220F73
:1012D000331F820F931FFC0180819181CF911F9159
:1012E0000F91FF90EF90089590E080E0F7CF8F93FB
:1012F00081E080938D0A8FB78F93EF93FF93E9E49A
:10130000F8E39F9368948FEF0FC0E89484819581F0
:101310008C5E9F4F84839583885E934010F08FEF9F
:1013200003C0848395838EEF9081981B9193908165
:101330009F4F919390819F4F919390819F4F919355
:1013400026F39F91FF91EF918F918FBF8F91189509
:101350000F9304E006C00F9302E003C00F9300E078
:1013600000C00F920FB60F921F921124FF921F938D
:101370002F933F934F935F936F937F938F939F939D
:10138000AF93BF93CF93DF93EF93FF93A0E0B8E3C6
:10139000A00FB11DCD91DC91000F0D5FA02FB0E02B
:1013A000FC90109761F01F2D169518F041F02296D1
:1013B000FBCFE991F9913097B9F30995F5CFA02FBB
:1013C000B0E0FC92FF91EF91DF91CF91BF91AF918F
:1013D0009F918F917F916F915F914F913F912F914D
:1013E0001F91FF901F900F900FBE0F900F911895B7
:1013F00084E08093833891E39093823820E238E050
:10140000209377383093783810927E3820ED39EA7F
:10141000209384383093853890938B3880938C3820
:1014200010928D3810928E3893E09093913892E01C
:1014300090938A3827E738E320938F383093903899
:1014400010929238109293381092943810929538E6
:1014500022E330E02093AA383093AB381092AD38B5
:101460002DE938E32093AE383093AF381092B4387A
:101470001092B5381092B6381092B73821E0209308
:10148000B3382093B0381092B1389093B23829E035
:1014900030E02093A8383093A93823E030E020933F
:1014A000A6383093A7389CE09093AC3824E434E01D
:1014B0002093B8383093B9388093BA3810929C385A
:1014C00010929B3810929A3810929738E3EBF0E024
:1014D00081E08C3049F09491823009F49F5F21E0E3
:1014E000280F3196992341F08093983881E08093BA
:1014F0009938109296380895822FEBCFCF93DF93CF
:10150000CDB7DEB7E097CDBFDEBF88ED93E084BFF7
:1015100090936100E0E0F6E081E582838AE08583D4
:1015200080E2838381E08083109202028093030A29
:101530009EEF9093260A9093270A99E09093000AD1
:10154000E0E8FAE02DEF31E026A737A7118290E816
:101550009283848781E18083789461E08CE0A7DCCA
:101560006091AD386B3029F12091AE383091AF38B1
:101570006150C9F070E08FEF9AE0B8D6F901409160
:10158000A8385091A938CF01821B930B8417950777
:1015900068F4DF014D91469FC001479F900D1124D3
:1015A0009083FD01ECCF70E060E0E8CF8BE08093AA
:1015B000AD38809100148093553860E083E077DC8B
:1015C00007E011E080910006811140C06FEF70E0EC
:1015D00080E090E00E9495000E941B012FB7F894D4
:1015E00080914D3890914E38A0914F38B09150383D
:1015F0002FBF81319742A105B10508F03AC26CE2D4
:1016000071E080E090E00E94C40160E070E0CB01F6
:101610000E9495000E941B012FB7F89480914D38CD
:1016200090914E38A0914F38B09150382FBF8131F2
:101630009742A105B10508F421C264E670E080E09C
:1016400090E00E94C40110935438BCCF009306066A
:101650001093080680910B0680FFFCCF8091100646
:1016600090911106843691050CF4B0CF2FB7F89401
:1016700080914D3890914E38A0914F38B0915038AC
:101680002FBF81319742A105B10518F08FEF8093EC
:10169000553860E07FEF80E090E00E9495000E9466
:1016A0001B01809155388F3F91F482E38093553828
:1016B0001092533865E578E380E00E94230263E5E9
:1016C00078E381E00E94230281E080935438809186
:1016D0000114809353388EE190E00DD77C0101E036
:1016E00010E02CEA30E041E061E006DCC701C6DD35
:1016F00080937238909373388EE190E0FCD67C0131
:1017000025EA30E042E065E0F7DBC701B7DD809312
:101710006E3890936F388EE190E0EDD67C0110E04A
:1017200000E02BE930E043E064E0E6DBC701A6DD42
:101730008AE190E0E0D68C0185E0D80112968C9386
:10174000129744244A94542C13964D925C92149709
:101750009DE0292E312C15962D923C9216976624E9
:101760006394712C17966D927C92189753961D92E4
:101770001C92549751966D927C92529786E990E014
:1017800055968D939C93569757961D921C925897F9
:1017900031EC832E3DEB932E30EFA32EBB24BA9475
:1017A000F80181869286A386B4864FE3C42E42E474
:1017B000D42E4FE0E42EF12C1D96CD92DD92ED92C9
:1017C000FC925097EAE6F9EAED93FC9311978BE0CF
:1017D00059968C9361E06BDBD80159968C910E94ED
:1017E0007003082E000C990BAA0BBB0BF801818724
:1017F0009287A387B48782E090E0858396831782DF
:101800001086C8013BDD80937438909375388AE167
:1018100090E071D68C0186E0D80112968C931297D5
:1018200013964D925C92149715962D923C921697B2
:1018300017966D927C92189753961D921C9254970E
:1018400051966D927C92529780E990E055968D93D7
:101850009C93569757961D921C925897F801818633
:101860009286A386B4861D96CD92DD92ED92FC926F
:101870005097EAE6F9EAED93FC9311978AE05996BE
:101880008C9361E014DBD80159968C910E9470030F
:10189000082E000C990BAA0BBB0BF80181879287CD
:1018A000A387B48782E090E08583968317821086B1
:1018B000C801E4DC809370389093713889E190E03E
:1018C0001AD6FC0187E0828343825482138A148AE9
:1018D000618A728A89E890E0858B968B178A108ED0
:1018E00081869286A386B486C586D686E786F08AE8
:1018F00082E899EA8083918381E190E085839683F1
:1019000083E090E087839087CF01B8DC8AE392E0A0
:101910008093473890934838109245381092463853
:1019200040E45EE06FEC79E184E898E3CBDB892B5F
:1019300009F4A9C08FEC95E080938638909387389E
:1019400084E898E34BDB8CE496E0809388389093AE
:10195000893884E898E342DB6EE070E084E898E33D
:1019600052DA43EC61EB84E898E30E9489044AE090
:1019700067EB84E898E30E9489046EE184E898E3C9
:101980000ED88F70482F40696EE984E898E30E9472
:10199000890407D86DE184E898E301D88F70482F57
:1019A00040676DE984E898E30E9489040E94D104AD
:1019B0006DE184E898E30E94CF04817F482F426064
:1019C0006DE984E898E30E94890484E898E355D996
:1019D00081E0809396388091543881117BC064E611
:1019E00070E080E090E00E94C40160E070E0CB0114
:1019F0000E9495000E941B01809174389091753867
:101A0000DC01ED91FC910084F185E02D40E050E097
:101A1000BA0109958091703890917138DC01ED918F
:101A2000FC910084F185E02D40E050E0BA01099579
:101A3000AAE5EA2EA8E3FA2EB0E1CB2E10E08091C1
:101A40006D38181708F05AC1812F90E0880F991F40
:101A5000E0916B38F0916C38E80FF91F808191812B
:101A6000DC01ED91FC910088F189E02D09951F5F63
:101A7000E6CF64E670E080E090E0C5CD6CE271E016
:101A800080E090E0DECD60E070E08FEF90E00E94BB
:101A900095000E941B0113E064E670E080E090E096
:101AA0000E94C40160E070E0CB010E9495000E949A
:101AB0001B0164E670E080E090E00E94C40160E0F9
:101AC00070E08FEF90E00E9495000E941B01115082
:101AD00019F785CF8FEF809353388E010D5D1F4F1F
:101AE000EEE0FE2EF8012F2D11922A95E9F78EEFE8
:101AF00089A38DE08AA383E08BA346E050E062E8EF
:101B000070E0CE018496CCD130E020E0AE014F5D94
:101B10005F4F609155388091533857D9D8011D9245
:101B2000FA94E9F745E050E06CE770E0C801B8D1FD
:101B300022E030E0AE014F5D5F4F609155388091FB
:101B4000533843D91BA227E030E0AE014F5D5F4F11
:101B5000609155388091533838D9D12C5E01B3E16A
:101B6000AB0EB11CFEE0CF2E80916D38D81608F078
:101B70008FC08D2D90E0880F991FE0916B38F09108
:101B80006C38E80FF91F00811181F80182818823E8
:101B900009F47CC0D501EC2D1D92EA95E9F7898BFB
:101BA000D80115968C9115978A8B17968C9117975B
:101BB0008B8B5596ED90FC90C70169D1AC015527F0
:101BC0004E30510510F04DE050E0B701CE01449683
:101BD00067D130E020E0AE014F5E5F4F6091553835
:101BE00080915338F2D8F8016788708C61147104C1
:101BF00051F1C3014CD14C01892B29F1D801129626
:101C00008C9189837401FF24A701BFE0EB16F104D6
:101C100010F04EE050E0B301CE01039641D1EDE06B
:101C2000E81538F0E3E0F0E0EC0FFD1FEE0DFF1DCE
:101C3000108221E030E0AE014F5F5F4F6091553878
:101C400080915338C2D8D801ED91FC910288F38974
:101C5000E02DC8010995F5012C2D11922A95E9F77F
:101C6000D80112968C911297898B15968C911597A5
:101C70008A8B17968C918B8B27E030E0AE014F5EFC
:101C80005F4F60915538809153389FD8D3946CCF73
:101C900053E0C52ED12CE12CF12C812C912C540138
:101CA0008A94939480915438882309F498CE2FB75E
:101CB000F89460914D3870914E3880914F389091E2
:101CC00050382FBFA701960125D3CA01B901A5013C
:101CD000940120D36F5F710977FF03C071956195FF
:101CE0007109072E000C880B990B982F872F762FE0
:101CF00066270E9495000E941B01D4CF8091743802
:101D000090917538DC01ED91FC910280F381E02D1A
:101D100009958823D9F08091723890917338DC014D
:101D2000ED91FC910280F381E02D0995882371F0FB
:101D30008091743890917538DC01ED91FC910084AC
:101D4000F185E02D40E050E0BA01099580917038AE
:101D500090917138DC01ED91FC910280F381E02DCE
:101D600009958823D9F080916E3890916F38DC0105
:101D7000ED91FC910280F381E02D0995882371F0AB
:101D80008091703890917138DC01ED91FC91008464
:101D9000F185E02D40E050E0BA010995D12C809109
:101DA0006D38D81608F04ACE8D2D90E0880F991F17
:101DB000E0916B38F0916C38E80FF91F00811181C8
:101DC000F801418552856385748585859685841BD8
:101DD000950B97FF03C0919581959109D801539672
:101DE0002D913C915497281739070CF032C0129668
:101DF0008C911297882369F1F80145875687678788
:101E0000708B0580F681E02DED30F10510F5E65F71
:101E1000F04FBEC2170F170F170F290F2B0F290FE7
:101E2000290F2B0F170F290F290F2B0F170F409377
:101E30005A3850935B3860935C3870935D38519694
:101E40008D919C9180935E3890935F38C8010E9479
:101E5000CC06D394A4CFED91FC910680F781E02DC0
:101E6000C8010995FC0101900020E9F73197D701DD
:101E70002C2D1D922A95E9F7E81BE13108F0E0E1ED
:101E80004E2F50E0BC018AE598E319D5DFCFFC0165
:101E900005900020E9F7809590958E0F9F1F08957B
:101EA000FB01DC014150504048F005900D920020AC
:101EB000C9F701C01D9241505040E0F708955058B5
:101EC000BB27AA270ED075C166D130F06BD120F0A8
:101ED00031F49F3F11F41EF45BC10EF4E095E7FB73
:101EE00051C1E92F77D180F3BA17620773078407CE
:101EF000950718F071F49EF58FC10EF4E0950B2E46
:101F0000BA2FA02D0B01B90190010C01CA01A0014B
:101F10001124FF27591B99F0593F50F4503E68F1A6
:101F20001A16F040A22F232F342F4427585FF3CFE7
:101F3000469537952795A795F0405395C9F77EF4B8
:101F40001F16BA0B620B730B840BBAF09150A1F001
:101F5000FF0FBB1F661F771F881FC2F70EC0BA0F87
:101F6000621F731F841F48F4879577956795B7950F
:101F7000F7959E3F08F0B3CF9395880F08F0992707
:101F8000EE0F979587950895D9D008F481E00895CC
:101F90000CD00FC107D140F0FED030F021F45F3FEC
:101FA00019F0F0C0511139C1F3C014D198F399233D
:101FB000C9F35523B1F3951B550BBB27AA2762170D
:101FC0007307840738F09F5F5F4F220F331F441F52
:101FD000AA1FA9F333D00E2E3AF0E0E830D091508A
:101FE0005040E695001CCAF729D0FE2F27D0660F77
:101FF000771F881FBB1F261737074807AB07B0E8B6
:1020000009F0BB0B802DBF01FF2793585F4F2AF0CB
:102010009E3F510568F0B6C000C15F3FECF3983EAB
:10202000DCF3869577956795B795F7959F5FC9F728
:10203000880F911D9695879597F90895E1E0660FB1
:10204000771F881FBB1F621773078407BA0720F02A
:10205000621B730B840BBA0BEE1F88F7E095089593
:1020600004D06894B111D9C00895BCD088F09F57AE
:1020700090F0B92F9927B751A0F0D1F0660F771FD4
:10208000881F991F1AF0BA95C9F712C0B13081F0B4
:10209000C3D0B1E00895C0C0672F782F8827B85FFC
:1020A00039F0B93FCCF3869577956795B395D9F715
:1020B0003EF490958095709561957F4F8F4F9F4F1F
:1020C0000895E89409C097FB3EF49095809570952B
:1020D00061957F4F8F4F9F4F9923A9F0F92F96E974
:1020E000BB279395F695879577956795B795F111E9
:1020F000F8CFFAF4BB0F11F460FF1BC06F5F7F4F86
:102100008F4F9F4F16C0882311F096E911C0772397
:1021100021F09EE8872F762F05C0662371F096E8A0
:10212000862F70E060E02AF09A95660F771F881F6F
:10213000DAF7880F9695879597F90895990F000813
:10214000550FAA0BE0E8FEEF16161706E807F90789
:10215000C0F012161306E407F50798F0621B730B24
:10216000840B950B39F40A2661F0232B242B252BA5
:1021700021F408950A2609F4A140A6958FEF811D48
:10218000811D089597F99F6780E870E060E00895E9
:102190009FEF80EC089500240A941616170618067F
:1021A0000906089500240A9412161306140605065B
:1021B0000895092E0394000C11F4882352F0BB0FEC
:1021C00040F4BF2B11F460FF04C06F5F7F4F8F4F4F
:1021D0009F4F089557FD9058440F551F59F05F3F8A
:1021E00071F04795880F97FB991F61F09F3F79F039
:1021F00087950895121613061406551FF2CF4695BB
:10220000F1DF08C0161617061806991FF1CF86953C
:102210007105610508940895E894BB276627772720
:10222000CB0197F908950BD0C4CFB5DF28F0BADF02
:1022300018F0952309F0A6CFABCF1124EECFCADF5B
:10224000A0F3959FD1F3950F50E0551F629FF001C9
:10225000729FBB27F00DB11D639FAA27F00DB11D22
:10226000AA1F649F6627B00DA11D661F829F2227AB
:10227000B00DA11D621F739FB00DA11D621F839F32
:10228000A00D611D221F749F3327A00D611D231F08
:10229000849F600D211D822F762F6A2F11249F5756
:1022A00050408AF0E1F088234AF0EE0FFF1FBB1F79
:1022B000661F771F881F91505040A9F79E3F510518
:1022C00070F060CFAACF5F3FECF3983EDCF38695C9
:1022D00077956795B795F795E7959F5FC1F7FE2BC3
:1022E000880F911D9695879597F90895AA1BBB1B9A
:1022F00051E107C0AA1FBB1FA617B70710F0A61B06
:10230000B70B881F991F5A95A9F780959095BC0126
:10231000CD010895A1E21A2EAA1BBB1BFD010DC021
:10232000AA1FBB1FEE1FFF1FA217B307E407F50785
:1023300020F0A21BB30BE40BF50B661F771F881F61
:10234000991F1A9469F760957095809590959B01F7
:10235000AC01BD01CF010895052E97FB16F4009442
:102360000FD057FD05D0D6DF07FC02D046F408C0D9
:1023700050954095309521953F4F4F4F5F4F0895B1
:1023800090958095709561957F4F8F4F9F4F0895E1
:10239000EE0FFF1F0590F491E02D09949DD0A59FAD
:1023A000900DB49F900DA49F800D911D1124089550
:1023B000689401C0E8948F929F92CF93DF9305D0E9
:1023C000DF91CF919F908F90089588249924F401F4
:1023D000E401B0E49F93AA279A158B049C04ED05B1
:1023E000FE05CF05D007A10798F4AD2FDC2FCF2F26
:1023F000FE2FE92D982C892E982F872F762F652F69
:10240000542F432F322F2227B85031F7BF9127C0C6
:102410001B2EBF91BB27220F331F441F551F661F62
:10242000771F881F991F881C991CEE1FFF1FCC1F48
:10243000DD1FAA1FBB1F8A149B04EC05FD05CE05FA
:10244000DF05A007B10748F08A189B08EC09FD09D1
:10245000CE09DF09A00BB10B21601A94E1F62EF42E
:102460009401AF01BE01CD01000C0895002E08308B
:1024700090F0982F872F762F652F542F432F322FD0
:1024800022270850F4CF220F331F441F551F661F09
:10249000771F881F991F0A95B2F7002D089597FDA1
:1024A0001094002E083098F00850232F342F452F19
:1024B000562F672F782F892F912DF4CF159497954C
:1024C00087957795679557954795379527950A95F9
:1024D000AAF71124002D0895A29FB001B39FC00157
:1024E000A39F700D811D1124911DB29F700D811D40
:1024F0001124911D08950F931F93CF93DF93823082
:10250000910510F482E090E0E091BD38F091BE3882
:1025100030E020E0B0E0A0E0309799F421153105DB
:1025200009F44AC0281B390B24303105D8F58A81BB
:102530009B816115710589F1FB0182839383FE0103
:1025400011C0408151810281138148175907E0F081
:102550004817590799F4109761F012960C93129747
:1025600013961C933296CF01DF91CF911F910F915B
:1025700008950093BD381093BE38F4CF211531056E
:1025800051F04217530738F0A901DB019A01BD0150
:10259000DF01F801C1CFEF01F9CF8093BD389093EF
:1025A000BE38CDCFFE01E20FF31F819391932250ED
:1025B000310928833983D7CF2091BB383091BC387B
:1025C000232B41F420910838309109382093BB38EF
:1025D0003093BC38209106383091073821153105E9
:1025E00041F42DB73EB740910A3850910B38241B67
:1025F000350BE091BB38F091BC38E217F307A0F43B
:102600002E1B3F0B2817390778F0AC014E5F5F4F48
:102610002417350748F04E0F5F1F4093BB38509387
:10262000BC38819391939FCFF0E0E0E09CCFCF93B3
:10263000DF930097E9F0FC01329712821382A09198
:10264000BD38B091BE38ED0130E020E01097A1F424
:1026500020813181820F931F2091BB383091BC388B
:102660002817390709F061C0E093BB38F093BC38F4
:10267000DF91CF910895EA01CE17DF07E8F54A818F
:102680005B819E0141155105B1F7E901EA83FB83A6
:1026900049915991C40FD51FEC17FD0761F4808152
:1026A00091810296840F951FE90188839983828125
:1026B00093818A839B83F0E0E0E012968D919C9158
:1026C00013970097B9F52D913C911197CD01029682
:1026D000820F931F2091BB383091BC3828173907DF
:1026E00039F6309751F51092BD381092BE38A0934C
:1026F000BB38B093BC38BCCFC283D38340815181F7
:10270000840F951FC817D90761F44E5F5F4F88810A
:102710009981480F591F408351838A819B8182830D
:1027200093832115310509F0B0CFE093BD38F093C4
:10273000BE389ECFFD01DC01C0CF12821382D7CFFD
:10274000B0E0A0E0E5EAF3E1CBC08C01009741F4F2
:10275000CB01D1DE8C01C801CDB7DEB7E0E1D9C035
:10276000FC01E60FF71F9C0122503109E217F30725
:1027700008F499C0D901CD91DC911197C617D707FC
:1027800090F0C530D10538F3CE010497861797072E
:1027900010F3C61BD70B2297C193D1936D937C93F3
:1027A000CF0145DFD8CF5B01AC1ABD0A4C018C0EBE
:1027B0009D1EA091BD38B091BE38512C412CF12CFA
:1027C000E12C109731F58091BB389091BC38881579
:1027D000990509F05CC04616570608F058C080916C
:1027E000063890910738009741F48DB79EB7409115
:1027F0000A3850910B38841B950BE817F90708F03D
:1028000052C0E093BB38F093BC38F9016083718308
:10281000A2CF8D919C91119712966C90129713965E
:102820007C901397A815B90559F56C0142E0C40EC8
:10283000D11CCA14DB0420F1AC014A195B09DA018E
:102840001296159780F06282738240835183D9017A
:102850006D937C93E114F10471F0D7011296ED931E
:10286000FC93139778CF22968C0F9D1FF9018083DC
:102870009183F301EFCFE093BD38F093BE386BCF77
:102880004816590608F42C017D01D3019ACFCB01DB
:1028900032DE7C01009739F0AE01B80107D0C801E3
:1028A000C6DE870158CF10E000E055CFFB01DC0108
:1028B00002C001900D9241505040D8F70895FB019D
:1028C000DC014150504048F001900D920020C9F7C2
:1028D00001C01D9241505040E0F708952F923F9261
:1028E0004F925F926F927F928F929F92AF92BF9220
:1028F000CF92DF92EF92FF920F931F93CF93DF93CC
:10290000CDB7DEB7CA1BDB0BCDBFDEBF09942A886B
:10291000398848885F846E847D848C849B84AA84F3
:10292000B984C884DF80EE80FD800C811B81AA8180
:10293000B981CE0FD11DCDBFDEBFED010895F89452
:02294000FFCFC7
:102942001010800000000010101040400000000035
:10295200100004050607050403020100000102033A
:10296200010203000000000094038B0339033603C5
:102972002F07F002FF02FB02EF02EF02000000004D
:102982006A035D033903FC0230032503FF02FB02E5
:10299200EF02EF02781E00A02800F03C0040510038
:1029A200127A00E4A20024F40048E80190D0032047
:1029B200A107000000006A035D03390336033003F8
:1029C2002503FF02FB029D03EF02000000006208E4
:1029D20041084305C904CC040307A6055A063D066F
:1029E200040636082B082C0510204080201008040D
:1029F20002010102040802040801000000000101B2
:0E2A02000101010102020202000000003F007B
:0C2A1000203814380C380000BF3880005B
:00000001FF
