:1000000004C6000036C6000034C600000C940C176D
:100010000C9409170C9406172CC600002AC6000081
:1000200028C6000026C6000024C6000022C6000024
:1000300020C600001EC600001CC600000C94D51689
:1000400018C6000016C6000014C6000012C6000044
:1000500010C600000EC600000CC600000AC6000054
:100060000C94561706C6000004C600000C945516E2
:100070000C944F160C945B16FCC50000BF020302E3
:100080000304010204070D00FE09FE090001BA0382
:10009000AD0B6F2006EFFCF97F210AEFFC6971DFE1
:1000A000E19C06220CEFFC4949988449CE9F00232D
:1000B00011EFFC999230C9062DC9062D09939C09B0
:1000C000240FEFFCD9D2214AD23589863467032523
:1000D0000FEFFC2959526A8DD3524B2D2701261060
:1000E000EFFCB9885116856294D4B225A700270980
:1000F000EFFC69719DBF01280DEFFC89699CC6F575
:1001000038CF4900290DEFFC49799CC7D538CD89F6
:10011000002A0DEFFCB944A1366C629473022B0CDB
:10012000EFFCB9C5E120C63937002C0AEFFCF9A76E
:1001300051CC51002D09EFFCF932E87C012E0AEF79
:10014000FCF9B774CD31002F0DEFFCA9711AA7E5AA
:1001500034CEA9003011EFFC4962544CC2244CC289
:10016000248C8A3A0D310CEFFC69A998C43D0E3AF3
:10017000053210EFFC29431426619C86621A0F3B5E
:1001800005330FEFFCF1614EAB7B9C84D190930063
:100190003411EFFC89A99864512DCAA2618D7312A4
:1001A000003510EFFCF161892B931657C268C849DE
:1001B000003611EFFC495B1A57262D0993301A724D
:1001C0001200370DEFFCF1614ECB699CC639153832
:1001D00014EFFC294314266112464314266112468B
:1001E000434E023911EFFC294314266192494B5CBE
:1001F000CD761A003A0CEFFCB9A56B4E4ED71C0316
:100200003B0CEFFCB9A56B4E1DC51C053C09EFFC72
:10021000A9BD77A7003D0BEFFCB90F3B65D8B9002E
:100220003E0AEFFC2979D7EE54003F0FEFFC29433B
:100230001426619C967338A7014014EFFC294314DF
:100240002661122DA5A4A244497DC849004113EF9F
:10025000FC4962544CC2244C86254CC224CC290053
:100260004213EFFCF1412B6551160D59298BB264F5
:10027000D04900430EEFFC29431426718FD190938F
:10028000004413EFFCF1412B655116655116655181
:10029000960C3A09450EEFFCF16189CB431697871E
:1002A0009D02460DEFFCF16189CB4316B7930147E0
:1002B00011EFFC2943142671D3122699B4E41400DB
:1002C0004814EFFCF1300993300993610993300928
:1002D0009330A700490CEFFC298318F771D029004F
:1002E0004A0CEFFC696BDC5396ED34004B12EFFCCB
:1002F000F130C9A25A12AA491865A530A7004C0AC4
:10030000EFFCF1B89F879D024D14EFFCF130911482
:100310004949948A524CC2244CC29C024E14EFFCB0
:10032000F13009132D2925515253C2244CC29C028D
:100330004F14EFFC29431426611226611226611224
:1003400046434E025010EFFCF1410A9330099341AD
:100350008ADBC9005116EFFC29431426611226617D
:100360001226A5244AA221CF11005213EFFCF1411D
:100370000A93300993414AC2282B8539055311EF5E
:10038000FC29431426713EE4711246434E02540A7E
:10039000EFFC298318F73B0D5514EFFCF13009935E
:1003A0003009933009933009A32127015611EFFC3E
:1003B000F130099330AA455914AA761A005715EF5F
:1003C000FCF130099330099344A92889A4484A983C
:1003D00053005812EFFCF13009A35A148A51161534
:1003E0009330A700590EEFFC29599455C2248DBBB8
:1003F000D3005A0DEFFCF1614EAB6AF3B053005BD2
:100400000CEFFC91218BFBF39043005C0DEFFC297A
:10041000711EE7E53CCE29005D0BEFFC9121EEDF7C
:10042000861C025E0BEFFC696992D5F90B005F092F
:10043000EFFCF9EFC38E006009EFFCA13CE7BF01C0
:10044000610FEFFC7919F26850C22493969C026206
:1004500011EFFCF1B865D2923009132D49761200E4
:10046000630EEFFC7919A230898BD190930064114F
:10047000EFFCA97169A92961122699B4E4140065F9
:100480000FEFFC7919A2301996388C869C04660D02
:10049000EFFC495B294E87306EA7026710EFFC79AD
:1004A000596A51966DF91085D110016811EFFCF170
:1004B000B865D2923009933009730A00690CEFFCD9
:1004C000D97254EE38E814006A0DEFFC597354EEFB
:1004D00094455936016B0FEFFCF1B82DAA8D51569A
:1004E0000A730A006C0AEFFC49723F0E3A056D115F
:1004F000EFFC7951B2A49494925252CA720A006EDF
:1005000010EFFCB927939684499884499853006F5B
:1005100010EFFC7919A23009933009A3212701704B
:100520000FEFFCB927939684899624535C06710ECD
:10053000EFFC79596A4A9864D212B700720BEFFC4B
:10054000B9275B296EA702730FEFFC7919A230D28D
:10055000A5301A721200740DEFFC59E27408E3B66C
:100560006C27017510EFFCB987499884499864D2CB
:10057000925300760FEFFC79C9A22CCA2A6192E649
:1005800034007710EFFC79C9A22C4A4A4929A925E1
:100590003909780DEFFCB987515115A3624E0179E5
:1005A00011EFFCB98749988449262D7112464304FE
:1005B0007A0BEFFCB90F6BD761A7007B0DEFFCB195
:1005C0002DAE877A1AD777047C09EFFC69717FA773
:1005D000017D0DEFFC913DAEE6621ED7760C7E0AE2
:1005E000EFFC492DA53A7F02A006EFFCF97FA10A96
:1005F000EFFC6939DCEF3400A210EFFC69E9969456
:1006000092300993DA9AB301A30EEFFC495B294EAD
:10061000D7B896243B09A410EFFCD9C368C8A22C14
:10062000CA8628CC5900A511EFFCF12CCA2A619288
:100630000D623888714E04A60AEFFC69713BDC9D9F
:1006400006A711EFFC2131CA7231CAA250CFA250C5
:10065000A701A80BEFFC295116E5FC1300A915EF23
:10066000FC2943142689D2949492529228C568C8D2
:100670004900AA0FEFFC497B36445936E4D0A073F9
:1006800001AB11EFFCD9922CC9922C4993344993B8
:100690009C05AC0AEFFCF932C8752E00AD09EFFCE1
:1006A000F932E47C02AE15EFFC2943142689D2A26C
:1006B0005494446951C268C84900AF09EFFC2983CA
:1006C000CE7F01B00CEFFC49629445A1CE6F00B122
:1006D0000EEFFCD9E27010E31C1C741600B20CEF94
:1006E000FCA13489D3F2CE3700B30CEFFC9139CDA5
:1006F000C324CDF908B409EFFCB134E73F02B511CA
:10070000EFFCB9874998844998484AA2D46100B659
:1007100014EFFC2983B2444BB4644A98844998840A
:10072000494E02B708EFFCF9A4F30DB808EFFCF945
:10073000DFD210B90AEFFCA1546EDDF906BA0EEF54
:10074000FC49629445A10E0E394F00BB11EFFCE944
:10075000499AA4499A6449966449CE08BC10EFFCB2
:1007600091546E4B1631099370CE2900BD0EEFFCEB
:1007700091546E8A86244ECB3B05BE10EFFCE734C5
:100780000F93A824266112CE3905BF0EEFFC49391C
:100790005C2D8749180D3909C012EFFCA13C47C5F3
:1007A000A89884C9B08449985300C112EFFCB134B1
:1007B00087C5A89884C9B08449985300C213EFFC38
:1007C0002131CA41312A2661322C6112E61400C35C
:1007D00013EFFC11298974508C8A49980C4B98842A
:1007E0003905C413EFFC91288B72508C8A49980C00
:1007F0004B98843905C513EFFC21310A55312A265F
:1008000061322C6112E61400C614EFFC29C9524C67
:10081000C2244CA63109933019720A00C70EEFFCAE
:1008200029431426718FD1901601C810EFFCA13C0A
:10083000C786258E872C8E879D02C910EFFCB134A8
:100840000787258E872C8E879D02CA11EFFC2131E8
:10085000CAA16189E3218BE361A700CB12EFFC9170
:10086000288B726858E278C8E278D82900CC0EEF5D
:10087000FCA13C070731EE38E81400CD0EEFFCB1C7
:1008800034470731EE38E81400CE0EEFFCB134C91E
:10089000B1418C3B0E3A05CF0FEFFC912CCA726828
:1008A00010E38E834E01D013EFFCF1412B6551967E
:1008B0004CB5288BB264D04900D115EFFC112989C1
:1008C00074284CB4A494949228A929614E01D2139F
:1008D000EFFCA13C0787284CC2244CC2248C869C88
:1008E00004D313EFFCB1344787284CC2244CC224F4
:1008F0008C869C04D414EFFC2131CAB1210A9330B8
:1009000009933009A3212701D515EFFC112989741A
:100910006C88C2244CC2244CC268C84900D615EF6A
:10092000FC91288B726C88C2244CC2244CC268C8CB
:100930004900D70DEFFCD9C3A8A88A51316701D867
:1009400016EFFCD1688832254A4A4953524A4A89EF
:10095000160D510E03D913EFFCA13CC7C2244CC2A3
:10096000244CC2248C869C04DA13EFFCB134072B90
:100970006112266112266134E42400DB14EFFC21AD
:1009800031CAA13009933009933009A3212701DC32
:1009900015EFFC91288B72284CC2244CC2244CC207
:1009A00068C84900DD0EEFFCC13407B328ABA47161
:1009B0003B0DDE10EFFCF17890C2244CC26490E253
:1009C0003A19DF13EFFC4962944559122661949558
:1009D000B228D14900E011EFFC49790E0E79342894
:1009E0006192494B4E01E111EFFC69698E0E793439
:1009F000286192494B4E01E212EFFC496294634335
:100A00001E0D4A9864D2925300E313EFFC29521250
:100A1000E9D8904783122699B4E41400E413EFFC5C
:100A2000295116E5D8904783122699B4E41400E5BD
:100A300013EFFC21310A7570C8A34109934C5A7217
:100A40000A00E611EFFC7951D2241A94288B9248BF
:100A5000C94900E70EEFFC7919A230898BD19016B5
:100A600001E811EFFC49790E0E51980C4B1C4643DE
:100A70004E02E911EFFC69698E0E51980C4B1C4631
:100A8000434E02EA12EFFC49629463431426C312F8
:100A900087D1909300EB13EFFC295116E5D8108510
:100AA000C9B0C46134E42400EC0CEFFC49798ECA6F
:100AB0001D079D02ED0CEFFC69690ECB1D079D0221
:100AC000EE0DEFFC4962948372C741A700EF0EEF71
:100AD000FC295116E5A0DC71D02900F014EFFC913F
:100AE0002814933C1BA23009933009A3212701F15C
:100AF00013EFFC295212E9503269499884499884CD
:100B00003905F212EFFC49790E0E51988449988408
:100B1000D1909300F312EFFC69698E0E51988449CD
:100B20009884D1909300F413EFFC496294634314CA
:100B3000266112266134E42400F513EFFC295212D9
:100B4000E9D8108549988449180D3909F613EFFC46
:100B5000295116E5D8108549988449180D3909F7A7
:100B60000DEFFCD9E21C1C7430CED900F812EFFC5A
:100B7000B94643942951D29468D110E53000F91256
:100B8000EFFC49798E85499884499864D292530044
:100B9000FA11EFFC69690E56C2244CC22493969C4C
:100BA00002FB13EFFC4962944361122661122699FD
:100BB000B4E41400FC13EFFC295116E55098844965
:100BC000988449262D3905FD13EFFC69690E56C23C
:100BD000244C32698993301A2200FE11EFFCE9712E
:100BE00065D2923009132D49A63806FF15EFFC296E
:100BF0005116E5509884499864D212276134440014
:100C000000000004FFFF0000FC1711241FBECFEFFF
:100C1000CDBFDFE3DEBF80914000809340008111B3
:100C200005C098ED21E094BF209341008CBB18E3F0
:100C3000A0E0B8E3ECECF2E402C005900D92A6301F
:100C4000B107D9F72AE3A6E0B8E301C01D92A439A1
:100C5000B207E1F716E0C5E0D6E004C02197FE0137
:100C60000E946F20C430D107C9F70E9415190C9457
:100C7000AB20C6C9662329F06A3019F0862F90E0B0
:100C800008958FEF9FEF0895AF92BF92CF92DF92BA
:100C9000EF92FF920F93CF93DF93EC01DA0179018A
:100CA000942F9770E1E0F0E09F01092E01C0220F20
:100CB0000A94EAF7522F6E018AE8C80ED11CF60199
:100CC000808140E0823018F4422F813049F15D018B
:100CD000F8EFAF22E8ADF9AD28813981D9015096FE
:100CE0008C918A9D90018B9D300D1124620F731F92
:100CF000DF01A60FB71F01111AC0EA0EFB1E8C916F
:100D0000842B85278D93AE15BF05C9F7DF91CF9151
:100D10000F91FF90EF90DF90CF90BF90AF9008952C
:100D200050E0D5CF440F550FE114F10479F33C9115
:100D3000342B35273C939F5F9770E1E0EE1AF10862
:100D40009111F0CF2CAD3DADA20FB31FF601808104
:100D5000823028F4813009F051E041E0E5CF51E0E4
:100D6000E3CF80E0089590E080E0089581E08093F3
:100D7000603A08959B01DC011896ED91FC9141E0E9
:100D800067E10994AF92BF92CF92DF92EF92FF9208
:100D90000F931F93CF93DF936C017B018B01040FA3
:100DA000151FEB015E01AE18BF08C017D10759F03F
:100DB0006991D601ED91FC910190F081E02DC60181
:100DC0000995892B79F7C501DF91CF911F910F917B
:100DD000FF90EF90DF90CF90BF90AF900895FC010F
:100DE00057854089252F30E0842F90E0821B930B9C
:100DF000541710F0CF96089501970895FC0195853A
:100E00008685981761F0A685AE0FBF2FB11D51964C
:100E10008C9196859F5F9F73968790E008958FEFE2
:100E20009FEF0895FC0195858685981731F086859A
:100E3000E80FF11D818990E008958FEF9FEF0895ED
:100E4000FC0195852685892F90E0805C9F4F821B51
:100E500091098F7399270895DC010FB607FE04C02E
:100E6000809111018823B9F01896ED91FC911997A2
:100E7000848185FF10C01F969C911F9750968C917E
:100E8000981304C085818F7D85830895EDE7F8E38D
:100E9000E8940C94681608950F931F93CF93DF93F3
:100EA000EC018C8581608C879F85888998130BC0A5
:100EB000E885F985848185FF06C08C8581FD0DC09C
:100EC00080E4848312C0062F1F851F5F1F738889EB
:100ED000811315C0CE01C0DFFACF85818F77806482
:100EE00090E49483E885F9858583E885F9856283B4
:100EF00081E090E0DF91CF911F910F910895EF85F0
:100F0000EC0FFD2FF11DEF5AFF4F00831F878C85DB
:100F1000E885F98581FF09C085818F77806690E437
:100F20009483E885F9858583E3CF85818062FBCF53
:100F3000CF93DF93EC018C8580FF0BC0E885F985AA
:100F4000858185FD03C0848186FD03C0CE0184DFD9
:100F5000F5CFDF91CF9108959FB7F89488E0809303
:100F6000840A80918E0A81FFFCCF80918D0AE091E6
:100F7000A20AF091A30A2091603830916138409123
:100F80006238509163389FBF80FF07C0E730F1059A
:100F900020F42F5F3F4F4F4F5F4FAEEFB1E00E9405
:100FA00065206E0F7F1F811D911D660F771F881FA3
:100FB000991F0895CF92DF92EF92FF92CF93DF9324
:100FC0006B017C01C9DFEB01C114D104E104F10420
:100FD00041F412C081E0C81AD108E108F108C851F3
:100FE000DC4FBADF6C1B7D0B683E734068F3C114A5
:100FF000D104E104F10471F7DF91CF91FF90EF90FC
:10100000DF90CF900895059721F481E090E001975B
:10101000F1F70895DC011896ED91FC9184818860C8
:10102000848308959C012B5E3F4FDC015396EC9125
:10103000539752968C91E81730F4E20FF32FF11D7D
:10104000808190E008958FEF9FEF0895FC01DC010F
:10105000559693898289981740F4A90FB11D2C9158
:101060009F5F938B822F90E008958FEF9FEF0895FD
:10107000FC0182899389891B990B0895FC01A2893F
:10108000A03258F4A80FB92FB11D55966C938289E0
:101090008F5F828B81E090E0089590E080E008957A
:1010A000BF92CF92DF92EF92FF920F931F93CF9355
:1010B000DF937C016A01B62EEB010C2F0B1910E0B7
:1010C0000C151D0528F46991C701D8DF892BA9F7F4
:1010D000C801DF91CF911F910F91FF90EF90DF90AA
:1010E000CF90BF900895DC011A96ED91FC9130E00D
:1010F00020E00994DC011696ED91FC9130E020E0AF
:1011000040E069E10994DC011696ED91FC9130E034
:1011100020E040E068E109949A01DC011696ED9127
:10112000FC91462F67E10994EF92FF920F931F9372
:10113000CF93DF931F92CDB7DEB77C018B01D8012F
:101140006C91673121F150F4653198F40F90DF9183
:10115000CF911F910F91FF90EF9008956A3108F1A0
:101160006E3FA1F7F8014181498369E2C701BBDF06
:101170000BC0F80141814983D7011696ED91FC918E
:1011800030E020E0C70109950E5F1F4FD8CFF8016E
:1011900081818983AE014F5F5F4F61E0C701BCDF92
:1011A000F3CF0F5F1F4FD7011696ED91FC9130E002
:1011B00020E040E0C7010995C2CF462FDC0116961A
:1011C000ED91FC9130E020E066E10994462FDC01CE
:1011D0001696ED91FC9130E020E065E10994EF92E4
:1011E000FF920F931F93CF93DF93EC01042F7901AC
:1011F0006D3009F43FC050F46B3099F1693009F457
:101200008CC06A3009F458C080E03EC06E3009F4EA
:1012100049C06F3099F777DFF7011381110F110F74
:10122000110F6C89160F60E4CE01D0DF612F62953B
:101230006F706061CE01CADF612F6F70CE01BDDFBC
:10124000F7016481606BCE01B8DFF7014081518105
:101250006281660F660F660FCE015EDF0150A9F74F
:1012600028C06DE671EC442311F068E671ECCE0104
:101270005BDF09C041110FC061E671EC55DFE88109
:10128000F98182898C8B81E0DF91CF911F910F9141
:10129000FF90EF9008956AE571EC46DFE881F981EF
:1012A0008389F0CF30DF61E8CE0190DF602FCE017F
:1012B00084DFCE011FDFE7CFEA85FB8530E020E049
:1012C00040E068E2CE010995EE81FF8130E020E048
:1012D00040E064E1CE01099541E06BE4CE0103DF1B
:1012E000E881F981448169E2CE01FDDE40E06BE4F2
:1012F000CE01F9DEE881F981448169E2CE01F3DEB5
:1013000041E06BE4CE01EFDEE881F981458169E2DD
:10131000CE01E9DE62E771ECAACF87EA91EC88831F
:1013200099831C8AB0CFDC011896ED91FC9130E0D6
:1013300020E040E069E10994DC011896ED91FC9110
:1013400030E020E040E068E10994CF93DF931F9202
:10135000CDB7DEB76983BE016F5F7F4F0BDD0F90A6
:10136000DF91CF910895EF92FF921F93CF93DF9378
:10137000EC01162F7A01E0DF60E4CE01E6DFE885BC
:10138000F9859701412F67E1CE010995CE01DF91E3
:10139000CF911F91FF90EF90C6CFEF92FF921F93D6
:1013A000CF93DF93EC01142F7901663159F138F4B2
:1013B000643109F442C0653171F080E01DC06831CC
:1013C00089F120F16931C9F780915A38882351F1A8
:1013D000CE01A9DF27C080915A38882311F0CE01B1
:1013E000A2DFCE01A9DF60E0CE01AFDF612FCE0129
:1013F000ACDF81E080935A38DF91CF911F91FF904D
:10140000EF900895642FA1DF81E0F6CF80915A38E4
:10141000882311F0CE0187DFA701193130F4612F45
:10142000CE01A1DF10925A38EFCF68E1CE019BDFE9
:10143000185188E1E80EF11CEFCF8E898F3F11F42F
:1014400088E78E8BE885F9859701412F64E1CE010D
:10145000DF91CF911F91FF90EF9009940F93FC01C2
:10146000E05CFF4F0190F081E02D4E1B5F0BDC0133
:10147000D496ED91FC9109950F910895CF93DF9348
:10148000FC01A081B18182AD90E09C0143E0220F7C
:10149000331F4A95E1F726AF37AF50962C915097FE
:1014A00048E0249F9001112424AF35AF23AD30E0F4
:1014B000B90153E0660F771F5A95E1F7EF01C05C61
:1014C000DF4F6883798351964C915197E901C80F9A
:1014D000D91F50E04C175D0718F4CA01821B930B0B
:1014E000EF01CE5BDF4F68837983229623E0880F7C
:1014F000991F2A95E1F7860F971F88839983229673
:1015000054968D919C91559788839983E85BFF4F02
:1015100056968D919C9180839183DF91CF91089510
:101520000F931F93FC01E25BFF4F0190F081E02DD0
:10153000DC01A05BBF4F0D90BC91A02D4A175B074B
:1015400040F4E017F10748F00417150730F080E089
:1015500019C0E017F107C0F3FACFFC01E65BFF4FBB
:1015600040815181845B9F4FFC018081918168178C
:10157000790758F481E04217530720F081E02617DD
:10158000370728F71F910F91089542175307B0F3BB
:10159000DECF2F923F924F925F926F927F928F9207
:1015A0009F92AF92BF92CF92DF92EF92FF920F93F2
:1015B0001F93CF93DF93CDB7DEB72A97CDBFDEBFA2
:1015C00089879A87865B9F4F89839A83FC01108263
:1015D0001182E985FA85EA5BFF4F408051802985B9
:1015E0003A85245B3F4F2B833C83F9014082518233
:1015F000E985FA85EE5BFF4F2080318029853A85A9
:10160000225B3F4F2D833E83F90120823182E985A1
:10161000FA85EC5BFF4F6080718029853A85205BFD
:101620003F4F2F833887F90160827182E985FA85FF
:10163000E85AFF4FE080F180E985FA85EC5AFF4FC8
:10164000A080B180E985FA85EA5AFF4FC080D18039
:10165000E985FA85EE5AFF4F8080918087019501D8
:10166000A601B40189859A855BDF29853A852C57C7
:101670003F4F29873A87811118C0F90110822A96B5
:10168000CDBFDEBFDF91CF911F910F91FF90EF9003
:10169000DF90CF90BF90AF909F908F907F906F9092
:1016A0005F904F903F902F90089581E0E985FA85F3
:1016B00080838114910421F0E981FA8180829182F2
:1016C000A414B50420F4EB81FC81A082B1822C1417
:1016D0003D0420F4ED81FE81C082D182E614F7043E
:1016E00070F6EF81F885E082F182C9CF0F93CF9336
:1016F000DF93E02FDC01AC57BF4FFC91FF2309F4CF
:1017000060C02115310509F45CC02230310538F084
:10171000023009F04AC06F5F7F4F621B730B0E2FC0
:101720000170E0FD52C0FC01E25BFF4F0190F081CF
:10173000E02D4E175F0708F444C0FC01E05BFF4F4B
:101740000190F081E02D4E175F07D8F5FC01E45BB6
:10175000FF4F0190F081E02DDC01A65BBF4F0D90A3
:10176000BC91A02D260F371F2617370738F56E17A7
:101770007F0718F59F0121503109A217B30708F51B
:101780006A177B0708F4BD012E173F0708F4F9011B
:10179000E61BF70BEC01AEA9BFA914960D90BC9106
:1017A000A02D9F01FD0109950CC0033009F0B7CFB2
:1017B0004F5F5F4F421B530BB2CFBD016E177F07C8
:1017C000E0F2DF91CF910F910895FC01E65BFF4FAE
:1017D0000190F081E02D6E177F0798F3FC01E45B28
:1017E000FF4F0190F081E02D6E177F0750F7FC014D
:1017F000E05BFF4F0190F081E02DDC01A25BBF4F69
:101800000D90BC91A02D240F351F24173507A8F487
:101810004E175F0788F49F0121503109A217B307C3
:1018200080F64A175B0708F4AD012E173F0708F44E
:10183000F901E41BF50BAECFAD014E175F0708F6BB
:10184000EDCF8A579F4FFC018081082E000C990B29
:1018500001960895213069F038F0223079F0840F34
:10186000911D47FD9A950895860F911D67FD9A95E4
:101870000895841B910947FD93950895861B91094E
:1018800067FD93950895213069F038F0223079F0A2
:10189000861B910967FD93950895840F911D47FD5F
:1018A0009A950895860F911D67FD9A950895841B5A
:1018B000910947FD939508953F924F925F926F92E1
:1018C0007F928F929F92AF92BF92CF92DF92EF92D0
:1018D000FF920F931F93CF93DF937C01162F442E1B
:1018E000EC01C25ADF4F5E806F806C018AE8C80E3F
:1018F000D11C78847518312E711608F4372C8C8021
:101900009D800E85202F462D652D8A819B81A2DF2B
:101910005C01202F462D652DC401B5DFAC014420AC
:1019200071F08C85F6018083232D30E0B501C7016D
:10193000DDDE171548F017196394512CDACF8B852B
:101940008111F7CF8D85EECF150D1E836F82DF914C
:10195000CF911F910F91FF90EF90DF90CF90BF90AC
:10196000AF909F908F907F906F905F904F903F903F
:101970000895DC011A964C911A97ED91FC911197FC
:10198000249130E0042E02C0359527950A94E2F7A1
:10199000842F860F883068F03196ED93FC93119771
:1019A000E49198E0941B01C0EE0F9A95EAF72E2B74
:1019B00088501A968C938FEF9FEF01C0880F6A951D
:1019C000EAF7809582230895FC01E60FF11D8491CA
:1019D00090E0982F88273196E4918E0F911D0895FD
:1019E0004F925F926F927F928F929F92AF92BF922F
:1019F000CF92DF92EF92FF920F931F93CF93DF93DB
:101A0000EC016B018A017901FC01E459FF4F8081EF
:101A1000813009F44BC008F43EC0823009F451C053
:101A2000833009F459C0FE01E05AFF4FC082D182D1
:101A300032960083118338978081918147962FEFEA
:101A4000E216F10411F008F0EBC0E1E6EE16F10445
:101A500008F44DC0FE01E058FF4F20813181820F14
:101A6000931F9C012F5F3F4FF9014491411148C0E2
:101A700090E080E0DF91CF911F910F91FF90EF9068
:101A8000DF90CF90BF90AF909F908F907F906F909E
:101A90005F904F900895FE01E45AFF4F0190F0814E
:101AA000E02DCE010995080F191FBDCFFE01E45AA4
:101AB000FF4F0190F081E02DCE010995C81AD90A97
:101AC000B2CFFE01E45AFF4F0190F081E02DCE012C
:101AD0000995081B190BA7CFFE01E45AFF4F01908F
:101AE000F081E02DCE010995C80ED91E9CCFF1E4FE
:101AF000EF16F10408F4B5CFFE01E258FF4FADCF69
:101B0000FC0144914E151F0409F085C00296009710
:101B100009F4AECF7E01FEE5EF0EF11CF7018083E4
:101B20009183128673966081C70123DFF701808756
:101B300074966081C7011DDF982EF70181875E01D1
:101B4000FAE8AF0EB11CF5019081F701948781E0AE
:101B5000911180E0F7018587FE01ED58FF4FC080AD
:101B60006C2DC70106DF582EFE01EC58FF4FD080C8
:101B70006D2DC701FEDE482EFE01EB58FF4F108190
:101B8000612FC701F6DE9FEF910F01E010E0980191
:101B900001C0220F9A95EAF7882E821AF701608415
:101BA00016140CF0A3C0CA94C80101C0880FCA94CF
:101BB000EAF7581A7684490CDA94A80101C0440F58
:101BC000DA94EAF7F42FF4194F2E272D4F2F652DB5
:101BD000F701828193813EDE6C01F701828393835A
:101BE000272D442D652D848195814DDEF701848359
:101BF0009583F1E07F1609F47DC07F1608F43DC09F
:101C000022E0721609F485C0E3E07E1609F495C05F
:101C1000BC0196013CC0F9012491820F911D21CF96
:101C2000FE01EE57FF4F00811181080F191F680157
:101C300060E0C601C9DE080F191F62E0C601C4DEFC
:101C4000F4E0CF0ED11C8E159F0590F3F80184911E
:101C500090E0982F88273196E4918E2B009709F415
:101C600007CFE816F90619F4C801039650CFF8011A
:101C70003296E4910E0F111DE9CF9601260D311D0C
:101C800067FC3A95BC01690D711D97FC7A958B0133
:101C9000AC01B601CE0144DC882341F1F701168284
:101CA00017828E0101591F4F6E01F0E7CF0ED11C34
:101CB000F8016081C7015DDE682EF6016081C70111
:101CC00058DE782E40E0662DCE01F6DD41E0672D2E
:101CD000CE01F2DD61E0C7014CDE8111F3CFF701E7
:101CE000878189152CF38485F5018083882D880CE4
:101CF000990BC0CE0919110997FC139596012F5F16
:101D00003F4FBC01660D711D67FC7A95C00ED11E58
:101D1000BECFA8014619510967FC539596012F5F64
:101D20003F4F0919110997FC1395BC016F5F7F4F55
:101D3000800F911FC40ED51EAACF9601290D311D0B
:101D400097FC3A950619110967FC1395BC016F5F62
:101D50007F4F800F911F9BCFCF92DF92EF92FF9228
:101D60000F931F93CF93DF938C011092EE397B0179
:101D7000D12CC12CD0E0C0E0F70161917F01E0914E
:101D8000D839F091D93986ED99E309958F3F9807B5
:101D900011F18E3F2FEF920779F39C01A801BE014C
:101DA00086ED99E31DDE2091423A213059F038F05A
:101DB000223059F0233061F0C80ED91EDDCFC80F94
:101DC000D91FFACF080F191FF7CFC81BD90BF4CFB3
:101DD000081B190BF1CFC601DF91CF911F910F9115
:101DE000FF90EF90DF90CF900895CF93DF93EC01B9
:101DF0006BAFEEA9FFA90190F081E02D0995EEA946
:101E0000FFA90280F381E02DCE01DF91CF910994EB
:101E1000AF92BF92CF92DF92EF92FF920F931F93F8
:101E2000CF93DF93CDB7DEB72597CDBFDEBF8C0153
:101E3000DC01DA96AC90DA97DB96EC90DB97ED91CB
:101E4000FC91B188FE2CD12CC12CD801ED91FC91D4
:101E500011978089D8962D913C911C82FD828B83AD
:101E6000B8E08B9FC00111248C9DA0018D9D500D69
:101E70009C9D500D1124240F351F29833A83D801CE
:101E80001496ED91FC919E012F5F3F4F41E06FE072
:101E9000C8010995F3948F2D8E198A1528F4BFEF88
:101EA000CB1ADB0AFB1488F22596CDBFDEBFDF918B
:101EB000CF911F910F91FF90EF90DF90CF90BF9047
:101EC000AF900895CF92DF92EF92FF920F931F93FE
:101ED000CF93DF936C01EB017B01E40EF51E10E064
:101EE00000E0CE15DF0561F06991D601ED91FC911E
:101EF0000190F081E02DC6010995080F191FF1CF5F
:101F0000C801DF91CF911F910F91FF90EF90DF906B
:101F1000CF900895CF92DF92EF92FF920F931F938D
:101F2000CF93DF93EC016C0124E0C20ED11CFC01C5
:101F3000E057FF4F0190F081E02DC60109958E3FDB
:101F4000EFEF9E07D0F48E010C561F4FF801408131
:101F500051817E01F2E9EF0EF11CF7016081718180
:101F60009C01C6013DDDC059DF4F28812130C1F001
:101F700078F02230B9F02330E9F081E090E0DF9191
:101F8000CF911F910F91FF90EF90DF90CF90089528
:101F9000F70120813181820F931F80839183EDCFE0
:101FA000F801F7CFF70120813181281B390B2083FD
:101FB0003183E3CFF801F7CF089590E080E00895F2
:101FC000CF93DF93FC0101900020E9F73197AF0137
:101FD000481B590BBC018DE798E30E94C206EC0137
:101FE00042E050E063E672EC8DE798E30E94C2069F
:101FF0008C0F9D1FDF91CF910895CF92DF92EF92CA
:10200000FF926B017C0188EEC81683E0D806E104DC
:10201000F10408F445C08091283981FF41C080E86F
:10202000C8168AE1D80686E0E806F104F0F460E814
:1020300074E88EE190E0A70196010E9427202650C7
:102040003109121613068CF42F3F310509F07CF488
:10205000E0912539F0912639868182130AC080E00B
:10206000FF90EF90DF90CF90089521E0F1CF2FEF18
:10207000EFCF93811382268381E8C8168AE1D806C0
:1020800086E0E806F10448F08081826080839383D3
:1020900090FFE5CF81E08583E2CF80818D7FF6CF11
:1020A00081E0DECFCF93DF93823108F047C090E02C
:1020B000EC01CF52DE4328812F3F09F43FC0AC0131
:1020C00045515E43DA01EC91B0E2EB9FF00111243F
:1020D000FC5F611136C0268330812323A1F49C016B
:1020E00023503E43D9012C913097A1F1283090F52F
:1020F0007096E20FF11D3FB7F894208161112DC059
:10210000277F20833FBF81549E43FC019081992308
:10211000A9F08881903441F1983F19F1903171F420
:10212000DA019C919130D9F4853010F0880F8295B6
:102130009091010A809589238093010ADF91CF91C4
:102140000895643029F43481278364816223C4CFE5
:102150002583C2CFF0E0E0E0CECF2860D2CF880F59
:10216000E7CF1092A006EACF823019F180E4909177
:10217000920A982319F34FB7F8949091800A9E7FA2
:102180009093800A2091920A90E08095909530E09B
:102190008223932328ED24BF8093920A80918E0A94
:1021A00080FFFCCF8091800A81608093800A4FBFBE
:1021B000C5CF80E8DCCF0F931F93CF93DF93EC0163
:1021C000062F142F60E08C816DDFE881F9819A8100
:1021D0008B812085222319F02FB72187F89421E0E5
:1021E0002287909320088093210800000093240800
:1021F0008091230887FFFCCF809124080000109372
:1022000024088091230887FFFCCF10912408E881DF
:10221000F9818285882331F012868085882311F028
:1022200081858FBF61E08C813DDF812FDF91CF9170
:102230001F910F91089540E0BECFCF92DF92EF92B1
:10224000FF92CF93DF936DE188E69AE3F4DF90E0AD
:1022500034E0959587953A95E1F78A3091050CF031
:102260003FC0FC01EE0FFF1FE80FF91FE15FFD43C8
:10227000C080D180E2800E2C000CFF086EE188E661
:102280009AE3D9DFD82F66E288E69AE3D4DFC82F35
:10229000D295DF7021E030E040E050E004C0220F32
:1022A000331F441F551FDA95D2F7C701B6010E94AC
:1022B000492068EE73E080E090E00E9449202131DF
:1022C0003105410551058CF04C2F486066EA88E6DF
:1022D0009AE3DF91CF91FF90EF90DF90CF906BCF9B
:1022E000CC24CA94DC2C7601C9CF4C2F477FEECF8B
:1022F0009F92AF92BF92CF92DF92EF92FF920F9395
:102300001F93CF93DF938C01EB01209709F444C016
:102310006631710510F0C5E1D0E0780187E1E80E83
:10232000F11CCC2E63E1C80186DF982E5701D12C19
:102330009D1451F0DC1440F460E0C8017CDFD394BC
:10234000D5018D935D01F4CF90E08AE52197292F87
:1023500030E02C173D073CF42E0D3F1DF901208184
:10236000820F9F5FF4CFD8019B969C919B97891316
:1023700013C05396ED91FC91309771F0B7018C2DFD
:10238000DF91CF911F910F91FF90EF90DF90CF9051
:10239000BF90AF909F900994DF91CF911F910F91C3
:1023A000FF90EF90DF90CF90BF90AF909F900895F7
:1023B000EF92FF920F931F93CF93DF938CE5E82E5C
:1023C00088E3F82EF701C191D1917F01209711F197
:1023D00062E1CE0130DF182F8823E1F0482F62E957
:1023E000CE01E9DE15FD16C016FF20C063E1CE0167
:1023F00022DF082F10E060E1CE011DDF482F6DE8DD
:10240000CE01D9DEEB85FC85309721F0B8018D85B2
:102410009E850995F0E6EF16F8E3FF0699F6DF9141
:10242000CF911F910F91FF90EF90089513FFF2CF7E
:10243000EF85F889309771F38D859E850995EACFF0
:10244000CF93DF93EC0140E060ECB5DE45E861E856
:10245000CE01B1DE81E090E0DF91CF91089521E0DF
:10246000FC01258BEDCF8231F0F490E0FC01EF52BE
:10247000FE4320812F3FB9F0FC01E551FE43E0818E
:1024800030E2E39FF0011124FC5F60FF0DC0218367
:1024900083509E43DC018C91E80FF11D808961FF20
:1024A00005C08860808B08952283F2CF877FFACFA2
:1024B000CF93DF93EC01683109F450C030F46431FC
:1024C000A1F0673159F080E006C0693109F458C0C5
:1024D0006032C9F781E0DF91CF91089550E0B901F2
:1024E0008DE199E30E945008F5CF8C859D85AE85DE
:1024F000BF85892B8A2B8B2B71F4E881F981A58507
:10250000B0E020EA36E841E050E00E9465206C87A8
:102510007D878E879F878091283981FDDBCF82FD63
:10252000D9CF8091010284FF15C086E08093060414
:1025300080912839826080932839E0912539F09183
:10254000263981E08383858360EA76E881E090E044
:1025500054DDC0CF83E080932604EACF6C857D856F
:102560008E859F854ADD8091283981FFB3CF8E8982
:102570008E7F80932E3910922F3910923039AACF46
:10258000E0912539F0912639838180FFA3CF5091C6
:102590002E3920912F3980EA9FE030E0A2E3B9E3A1
:1025A0005E7F4581642F637009F494CF0197C1F079
:1025B00043FD90CF6330A9F3311105C0578380EA02
:1025C0009FE031E0EECF46FFECCF44FD09C022236F
:1025D00039F08D9180872150326080EA9FE0E1CF11
:1025E00080912F39821B80932F3983E0848372CFAF
:1025F0000F931F93CF93DF93FC01C62F642FCC3230
:10260000C8F5CA3208F05BC0C83209F447C0C93205
:1026100009F45BC080E0C03408F452C0CF73DF011E
:10262000AC0FB11D5E968C918F3F09F448C0C0314C
:1026300098F1282F30E0823108F059C0D901AF520B
:10264000BE438C918F3F09F452C025513E43E901AE
:10265000A881D0E2AD9FD0011124BC5F18969C9157
:10266000982381E009F480E091E0811101C090E0BD
:10267000918F25C0CD3279F168F284EB8C0F8230D6
:1026800048F6CF73CE0FDF2FD11D8E8D41112CC098
:1026900061E0E9DE60E08E8D05DD11C08C01025E37
:1026A0001F4FD0E0F80181918F018F3F29F061E049
:1026B000D03108F062E0D7DEDF5FD63199F781E0F4
:1026C000DF91CF911F910F91089570E090E080E02D
:1026D0000E94DA07F4CF85E090E0433010F082E00A
:1026E00090E00E940308EBCF62E0BDDEE8CF8FEF01
:1026F000BBCFCF92DF92EF92FF920F931F93CF93B6
:10270000DF93CDB7DEB7E297CDBFDEBF8B01FB0114
:1027100080811F928F9381811F928F9386E692EC26
:102720009F938F93CE0101967C019F938F930E947C
:102730008B20C70145DCCDBFDEBFF80180818D3F16
:1027400009F0A7C081818111A4C02FB7F8948091AE
:10275000643890916538A0916638B09167382FBF82
:102760008093563890935738A0935838B09359387F
:1027700080915438909155380196809354389093B5
:1027800055388481958180935238909353386AE10B
:1027900088E69AE350DD082F10E060916F3A70915F
:1027A000703A8091713A9091723A0E94731F2AEEAA
:1027B00036E54AEF5DE40E943C1F87FD76C08DE957
:1027C00090E0081B190B69E188E69AE334DD87FD88
:1027D0008D5F85958595682F880F770B880B990BF2
:1027E0000E94731F6B017C01AC019B010E9423209E
:1027F00030E020E081112AC020E030E0A901C701CB
:10280000B6010E943C1F87FF0DC0B801110F880B55
:10281000990B0E94731FA70196010E94D81E0E9467
:10282000401F8B01012E000C220B330BA9019801D4
:1028300020583F4F4F4F5F4FA4E6B0E00E94652005
:1028400026E730E040E050E00E94492020937138B4
:10285000309372388091563890915738A0915838FB
:10286000B0915938409173385091743860917538EF
:1028700070917638841B950BA60BB70B80934E385E
:1028800090934F38A0935038B093513881E08093A3
:102890006A38E296CDBFDEBFDF91CF911F910F91D5
:1028A000FF90EF90DF90CF90089584EA90E089CF79
:1028B000FC01A081B18150962C9182AD38E0839FBC
:1028C000C0011124289FA001299F500D112470E000
:1028D00060E080AD91AD0C9484201F93CF93DF9383
:1028E000EC0196DA1BAD8AAD180FE881F981818978
:1028F000181768F0EC81FD8130E020E040E060E1F5
:10290000CE01099580E0DF91CF911F910895FE01DE
:10291000E557FF4F8081882311F0CE01C9DF612F79
:10292000CE0163DA81E0EFCFCF93DF93EC01FC01BE
:10293000E557FF4F8081882311F0CE01B9DF60E0B9
:10294000CE01DF91CF9151CA2F923F924F925F9269
:102950006F927F928F929F92AF92BF92CF92DF92AF
:10296000EF92FF920F931F93CF93DF93CDB7DEB714
:10297000E297CDBFDEBF86ED99E3D6DF9CE7C92E97
:1029800090E0D92E23E8222E20E0322E34E8432E88
:1029900030E0532E45E8642E40E0742E56E8A52E14
:1029A00050E0B52E67E8862E60E0962E8E010F5F10
:1029B0001F4F8091303A9091313A8C57904009F4F2
:1029C0008FC0C092303AD092313AF6018491809310
:1029D000433AEDE7F0E084918093443AEEE7F0E08B
:1029E00084918093453AEFE7F0E084918093463AF2
:1029F000E0E8F0E084918093473AE1E8F0E08491E8
:102A00008093483AE2E8F0E084918093493AF101FA
:102A1000849180934A3AF201849180934B3AF30176
:102A2000849180934C3AF501849180934D3AF4015E
:102A3000849180934E3AE8E8F0E0E491E0934F3AD5
:102A4000E9E8F0E0E491E093503AEAE8F0E0E4915C
:102A5000E093513AEBE8F0E0E491E093523AECE88D
:102A6000F0E0E491E093533A61E18CE790E00E945A
:102A7000E40C8093543A9093553A63E18CE790E0EC
:102A80000E94E40C8093563A9093573A65E18CE7A4
:102A900090E00E94E40C8093583A9093593A8091C8
:102AA000303A9091313A892BD9F08091503A809305
:102AB0005C3A4091513A40935D3A90915B3A992348
:102AC00079F0913009F0D0C09091523A891714F4FE
:102AD00090935C3A8091533A841714F480935D3A52
:102AE00081E080935B3A8091303A9091313A892B22
:102AF000A1F02091503A20935C3A9091513A9093F2
:102B00005D3A8091523A281714F480935C3A809190
:102B1000533A891714F480935D3A0E94B60681E215
:102B20009CE08093323A9093333A1092423A8091EB
:102B300053388F93809152388F93809172388F934E
:102B4000809171388F9383E792EC9F938F931F93BB
:102B50000F930E948B208AE3E82E86E0F82EE09205
:102B6000D839F092D939B80182E090E0F5D8809157
:102B700055388F93809154388F9380916C388F9310
:102B800080916B388F9384E892EC9F938F931F937F
:102B90000F930E948B20E092D839F092D939B80176
:102BA00082E190E0D9D880916D3890916E38A091F3
:102BB0006F38B0917038409173385091743860918B
:102BC000753870917638841B950BA60BB70BBF93A5
:102BD000AF939F938F9384E992EC9F938F931F936E
:102BE0000F930E948B20E092D839F092D939B80126
:102BF00082E290E0B1D8809151388F938091503823
:102C00008F9380914F388F9380914E388F9383EAC2
:102C100092EC9F938F931F930F930E948B20E092CF
:102C2000D839F092D939CDBFDEBFB80182E390E048
:102C300093D886ED99E351DE8111BBCEE296CDBFEC
:102C4000DEBFDF91CF911F910F91FF90EF90DF904A
:102C5000CF90BF90AF909F908F907F906F905F903C
:102C60004F903F902F90089530914D3A20914F3AD8
:102C7000082E000C990B622F022E000C770B630FAD
:102C8000711D37FD7A95861797071CF4320F309324
:102C90005C3A24170CF024CF20935D3A21CFEF93B8
:102CA000FF93F898EDE7F8E30BC0EF93FF93F898E4
:102CB000EDE7F8E334C0EF93FF93EDE7F8E35CC092
:102CC0002F932FB72F938F939F93AF93BF936894B6
:102CD000CF93DF9320E0C085D8E09089DF01A90F72
:102CE000B21FAF5ABF4F8C9120E42C838A839F5F21
:102CF0009F738D812785291302C08F7D8D83908BD3
:102D0000DF91CF9116F00C944B07BF91AF919F913B
:102D10008F912F912FBF2F91FF91EF9118952F93A6
:102D20002FB72F933F938F939F93CF93DF93C085BC
:102D3000D8E0898198818674880F3485382B82FD8C
:102D40000DC0C58581E08C0F8F732685281791F003
:102D5000CE0FDF2F20E0D21F998B85873487DF913C
:102D6000CF919F918F913F912F912FBF2F91FF91E5
:102D7000EF9118953064F2CF8F938FB78F939F9315
:102D8000CF93DF93C085D8E09D8188818C8187FDBA
:102D9000FCCF9F7B90689D83DF91CF919F918F9116
:102DA0008FBF8F91FF91EF9118958F9381E0809362
:102DB0008D0A8FB78F93EF93FF93E0E6F8E39F932D
:102DC00068948FEF0FC0E894848195818C5E9F4F4B
:102DD00084839583885E934010F08FEF03C08483D3
:102DE00095838EEF9081981B919390819F4F919343
:102DF00090819F4F919390819F4F919326F39F9144
:102E0000FF91EF918F918FBF8F9118950F9304E0F1
:102E100006C00F9302E003C00F9300E000C00F92C2
:102E20000FB60F921F921124FF921F932F933F937F
:102E30004F935F936F937F938F939F93AF93BF93C2
:102E4000CF93DF93EF93FF93A0E0B8E3A00FB11D02
:102E5000CD91DC91000F0D5FA02FB0E0FC9010979A
:102E600061F01F2D169518F041F02296FBCFE991E5
:102E7000F9913097B9F30995F5CFA02FB0E0FC9206
:102E8000FF91EF91DF91CF91BF91AF919F918F9182
:102E90007F916F915F914F913F912F911F91FF9083
:102EA0001F900F900FBE0F900F9118951F920F92C9
:102EB0000FB60F9211241F932F933F934F935F935D
:102EC0006F937F938F939F93AF93BF93CF93DF9332
:102ED000EF93FF93C0911B39D0911C392097B9F122
:102EE000A885B9851B961C911B9716FF53C08B852F
:102EF00083FF09C0877F8B87EF85F889309719F0AA
:102F00008A8990E0099510FF3BC08A8981110BC026
:102F100080915B38811107C08091500080935B38AD
:102F20008170809350001A8A1B8AE885F98585850F
:102F3000898B11FF20C0ED85FE85309709F009953A
:102F40008A8981111BC086E0E885F9858287FF9117
:102F5000EF91DF91CF91BF91AF919F918F917F9131
:102F60006F915F914F913F912F911F910F900FBEE5
:102F70000F901F9018958B8588608B8783E0E4CF36
:102F800080915B388093500010925B381A8A1B8ABC
:102F900082E0DACF17FF2EC09E012B5E3F4F11FF5C
:102FA0001AC08A85182321F088E08A871A8AF0CF10
:102FB0008C898F5F8C8B88E18A87EB898A89E817F7
:102FC000A8F7E20FF32FF11D80811D968C938B895A
:102FD0008F5F8B8BD3CF1D968C91EA89E03250F4B2
:102FE000E20FF32FF11D80838A898F5F8A8B8032F5
:102FF00029F6A9CF80E0A8CFCF9310927F38109206
:10300000803848EE53E060E070E0409381385093A0
:103010008238609383387093843881E392EC809394
:103020007D3890937E3880E098E080938538909347
:103030008638109287381092883894E090931A3925
:1030400081E38093193920E238E020930E393093E0
:103050000F391092153910921F3910922039409370
:10306000213950932239609323397093243923E412
:1030700032EC20931D3930931E392DE139E3209332
:103080001B3930931C3920E138E0209325393093E7
:10309000263990936B3A80936A3A10926C3A83E0A7
:1030A00080936D3A82E080936E3A8EE099E380934C
:1030B000683A9093693A1092733A1092743A109267
:1030C000753A1092763A81E080937E3A10927B3A7C
:1030D00010927C3A1092D4391092D5398AE396E056
:1030E0008093623A9093633A1092643A1092653AF0
:1030F0001092663A1092673A1092EE3985E592EC9A
:103100008093D2399093D3391092D6391092D7390F
:103110001092EB391092E2391092E3391092E439AF
:103120001092E5398FEF8093EC398093F039E4EF1A
:10313000F9E38AE09AE3CFEFC1938E179F07E1F797
:103140008FEE98E08093DA399093DB398DEC99E03B
:103150008093DC399093DD3988E592E18093DE3904
:103160009093DF3988EF92E18093E0399093E139D1
:1031700030E020E040E069E086ED99E30E94EF084E
:103180001092303A1092313A84E496E080930A3AF1
:1031900090930B3A82E599E380930E3A90930F3A1D
:1031A00081E08093103A1092113A10923F3A1092B7
:1031B0005F3A10925B3A8093603A8093613A8DE572
:1031C00092EC80930C3A90930D3A86ED99E30E942D
:1031D0003E0A1092283A1092293A10922C3A1092F4
:1031E0002D3A8FEF9FEF80932A3A90932B3A80935A
:1031F0002E3A90932F3AE0910C3AF0910D3A0280DA
:10320000F381E02D86ED99E3099583EB96E08093B9
:10321000323A9093333A1092423AC093FF39C093B6
:10322000003AC093013ACF910895CF93DF93CDB781
:10323000DEB76597CDBFDEBF88ED93E084BF909386
:103240006100E0E0F6E081E582838AE0858380E248
:10325000838381E08083109202028093030A9EEFB1
:103260009093260A9093270A99E09093000AE0E849
:10327000FAE02DEF31E026A737A7118290E892837C
:10328000848781E1808378948DE798E30E942C07FE
:103290008091893880FF12C08DE798E30E949807DB
:1032A000E0918538F09186381682158280EC84830F
:1032B00080918B3880938A3810928938FFB6F894C1
:1032C000E0918538F0918638168283E087838AE81A
:1032D00090E080879187148680E8858380EC8683E0
:1032E000909188380091873880910102992309F4E0
:1032F00084C2816080930102090F1127111F000F02
:10330000111F000F111F0D511E4361E0D8018C9158
:10331000AAD862E0F8018181A6D8FFBE82EB92ECC8
:103320000E94E00FE091DA39F091DB3930E020E0E3
:1033300040E06AE086ED99E3099586ED99E3F4DAD9
:1033400086ED99E3CADA8111FBCF60E086ED99E35F
:103350000E94F50EE091DA39F091DB3930E020E09F
:1033600040E06BE086ED99E3099589E793E180936E
:103370007B3A90937C3A80915C3890915D38892BB0
:1033800009F43DC280915E3890915F38892B59F4E1
:1033900081E090E0880F991FFC01E45AF74C88E621
:1033A0009AE38083918361E080916C3A5CD861E01C
:1033B00080916C3A0E94521080916D3A8F3FC1F01B
:1033C00061E051D860E080916D3A0E9452106AE04D
:1033D00070E080E090E00E94DA0761E080916D3A51
:1033E0000E9452106AE070E080E090E00E94DA07EC
:1033F000E091683AF091693A8781811106C01086A0
:10340000128680E8818781E08783809101028B7F2B
:103410009681892B8093010286818111F3C161E03D
:103420008EE021D861E080E11ED88091210884607F
:1034300080932108809120088162809320089091D8
:10344000193980911A39909320088093210862E4F9
:1034500088E69AE30E941B11823109F003C240E81A
:1034600061E888E69AE30E94DB1080E49EE0AFEC1E
:10347000B9E180936F3A9093703AA093713AB09308
:10348000723A4CE666E888E69AE30E94DB1040E474
:1034900067E888E69AE30E94DB1040E068E888E687
:1034A0009AE30E94DB1040E06EE888E69AE30E940F
:1034B000DB1040E06FE888E69AE30E94DB106CE0E6
:1034C00088E69AE30E941B11482F43606CE888E667
:1034D0009AE30E94DB1044E066EA88E69AE30E94E1
:1034E000DB1044E86DEC88E69AE30E94DB104BE2C7
:1034F0006BE888E69AE30E94DB104CE869E888E60E
:103500009AE30E94DB1041E861E888E69AE30E94B2
:10351000DB1060E080916E3A0E94331220916E3A87
:10352000223198F530E0F901E350FE4380818F3F6E
:1035300061F125513E43D901EC91F0E0DF01AA0F82
:10354000BB1FA050B84C2D913C9121153105E9F0DD
:10355000482F50E0440F551F240F351F48ED51E10F
:10356000D9014D935C939FB7F8949F0175E0220FAA
:10357000331F7A95E1F7E0E1E80FE20FF0E0FC5F3E
:103580008081887F826080839FBF88E69AE328E7F6
:1035900031E12093733A3093743A8093753A909363
:1035A000763A2FE232E12093773A3093783A80935B
:1035B000793A90937A3A65E070E080E090E00E947A
:1035C000DA0743EC61EB88E69AE30E94DB104AE0FD
:1035D00067EB88E69AE30E94DB106EE188E69AE3E7
:1035E0000E941B118F70482F40696EE988E69AE3AC
:1035F0000E94DB100E941D116DE188E69AE30E9493
:103600001B118F70482F40676DE988E69AE30E948E
:10361000DB100E941D116DE188E69AE30E941B11E8
:10362000817F482F42606DE988E69AE30E94DB10B3
:1036300088E69AE30E94201289EB92EC0E94E00F48
:1036400064E670E080E090E00E94DA077DD97E01B8
:10365000B5E1EB0EF11C8DEFB82E99E0A92ECC242C
:10366000C394D12C3AE5732E2FB7F8948091643827
:1036700090916538A0916638B09167382FBF40911E
:10368000793850917A3860917B3870917C388A0112
:103690009B0108511C4F2F4F3F4F081719072A074E
:1036A0003B0728F084179507A607B70788F480938F
:1036B000793890937A38A0937B38B0937C38809196
:1036C000773890917838019680937738909378384E
:1036D000809177389091783805970CF4BAC01092A1
:1036E0007738109278382FB7F89480916438909199
:1036F0006538A0916638B09167382FBF80937338D2
:1037000090937438A0937538B0937638809171385F
:1037100090917238092E000CAA0BBB0B1982BA8249
:10372000BB82AC828D839E83AF83B887C986DA86DD
:103730007D8A8E010F5F1F4FF80191918D89890F4E
:103740008D8BEE15FF05C9F710927D3A61E088E692
:103750009AE30E941B1183708330F9F062E188E6DE
:103760009AE30E941B1183FF06C048E062E988E6E5
:103770009AE30E94DB1041E861E888E69AE30E9440
:10378000DB1040E06DE888E69AE30E94DB1040E041
:1037900062EA88E69AE30E94DB104801E5E18E0EBA
:1037A000911CD8014D918D0160E888E69AE30E9452
:1037B000DB1008151905A9F745E162EA88E69AE3E6
:1037C0000E94DB1040E460EC88E69AE30E94DB1084
:1037D00043E861E888E69AE30E94DB1080917E3A34
:1037E0008823D1F080917D3A811116C062E070E0AB
:1037F00080E090E00E94DA07F1CF8E7F7BCD90E0F1
:1038000080E0C8CD843009F010CE61E08CE00E94E9
:10381000331261E08AE008CE2FB7F89480916438C3
:1038200090916538A0916638B09167382FBF80932A
:103830006D3890936E38A0936F38B0937038809144
:103840006B3890916C38019680936B3890936C38FC
:103850007BD880916A38882309F406CF10926A38A1
:1038600073D802CF81EC92EC0E94E00FEFCEABE078
:10387000B0E0ECE3FCE16AC27C013B018A01FC019F
:1038800016821782838181FFBAC1CE0101965C0145
:10389000F7019381F30193FD859193FF81913F019E
:1038A000882309F449C1853239F493FD859193FF4A
:1038B00081913F01853221F4B70190E0B9D1E8CF81
:1038C000912C212C312CFFE1F31538F08B3211F1C2
:1038D00090F4803209F1833229F137FC3CC020EDAD
:1038E000280F2A3050F536FE20C08AE0989E200D21
:1038F0001124922E06C08D3291F0803371F76894B6
:1039000030F8F30193FD859193FF81913F0181117F
:10391000DACF21C0689431F8689432F8F2CF689415
:1039200033F8EFCF689434F8ECCFEAE02E9E200D08
:103930001124222E689435F8E4CF8E3229F436FC17
:10394000FBC0689436F8DDCF8C3619F4689437F8EC
:10395000D8CF8836B1F2982F9F7D95549330D8F008
:10396000833691F18337B1F1833509F05EC02801C8
:10397000F2E04F0E511CF801C080D180692D70E03B
:1039800036FC02C06FEF7FEFC6013CD14C0168945A
:1039900037F882010AC00C5F1F4FFFE3F9838824C8
:1039A0008394912C6501E89437F833FE2AC0522C99
:1039B0008114910459F5552009F46ACFB70180E2CA
:1039C00090E036D15A94F7CFF801808189830E5F59
:1039D0001F4FE5CF2801F2E04F0E511CF801C080C7
:1039E000D180692D70E036FC02C06FEF7FEFC60119
:1039F00014D14C018201D7CFB70180E290E018D1F9
:103A00002A942814190409F0B8F7D1CFF60137FC2D
:103A1000859137FE81916F01B70190E009D1511076
:103A20005A94F1E08F1A9108C3CF843619F0893681
:103A300009F073C0F80137FE67C06081718182812F
:103A400093810C5F1F4FF32DFF763F2E97FF09C028
:103A500090958095709561957F4F8F4F9F4F68949B
:103A600037F82AE030E0A50113D1C82ECA188C2CF3
:103A7000432C36FE0CC0E89440F8C91440F434FEE0
:103A800005C032FC03C0F32DFE7E4F2E892C44FE70
:103A900090C0FE01EC0DF11D8081803309F082C0E1
:103AA000242D297E422E842D8870582E43FC8FC0F1
:103AB00040FE89C09C2C821418F42C0C922C98186F
:103AC00044FE8BC0B70180E390E0B2D042FE08C054
:103AD00088E790E041FE02C088E590E0B701A8D0F9
:103AE000C91408F486C0CA94D12C9FEFC91AD90A08
:103AF000CA0CDB1CF60182916F01B70190E098D0EF
:103B0000AC14BD04B9F757CF60817181072E000C4A
:103B1000880B990B0E5F1F4F96CFD32CE894D4F8E7
:103B20002AE030E0853731F1232D297FD22E8F36E0
:103B3000F9F040F48835A1F0F701868197812B9642
:103B4000E2E11DC1803749F08837B1F7D4FE02C0E9
:103B50006894D2F820E130E00DC06894D4F8F6CF34
:103B600034FE03C0822F8660D82E20E132E002C0EE
:103B700028E030E0F801D7FE0EC0608171818281BB
:103B800093810C5F1F4FA50183D0C82ECA183D2C0E
:103B9000E89437F86CCF6081718190E080E00E5F2F
:103BA0001F4FF1CF42FC02C083947DCF8394839456
:103BB0007ACF842D867809F476CFF6CFB70180E2EC
:103BC00090E036D083948214C8F3512C79CF522CD4
:103BD0005818821408F474CFF8CF842D867809F42D
:103BE0007FCF8BE241FE80E247FC8DE2B70190E09F
:103BF00076CFB70180E390E01BD09A9471CF8FEF1E
:103C00009FEF9DCFFC010590615070400110D8F7E7
:103C1000809590958E0F9F1F0895FC016150704014
:103C200001900110D8F7809590958E0F9F1F0895F1
:103C30000F931F93CF93DF93182F092FEB018B81E5
:103C400081FD09C01FEF0FEF812F902FDF91CF91E2
:103C50001F910F91089582FF14C02E813F818C81A6
:103C60009D81281739073CF4E881F981CF0101963D
:103C70008883998310838E819F8101968E839F8391
:103C8000E3CFE885F985812F0995892BA1F3DACF58
:103C9000FA01AA27283051F1203181F1E8946F937D
:103CA0006E7F6E5F7F4F8F4F9F4FAF4FB1E03ED023
:103CB000B4E03CD0670F781F891F9A1FA11D680FC1
:103CC000791F8A1F911DA11D6A0F711D811D911DF4
:103CD000A11D20D009F468943F912AE0269F112469
:103CE0003019305D3193DEF6CF010895462F4770CD
:103CF000405D4193B3E00FD0C9F7F6CF462F4F7028
:103D0000405D4A3318F0495D31FD4052419302D085
:103D1000A9F7EACFB4E0A69597958795779567952B
:103D2000BA95C9F700976105710508959B01AC012B
:103D30000A2E06945795479537952795BA95C9F752
:103D4000620F731F841F951FA01D08952F923F922D
:103D50004F925F926F927F928F929F92AF92BF929B
:103D6000CF92DF92EF92FF920F931F93CF93DF9347
:103D7000CDB7DEB7CA1BDB0BCDBFDEBF09942A88E7
:103D8000398848885F846E847D848C849B84AA846F
:103D9000B984C884DF80EE80FD800C811B81AA81FC
:103DA000B981CE0FD11DCDBFDEBFED0108955058B2
:103DB000BB27AA270ED00DC1FED030F003D120F0D2
:103DC00031F49F3F11F41EF4F3C00EF4E095E7FBCD
:103DD000E9C0E92F0FD180F3BA1762077307840790
:103DE000950718F071F49EF527C10EF4E0950B2E9F
:103DF000BA2FA02D0B01B90190010C01CA01A0013D
:103E00001124FF27591B99F0593F50F4503E68F197
:103E10001A16F040A22F232F342F4427585FF3CFD8
:103E2000469537952795A795F0405395C9F77EF4A9
:103E30001F16BA0B620B730B840BBAF09150A1F0F2
:103E4000FF0FBB1F661F771F881FC2F70EC0BA0F78
:103E5000621F731F841F48F4879577956795B79500
:103E6000F7959E3F08F0B3CF9395880F08F09927F8
:103E7000EE0F97958795089571D008F481E0089525
:103E800004D06894B111D9C00895BCD088F09F5770
:103E900090F0B92F9927B751A0F0D1F0660F771F96
:103EA000881F991F1AF0BA95C9F712C0B13081F076
:103EB000C3D0B1E00895C0C0672F782F8827B85FBE
:103EC00039F0B93FCCF3869577956795B395D9F7D7
:103ED0003EF490958095709561957F4F8F4F9F4FE1
:103EE0000895E89409C097FB3EF4909580957095ED
:103EF00061957F4F8F4F9F4F9923A9F0F92F96E936
:103F0000BB279395F695879577956795B795F111AA
:103F1000F8CFFAF4BB0F11F460FF1BC06F5F7F4F47
:103F20008F4F9F4F16C0882311F096E911C0772359
:103F300021F09EE8872F762F05C0662371F096E862
:103F4000862F70E060E02AF09A95660F771F881F31
:103F5000DAF7880F9695879597F90895990F0008D5
:103F6000550FAA0BE0E8FEEF16161706E807F9074B
:103F7000C0F012161306E407F50798F0621B730BE6
:103F8000840B950B39F40A2661F0232B242B252B67
:103F900021F408950A2609F4A140A6958FEF811D0A
:103FA000811D089597F99F6780E870E060E00895AB
:103FB0009FEF80EC089500240A9416161706180641
:103FC0000906089500240A9412161306140605061D
:103FD0000895092E0394000C11F4882352F0BB0FAE
:103FE00040F4BF2B11F460FF04C06F5F7F4F8F4F11
:103FF0009F4F089557FD9058440F551F59F05F3F4C
:1040000071F04795880F97FB991F61F09F3F79F0FA
:1040100087950895121613061406551FF2CF46957C
:10402000F1DF08C0161617061806991FF1CF8695FE
:104030007105610508940895E894BB2766277727E2
:10404000CB0197F908958ADF880B990B0895A1E2B7
:104050001A2EAA1BBB1BFD010DC0AA1FBB1FEE1F02
:10406000FF1FA217B307E407F50720F0A21BB30B4D
:10407000E40BF50B661F771F881F991F1A9469F7C9
:1040800060957095809590959B01AC01BD01CF0125
:104090000895052E97FB16F400940FD057FD05D018
:1040A000D6DF07FC02D046F408C050954095309505
:1040B00021953F4F4F4F5F4F089590958095709594
:1040C00061957F4F8F4F9F4F08950FD0A59F900D03
:1040D000B49F900DA49F800D911D11240895EE0FA3
:1040E000FF1F0590F491E02D0994A29FB001B39FAA
:1040F000C001A39F700D811D1124911DB29F700DF1
:10410000811D1124911D0895DC0101C06D93415062
:104110005040E0F70895AEE0B0E0E0E9F0E224CEF0
:104120000D891E8986E08C8309831A838FEF9FE7B0
:104130008D839E83AE01475E5F4F6F89788DCE0180
:10414000019695DB2F813885020F131FF80110822D
:0A4150002E96E4E022CEF894FFCF93
:10415A001815A015C019FF1815A115C819FF1815AB
:10416A00AE19FF1815AF19FF1815AE15D51680151B
:10417A00A8163F15D316001540158D1614152016CE
:10418A000015A115C815DA1612158116CF15D916FC
:10419A00F115DB1640152E15A415A619FF000114FA
:1041AA000A6464323200127A000004289610080069
:1041BA0000800040001010F80000000010101040AD
:1041CA004000000000100010204080201008040267
:1041DA00010102040802040801070608090E0F106B
:1041EA0000000000000101010101010202020200B7
:1041FA00000000040506070504030201000001028D
:10420A000301020300781E00A02800F03C00405180
:10421A0000127A00E4A20024F40048E80190D003D6
:10422A0020A107000000004C07C206EF06980720ED
:10423A0007FE061207000000003E085008DD0F0ABC
:10424A0008380826081208000000008A0F620FDDED
:10425A000FDC0F3E0AC90A2E0A0D0A002530326405
:10426A00203D3E2025303264004D6F643A25346487
:10427A00204875623A25346425004F75743A25340E
:10428A006420496E203A2534640020202054782086
:10429A002020253464206D730020202050696E6729
:1042AA0020253464206D73000A5374617274004CC3
:1042BA006F5261204F4B004C6F5261206572726FD2
:0242CA00720080
:0642CC003E3832382A38AA
:00000001FF
