:100000003EC0000062C0000060C000005EC0000092
:100010005CC000005AC0000058C0000056C000007C
:1000200054C0000052C0000050C000004EC000008C
:100030004CC000004AC0000048C0000075C100006C
:1000400044C0000042C0000040C000003EC00000AC
:100050003CC000003AC0000038C0000036C00000BC
:1000600034C0000032C0000030C000002EC00000CC
:100070002CC000002AC0000028C00000400211244B
:100080001FBECFEFCDBFDFE3DEBF80914000809386
:100090004000811105C098ED21E094BF20934100FC
:1000A0008CBB28E3A0E0B8E301C01D92A832B207E0
:1000B000E1F710E0CFE3D0E003C02197FE0124D2A6
:1000C000CE33D107D1F761D134C29ACF20911A38FB
:1000D000222349F030E0269FA001279F500D369F34
:1000E000500D1124652FE091203880911B3890919C
:1000F0001C3820911D38E21721F0E80FF92FF11D6F
:100100001082E0911D38E80FF92FF11D1082E09167
:100110001E38E80FF92FF11D108220911F38820F31
:10012000911DFC01608308959FB7F89488E0809347
:10013000840A80918E0A81FFFCCF80918D0AE09124
:10014000A20AF091A30A2091093830910A3840910F
:100150000B3850910C389FBF80FF07C0E730F10586
:1001600020F42F5F3F4F4F4F5F4FAEEFB1E0C2D152
:100170006E0F7F1F811D911D660F771F881F991FAE
:1001800008950F931F93CF93DF93CDB7DEB72797D3
:10019000CDBFDEBF809115389091163889839A8340
:1001A00080911B3890911C38892B09F48BC0809169
:1001B000193882310CF086C0B7DF009121381091D8
:1001C00022382091233830912438AB01BC01401BE8
:1001D000510B620B730B8091173890911838B0E077
:1001E000A0E0481759076A077B0730F3F894A091FD
:1001F0001B38B0911C38FD0131968C918F831B8286
:10020000A0912538B09126389C9180912738982B61
:100210009E839C91809589238D838D818C838F8192
:1002200087FF02C08E818C835E816D814F813C810E
:100230002B8189819A815C933C93262F46FD252F43
:100240006C9300005C932C93362F45FD352F6C93F7
:1002500000005C933C93262F44FD252F6C930000F7
:100260005C932C93362F43FD352F6C9300005C93E9
:100270003C93262F42FD252F6C9381505C932C9349
:10028000362F41FD352F6C9391095C933C93262FBB
:1002900040FD252F6C9341915C932C93362F47FDA5
:1002A000352F6C9341F64F833C832B8389839A834C
:1002B00078943ADF60932138709322388093233802
:1002C000909324382796CDBFDEBFDF91CF911F9149
:1002D0000F910895CF92DF92EF92FF92CF93DF9329
:1002E0006B017C0121DFEB011FDF6C1B7D0B683E86
:1002F0007340A0F0C114D104E104F10439F4DF919A
:10030000CF91FF90EF90DF90CF90089581E0C81AD1
:10031000D108E108F108C851DC4FE6CFC114D1047F
:10032000E104F10409F7EBCF8F9381E080938D0A0C
:100330008FB78F93EF93FF93E9E0F8E39F9368946F
:100340008FEF0FC0E894848195818C5E9F4F8483EA
:100350009583885E934010F08FEF03C0848395836C
:100360008EEF9081981B919390819F4F91939081F4
:100370009F4F919390819F4F919326F39F91FF916F
:10038000EF918F918FBF8F91189588ED93E084BF87
:1003900090936100E0E0F6E081E582838AE0858366
:1003A00080E2838381E08083109202028093030ABB
:1003B0009EEF9093260A9093270A99E09093000A63
:1003C000E0E8FAE02DEF31E026A737A7118290E8A8
:1003D0009283848781E18083789484E080934104D0
:1003E00080915204877F8093520460911A386B3059
:1003F00029F120911B3830911C386150C9F070E010
:100400008FEF9AE063D0F90140911538509116387A
:10041000CF01821B930B8417950768F4DF014D9180
:10042000469FC001479F900D11249083FD01ECCFA2
:1004300070E060E0E8CF8BE080931A388091133849
:1004400090911438892B29F060E870E080E090E00A
:100450003DDE97DE64E670E080E090E03BDF809177
:10046000133890911438892B21F060E070E0CB01B3
:100470002DDE87DE64E873E080E090E02BDFDECFE6
:10048000E3E1F8E382E390E084839583178280E0E0
:1004900098E38087918716861786108A118A81E0F3
:1004A00085878287138682E0848789E090E0828353
:1004B000938383E090E0808391838CE0868384E45F
:1004C00094E0828B938B84E0848B0895AA1BBB1BE2
:1004D00051E107C0AA1FBB1FA617B70710F0A61B44
:1004E000B70B881F991F5A95A9F780959095BC0165
:1004F000CD0108950FD0A59F900DB49F900DA49F9E
:10050000800D911D11240895EE0FFF1F0590F491A9
:10051000E02D0994A29FB001B39FC001A39F700D6D
:10052000811D1124911DB29F700D811D1124911DFB
:060530000895F894FFCFCE
:00000001FF
