:100000003DC0000057C0000055C0000053C00000B4
:1000100051C000004FC000004DC000004BC00000A8
:1000200049C0000047C0000045C0000043C00000B8
:1000300041C000003FC000003DC0000096C000006D
:1000400039C0000037C0000035C0000033C00000D8
:1000500031C000002FC000002DC000002BC00000E8
:1000600029C0000027C0000025C0000023C00000F8
:1000700021C000001FC000001DC0000011241FBED1
:10008000CFEFCDBFDFE3DEBF809140008093400023
:10009000811105C098ED21E094BF209341008CBBF5
:1000A00028E3A0E0B8E301C01D92AA30B207E1F74F
:1000B0008DD0D7C0A5CF9FB7F89488E08093840AED
:1000C00080918E0A81FFFCCF80918D0AE091A20A77
:1000D000F091A30A20910038309101384091023804
:1000E000509103389FBF80FF07C0E730F10520F42F
:1000F0002F5F3F4F4F4F5F4FAEEFB1E099D06E0F84
:100100007F1F811D911D22E0660F771F881F991F99
:100110002A95D1F70895CF92DF92EF92FF92CF9375
:10012000DF936B017C01C7DFEB01C5DF6C1B7D0B2F
:10013000683E7340A0F0C114D104E104F10439F425
:10014000DF91CF91FF90EF90DF90CF90089581E005
:10015000C81AD108E108F108C851DC4FE6CFC11434
:10016000D104E104F10409F7EBCF8F9381E0809390
:100170008D0A8FB78F93EF93FF93E0E0F8E39F939F
:1001800068948FEF0FC0E89484819581885D9F4FBC
:1001900084839583885E934010F08EEF03C0848340
:1001A00095838DEF9081981B919390819F4F9193B0
:1001B00090819F4F919390819F4F919326F39F91B0
:1001C000FF91EF918F918FBF8F91189597E088EDF8
:1001D00084BF90936100E0E0F6E080E582838AE0EE
:1001E000858380E2838381E0808310920202809382
:1001F000030A2EEF2093260A2093270A9093000AE1
:10020000E0E8FAE02DEF31E026A737A7118290E869
:100210009283848783E18083789464E670E080E051
:1002200090E079DF64E873E080E090E074DFF5CF80
:1002300009D0A59F900DB49F900DA49F800D911D96
:1002400011240895A29FB001B39FC001A39F700D18
:10025000811D1124911DB29F700D811D1124911DCE
:060260000895F894FFCFA1
:00000001FF
